{
	"src/StakingContract.sol": {
		"StakingContract": {
			"abi": [
				{
					"inputs": [
						{
							"internalType": "contract IERC20",
							"name": "_basicToken",
							"type": "address"
						},
						{
							"internalType": "uint256",
							"name": "_rewardRate",
							"type": "uint256"
						},
						{
							"internalType": "uint256",
							"name": "_emissionStart",
							"type": "uint256"
						},
						{
							"internalType": "uint256",
							"name": "_emissionDuration",
							"type": "uint256"
						}
					],
					"stateMutability": "nonpayable",
					"type": "constructor"
				},
				{
					"inputs": [
						{
							"internalType": "address",
							"name": "owner",
							"type": "address"
						}
					],
					"name": "OwnableInvalidOwner",
					"type": "error"
				},
				{
					"inputs": [
						{
							"internalType": "address",
							"name": "account",
							"type": "address"
						}
					],
					"name": "OwnableUnauthorizedAccount",
					"type": "error"
				},
				{
					"inputs": [],
					"name": "ReentrancyGuardReentrantCall",
					"type": "error"
				},
				{
					"anonymous": false,
					"inputs": [
						{
							"indexed": false,
							"internalType": "uint256",
							"name": "newEmissionEnd",
							"type": "uint256"
						}
					],
					"name": "EmissionsUpdated",
					"type": "event"
				},
				{
					"anonymous": false,
					"inputs": [
						{
							"indexed": true,
							"internalType": "address",
							"name": "previousOwner",
							"type": "address"
						},
						{
							"indexed": true,
							"internalType": "address",
							"name": "newOwner",
							"type": "address"
						}
					],
					"name": "OwnershipTransferred",
					"type": "event"
				},
				{
					"anonymous": false,
					"inputs": [
						{
							"indexed": true,
							"internalType": "address",
							"name": "user",
							"type": "address"
						},
						{
							"indexed": false,
							"internalType": "uint256",
							"name": "reward",
							"type": "uint256"
						}
					],
					"name": "RewardPaid",
					"type": "event"
				},
				{
					"anonymous": false,
					"inputs": [
						{
							"indexed": true,
							"internalType": "address",
							"name": "user",
							"type": "address"
						},
						{
							"indexed": false,
							"internalType": "uint256",
							"name": "amount",
							"type": "uint256"
						}
					],
					"name": "Staked",
					"type": "event"
				},
				{
					"anonymous": false,
					"inputs": [
						{
							"indexed": true,
							"internalType": "address",
							"name": "user",
							"type": "address"
						}
					],
					"name": "UnstakeInitiated",
					"type": "event"
				},
				{
					"anonymous": false,
					"inputs": [
						{
							"indexed": true,
							"internalType": "address",
							"name": "user",
							"type": "address"
						},
						{
							"indexed": false,
							"internalType": "uint256",
							"name": "amount",
							"type": "uint256"
						}
					],
					"name": "Unstaked",
					"type": "event"
				},
				{
					"inputs": [],
					"name": "basicToken",
					"outputs": [
						{
							"internalType": "contract IERC20",
							"name": "",
							"type": "address"
						}
					],
					"stateMutability": "view",
					"type": "function"
				},
				{
					"inputs": [],
					"name": "claimReward",
					"outputs": [],
					"stateMutability": "nonpayable",
					"type": "function"
				},
				{
					"inputs": [],
					"name": "completeUnstake",
					"outputs": [],
					"stateMutability": "nonpayable",
					"type": "function"
				},
				{
					"inputs": [
						{
							"internalType": "address",
							"name": "account",
							"type": "address"
						}
					],
					"name": "earned",
					"outputs": [
						{
							"internalType": "uint256",
							"name": "",
							"type": "uint256"
						}
					],
					"stateMutability": "view",
					"type": "function"
				},
				{
					"inputs": [],
					"name": "emissionEnd",
					"outputs": [
						{
							"internalType": "uint256",
							"name": "",
							"type": "uint256"
						}
					],
					"stateMutability": "view",
					"type": "function"
				},
				{
					"inputs": [],
					"name": "emissionStart",
					"outputs": [
						{
							"internalType": "uint256",
							"name": "",
							"type": "uint256"
						}
					],
					"stateMutability": "view",
					"type": "function"
				},
				{
					"inputs": [],
					"name": "feesAccrued",
					"outputs": [
						{
							"internalType": "uint256",
							"name": "",
							"type": "uint256"
						}
					],
					"stateMutability": "view",
					"type": "function"
				},
				{
					"inputs": [
						{
							"internalType": "address",
							"name": "_staker",
							"type": "address"
						}
					],
					"name": "getRemainingUnstakeTime",
					"outputs": [
						{
							"internalType": "uint256",
							"name": "",
							"type": "uint256"
						}
					],
					"stateMutability": "view",
					"type": "function"
				},
				{
					"inputs": [],
					"name": "initiateUnstake",
					"outputs": [],
					"stateMutability": "nonpayable",
					"type": "function"
				},
				{
					"inputs": [],
					"name": "lastApplicableTime",
					"outputs": [
						{
							"internalType": "uint256",
							"name": "",
							"type": "uint256"
						}
					],
					"stateMutability": "view",
					"type": "function"
				},
				{
					"inputs": [],
					"name": "lastUpdateTime",
					"outputs": [
						{
							"internalType": "uint256",
							"name": "",
							"type": "uint256"
						}
					],
					"stateMutability": "view",
					"type": "function"
				},
				{
					"inputs": [],
					"name": "owner",
					"outputs": [
						{
							"internalType": "address",
							"name": "",
							"type": "address"
						}
					],
					"stateMutability": "view",
					"type": "function"
				},
				{
					"inputs": [],
					"name": "renounceOwnership",
					"outputs": [],
					"stateMutability": "nonpayable",
					"type": "function"
				},
				{
					"inputs": [
						{
							"internalType": "address",
							"name": "tokenAddress",
							"type": "address"
						},
						{
							"internalType": "uint256",
							"name": "amount",
							"type": "uint256"
						}
					],
					"name": "retrieveLockedTokens",
					"outputs": [],
					"stateMutability": "nonpayable",
					"type": "function"
				},
				{
					"inputs": [],
					"name": "rewardPerToken",
					"outputs": [
						{
							"internalType": "uint256",
							"name": "",
							"type": "uint256"
						}
					],
					"stateMutability": "view",
					"type": "function"
				},
				{
					"inputs": [],
					"name": "rewardPerTokenStored",
					"outputs": [
						{
							"internalType": "uint256",
							"name": "",
							"type": "uint256"
						}
					],
					"stateMutability": "view",
					"type": "function"
				},
				{
					"inputs": [],
					"name": "rewardRate",
					"outputs": [
						{
							"internalType": "uint256",
							"name": "",
							"type": "uint256"
						}
					],
					"stateMutability": "view",
					"type": "function"
				},
				{
					"inputs": [
						{
							"internalType": "uint256",
							"name": "_emissionDuration",
							"type": "uint256"
						}
					],
					"name": "setEmissionDetails",
					"outputs": [],
					"stateMutability": "nonpayable",
					"type": "function"
				},
				{
					"inputs": [
						{
							"internalType": "uint256",
							"name": "_newFee",
							"type": "uint256"
						}
					],
					"name": "setUnstakeFeePercent",
					"outputs": [],
					"stateMutability": "nonpayable",
					"type": "function"
				},
				{
					"inputs": [
						{
							"internalType": "uint256",
							"name": "_newTimeLock",
							"type": "uint256"
						}
					],
					"name": "setUnstakeTimeLock",
					"outputs": [],
					"stateMutability": "nonpayable",
					"type": "function"
				},
				{
					"inputs": [
						{
							"internalType": "uint256",
							"name": "_amount",
							"type": "uint256"
						}
					],
					"name": "stake",
					"outputs": [],
					"stateMutability": "nonpayable",
					"type": "function"
				},
				{
					"inputs": [
						{
							"internalType": "address",
							"name": "",
							"type": "address"
						}
					],
					"name": "stakers",
					"outputs": [
						{
							"internalType": "uint256",
							"name": "amountStaked",
							"type": "uint256"
						},
						{
							"internalType": "uint256",
							"name": "rewardDebt",
							"type": "uint256"
						},
						{
							"internalType": "uint256",
							"name": "rewards",
							"type": "uint256"
						},
						{
							"internalType": "uint256",
							"name": "unstakeInitTime",
							"type": "uint256"
						},
						{
							"internalType": "bool",
							"name": "claimedAfterUnstake",
							"type": "bool"
						}
					],
					"stateMutability": "view",
					"type": "function"
				},
				{
					"inputs": [],
					"name": "totalStaked",
					"outputs": [
						{
							"internalType": "uint256",
							"name": "",
							"type": "uint256"
						}
					],
					"stateMutability": "view",
					"type": "function"
				},
				{
					"inputs": [],
					"name": "totalStakedAccruingRewards",
					"outputs": [
						{
							"internalType": "uint256",
							"name": "",
							"type": "uint256"
						}
					],
					"stateMutability": "view",
					"type": "function"
				},
				{
					"inputs": [
						{
							"internalType": "address",
							"name": "newOwner",
							"type": "address"
						}
					],
					"name": "transferOwnership",
					"outputs": [],
					"stateMutability": "nonpayable",
					"type": "function"
				},
				{
					"inputs": [],
					"name": "unstakeFeePercent",
					"outputs": [
						{
							"internalType": "uint256",
							"name": "",
							"type": "uint256"
						}
					],
					"stateMutability": "view",
					"type": "function"
				},
				{
					"inputs": [],
					"name": "unstakeTimeLock",
					"outputs": [
						{
							"internalType": "uint256",
							"name": "",
							"type": "uint256"
						}
					],
					"stateMutability": "view",
					"type": "function"
				},
				{
					"inputs": [
						{
							"internalType": "uint256",
							"name": "amount",
							"type": "uint256"
						}
					],
					"name": "withdrawFees",
					"outputs": [],
					"stateMutability": "nonpayable",
					"type": "function"
				}
			],
			"devdoc": {
				"errors": {
					"OwnableInvalidOwner(address)": [
						{
							"details": "The owner is not a valid owner account. (eg. `address(0)`)"
						}
					],
					"OwnableUnauthorizedAccount(address)": [
						{
							"details": "The caller account is not authorized to perform an operation."
						}
					],
					"ReentrancyGuardReentrantCall()": [
						{
							"details": "Unauthorized reentrant call."
						}
					]
				},
				"kind": "dev",
				"methods": {
					"owner()": {
						"details": "Returns the address of the current owner."
					},
					"renounceOwnership()": {
						"details": "Leaves the contract without owner. It will not be possible to call `onlyOwner` functions. Can only be called by the current owner. NOTE: Renouncing ownership will leave the contract without an owner, thereby disabling any functionality that is only available to the owner."
					},
					"transferOwnership(address)": {
						"details": "Transfers ownership of the contract to a new account (`newOwner`). Can only be called by the current owner."
					}
				},
				"version": 1
			},
			"evm": {
				"assembly": "    /* \"src/StakingContract.sol\":236:7908  contract StakingContract is ReentrancyGuard, Ownable {... */\n  mstore(0x40, 0x80)\n    /* \"src/StakingContract.sol\":592:598  7 days */\n  0x093a80\n    /* \"src/StakingContract.sol\":559:598  uint256 public unstakeTimeLock = 7 days */\n  0x08\n  sstore\n    /* \"src/StakingContract.sol\":675:676  0 */\n  0x00\n    /* \"src/StakingContract.sol\":640:676  uint256 public unstakeFeePercent = 0 */\n  0x09\n  sstore\n    /* \"src/StakingContract.sol\":2089:2390  constructor(IERC20 _basicToken, uint256 _rewardRate, uint256 _emissionStart, uint256 _emissionDuration) Ownable(msg.sender) {... */\n  callvalue\n  dup1\n  iszero\n  tag_1\n  jumpi\n  0x00\n  dup1\n  revert\ntag_1:\n  pop\n  mload(0x40)\n  sub(codesize, bytecodeSize)\n  dup1\n  bytecodeSize\n  dup4\n  codecopy\n  dup2\n  dup2\n  add\n  0x40\n  mstore\n  dup2\n  add\n  swap1\n  tag_2\n  swap2\n  swap1\n  tag_3\n  jump\t// in\ntag_2:\n    /* \"src/StakingContract.sol\":2201:2211  msg.sender */\n  caller\n    /* \"@openzeppelin/contracts/utils/ReentrancyGuard.sol\":1713:1714  1 */\n  0x01\n    /* \"@openzeppelin/contracts/utils/ReentrancyGuard.sol\":1917:1924  _status */\n  0x00\n    /* \"@openzeppelin/contracts/utils/ReentrancyGuard.sol\":1917:1938  _status = NOT_ENTERED */\n  dup2\n  swap1\n  sstore\n  pop\n    /* \"@openzeppelin/contracts/access/Ownable.sol\":1297:1298  0 */\n  0x00\n    /* \"@openzeppelin/contracts/access/Ownable.sol\":1273:1299  initialOwner == address(0) */\n  0xffffffffffffffffffffffffffffffffffffffff\n  and\n    /* \"@openzeppelin/contracts/access/Ownable.sol\":1273:1285  initialOwner */\n  dup2\n    /* \"@openzeppelin/contracts/access/Ownable.sol\":1273:1299  initialOwner == address(0) */\n  0xffffffffffffffffffffffffffffffffffffffff\n  and\n  sub\n    /* \"@openzeppelin/contracts/access/Ownable.sol\":1269:1364  if (initialOwner == address(0)) {... */\n  tag_9\n  jumpi\n    /* \"@openzeppelin/contracts/access/Ownable.sol\":1350:1351  0 */\n  0x00\n    /* \"@openzeppelin/contracts/access/Ownable.sol\":1322:1353  OwnableInvalidOwner(address(0)) */\n  mload(0x40)\n  0x1e4fbdf700000000000000000000000000000000000000000000000000000000\n  dup2\n  mstore\n  0x04\n  add\n  tag_10\n  swap2\n  swap1\n  tag_11\n  jump\t// in\ntag_10:\n  mload(0x40)\n  dup1\n  swap2\n  sub\n  swap1\n  revert\n    /* \"@openzeppelin/contracts/access/Ownable.sol\":1269:1364  if (initialOwner == address(0)) {... */\ntag_9:\n    /* \"@openzeppelin/contracts/access/Ownable.sol\":1373:1405  _transferOwnership(initialOwner) */\n  tag_12\n    /* \"@openzeppelin/contracts/access/Ownable.sol\":1392:1404  initialOwner */\n  dup2\n    /* \"@openzeppelin/contracts/access/Ownable.sol\":1373:1391  _transferOwnership */\n  shl(0x20, tag_13)\n    /* \"@openzeppelin/contracts/access/Ownable.sol\":1373:1405  _transferOwnership(initialOwner) */\n  0x20\n  shr\n  jump\t// in\ntag_12:\n    /* \"@openzeppelin/contracts/access/Ownable.sol\":1225:1412  constructor(address initialOwner) {... */\n  pop\n    /* \"src/StakingContract.sol\":2237:2248  _basicToken */\n  dup4\n    /* \"src/StakingContract.sol\":2224:2234  basicToken */\n  0x02\n  0x00\n    /* \"src/StakingContract.sol\":2224:2248  basicToken = _basicToken */\n  0x0100\n  exp\n  dup2\n  sload\n  dup2\n  0xffffffffffffffffffffffffffffffffffffffff\n  mul\n  not\n  and\n  swap1\n  dup4\n  0xffffffffffffffffffffffffffffffffffffffff\n  and\n  mul\n  or\n  swap1\n  sstore\n  pop\n    /* \"src/StakingContract.sol\":2272:2283  _rewardRate */\n  dup3\n    /* \"src/StakingContract.sol\":2259:2269  rewardRate */\n  0x05\n    /* \"src/StakingContract.sol\":2259:2283  rewardRate = _rewardRate */\n  dup2\n  swap1\n  sstore\n  pop\n    /* \"src/StakingContract.sol\":2310:2324  _emissionStart */\n  dup2\n    /* \"src/StakingContract.sol\":2294:2307  emissionStart */\n  0x0a\n    /* \"src/StakingContract.sol\":2294:2324  emissionStart = _emissionStart */\n  dup2\n  swap1\n  sstore\n  pop\n    /* \"src/StakingContract.sol\":2365:2382  _emissionDuration */\n  dup1\n    /* \"src/StakingContract.sol\":2349:2362  emissionStart */\n  sload(0x0a)\n    /* \"src/StakingContract.sol\":2349:2382  emissionStart + _emissionDuration */\n  tag_15\n  swap2\n  swap1\n  tag_16\n  jump\t// in\ntag_15:\n    /* \"src/StakingContract.sol\":2335:2346  emissionEnd */\n  0x0b\n    /* \"src/StakingContract.sol\":2335:2382  emissionEnd = emissionStart + _emissionDuration */\n  dup2\n  swap1\n  sstore\n  pop\n    /* \"src/StakingContract.sol\":2089:2390  constructor(IERC20 _basicToken, uint256 _rewardRate, uint256 _emissionStart, uint256 _emissionDuration) Ownable(msg.sender) {... */\n  pop\n  pop\n  pop\n  pop\n    /* \"src/StakingContract.sol\":236:7908  contract StakingContract is ReentrancyGuard, Ownable {... */\n  jump(tag_17)\n    /* \"@openzeppelin/contracts/access/Ownable.sol\":2912:3099  function _transferOwnership(address newOwner) internal virtual {... */\ntag_13:\n    /* \"@openzeppelin/contracts/access/Ownable.sol\":2985:3001  address oldOwner */\n  0x00\n    /* \"@openzeppelin/contracts/access/Ownable.sol\":3004:3010  _owner */\n  0x01\n  0x00\n  swap1\n  sload\n  swap1\n  0x0100\n  exp\n  swap1\n  div\n  0xffffffffffffffffffffffffffffffffffffffff\n  and\n    /* \"@openzeppelin/contracts/access/Ownable.sol\":2985:3010  address oldOwner = _owner */\n  swap1\n  pop\n    /* \"@openzeppelin/contracts/access/Ownable.sol\":3029:3037  newOwner */\n  dup2\n    /* \"@openzeppelin/contracts/access/Ownable.sol\":3020:3026  _owner */\n  0x01\n  0x00\n    /* \"@openzeppelin/contracts/access/Ownable.sol\":3020:3037  _owner = newOwner */\n  0x0100\n  exp\n  dup2\n  sload\n  dup2\n  0xffffffffffffffffffffffffffffffffffffffff\n  mul\n  not\n  and\n  swap1\n  dup4\n  0xffffffffffffffffffffffffffffffffffffffff\n  and\n  mul\n  or\n  swap1\n  sstore\n  pop\n    /* \"@openzeppelin/contracts/access/Ownable.sol\":3083:3091  newOwner */\n  dup2\n    /* \"@openzeppelin/contracts/access/Ownable.sol\":3052:3092  OwnershipTransferred(oldOwner, newOwner) */\n  0xffffffffffffffffffffffffffffffffffffffff\n  and\n    /* \"@openzeppelin/contracts/access/Ownable.sol\":3073:3081  oldOwner */\n  dup2\n    /* \"@openzeppelin/contracts/access/Ownable.sol\":3052:3092  OwnershipTransferred(oldOwner, newOwner) */\n  0xffffffffffffffffffffffffffffffffffffffff\n  and\n  0x8be0079c531659141344cd1fd0a4f28419497f9722a3daafe3b4186f6b6457e0\n  mload(0x40)\n  mload(0x40)\n  dup1\n  swap2\n  sub\n  swap1\n  log3\n    /* \"@openzeppelin/contracts/access/Ownable.sol\":2975:3099  {... */\n  pop\n    /* \"@openzeppelin/contracts/access/Ownable.sol\":2912:3099  function _transferOwnership(address newOwner) internal virtual {... */\n  pop\n  jump\t// out\n    /* \"#utility.yul\":88:205   */\ntag_20:\n    /* \"#utility.yul\":197:198   */\n  0x00\n    /* \"#utility.yul\":194:195   */\n  dup1\n    /* \"#utility.yul\":187:199   */\n  revert\n    /* \"#utility.yul\":334:460   */\ntag_22:\n    /* \"#utility.yul\":371:378   */\n  0x00\n    /* \"#utility.yul\":411:453   */\n  0xffffffffffffffffffffffffffffffffffffffff\n    /* \"#utility.yul\":404:409   */\n  dup3\n    /* \"#utility.yul\":400:454   */\n  and\n    /* \"#utility.yul\":389:454   */\n  swap1\n  pop\n    /* \"#utility.yul\":334:460   */\n  swap2\n  swap1\n  pop\n  jump\t// out\n    /* \"#utility.yul\":466:562   */\ntag_23:\n    /* \"#utility.yul\":503:510   */\n  0x00\n    /* \"#utility.yul\":532:556   */\n  tag_38\n    /* \"#utility.yul\":550:555   */\n  dup3\n    /* \"#utility.yul\":532:556   */\n  tag_22\n  jump\t// in\ntag_38:\n    /* \"#utility.yul\":521:556   */\n  swap1\n  pop\n    /* \"#utility.yul\":466:562   */\n  swap2\n  swap1\n  pop\n  jump\t// out\n    /* \"#utility.yul\":568:678   */\ntag_24:\n    /* \"#utility.yul\":619:626   */\n  0x00\n    /* \"#utility.yul\":648:672   */\n  tag_40\n    /* \"#utility.yul\":666:671   */\n  dup3\n    /* \"#utility.yul\":648:672   */\n  tag_23\n  jump\t// in\ntag_40:\n    /* \"#utility.yul\":637:672   */\n  swap1\n  pop\n    /* \"#utility.yul\":568:678   */\n  swap2\n  swap1\n  pop\n  jump\t// out\n    /* \"#utility.yul\":684:834   */\ntag_25:\n    /* \"#utility.yul\":771:809   */\n  tag_42\n    /* \"#utility.yul\":803:808   */\n  dup2\n    /* \"#utility.yul\":771:809   */\n  tag_24\n  jump\t// in\ntag_42:\n    /* \"#utility.yul\":764:769   */\n  dup2\n    /* \"#utility.yul\":761:810   */\n  eq\n    /* \"#utility.yul\":751:828   */\n  tag_43\n  jumpi\n    /* \"#utility.yul\":824:825   */\n  0x00\n    /* \"#utility.yul\":821:822   */\n  dup1\n    /* \"#utility.yul\":814:826   */\n  revert\n    /* \"#utility.yul\":751:828   */\ntag_43:\n    /* \"#utility.yul\":684:834   */\n  pop\n  jump\t// out\n    /* \"#utility.yul\":840:1011   */\ntag_26:\n    /* \"#utility.yul\":911:916   */\n  0x00\n    /* \"#utility.yul\":942:948   */\n  dup2\n    /* \"#utility.yul\":936:949   */\n  mload\n    /* \"#utility.yul\":927:949   */\n  swap1\n  pop\n    /* \"#utility.yul\":958:1005   */\n  tag_45\n    /* \"#utility.yul\":999:1004   */\n  dup2\n    /* \"#utility.yul\":958:1005   */\n  tag_25\n  jump\t// in\ntag_45:\n    /* \"#utility.yul\":840:1011   */\n  swap3\n  swap2\n  pop\n  pop\n  jump\t// out\n    /* \"#utility.yul\":1017:1094   */\ntag_27:\n    /* \"#utility.yul\":1054:1061   */\n  0x00\n    /* \"#utility.yul\":1083:1088   */\n  dup2\n    /* \"#utility.yul\":1072:1088   */\n  swap1\n  pop\n    /* \"#utility.yul\":1017:1094   */\n  swap2\n  swap1\n  pop\n  jump\t// out\n    /* \"#utility.yul\":1100:1222   */\ntag_28:\n    /* \"#utility.yul\":1173:1197   */\n  tag_48\n    /* \"#utility.yul\":1191:1196   */\n  dup2\n    /* \"#utility.yul\":1173:1197   */\n  tag_27\n  jump\t// in\ntag_48:\n    /* \"#utility.yul\":1166:1171   */\n  dup2\n    /* \"#utility.yul\":1163:1198   */\n  eq\n    /* \"#utility.yul\":1153:1216   */\n  tag_49\n  jumpi\n    /* \"#utility.yul\":1212:1213   */\n  0x00\n    /* \"#utility.yul\":1209:1210   */\n  dup1\n    /* \"#utility.yul\":1202:1214   */\n  revert\n    /* \"#utility.yul\":1153:1216   */\ntag_49:\n    /* \"#utility.yul\":1100:1222   */\n  pop\n  jump\t// out\n    /* \"#utility.yul\":1228:1371   */\ntag_29:\n    /* \"#utility.yul\":1285:1290   */\n  0x00\n    /* \"#utility.yul\":1316:1322   */\n  dup2\n    /* \"#utility.yul\":1310:1323   */\n  mload\n    /* \"#utility.yul\":1301:1323   */\n  swap1\n  pop\n    /* \"#utility.yul\":1332:1365   */\n  tag_51\n    /* \"#utility.yul\":1359:1364   */\n  dup2\n    /* \"#utility.yul\":1332:1365   */\n  tag_28\n  jump\t// in\ntag_51:\n    /* \"#utility.yul\":1228:1371   */\n  swap3\n  swap2\n  pop\n  pop\n  jump\t// out\n    /* \"#utility.yul\":1377:2225   */\ntag_3:\n    /* \"#utility.yul\":1488:1494   */\n  0x00\n    /* \"#utility.yul\":1496:1502   */\n  dup1\n    /* \"#utility.yul\":1504:1510   */\n  0x00\n    /* \"#utility.yul\":1512:1518   */\n  dup1\n    /* \"#utility.yul\":1561:1564   */\n  0x80\n    /* \"#utility.yul\":1549:1558   */\n  dup6\n    /* \"#utility.yul\":1540:1547   */\n  dup8\n    /* \"#utility.yul\":1536:1559   */\n  sub\n    /* \"#utility.yul\":1532:1565   */\n  slt\n    /* \"#utility.yul\":1529:1649   */\n  iszero\n  tag_53\n  jumpi\n    /* \"#utility.yul\":1568:1647   */\n  tag_54\n  tag_20\n  jump\t// in\ntag_54:\n    /* \"#utility.yul\":1529:1649   */\ntag_53:\n    /* \"#utility.yul\":1688:1689   */\n  0x00\n    /* \"#utility.yul\":1713:1791   */\n  tag_55\n    /* \"#utility.yul\":1783:1790   */\n  dup8\n    /* \"#utility.yul\":1774:1780   */\n  dup3\n    /* \"#utility.yul\":1763:1772   */\n  dup9\n    /* \"#utility.yul\":1759:1781   */\n  add\n    /* \"#utility.yul\":1713:1791   */\n  tag_26\n  jump\t// in\ntag_55:\n    /* \"#utility.yul\":1703:1791   */\n  swap5\n  pop\n    /* \"#utility.yul\":1659:1801   */\n  pop\n    /* \"#utility.yul\":1840:1842   */\n  0x20\n    /* \"#utility.yul\":1866:1930   */\n  tag_56\n    /* \"#utility.yul\":1922:1929   */\n  dup8\n    /* \"#utility.yul\":1913:1919   */\n  dup3\n    /* \"#utility.yul\":1902:1911   */\n  dup9\n    /* \"#utility.yul\":1898:1920   */\n  add\n    /* \"#utility.yul\":1866:1930   */\n  tag_29\n  jump\t// in\ntag_56:\n    /* \"#utility.yul\":1856:1930   */\n  swap4\n  pop\n    /* \"#utility.yul\":1811:1940   */\n  pop\n    /* \"#utility.yul\":1979:1981   */\n  0x40\n    /* \"#utility.yul\":2005:2069   */\n  tag_57\n    /* \"#utility.yul\":2061:2068   */\n  dup8\n    /* \"#utility.yul\":2052:2058   */\n  dup3\n    /* \"#utility.yul\":2041:2050   */\n  dup9\n    /* \"#utility.yul\":2037:2059   */\n  add\n    /* \"#utility.yul\":2005:2069   */\n  tag_29\n  jump\t// in\ntag_57:\n    /* \"#utility.yul\":1995:2069   */\n  swap3\n  pop\n    /* \"#utility.yul\":1950:2079   */\n  pop\n    /* \"#utility.yul\":2118:2120   */\n  0x60\n    /* \"#utility.yul\":2144:2208   */\n  tag_58\n    /* \"#utility.yul\":2200:2207   */\n  dup8\n    /* \"#utility.yul\":2191:2197   */\n  dup3\n    /* \"#utility.yul\":2180:2189   */\n  dup9\n    /* \"#utility.yul\":2176:2198   */\n  add\n    /* \"#utility.yul\":2144:2208   */\n  tag_29\n  jump\t// in\ntag_58:\n    /* \"#utility.yul\":2134:2208   */\n  swap2\n  pop\n    /* \"#utility.yul\":2089:2218   */\n  pop\n    /* \"#utility.yul\":1377:2225   */\n  swap3\n  swap6\n  swap2\n  swap5\n  pop\n  swap3\n  pop\n  jump\t// out\n    /* \"#utility.yul\":2231:2349   */\ntag_30:\n    /* \"#utility.yul\":2318:2342   */\n  tag_60\n    /* \"#utility.yul\":2336:2341   */\n  dup2\n    /* \"#utility.yul\":2318:2342   */\n  tag_23\n  jump\t// in\ntag_60:\n    /* \"#utility.yul\":2313:2316   */\n  dup3\n    /* \"#utility.yul\":2306:2343   */\n  mstore\n    /* \"#utility.yul\":2231:2349   */\n  pop\n  pop\n  jump\t// out\n    /* \"#utility.yul\":2355:2577   */\ntag_11:\n    /* \"#utility.yul\":2448:2452   */\n  0x00\n    /* \"#utility.yul\":2486:2488   */\n  0x20\n    /* \"#utility.yul\":2475:2484   */\n  dup3\n    /* \"#utility.yul\":2471:2489   */\n  add\n    /* \"#utility.yul\":2463:2489   */\n  swap1\n  pop\n    /* \"#utility.yul\":2499:2570   */\n  tag_62\n    /* \"#utility.yul\":2567:2568   */\n  0x00\n    /* \"#utility.yul\":2556:2565   */\n  dup4\n    /* \"#utility.yul\":2552:2569   */\n  add\n    /* \"#utility.yul\":2543:2549   */\n  dup5\n    /* \"#utility.yul\":2499:2570   */\n  tag_30\n  jump\t// in\ntag_62:\n    /* \"#utility.yul\":2355:2577   */\n  swap3\n  swap2\n  pop\n  pop\n  jump\t// out\n    /* \"#utility.yul\":2583:2763   */\ntag_31:\n    /* \"#utility.yul\":2631:2708   */\n  0x4e487b7100000000000000000000000000000000000000000000000000000000\n    /* \"#utility.yul\":2628:2629   */\n  0x00\n    /* \"#utility.yul\":2621:2709   */\n  mstore\n    /* \"#utility.yul\":2728:2732   */\n  0x11\n    /* \"#utility.yul\":2725:2726   */\n  0x04\n    /* \"#utility.yul\":2718:2733   */\n  mstore\n    /* \"#utility.yul\":2752:2756   */\n  0x24\n    /* \"#utility.yul\":2749:2750   */\n  0x00\n    /* \"#utility.yul\":2742:2757   */\n  revert\n    /* \"#utility.yul\":2769:2960   */\ntag_16:\n    /* \"#utility.yul\":2809:2812   */\n  0x00\n    /* \"#utility.yul\":2828:2848   */\n  tag_65\n    /* \"#utility.yul\":2846:2847   */\n  dup3\n    /* \"#utility.yul\":2828:2848   */\n  tag_27\n  jump\t// in\ntag_65:\n    /* \"#utility.yul\":2823:2848   */\n  swap2\n  pop\n    /* \"#utility.yul\":2862:2882   */\n  tag_66\n    /* \"#utility.yul\":2880:2881   */\n  dup4\n    /* \"#utility.yul\":2862:2882   */\n  tag_27\n  jump\t// in\ntag_66:\n    /* \"#utility.yul\":2857:2882   */\n  swap3\n  pop\n    /* \"#utility.yul\":2905:2906   */\n  dup3\n    /* \"#utility.yul\":2902:2903   */\n  dup3\n    /* \"#utility.yul\":2898:2907   */\n  add\n    /* \"#utility.yul\":2891:2907   */\n  swap1\n  pop\n    /* \"#utility.yul\":2926:2929   */\n  dup1\n    /* \"#utility.yul\":2923:2924   */\n  dup3\n    /* \"#utility.yul\":2920:2930   */\n  gt\n    /* \"#utility.yul\":2917:2953   */\n  iszero\n  tag_67\n  jumpi\n    /* \"#utility.yul\":2933:2951   */\n  tag_68\n  tag_31\n  jump\t// in\ntag_68:\n    /* \"#utility.yul\":2917:2953   */\ntag_67:\n    /* \"#utility.yul\":2769:2960   */\n  swap3\n  swap2\n  pop\n  pop\n  jump\t// out\n    /* \"src/StakingContract.sol\":236:7908  contract StakingContract is ReentrancyGuard, Ownable {... */\ntag_17:\n  dataSize(sub_0)\n  dup1\n  dataOffset(sub_0)\n  0x00\n  codecopy\n  0x00\n  return\nstop\n\nsub_0: assembly {\n        /* \"src/StakingContract.sol\":236:7908  contract StakingContract is ReentrancyGuard, Ownable {... */\n      mstore(0x40, 0x80)\n      callvalue\n      dup1\n      iszero\n      tag_1\n      jumpi\n      0x00\n      dup1\n      revert\n    tag_1:\n      pop\n      jumpi(tag_2, lt(calldatasize, 0x04))\n      shr(0xe0, calldataload(0x00))\n      dup1\n      0x817b1cd2\n      gt\n      tag_31\n      jumpi\n      dup1\n      0xb293e8d2\n      gt\n      tag_32\n      jumpi\n      dup1\n      0xc8f33c91\n      gt\n      tag_33\n      jumpi\n      dup1\n      0xc8f33c91\n      eq\n      tag_27\n      jumpi\n      dup1\n      0xcd3daf9d\n      eq\n      tag_28\n      jumpi\n      dup1\n      0xdf136d65\n      eq\n      tag_29\n      jumpi\n      dup1\n      0xf2fde38b\n      eq\n      tag_30\n      jumpi\n      jump(tag_2)\n    tag_33:\n      dup1\n      0xb293e8d2\n      eq\n      tag_24\n      jumpi\n      dup1\n      0xb88a802f\n      eq\n      tag_25\n      jumpi\n      dup1\n      0xb9d1a32b\n      eq\n      tag_26\n      jumpi\n      jump(tag_2)\n    tag_32:\n      dup1\n      0x9168ae72\n      gt\n      tag_34\n      jumpi\n      dup1\n      0x9168ae72\n      eq\n      tag_20\n      jumpi\n      dup1\n      0x94db0595\n      eq\n      tag_21\n      jumpi\n      dup1\n      0xa694fc3a\n      eq\n      tag_22\n      jumpi\n      dup1\n      0xa7dc23c0\n      eq\n      tag_23\n      jumpi\n      jump(tag_2)\n    tag_34:\n      dup1\n      0x817b1cd2\n      eq\n      tag_17\n      jumpi\n      dup1\n      0x8368909c\n      eq\n      tag_18\n      jumpi\n      dup1\n      0x8da5cb5b\n      eq\n      tag_19\n      jumpi\n      jump(tag_2)\n    tag_31:\n      dup1\n      0x3a851f02\n      gt\n      tag_35\n      jumpi\n      dup1\n      0x5e318e07\n      gt\n      tag_36\n      jumpi\n      dup1\n      0x5e318e07\n      eq\n      tag_13\n      jumpi\n      dup1\n      0x63803b23\n      eq\n      tag_14\n      jumpi\n      dup1\n      0x715018a6\n      eq\n      tag_15\n      jumpi\n      dup1\n      0x7b0a47ee\n      eq\n      tag_16\n      jumpi\n      jump(tag_2)\n    tag_36:\n      dup1\n      0x3a851f02\n      eq\n      tag_10\n      jumpi\n      dup1\n      0x513da948\n      eq\n      tag_11\n      jumpi\n      dup1\n      0x5212cca8\n      eq\n      tag_12\n      jumpi\n      jump(tag_2)\n    tag_35:\n      dup1\n      0x23fac263\n      gt\n      tag_37\n      jumpi\n      dup1\n      0x23fac263\n      eq\n      tag_6\n      jumpi\n      dup1\n      0x2bce9f85\n      eq\n      tag_7\n      jumpi\n      dup1\n      0x2c1dcecf\n      eq\n      tag_8\n      jumpi\n      dup1\n      0x33080a12\n      eq\n      tag_9\n      jumpi\n      jump(tag_2)\n    tag_37:\n      dup1\n      0x8cc262\n      eq\n      tag_3\n      jumpi\n      dup1\n      0x0976769d\n      eq\n      tag_4\n      jumpi\n      dup1\n      0x190b8dc5\n      eq\n      tag_5\n      jumpi\n    tag_2:\n      0x00\n      dup1\n      revert\n        /* \"src/StakingContract.sol\":2881:3328  function earned(address account) public view returns (uint256) {... */\n    tag_3:\n      tag_38\n      0x04\n      dup1\n      calldatasize\n      sub\n      dup2\n      add\n      swap1\n      tag_39\n      swap2\n      swap1\n      tag_40\n      jump\t// in\n    tag_39:\n      tag_41\n      jump\t// in\n    tag_38:\n      mload(0x40)\n      tag_42\n      swap2\n      swap1\n      tag_43\n      jump\t// in\n    tag_42:\n      mload(0x40)\n      dup1\n      swap2\n      sub\n      swap1\n      return\n        /* \"src/StakingContract.sol\":362:403  uint256 public totalStakedAccruingRewards */\n    tag_4:\n      tag_44\n      tag_45\n      jump\t// in\n    tag_44:\n      mload(0x40)\n      tag_46\n      swap2\n      swap1\n      tag_43\n      jump\t// in\n    tag_46:\n      mload(0x40)\n      dup1\n      swap2\n      sub\n      swap1\n      return\n        /* \"src/StakingContract.sol\":296:320  IERC20 public basicToken */\n    tag_5:\n      tag_47\n      tag_48\n      jump\t// in\n    tag_47:\n      mload(0x40)\n      tag_49\n      swap2\n      swap1\n      tag_50\n      jump\t// in\n    tag_49:\n      mload(0x40)\n      dup1\n      swap2\n      sub\n      swap1\n      return\n        /* \"src/StakingContract.sol\":2398:2545  function lastApplicableTime() public view returns (uint256) {... */\n    tag_6:\n      tag_51\n      tag_52\n      jump\t// in\n    tag_51:\n      mload(0x40)\n      tag_53\n      swap2\n      swap1\n      tag_43\n      jump\t// in\n    tag_53:\n      mload(0x40)\n      dup1\n      swap2\n      sub\n      swap1\n      return\n        /* \"src/StakingContract.sol\":640:676  uint256 public unstakeFeePercent = 0 */\n    tag_7:\n      tag_54\n      tag_55\n      jump\t// in\n    tag_54:\n      mload(0x40)\n      tag_56\n      swap2\n      swap1\n      tag_43\n      jump\t// in\n    tag_56:\n      mload(0x40)\n      dup1\n      swap2\n      sub\n      swap1\n      return\n        /* \"src/StakingContract.sol\":559:598  uint256 public unstakeTimeLock = 7 days */\n    tag_8:\n      tag_57\n      tag_58\n      jump\t// in\n    tag_57:\n      mload(0x40)\n      tag_59\n      swap2\n      swap1\n      tag_43\n      jump\t// in\n    tag_59:\n      mload(0x40)\n      dup1\n      swap2\n      sub\n      swap1\n      return\n        /* \"src/StakingContract.sol\":3893:4323  function initiateUnstake() external nonReentrant updateReward(msg.sender) {... */\n    tag_9:\n      tag_60\n      tag_61\n      jump\t// in\n    tag_60:\n      stop\n        /* \"src/StakingContract.sol\":7477:7903  function retrieveLockedTokens(... */\n    tag_10:\n      tag_62\n      0x04\n      dup1\n      calldatasize\n      sub\n      dup2\n      add\n      swap1\n      tag_63\n      swap2\n      swap1\n      tag_64\n      jump\t// in\n    tag_63:\n      tag_65\n      jump\t// in\n    tag_62:\n      stop\n        /* \"src/StakingContract.sol\":721:749  uint256 public emissionStart */\n    tag_11:\n      tag_66\n      tag_67\n      jump\t// in\n    tag_66:\n      mload(0x40)\n      tag_68\n      swap2\n      swap1\n      tag_43\n      jump\t// in\n    tag_68:\n      mload(0x40)\n      dup1\n      swap2\n      sub\n      swap1\n      return\n        /* \"src/StakingContract.sol\":6144:6358  function setUnstakeFeePercent(uint256 _newFee) external onlyOwner {... */\n    tag_12:\n      tag_69\n      0x04\n      dup1\n      calldatasize\n      sub\n      dup2\n      add\n      swap1\n      tag_70\n      swap2\n      swap1\n      tag_71\n      jump\t// in\n    tag_70:\n      tag_72\n      jump\t// in\n    tag_69:\n      stop\n        /* \"src/StakingContract.sol\":7216:7469  function withdrawFees(uint256 amount) external onlyOwner {... */\n    tag_13:\n      tag_73\n      0x04\n      dup1\n      calldatasize\n      sub\n      dup2\n      add\n      swap1\n      tag_74\n      swap2\n      swap1\n      tag_71\n      jump\t// in\n    tag_74:\n      tag_75\n      jump\t// in\n    tag_73:\n      stop\n        /* \"src/StakingContract.sol\":4331:5641  function completeUnstake() external nonReentrant updateReward(msg.sender) {... */\n    tag_14:\n      tag_76\n      tag_77\n      jump\t// in\n    tag_76:\n      stop\n        /* \"@openzeppelin/contracts/access/Ownable.sol\":2293:2394  function renounceOwnership() public virtual onlyOwner {... */\n    tag_15:\n      tag_78\n      tag_79\n      jump\t// in\n    tag_78:\n      stop\n        /* \"src/StakingContract.sol\":449:474  uint256 public rewardRate */\n    tag_16:\n      tag_80\n      tag_81\n      jump\t// in\n    tag_80:\n      mload(0x40)\n      tag_82\n      swap2\n      swap1\n      tag_43\n      jump\t// in\n    tag_82:\n      mload(0x40)\n      dup1\n      swap2\n      sub\n      swap1\n      return\n        /* \"src/StakingContract.sol\":329:355  uint256 public totalStaked */\n    tag_17:\n      tag_83\n      tag_84\n      jump\t// in\n    tag_83:\n      mload(0x40)\n      tag_85\n      swap2\n      swap1\n      tag_43\n      jump\t// in\n    tag_85:\n      mload(0x40)\n      dup1\n      swap2\n      sub\n      swap1\n      return\n        /* \"src/StakingContract.sol\":756:782  uint256 public emissionEnd */\n    tag_18:\n      tag_86\n      tag_87\n      jump\t// in\n    tag_86:\n      mload(0x40)\n      tag_88\n      swap2\n      swap1\n      tag_43\n      jump\t// in\n    tag_88:\n      mload(0x40)\n      dup1\n      swap2\n      sub\n      swap1\n      return\n        /* \"@openzeppelin/contracts/access/Ownable.sol\":1638:1723  function owner() public view virtual returns (address) {... */\n    tag_19:\n      tag_89\n      tag_90\n      jump\t// in\n    tag_89:\n      mload(0x40)\n      tag_91\n      swap2\n      swap1\n      tag_92\n      jump\t// in\n    tag_91:\n      mload(0x40)\n      dup1\n      swap2\n      sub\n      swap1\n      return\n        /* \"src/StakingContract.sol\":1011:1052  mapping(address => Staker) public stakers */\n    tag_20:\n      tag_93\n      0x04\n      dup1\n      calldatasize\n      sub\n      dup2\n      add\n      swap1\n      tag_94\n      swap2\n      swap1\n      tag_40\n      jump\t// in\n    tag_94:\n      tag_95\n      jump\t// in\n    tag_93:\n      mload(0x40)\n      tag_96\n      swap6\n      swap5\n      swap4\n      swap3\n      swap2\n      swap1\n      tag_97\n      jump\t// in\n    tag_96:\n      mload(0x40)\n      dup1\n      swap2\n      sub\n      swap1\n      return\n        /* \"src/StakingContract.sol\":789:815  uint256 public feesAccrued */\n    tag_21:\n      tag_98\n      tag_99\n      jump\t// in\n    tag_98:\n      mload(0x40)\n      tag_100\n      swap2\n      swap1\n      tag_43\n      jump\t// in\n    tag_100:\n      mload(0x40)\n      dup1\n      swap2\n      sub\n      swap1\n      return\n        /* \"src/StakingContract.sol\":3338:3885  function stake(uint256 _amount) external nonReentrant updateReward(msg.sender) {... */\n    tag_22:\n      tag_101\n      0x04\n      dup1\n      calldatasize\n      sub\n      dup2\n      add\n      swap1\n      tag_102\n      swap2\n      swap1\n      tag_71\n      jump\t// in\n    tag_102:\n      tag_103\n      jump\t// in\n    tag_101:\n      stop\n        /* \"src/StakingContract.sol\":6366:6569  function setUnstakeTimeLock(uint256 _newTimeLock) external onlyOwner {... */\n    tag_23:\n      tag_104\n      0x04\n      dup1\n      calldatasize\n      sub\n      dup2\n      add\n      swap1\n      tag_105\n      swap2\n      swap1\n      tag_71\n      jump\t// in\n    tag_105:\n      tag_106\n      jump\t// in\n    tag_104:\n      stop\n        /* \"src/StakingContract.sol\":6982:7208  function setEmissionDetails(uint256 _emissionDuration) external onlyOwner {... */\n    tag_24:\n      tag_107\n      0x04\n      dup1\n      calldatasize\n      sub\n      dup2\n      add\n      swap1\n      tag_108\n      swap2\n      swap1\n      tag_71\n      jump\t// in\n    tag_108:\n      tag_109\n      jump\t// in\n    tag_107:\n      stop\n        /* \"src/StakingContract.sol\":5649:6136  function claimReward() external nonReentrant updateReward(msg.sender) {... */\n    tag_25:\n      tag_110\n      tag_111\n      jump\t// in\n    tag_110:\n      stop\n        /* \"src/StakingContract.sol\":6577:6927  function getRemainingUnstakeTime(address _staker) external view returns (uint256) {... */\n    tag_26:\n      tag_112\n      0x04\n      dup1\n      calldatasize\n      sub\n      dup2\n      add\n      swap1\n      tag_113\n      swap2\n      swap1\n      tag_40\n      jump\t// in\n    tag_113:\n      tag_114\n      jump\t// in\n    tag_112:\n      mload(0x40)\n      tag_115\n      swap2\n      swap1\n      tag_43\n      jump\t// in\n    tag_115:\n      mload(0x40)\n      dup1\n      swap2\n      sub\n      swap1\n      return\n        /* \"src/StakingContract.sol\":481:510  uint256 public lastUpdateTime */\n    tag_27:\n      tag_116\n      tag_117\n      jump\t// in\n    tag_116:\n      mload(0x40)\n      tag_118\n      swap2\n      swap1\n      tag_43\n      jump\t// in\n    tag_118:\n      mload(0x40)\n      dup1\n      swap2\n      sub\n      swap1\n      return\n        /* \"src/StakingContract.sol\":2553:2873  function rewardPerToken() public view returns (uint256) {... */\n    tag_28:\n      tag_119\n      tag_120\n      jump\t// in\n    tag_119:\n      mload(0x40)\n      tag_121\n      swap2\n      swap1\n      tag_43\n      jump\t// in\n    tag_121:\n      mload(0x40)\n      dup1\n      swap2\n      sub\n      swap1\n      return\n        /* \"src/StakingContract.sol\":517:552  uint256 public rewardPerTokenStored */\n    tag_29:\n      tag_122\n      tag_123\n      jump\t// in\n    tag_122:\n      mload(0x40)\n      tag_124\n      swap2\n      swap1\n      tag_43\n      jump\t// in\n    tag_124:\n      mload(0x40)\n      dup1\n      swap2\n      sub\n      swap1\n      return\n        /* \"@openzeppelin/contracts/access/Ownable.sol\":2543:2758  function transferOwnership(address newOwner) public virtual onlyOwner {... */\n    tag_30:\n      tag_125\n      0x04\n      dup1\n      calldatasize\n      sub\n      dup2\n      add\n      swap1\n      tag_126\n      swap2\n      swap1\n      tag_40\n      jump\t// in\n    tag_126:\n      tag_127\n      jump\t// in\n    tag_125:\n      stop\n        /* \"src/StakingContract.sol\":2881:3328  function earned(address account) public view returns (uint256) {... */\n    tag_41:\n        /* \"src/StakingContract.sol\":2935:2942  uint256 */\n      0x00\n        /* \"src/StakingContract.sol\":2955:2976  Staker storage staker */\n      dup1\n        /* \"src/StakingContract.sol\":2979:2986  stakers */\n      0x0d\n        /* \"src/StakingContract.sol\":2979:2995  stakers[account] */\n      0x00\n        /* \"src/StakingContract.sol\":2987:2994  account */\n      dup5\n        /* \"src/StakingContract.sol\":2979:2995  stakers[account] */\n      0xffffffffffffffffffffffffffffffffffffffff\n      and\n      0xffffffffffffffffffffffffffffffffffffffff\n      and\n      dup2\n      mstore\n      0x20\n      add\n      swap1\n      dup2\n      mstore\n      0x20\n      add\n      0x00\n      keccak256\n        /* \"src/StakingContract.sol\":2955:2995  Staker storage staker = stakers[account] */\n      swap1\n      pop\n        /* \"src/StakingContract.sol\":3040:3044  true */\n      0x01\n        /* \"src/StakingContract.sol\":3010:3044  staker.claimedAfterUnstake == true */\n      iszero\n      iszero\n        /* \"src/StakingContract.sol\":3010:3016  staker */\n      dup2\n        /* \"src/StakingContract.sol\":3010:3036  staker.claimedAfterUnstake */\n      0x04\n      add\n      0x00\n      swap1\n      sload\n      swap1\n      0x0100\n      exp\n      swap1\n      div\n      0xff\n      and\n        /* \"src/StakingContract.sol\":3010:3044  staker.claimedAfterUnstake == true */\n      iszero\n      iszero\n      sub\n        /* \"src/StakingContract.sol\":3006:3085  if (staker.claimedAfterUnstake == true) {... */\n      tag_129\n      jumpi\n        /* \"src/StakingContract.sol\":3072:3073  0 */\n      0x00\n        /* \"src/StakingContract.sol\":3065:3073  return 0 */\n      swap2\n      pop\n      pop\n      jump(tag_128)\n        /* \"src/StakingContract.sol\":3006:3085  if (staker.claimedAfterUnstake == true) {... */\n    tag_129:\n        /* \"src/StakingContract.sol\":3125:3126  0 */\n      0x00\n        /* \"src/StakingContract.sol\":3099:3105  staker */\n      dup2\n        /* \"src/StakingContract.sol\":3099:3121  staker.unstakeInitTime */\n      0x03\n      add\n      sload\n        /* \"src/StakingContract.sol\":3099:3126  staker.unstakeInitTime != 0 */\n      eq\n        /* \"src/StakingContract.sol\":3095:3180  if (staker.unstakeInitTime != 0) {... */\n      tag_130\n      jumpi\n        /* \"src/StakingContract.sol\":3154:3160  staker */\n      dup1\n        /* \"src/StakingContract.sol\":3154:3168  staker.rewards */\n      0x02\n      add\n      sload\n        /* \"src/StakingContract.sol\":3147:3168  return staker.rewards */\n      swap2\n      pop\n      pop\n      jump(tag_128)\n        /* \"src/StakingContract.sol\":3095:3180  if (staker.unstakeInitTime != 0) {... */\n    tag_130:\n        /* \"src/StakingContract.sol\":3306:3312  staker */\n      dup1\n        /* \"src/StakingContract.sol\":3306:3320  staker.rewards */\n      0x02\n      add\n      sload\n        /* \"src/StakingContract.sol\":3288:3292  1e18 */\n      0x0de0b6b3a7640000\n        /* \"src/StakingContract.sol\":3267:3273  staker */\n      dup3\n        /* \"src/StakingContract.sol\":3267:3284  staker.rewardDebt */\n      0x01\n      add\n      sload\n        /* \"src/StakingContract.sol\":3248:3264  rewardPerToken() */\n      tag_131\n        /* \"src/StakingContract.sol\":3248:3262  rewardPerToken */\n      tag_120\n        /* \"src/StakingContract.sol\":3248:3264  rewardPerToken() */\n      jump\t// in\n    tag_131:\n        /* \"src/StakingContract.sol\":3248:3284  rewardPerToken() - staker.rewardDebt */\n      tag_132\n      swap2\n      swap1\n      tag_133\n      jump\t// in\n    tag_132:\n        /* \"src/StakingContract.sol\":3212:3218  staker */\n      dup4\n        /* \"src/StakingContract.sol\":3212:3231  staker.amountStaked */\n      0x00\n      add\n      sload\n        /* \"src/StakingContract.sol\":3212:3285  staker.amountStaked *... */\n      tag_134\n      swap2\n      swap1\n      tag_135\n      jump\t// in\n    tag_134:\n        /* \"src/StakingContract.sol\":3212:3292  staker.amountStaked *... */\n      tag_136\n      swap2\n      swap1\n      tag_137\n      jump\t// in\n    tag_136:\n        /* \"src/StakingContract.sol\":3197:3320  (... */\n      tag_138\n      swap2\n      swap1\n      tag_139\n      jump\t// in\n    tag_138:\n        /* \"src/StakingContract.sol\":3190:3320  return (... */\n      swap2\n      pop\n      pop\n        /* \"src/StakingContract.sol\":2881:3328  function earned(address account) public view returns (uint256) {... */\n    tag_128:\n      swap2\n      swap1\n      pop\n      jump\t// out\n        /* \"src/StakingContract.sol\":362:403  uint256 public totalStakedAccruingRewards */\n    tag_45:\n      sload(0x04)\n      dup2\n      jump\t// out\n        /* \"src/StakingContract.sol\":296:320  IERC20 public basicToken */\n    tag_48:\n      0x02\n      0x00\n      swap1\n      sload\n      swap1\n      0x0100\n      exp\n      swap1\n      div\n      0xffffffffffffffffffffffffffffffffffffffff\n      and\n      dup2\n      jump\t// out\n        /* \"src/StakingContract.sol\":2398:2545  function lastApplicableTime() public view returns (uint256) {... */\n    tag_52:\n        /* \"src/StakingContract.sol\":2449:2456  uint256 */\n      0x00\n        /* \"src/StakingContract.sol\":2494:2505  emissionEnd */\n      sload(0x0b)\n        /* \"src/StakingContract.sol\":2476:2491  block.timestamp */\n      timestamp\n        /* \"src/StakingContract.sol\":2476:2505  block.timestamp < emissionEnd */\n      lt\n        /* \"src/StakingContract.sol\":2476:2537  block.timestamp < emissionEnd ? block.timestamp : emissionEnd */\n      tag_141\n      jumpi\n        /* \"src/StakingContract.sol\":2526:2537  emissionEnd */\n      sload(0x0b)\n        /* \"src/StakingContract.sol\":2476:2537  block.timestamp < emissionEnd ? block.timestamp : emissionEnd */\n      jump(tag_142)\n    tag_141:\n        /* \"src/StakingContract.sol\":2508:2523  block.timestamp */\n      timestamp\n        /* \"src/StakingContract.sol\":2476:2537  block.timestamp < emissionEnd ? block.timestamp : emissionEnd */\n    tag_142:\n        /* \"src/StakingContract.sol\":2469:2537  return block.timestamp < emissionEnd ? block.timestamp : emissionEnd */\n      swap1\n      pop\n        /* \"src/StakingContract.sol\":2398:2545  function lastApplicableTime() public view returns (uint256) {... */\n      swap1\n      jump\t// out\n        /* \"src/StakingContract.sol\":640:676  uint256 public unstakeFeePercent = 0 */\n    tag_55:\n      sload(0x09)\n      dup2\n      jump\t// out\n        /* \"src/StakingContract.sol\":559:598  uint256 public unstakeTimeLock = 7 days */\n    tag_58:\n      sload(0x08)\n      dup2\n      jump\t// out\n        /* \"src/StakingContract.sol\":3893:4323  function initiateUnstake() external nonReentrant updateReward(msg.sender) {... */\n    tag_61:\n        /* \"@openzeppelin/contracts/utils/ReentrancyGuard.sol\":2356:2377  _nonReentrantBefore() */\n      tag_144\n        /* \"@openzeppelin/contracts/utils/ReentrancyGuard.sol\":2356:2375  _nonReentrantBefore */\n      tag_145\n        /* \"@openzeppelin/contracts/utils/ReentrancyGuard.sol\":2356:2377  _nonReentrantBefore() */\n      jump\t// in\n    tag_144:\n        /* \"src/StakingContract.sol\":3955:3965  msg.sender */\n      caller\n        /* \"src/StakingContract.sol\":1417:1433  rewardPerToken() */\n      tag_147\n        /* \"src/StakingContract.sol\":1417:1431  rewardPerToken */\n      tag_120\n        /* \"src/StakingContract.sol\":1417:1433  rewardPerToken() */\n      jump\t// in\n    tag_147:\n        /* \"src/StakingContract.sol\":1394:1414  rewardPerTokenStored */\n      0x07\n        /* \"src/StakingContract.sol\":1394:1433  rewardPerTokenStored = rewardPerToken() */\n      dup2\n      swap1\n      sstore\n      pop\n        /* \"src/StakingContract.sol\":1461:1481  lastApplicableTime() */\n      tag_148\n        /* \"src/StakingContract.sol\":1461:1479  lastApplicableTime */\n      tag_52\n        /* \"src/StakingContract.sol\":1461:1481  lastApplicableTime() */\n      jump\t// in\n    tag_148:\n        /* \"src/StakingContract.sol\":1444:1458  lastUpdateTime */\n      0x06\n        /* \"src/StakingContract.sol\":1444:1481  lastUpdateTime = lastApplicableTime() */\n      dup2\n      swap1\n      sstore\n      pop\n        /* \"src/StakingContract.sol\":1532:1533  0 */\n      0x00\n        /* \"src/StakingContract.sol\":1496:1503  stakers */\n      0x0d\n        /* \"src/StakingContract.sol\":1496:1512  stakers[account] */\n      0x00\n        /* \"src/StakingContract.sol\":1504:1511  account */\n      dup4\n        /* \"src/StakingContract.sol\":1496:1512  stakers[account] */\n      0xffffffffffffffffffffffffffffffffffffffff\n      and\n      0xffffffffffffffffffffffffffffffffffffffff\n      and\n      dup2\n      mstore\n      0x20\n      add\n      swap1\n      dup2\n      mstore\n      0x20\n      add\n      0x00\n      keccak256\n        /* \"src/StakingContract.sol\":1496:1528  stakers[account].unstakeInitTime */\n      0x03\n      add\n      sload\n        /* \"src/StakingContract.sol\":1496:1533  stakers[account].unstakeInitTime == 0 */\n      sub\n        /* \"src/StakingContract.sol\":1492:1670  if (stakers[account].unstakeInitTime == 0 ) {... */\n      tag_149\n      jumpi\n        /* \"src/StakingContract.sol\":1578:1593  earned(account) */\n      tag_150\n        /* \"src/StakingContract.sol\":1585:1592  account */\n      dup2\n        /* \"src/StakingContract.sol\":1578:1584  earned */\n      tag_41\n        /* \"src/StakingContract.sol\":1578:1593  earned(account) */\n      jump\t// in\n    tag_150:\n        /* \"src/StakingContract.sol\":1551:1558  stakers */\n      0x0d\n        /* \"src/StakingContract.sol\":1551:1567  stakers[account] */\n      0x00\n        /* \"src/StakingContract.sol\":1559:1566  account */\n      dup4\n        /* \"src/StakingContract.sol\":1551:1567  stakers[account] */\n      0xffffffffffffffffffffffffffffffffffffffff\n      and\n      0xffffffffffffffffffffffffffffffffffffffff\n      and\n      dup2\n      mstore\n      0x20\n      add\n      swap1\n      dup2\n      mstore\n      0x20\n      add\n      0x00\n      keccak256\n        /* \"src/StakingContract.sol\":1551:1575  stakers[account].rewards */\n      0x02\n      add\n        /* \"src/StakingContract.sol\":1551:1593  stakers[account].rewards = earned(account) */\n      dup2\n      swap1\n      sstore\n      pop\n        /* \"src/StakingContract.sol\":1638:1658  rewardPerTokenStored */\n      sload(0x07)\n        /* \"src/StakingContract.sol\":1608:1615  stakers */\n      0x0d\n        /* \"src/StakingContract.sol\":1608:1624  stakers[account] */\n      0x00\n        /* \"src/StakingContract.sol\":1616:1623  account */\n      dup4\n        /* \"src/StakingContract.sol\":1608:1624  stakers[account] */\n      0xffffffffffffffffffffffffffffffffffffffff\n      and\n      0xffffffffffffffffffffffffffffffffffffffff\n      and\n      dup2\n      mstore\n      0x20\n      add\n      swap1\n      dup2\n      mstore\n      0x20\n      add\n      0x00\n      keccak256\n        /* \"src/StakingContract.sol\":1608:1635  stakers[account].rewardDebt */\n      0x01\n      add\n        /* \"src/StakingContract.sol\":1608:1658  stakers[account].rewardDebt = rewardPerTokenStored */\n      dup2\n      swap1\n      sstore\n      pop\n        /* \"src/StakingContract.sol\":1492:1670  if (stakers[account].unstakeInitTime == 0 ) {... */\n    tag_149:\n        /* \"src/StakingContract.sol\":1730:1731  0 */\n      0x00\n        /* \"src/StakingContract.sol\":1694:1701  stakers */\n      0x0d\n        /* \"src/StakingContract.sol\":1694:1710  stakers[account] */\n      0x00\n        /* \"src/StakingContract.sol\":1702:1709  account */\n      dup4\n        /* \"src/StakingContract.sol\":1694:1710  stakers[account] */\n      0xffffffffffffffffffffffffffffffffffffffff\n      and\n      0xffffffffffffffffffffffffffffffffffffffff\n      and\n      dup2\n      mstore\n      0x20\n      add\n      swap1\n      dup2\n      mstore\n      0x20\n      add\n      0x00\n      keccak256\n        /* \"src/StakingContract.sol\":1694:1726  stakers[account].unstakeInitTime */\n      0x03\n      add\n      sload\n        /* \"src/StakingContract.sol\":1694:1731  stakers[account].unstakeInitTime != 0 */\n      eq\n        /* \"src/StakingContract.sol\":1690:2062  if (stakers[account].unstakeInitTime != 0 ) {... */\n      tag_151\n      jumpi\n        /* \"src/StakingContract.sol\":1795:1799  true */\n      0x01\n        /* \"src/StakingContract.sol\":1755:1799  stakers[account].claimedAfterUnstake == true */\n      iszero\n      iszero\n        /* \"src/StakingContract.sol\":1755:1762  stakers */\n      0x0d\n        /* \"src/StakingContract.sol\":1755:1771  stakers[account] */\n      0x00\n        /* \"src/StakingContract.sol\":1763:1770  account */\n      dup4\n        /* \"src/StakingContract.sol\":1755:1771  stakers[account] */\n      0xffffffffffffffffffffffffffffffffffffffff\n      and\n      0xffffffffffffffffffffffffffffffffffffffff\n      and\n      dup2\n      mstore\n      0x20\n      add\n      swap1\n      dup2\n      mstore\n      0x20\n      add\n      0x00\n      keccak256\n        /* \"src/StakingContract.sol\":1755:1791  stakers[account].claimedAfterUnstake */\n      0x04\n      add\n      0x00\n      swap1\n      sload\n      swap1\n      0x0100\n      exp\n      swap1\n      div\n      0xff\n      and\n        /* \"src/StakingContract.sol\":1755:1799  stakers[account].claimedAfterUnstake == true */\n      iszero\n      iszero\n      sub\n        /* \"src/StakingContract.sol\":1751:1868  if (stakers[account].claimedAfterUnstake == true) {... */\n      tag_152\n      jumpi\n        /* \"src/StakingContract.sol\":1847:1848  0 */\n      0x00\n        /* \"src/StakingContract.sol\":1820:1827  stakers */\n      0x0d\n        /* \"src/StakingContract.sol\":1820:1836  stakers[account] */\n      0x00\n        /* \"src/StakingContract.sol\":1828:1835  account */\n      dup4\n        /* \"src/StakingContract.sol\":1820:1836  stakers[account] */\n      0xffffffffffffffffffffffffffffffffffffffff\n      and\n      0xffffffffffffffffffffffffffffffffffffffff\n      and\n      dup2\n      mstore\n      0x20\n      add\n      swap1\n      dup2\n      mstore\n      0x20\n      add\n      0x00\n      keccak256\n        /* \"src/StakingContract.sol\":1820:1844  stakers[account].rewards */\n      0x02\n      add\n        /* \"src/StakingContract.sol\":1820:1848  stakers[account].rewards = 0 */\n      dup2\n      swap1\n      sstore\n      pop\n        /* \"src/StakingContract.sol\":1751:1868  if (stakers[account].claimedAfterUnstake == true) {... */\n    tag_152:\n        /* \"src/StakingContract.sol\":1690:2062  if (stakers[account].unstakeInitTime != 0 ) {... */\n    tag_151:\n        /* \"src/StakingContract.sol\":3978:3999  Staker storage staker */\n      0x00\n        /* \"src/StakingContract.sol\":4002:4009  stakers */\n      0x0d\n        /* \"src/StakingContract.sol\":4002:4021  stakers[msg.sender] */\n      0x00\n        /* \"src/StakingContract.sol\":4010:4020  msg.sender */\n      caller\n        /* \"src/StakingContract.sol\":4002:4021  stakers[msg.sender] */\n      0xffffffffffffffffffffffffffffffffffffffff\n      and\n      0xffffffffffffffffffffffffffffffffffffffff\n      and\n      dup2\n      mstore\n      0x20\n      add\n      swap1\n      dup2\n      mstore\n      0x20\n      add\n      0x00\n      keccak256\n        /* \"src/StakingContract.sol\":3978:4021  Staker storage staker = stakers[msg.sender] */\n      swap1\n      pop\n        /* \"src/StakingContract.sol\":4062:4063  0 */\n      0x00\n        /* \"src/StakingContract.sol\":4040:4046  staker */\n      dup2\n        /* \"src/StakingContract.sol\":4040:4059  staker.amountStaked */\n      0x00\n      add\n      sload\n        /* \"src/StakingContract.sol\":4040:4063  staker.amountStaked > 0 */\n      gt\n        /* \"src/StakingContract.sol\":4032:4084  require(staker.amountStaked > 0, \"No tokens staked\") */\n      tag_154\n      jumpi\n      mload(0x40)\n      0x08c379a000000000000000000000000000000000000000000000000000000000\n      dup2\n      mstore\n      0x04\n      add\n      tag_155\n      swap1\n      tag_156\n      jump\t// in\n    tag_155:\n      mload(0x40)\n      dup1\n      swap2\n      sub\n      swap1\n      revert\n    tag_154:\n        /* \"src/StakingContract.sol\":4129:4130  0 */\n      0x00\n        /* \"src/StakingContract.sol\":4103:4109  staker */\n      dup2\n        /* \"src/StakingContract.sol\":4103:4125  staker.unstakeInitTime */\n      0x03\n      add\n      sload\n        /* \"src/StakingContract.sol\":4103:4130  staker.unstakeInitTime == 0 */\n      eq\n        /* \"src/StakingContract.sol\":4095:4160  require(staker.unstakeInitTime == 0, \"Unstake already initiated\") */\n      tag_157\n      jumpi\n      mload(0x40)\n      0x08c379a000000000000000000000000000000000000000000000000000000000\n      dup2\n      mstore\n      0x04\n      add\n      tag_158\n      swap1\n      tag_159\n      jump\t// in\n    tag_158:\n      mload(0x40)\n      dup1\n      swap2\n      sub\n      swap1\n      revert\n    tag_157:\n        /* \"src/StakingContract.sol\":4196:4211  block.timestamp */\n      timestamp\n        /* \"src/StakingContract.sol\":4171:4177  staker */\n      dup2\n        /* \"src/StakingContract.sol\":4171:4193  staker.unstakeInitTime */\n      0x03\n      add\n        /* \"src/StakingContract.sol\":4171:4211  staker.unstakeInitTime = block.timestamp */\n      dup2\n      swap1\n      sstore\n      pop\n        /* \"src/StakingContract.sol\":4252:4258  staker */\n      dup1\n        /* \"src/StakingContract.sol\":4252:4271  staker.amountStaked */\n      0x00\n      add\n      sload\n        /* \"src/StakingContract.sol\":4222:4248  totalStakedAccruingRewards */\n      0x04\n      0x00\n        /* \"src/StakingContract.sol\":4222:4271  totalStakedAccruingRewards -= staker.amountStaked */\n      dup3\n      dup3\n      sload\n      tag_160\n      swap2\n      swap1\n      tag_133\n      jump\t// in\n    tag_160:\n      swap3\n      pop\n      pop\n      dup2\n      swap1\n      sstore\n      pop\n        /* \"src/StakingContract.sol\":4304:4314  msg.sender */\n      caller\n        /* \"src/StakingContract.sol\":4287:4315  UnstakeInitiated(msg.sender) */\n      0xffffffffffffffffffffffffffffffffffffffff\n      and\n      0x1519c8ae4064242b3caf78c4eb66acc5055fbe9cd35f28294b5492f6aea9ff6e\n      mload(0x40)\n      mload(0x40)\n      dup1\n      swap2\n      sub\n      swap1\n      log2\n        /* \"src/StakingContract.sol\":3967:4323  {... */\n      pop\n        /* \"@openzeppelin/contracts/utils/ReentrancyGuard.sol\":2387:2388  _ */\n      pop\n        /* \"@openzeppelin/contracts/utils/ReentrancyGuard.sol\":2398:2418  _nonReentrantAfter() */\n      tag_161\n        /* \"@openzeppelin/contracts/utils/ReentrancyGuard.sol\":2398:2416  _nonReentrantAfter */\n      tag_162\n        /* \"@openzeppelin/contracts/utils/ReentrancyGuard.sol\":2398:2418  _nonReentrantAfter() */\n      jump\t// in\n    tag_161:\n        /* \"src/StakingContract.sol\":3893:4323  function initiateUnstake() external nonReentrant updateReward(msg.sender) {... */\n      jump\t// out\n        /* \"src/StakingContract.sol\":7477:7903  function retrieveLockedTokens(... */\n    tag_65:\n        /* \"@openzeppelin/contracts/access/Ownable.sol\":1531:1544  _checkOwner() */\n      tag_164\n        /* \"@openzeppelin/contracts/access/Ownable.sol\":1531:1542  _checkOwner */\n      tag_165\n        /* \"@openzeppelin/contracts/access/Ownable.sol\":1531:1544  _checkOwner() */\n      jump\t// in\n    tag_164:\n        /* \"src/StakingContract.sol\":7620:7621  0 */\n      0x00\n        /* \"src/StakingContract.sol\":7611:7617  amount */\n      dup2\n        /* \"src/StakingContract.sol\":7611:7621  amount > 0 */\n      gt\n        /* \"src/StakingContract.sol\":7603:7658  require(amount > 0, \"Amount must be greater than zero\") */\n      tag_167\n      jumpi\n      mload(0x40)\n      0x08c379a000000000000000000000000000000000000000000000000000000000\n      dup2\n      mstore\n      0x04\n      add\n      tag_168\n      swap1\n      tag_169\n      jump\t// in\n    tag_168:\n      mload(0x40)\n      dup1\n      swap2\n      sub\n      swap1\n      revert\n    tag_167:\n        /* \"src/StakingContract.sol\":7669:7681  IERC20 token */\n      0x00\n        /* \"src/StakingContract.sol\":7691:7703  tokenAddress */\n      dup3\n        /* \"src/StakingContract.sol\":7669:7704  IERC20 token = IERC20(tokenAddress) */\n      swap1\n      pop\n        /* \"src/StakingContract.sol\":7757:7763  amount */\n      dup2\n        /* \"src/StakingContract.sol\":7723:7728  token */\n      dup2\n        /* \"src/StakingContract.sol\":7723:7738  token.balanceOf */\n      0xffffffffffffffffffffffffffffffffffffffff\n      and\n      0x70a08231\n        /* \"src/StakingContract.sol\":7747:7751  this */\n      address\n        /* \"src/StakingContract.sol\":7723:7753  token.balanceOf(address(this)) */\n      mload(0x40)\n      dup3\n      0xffffffff\n      and\n      0xe0\n      shl\n      dup2\n      mstore\n      0x04\n      add\n      tag_170\n      swap2\n      swap1\n      tag_92\n      jump\t// in\n    tag_170:\n      0x20\n      mload(0x40)\n      dup1\n      dup4\n      sub\n      dup2\n      dup7\n      gas\n      staticcall\n      iszero\n      dup1\n      iszero\n      tag_172\n      jumpi\n      returndatasize\n      0x00\n      dup1\n      returndatacopy\n      revert(0x00, returndatasize)\n    tag_172:\n      pop\n      pop\n      pop\n      pop\n      mload(0x40)\n      returndatasize\n      not(0x1f)\n      0x1f\n      dup3\n      add\n      and\n      dup3\n      add\n      dup1\n      0x40\n      mstore\n      pop\n      dup2\n      add\n      swap1\n      tag_173\n      swap2\n      swap1\n      tag_174\n      jump\t// in\n    tag_173:\n        /* \"src/StakingContract.sol\":7723:7763  token.balanceOf(address(this)) >= amount */\n      lt\n      iszero\n        /* \"src/StakingContract.sol\":7715:7806  require(token.balanceOf(address(this)) >= amount, \"Insufficient token balance in contract\") */\n      tag_175\n      jumpi\n      mload(0x40)\n      0x08c379a000000000000000000000000000000000000000000000000000000000\n      dup2\n      mstore\n      0x04\n      add\n      tag_176\n      swap1\n      tag_177\n      jump\t// in\n    tag_176:\n      mload(0x40)\n      dup1\n      swap2\n      sub\n      swap1\n      revert\n    tag_175:\n        /* \"src/StakingContract.sol\":7835:7840  token */\n      dup1\n        /* \"src/StakingContract.sol\":7835:7849  token.transfer */\n      0xffffffffffffffffffffffffffffffffffffffff\n      and\n      0xa9059cbb\n        /* \"src/StakingContract.sol\":7850:7860  msg.sender */\n      caller\n        /* \"src/StakingContract.sol\":7862:7868  amount */\n      dup5\n        /* \"src/StakingContract.sol\":7835:7869  token.transfer(msg.sender, amount) */\n      mload(0x40)\n      dup4\n      0xffffffff\n      and\n      0xe0\n      shl\n      dup2\n      mstore\n      0x04\n      add\n      tag_178\n      swap3\n      swap2\n      swap1\n      tag_179\n      jump\t// in\n    tag_178:\n      0x20\n      mload(0x40)\n      dup1\n      dup4\n      sub\n      dup2\n      0x00\n      dup8\n      gas\n      call\n      iszero\n      dup1\n      iszero\n      tag_181\n      jumpi\n      returndatasize\n      0x00\n      dup1\n      returndatacopy\n      revert(0x00, returndatasize)\n    tag_181:\n      pop\n      pop\n      pop\n      pop\n      mload(0x40)\n      returndatasize\n      not(0x1f)\n      0x1f\n      dup3\n      add\n      and\n      dup3\n      add\n      dup1\n      0x40\n      mstore\n      pop\n      dup2\n      add\n      swap1\n      tag_182\n      swap2\n      swap1\n      tag_183\n      jump\t// in\n    tag_182:\n        /* \"src/StakingContract.sol\":7827:7895  require(token.transfer(msg.sender, amount), \"Token transfer failed\") */\n      tag_184\n      jumpi\n      mload(0x40)\n      0x08c379a000000000000000000000000000000000000000000000000000000000\n      dup2\n      mstore\n      0x04\n      add\n      tag_185\n      swap1\n      tag_186\n      jump\t// in\n    tag_185:\n      mload(0x40)\n      dup1\n      swap2\n      sub\n      swap1\n      revert\n    tag_184:\n        /* \"src/StakingContract.sol\":7590:7903  {... */\n      pop\n        /* \"src/StakingContract.sol\":7477:7903  function retrieveLockedTokens(... */\n      pop\n      pop\n      jump\t// out\n        /* \"src/StakingContract.sol\":721:749  uint256 public emissionStart */\n    tag_67:\n      sload(0x0a)\n      dup2\n      jump\t// out\n        /* \"src/StakingContract.sol\":6144:6358  function setUnstakeFeePercent(uint256 _newFee) external onlyOwner {... */\n    tag_72:\n        /* \"@openzeppelin/contracts/access/Ownable.sol\":1531:1544  _checkOwner() */\n      tag_188\n        /* \"@openzeppelin/contracts/access/Ownable.sol\":1531:1542  _checkOwner */\n      tag_165\n        /* \"@openzeppelin/contracts/access/Ownable.sol\":1531:1544  _checkOwner() */\n      jump\t// in\n    tag_188:\n        /* \"src/StakingContract.sol\":6240:6243  200 */\n      0xc8\n        /* \"src/StakingContract.sol\":6229:6236  _newFee */\n      dup2\n        /* \"src/StakingContract.sol\":6229:6243  _newFee <= 200 */\n      gt\n      iszero\n        /* \"src/StakingContract.sol\":6221:6287  require(_newFee <= 200, \"Unstake fee exceeds 2%, maximum allowed\") */\n      tag_190\n      jumpi\n      mload(0x40)\n      0x08c379a000000000000000000000000000000000000000000000000000000000\n      dup2\n      mstore\n      0x04\n      add\n      tag_191\n      swap1\n      tag_192\n      jump\t// in\n    tag_191:\n      mload(0x40)\n      dup1\n      swap2\n      sub\n      swap1\n      revert\n    tag_190:\n        /* \"src/StakingContract.sol\":6343:6350  _newFee */\n      dup1\n        /* \"src/StakingContract.sol\":6323:6340  unstakeFeePercent */\n      0x09\n        /* \"src/StakingContract.sol\":6323:6350  unstakeFeePercent = _newFee */\n      dup2\n      swap1\n      sstore\n      pop\n        /* \"src/StakingContract.sol\":6144:6358  function setUnstakeFeePercent(uint256 _newFee) external onlyOwner {... */\n      pop\n      jump\t// out\n        /* \"src/StakingContract.sol\":7216:7469  function withdrawFees(uint256 amount) external onlyOwner {... */\n    tag_75:\n        /* \"@openzeppelin/contracts/access/Ownable.sol\":1531:1544  _checkOwner() */\n      tag_194\n        /* \"@openzeppelin/contracts/access/Ownable.sol\":1531:1542  _checkOwner */\n      tag_165\n        /* \"@openzeppelin/contracts/access/Ownable.sol\":1531:1544  _checkOwner() */\n      jump\t// in\n    tag_194:\n        /* \"src/StakingContract.sol\":7302:7313  feesAccrued */\n      sload(0x0c)\n        /* \"src/StakingContract.sol\":7292:7298  amount */\n      dup2\n        /* \"src/StakingContract.sol\":7292:7313  amount <= feesAccrued */\n      gt\n      iszero\n        /* \"src/StakingContract.sol\":7284:7345  require(amount <= feesAccrued, \"Amount exceeds accrued fees\") */\n      tag_196\n      jumpi\n      mload(0x40)\n      0x08c379a000000000000000000000000000000000000000000000000000000000\n      dup2\n      mstore\n      0x04\n      add\n      tag_197\n      swap1\n      tag_198\n      jump\t// in\n    tag_197:\n      mload(0x40)\n      dup1\n      swap2\n      sub\n      swap1\n      revert\n    tag_196:\n        /* \"src/StakingContract.sol\":7371:7377  amount */\n      dup1\n        /* \"src/StakingContract.sol\":7356:7367  feesAccrued */\n      0x0c\n      0x00\n        /* \"src/StakingContract.sol\":7356:7377  feesAccrued -= amount */\n      dup3\n      dup3\n      sload\n      tag_199\n      swap2\n      swap1\n      tag_133\n      jump\t// in\n    tag_199:\n      swap3\n      pop\n      pop\n      dup2\n      swap1\n      sstore\n      pop\n        /* \"src/StakingContract.sol\":7396:7406  basicToken */\n      0x02\n      0x00\n      swap1\n      sload\n      swap1\n      0x0100\n      exp\n      swap1\n      div\n      0xffffffffffffffffffffffffffffffffffffffff\n      and\n        /* \"src/StakingContract.sol\":7396:7415  basicToken.transfer */\n      0xffffffffffffffffffffffffffffffffffffffff\n      and\n      0xa9059cbb\n        /* \"src/StakingContract.sol\":7416:7426  msg.sender */\n      caller\n        /* \"src/StakingContract.sol\":7428:7434  amount */\n      dup4\n        /* \"src/StakingContract.sol\":7396:7435  basicToken.transfer(msg.sender, amount) */\n      mload(0x40)\n      dup4\n      0xffffffff\n      and\n      0xe0\n      shl\n      dup2\n      mstore\n      0x04\n      add\n      tag_200\n      swap3\n      swap2\n      swap1\n      tag_179\n      jump\t// in\n    tag_200:\n      0x20\n      mload(0x40)\n      dup1\n      dup4\n      sub\n      dup2\n      0x00\n      dup8\n      gas\n      call\n      iszero\n      dup1\n      iszero\n      tag_202\n      jumpi\n      returndatasize\n      0x00\n      dup1\n      returndatacopy\n      revert(0x00, returndatasize)\n    tag_202:\n      pop\n      pop\n      pop\n      pop\n      mload(0x40)\n      returndatasize\n      not(0x1f)\n      0x1f\n      dup3\n      add\n      and\n      dup3\n      add\n      dup1\n      0x40\n      mstore\n      pop\n      dup2\n      add\n      swap1\n      tag_203\n      swap2\n      swap1\n      tag_183\n      jump\t// in\n    tag_203:\n        /* \"src/StakingContract.sol\":7388:7461  require(basicToken.transfer(msg.sender, amount), \"Fee withdrawal failed\") */\n      tag_204\n      jumpi\n      mload(0x40)\n      0x08c379a000000000000000000000000000000000000000000000000000000000\n      dup2\n      mstore\n      0x04\n      add\n      tag_205\n      swap1\n      tag_206\n      jump\t// in\n    tag_205:\n      mload(0x40)\n      dup1\n      swap2\n      sub\n      swap1\n      revert\n    tag_204:\n        /* \"src/StakingContract.sol\":7216:7469  function withdrawFees(uint256 amount) external onlyOwner {... */\n      pop\n      jump\t// out\n        /* \"src/StakingContract.sol\":4331:5641  function completeUnstake() external nonReentrant updateReward(msg.sender) {... */\n    tag_77:\n        /* \"@openzeppelin/contracts/utils/ReentrancyGuard.sol\":2356:2377  _nonReentrantBefore() */\n      tag_208\n        /* \"@openzeppelin/contracts/utils/ReentrancyGuard.sol\":2356:2375  _nonReentrantBefore */\n      tag_145\n        /* \"@openzeppelin/contracts/utils/ReentrancyGuard.sol\":2356:2377  _nonReentrantBefore() */\n      jump\t// in\n    tag_208:\n        /* \"src/StakingContract.sol\":4393:4403  msg.sender */\n      caller\n        /* \"src/StakingContract.sol\":1417:1433  rewardPerToken() */\n      tag_210\n        /* \"src/StakingContract.sol\":1417:1431  rewardPerToken */\n      tag_120\n        /* \"src/StakingContract.sol\":1417:1433  rewardPerToken() */\n      jump\t// in\n    tag_210:\n        /* \"src/StakingContract.sol\":1394:1414  rewardPerTokenStored */\n      0x07\n        /* \"src/StakingContract.sol\":1394:1433  rewardPerTokenStored = rewardPerToken() */\n      dup2\n      swap1\n      sstore\n      pop\n        /* \"src/StakingContract.sol\":1461:1481  lastApplicableTime() */\n      tag_211\n        /* \"src/StakingContract.sol\":1461:1479  lastApplicableTime */\n      tag_52\n        /* \"src/StakingContract.sol\":1461:1481  lastApplicableTime() */\n      jump\t// in\n    tag_211:\n        /* \"src/StakingContract.sol\":1444:1458  lastUpdateTime */\n      0x06\n        /* \"src/StakingContract.sol\":1444:1481  lastUpdateTime = lastApplicableTime() */\n      dup2\n      swap1\n      sstore\n      pop\n        /* \"src/StakingContract.sol\":1532:1533  0 */\n      0x00\n        /* \"src/StakingContract.sol\":1496:1503  stakers */\n      0x0d\n        /* \"src/StakingContract.sol\":1496:1512  stakers[account] */\n      0x00\n        /* \"src/StakingContract.sol\":1504:1511  account */\n      dup4\n        /* \"src/StakingContract.sol\":1496:1512  stakers[account] */\n      0xffffffffffffffffffffffffffffffffffffffff\n      and\n      0xffffffffffffffffffffffffffffffffffffffff\n      and\n      dup2\n      mstore\n      0x20\n      add\n      swap1\n      dup2\n      mstore\n      0x20\n      add\n      0x00\n      keccak256\n        /* \"src/StakingContract.sol\":1496:1528  stakers[account].unstakeInitTime */\n      0x03\n      add\n      sload\n        /* \"src/StakingContract.sol\":1496:1533  stakers[account].unstakeInitTime == 0 */\n      sub\n        /* \"src/StakingContract.sol\":1492:1670  if (stakers[account].unstakeInitTime == 0 ) {... */\n      tag_212\n      jumpi\n        /* \"src/StakingContract.sol\":1578:1593  earned(account) */\n      tag_213\n        /* \"src/StakingContract.sol\":1585:1592  account */\n      dup2\n        /* \"src/StakingContract.sol\":1578:1584  earned */\n      tag_41\n        /* \"src/StakingContract.sol\":1578:1593  earned(account) */\n      jump\t// in\n    tag_213:\n        /* \"src/StakingContract.sol\":1551:1558  stakers */\n      0x0d\n        /* \"src/StakingContract.sol\":1551:1567  stakers[account] */\n      0x00\n        /* \"src/StakingContract.sol\":1559:1566  account */\n      dup4\n        /* \"src/StakingContract.sol\":1551:1567  stakers[account] */\n      0xffffffffffffffffffffffffffffffffffffffff\n      and\n      0xffffffffffffffffffffffffffffffffffffffff\n      and\n      dup2\n      mstore\n      0x20\n      add\n      swap1\n      dup2\n      mstore\n      0x20\n      add\n      0x00\n      keccak256\n        /* \"src/StakingContract.sol\":1551:1575  stakers[account].rewards */\n      0x02\n      add\n        /* \"src/StakingContract.sol\":1551:1593  stakers[account].rewards = earned(account) */\n      dup2\n      swap1\n      sstore\n      pop\n        /* \"src/StakingContract.sol\":1638:1658  rewardPerTokenStored */\n      sload(0x07)\n        /* \"src/StakingContract.sol\":1608:1615  stakers */\n      0x0d\n        /* \"src/StakingContract.sol\":1608:1624  stakers[account] */\n      0x00\n        /* \"src/StakingContract.sol\":1616:1623  account */\n      dup4\n        /* \"src/StakingContract.sol\":1608:1624  stakers[account] */\n      0xffffffffffffffffffffffffffffffffffffffff\n      and\n      0xffffffffffffffffffffffffffffffffffffffff\n      and\n      dup2\n      mstore\n      0x20\n      add\n      swap1\n      dup2\n      mstore\n      0x20\n      add\n      0x00\n      keccak256\n        /* \"src/StakingContract.sol\":1608:1635  stakers[account].rewardDebt */\n      0x01\n      add\n        /* \"src/StakingContract.sol\":1608:1658  stakers[account].rewardDebt = rewardPerTokenStored */\n      dup2\n      swap1\n      sstore\n      pop\n        /* \"src/StakingContract.sol\":1492:1670  if (stakers[account].unstakeInitTime == 0 ) {... */\n    tag_212:\n        /* \"src/StakingContract.sol\":1730:1731  0 */\n      0x00\n        /* \"src/StakingContract.sol\":1694:1701  stakers */\n      0x0d\n        /* \"src/StakingContract.sol\":1694:1710  stakers[account] */\n      0x00\n        /* \"src/StakingContract.sol\":1702:1709  account */\n      dup4\n        /* \"src/StakingContract.sol\":1694:1710  stakers[account] */\n      0xffffffffffffffffffffffffffffffffffffffff\n      and\n      0xffffffffffffffffffffffffffffffffffffffff\n      and\n      dup2\n      mstore\n      0x20\n      add\n      swap1\n      dup2\n      mstore\n      0x20\n      add\n      0x00\n      keccak256\n        /* \"src/StakingContract.sol\":1694:1726  stakers[account].unstakeInitTime */\n      0x03\n      add\n      sload\n        /* \"src/StakingContract.sol\":1694:1731  stakers[account].unstakeInitTime != 0 */\n      eq\n        /* \"src/StakingContract.sol\":1690:2062  if (stakers[account].unstakeInitTime != 0 ) {... */\n      tag_214\n      jumpi\n        /* \"src/StakingContract.sol\":1795:1799  true */\n      0x01\n        /* \"src/StakingContract.sol\":1755:1799  stakers[account].claimedAfterUnstake == true */\n      iszero\n      iszero\n        /* \"src/StakingContract.sol\":1755:1762  stakers */\n      0x0d\n        /* \"src/StakingContract.sol\":1755:1771  stakers[account] */\n      0x00\n        /* \"src/StakingContract.sol\":1763:1770  account */\n      dup4\n        /* \"src/StakingContract.sol\":1755:1771  stakers[account] */\n      0xffffffffffffffffffffffffffffffffffffffff\n      and\n      0xffffffffffffffffffffffffffffffffffffffff\n      and\n      dup2\n      mstore\n      0x20\n      add\n      swap1\n      dup2\n      mstore\n      0x20\n      add\n      0x00\n      keccak256\n        /* \"src/StakingContract.sol\":1755:1791  stakers[account].claimedAfterUnstake */\n      0x04\n      add\n      0x00\n      swap1\n      sload\n      swap1\n      0x0100\n      exp\n      swap1\n      div\n      0xff\n      and\n        /* \"src/StakingContract.sol\":1755:1799  stakers[account].claimedAfterUnstake == true */\n      iszero\n      iszero\n      sub\n        /* \"src/StakingContract.sol\":1751:1868  if (stakers[account].claimedAfterUnstake == true) {... */\n      tag_215\n      jumpi\n        /* \"src/StakingContract.sol\":1847:1848  0 */\n      0x00\n        /* \"src/StakingContract.sol\":1820:1827  stakers */\n      0x0d\n        /* \"src/StakingContract.sol\":1820:1836  stakers[account] */\n      0x00\n        /* \"src/StakingContract.sol\":1828:1835  account */\n      dup4\n        /* \"src/StakingContract.sol\":1820:1836  stakers[account] */\n      0xffffffffffffffffffffffffffffffffffffffff\n      and\n      0xffffffffffffffffffffffffffffffffffffffff\n      and\n      dup2\n      mstore\n      0x20\n      add\n      swap1\n      dup2\n      mstore\n      0x20\n      add\n      0x00\n      keccak256\n        /* \"src/StakingContract.sol\":1820:1844  stakers[account].rewards */\n      0x02\n      add\n        /* \"src/StakingContract.sol\":1820:1848  stakers[account].rewards = 0 */\n      dup2\n      swap1\n      sstore\n      pop\n        /* \"src/StakingContract.sol\":1751:1868  if (stakers[account].claimedAfterUnstake == true) {... */\n    tag_215:\n        /* \"src/StakingContract.sol\":1690:2062  if (stakers[account].unstakeInitTime != 0 ) {... */\n    tag_214:\n        /* \"src/StakingContract.sol\":4416:4437  Staker storage staker */\n      0x00\n        /* \"src/StakingContract.sol\":4440:4447  stakers */\n      0x0d\n        /* \"src/StakingContract.sol\":4440:4459  stakers[msg.sender] */\n      0x00\n        /* \"src/StakingContract.sol\":4448:4458  msg.sender */\n      caller\n        /* \"src/StakingContract.sol\":4440:4459  stakers[msg.sender] */\n      0xffffffffffffffffffffffffffffffffffffffff\n      and\n      0xffffffffffffffffffffffffffffffffffffffff\n      and\n      dup2\n      mstore\n      0x20\n      add\n      swap1\n      dup2\n      mstore\n      0x20\n      add\n      0x00\n      keccak256\n        /* \"src/StakingContract.sol\":4416:4459  Staker storage staker = stakers[msg.sender] */\n      swap1\n      pop\n        /* \"src/StakingContract.sol\":4500:4501  0 */\n      0x00\n        /* \"src/StakingContract.sol\":4478:4484  staker */\n      dup2\n        /* \"src/StakingContract.sol\":4478:4497  staker.amountStaked */\n      0x00\n      add\n      sload\n        /* \"src/StakingContract.sol\":4478:4501  staker.amountStaked > 0 */\n      gt\n        /* \"src/StakingContract.sol\":4470:4522  require(staker.amountStaked > 0, \"No tokens staked\") */\n      tag_217\n      jumpi\n      mload(0x40)\n      0x08c379a000000000000000000000000000000000000000000000000000000000\n      dup2\n      mstore\n      0x04\n      add\n      tag_218\n      swap1\n      tag_156\n      jump\t// in\n    tag_218:\n      mload(0x40)\n      dup1\n      swap2\n      sub\n      swap1\n      revert\n    tag_217:\n        /* \"src/StakingContract.sol\":4566:4567  0 */\n      0x00\n        /* \"src/StakingContract.sol\":4541:4547  staker */\n      dup2\n        /* \"src/StakingContract.sol\":4541:4563  staker.unstakeInitTime */\n      0x03\n      add\n      sload\n        /* \"src/StakingContract.sol\":4541:4567  staker.unstakeInitTime > 0 */\n      gt\n        /* \"src/StakingContract.sol\":4533:4593  require(staker.unstakeInitTime > 0, \"Unstake not initiated\") */\n      tag_219\n      jumpi\n      mload(0x40)\n      0x08c379a000000000000000000000000000000000000000000000000000000000\n      dup2\n      mstore\n      0x04\n      add\n      tag_220\n      swap1\n      tag_221\n      jump\t// in\n    tag_220:\n      mload(0x40)\n      dup1\n      swap2\n      sub\n      swap1\n      revert\n    tag_219:\n        /* \"src/StakingContract.sol\":4656:4671  unstakeTimeLock */\n      sload(0x08)\n        /* \"src/StakingContract.sol\":4631:4637  staker */\n      dup2\n        /* \"src/StakingContract.sol\":4631:4653  staker.unstakeInitTime */\n      0x03\n      add\n      sload\n        /* \"src/StakingContract.sol\":4631:4671  staker.unstakeInitTime + unstakeTimeLock */\n      tag_222\n      swap2\n      swap1\n      tag_139\n      jump\t// in\n    tag_222:\n        /* \"src/StakingContract.sol\":4612:4627  block.timestamp */\n      timestamp\n        /* \"src/StakingContract.sol\":4612:4671  block.timestamp >= staker.unstakeInitTime + unstakeTimeLock */\n      lt\n      iszero\n        /* \"src/StakingContract.sol\":4604:4699  require(block.timestamp >= staker.unstakeInitTime + unstakeTimeLock, \"Timelock not yet passed\") */\n      tag_223\n      jumpi\n      mload(0x40)\n      0x08c379a000000000000000000000000000000000000000000000000000000000\n      dup2\n      mstore\n      0x04\n      add\n      tag_224\n      swap1\n      tag_225\n      jump\t// in\n    tag_224:\n      mload(0x40)\n      dup1\n      swap2\n      sub\n      swap1\n      revert\n    tag_223:\n        /* \"src/StakingContract.sol\":4712:4726  uint256 amount */\n      0x00\n        /* \"src/StakingContract.sol\":4729:4735  staker */\n      dup2\n        /* \"src/StakingContract.sol\":4729:4748  staker.amountStaked */\n      0x00\n      add\n      sload\n        /* \"src/StakingContract.sol\":4712:4748  uint256 amount = staker.amountStaked */\n      swap1\n      pop\n        /* \"src/StakingContract.sol\":4759:4773  uint256 reward */\n      0x00\n        /* \"src/StakingContract.sol\":4776:4782  staker */\n      dup3\n        /* \"src/StakingContract.sol\":4776:4790  staker.rewards */\n      0x02\n      add\n      sload\n        /* \"src/StakingContract.sol\":4759:4790  uint256 reward = staker.rewards */\n      swap1\n      pop\n        /* \"src/StakingContract.sol\":4801:4812  uint256 fee */\n      0x00\n        /* \"src/StakingContract.sol\":4844:4849  10000 */\n      0x2710\n        /* \"src/StakingContract.sol\":4824:4841  unstakeFeePercent */\n      sload(0x09)\n        /* \"src/StakingContract.sol\":4815:4821  amount */\n      dup5\n        /* \"src/StakingContract.sol\":4815:4841  amount * unstakeFeePercent */\n      tag_226\n      swap2\n      swap1\n      tag_135\n      jump\t// in\n    tag_226:\n        /* \"src/StakingContract.sol\":4815:4849  amount * unstakeFeePercent / 10000 */\n      tag_227\n      swap2\n      swap1\n      tag_137\n      jump\t// in\n    tag_227:\n        /* \"src/StakingContract.sol\":4801:4849  uint256 fee = amount * unstakeFeePercent / 10000 */\n      swap1\n      pop\n        /* \"src/StakingContract.sol\":4860:4882  uint256 amountAfterFee */\n      0x00\n        /* \"src/StakingContract.sol\":4894:4897  fee */\n      dup2\n        /* \"src/StakingContract.sol\":4885:4891  amount */\n      dup5\n        /* \"src/StakingContract.sol\":4885:4897  amount - fee */\n      tag_228\n      swap2\n      swap1\n      tag_133\n      jump\t// in\n    tag_228:\n        /* \"src/StakingContract.sol\":4860:4897  uint256 amountAfterFee = amount - fee */\n      swap1\n      pop\n        /* \"src/StakingContract.sol\":4925:4928  fee */\n      dup2\n        /* \"src/StakingContract.sol\":4910:4921  feesAccrued */\n      0x0c\n      0x00\n        /* \"src/StakingContract.sol\":4910:4928  feesAccrued += fee */\n      dup3\n      dup3\n      sload\n      tag_229\n      swap2\n      swap1\n      tag_139\n      jump\t// in\n    tag_229:\n      swap3\n      pop\n      pop\n      dup2\n      swap1\n      sstore\n      pop\n        /* \"src/StakingContract.sol\":4954:4960  amount */\n      dup4\n        /* \"src/StakingContract.sol\":4939:4950  totalStaked */\n      0x03\n      0x00\n        /* \"src/StakingContract.sol\":4939:4960  totalStaked -= amount */\n      dup3\n      dup3\n      sload\n      tag_230\n      swap2\n      swap1\n      tag_133\n      jump\t// in\n    tag_230:\n      swap3\n      pop\n      pop\n      dup2\n      swap1\n      sstore\n      pop\n        /* \"src/StakingContract.sol\":5097:5098  0 */\n      0x00\n        /* \"src/StakingContract.sol\":5088:5094  reward */\n      dup4\n        /* \"src/StakingContract.sol\":5088:5098  reward > 0 */\n      gt\n        /* \"src/StakingContract.sol\":5084:5509  if (reward > 0) {... */\n      iszero\n      tag_231\n      jumpi\n        /* \"src/StakingContract.sol\":5115:5134  uint256 totalAmount */\n      0x00\n        /* \"src/StakingContract.sol\":5154:5160  reward */\n      dup4\n        /* \"src/StakingContract.sol\":5137:5151  amountAfterFee */\n      dup3\n        /* \"src/StakingContract.sol\":5137:5160  amountAfterFee + reward */\n      tag_232\n      swap2\n      swap1\n      tag_139\n      jump\t// in\n    tag_232:\n        /* \"src/StakingContract.sol\":5115:5160  uint256 totalAmount = amountAfterFee + reward */\n      swap1\n      pop\n        /* \"src/StakingContract.sol\":5183:5193  basicToken */\n      0x02\n      0x00\n      swap1\n      sload\n      swap1\n      0x0100\n      exp\n      swap1\n      div\n      0xffffffffffffffffffffffffffffffffffffffff\n      and\n        /* \"src/StakingContract.sol\":5183:5202  basicToken.transfer */\n      0xffffffffffffffffffffffffffffffffffffffff\n      and\n      0xa9059cbb\n        /* \"src/StakingContract.sol\":5203:5213  msg.sender */\n      caller\n        /* \"src/StakingContract.sol\":5215:5226  totalAmount */\n      dup4\n        /* \"src/StakingContract.sol\":5183:5227  basicToken.transfer(msg.sender, totalAmount) */\n      mload(0x40)\n      dup4\n      0xffffffff\n      and\n      0xe0\n      shl\n      dup2\n      mstore\n      0x04\n      add\n      tag_233\n      swap3\n      swap2\n      swap1\n      tag_179\n      jump\t// in\n    tag_233:\n      0x20\n      mload(0x40)\n      dup1\n      dup4\n      sub\n      dup2\n      0x00\n      dup8\n      gas\n      call\n      iszero\n      dup1\n      iszero\n      tag_235\n      jumpi\n      returndatasize\n      0x00\n      dup1\n      returndatacopy\n      revert(0x00, returndatasize)\n    tag_235:\n      pop\n      pop\n      pop\n      pop\n      mload(0x40)\n      returndatasize\n      not(0x1f)\n      0x1f\n      dup3\n      add\n      and\n      dup3\n      add\n      dup1\n      0x40\n      mstore\n      pop\n      dup2\n      add\n      swap1\n      tag_236\n      swap2\n      swap1\n      tag_183\n      jump\t// in\n    tag_236:\n        /* \"src/StakingContract.sol\":5175:5247  require(basicToken.transfer(msg.sender, totalAmount), \"Transfer failed\") */\n      tag_237\n      jumpi\n      mload(0x40)\n      0x08c379a000000000000000000000000000000000000000000000000000000000\n      dup2\n      mstore\n      0x04\n      add\n      tag_238\n      swap1\n      tag_239\n      jump\t// in\n    tag_238:\n      mload(0x40)\n      dup1\n      swap2\n      sub\n      swap1\n      revert\n    tag_237:\n        /* \"src/StakingContract.sol\":5278:5288  msg.sender */\n      caller\n        /* \"src/StakingContract.sol\":5267:5297  RewardPaid(msg.sender, reward) */\n      0xffffffffffffffffffffffffffffffffffffffff\n      and\n      0xe2403640ba68fed3a2f88b7557551d1993f84b99bb10ff833f0cf8db0c5e0486\n        /* \"src/StakingContract.sol\":5290:5296  reward */\n      dup6\n        /* \"src/StakingContract.sol\":5267:5297  RewardPaid(msg.sender, reward) */\n      mload(0x40)\n      tag_240\n      swap2\n      swap1\n      tag_43\n      jump\t// in\n    tag_240:\n      mload(0x40)\n      dup1\n      swap2\n      sub\n      swap1\n      log2\n        /* \"src/StakingContract.sol\":5100:5309  {... */\n      pop\n        /* \"src/StakingContract.sol\":5084:5509  if (reward > 0) {... */\n      jump(tag_241)\n    tag_231:\n        /* \"src/StakingContract.sol\":5422:5432  basicToken */\n      0x02\n      0x00\n      swap1\n      sload\n      swap1\n      0x0100\n      exp\n      swap1\n      div\n      0xffffffffffffffffffffffffffffffffffffffff\n      and\n        /* \"src/StakingContract.sol\":5422:5441  basicToken.transfer */\n      0xffffffffffffffffffffffffffffffffffffffff\n      and\n      0xa9059cbb\n        /* \"src/StakingContract.sol\":5442:5452  msg.sender */\n      caller\n        /* \"src/StakingContract.sol\":5454:5468  amountAfterFee */\n      dup4\n        /* \"src/StakingContract.sol\":5422:5469  basicToken.transfer(msg.sender, amountAfterFee) */\n      mload(0x40)\n      dup4\n      0xffffffff\n      and\n      0xe0\n      shl\n      dup2\n      mstore\n      0x04\n      add\n      tag_242\n      swap3\n      swap2\n      swap1\n      tag_179\n      jump\t// in\n    tag_242:\n      0x20\n      mload(0x40)\n      dup1\n      dup4\n      sub\n      dup2\n      0x00\n      dup8\n      gas\n      call\n      iszero\n      dup1\n      iszero\n      tag_244\n      jumpi\n      returndatasize\n      0x00\n      dup1\n      returndatacopy\n      revert(0x00, returndatasize)\n    tag_244:\n      pop\n      pop\n      pop\n      pop\n      mload(0x40)\n      returndatasize\n      not(0x1f)\n      0x1f\n      dup3\n      add\n      and\n      dup3\n      add\n      dup1\n      0x40\n      mstore\n      pop\n      dup2\n      add\n      swap1\n      tag_245\n      swap2\n      swap1\n      tag_183\n      jump\t// in\n    tag_245:\n        /* \"src/StakingContract.sol\":5414:5497  require(basicToken.transfer(msg.sender, amountAfterFee), \"Unstake transfer failed\") */\n      tag_246\n      jumpi\n      mload(0x40)\n      0x08c379a000000000000000000000000000000000000000000000000000000000\n      dup2\n      mstore\n      0x04\n      add\n      tag_247\n      swap1\n      tag_248\n      jump\t// in\n    tag_247:\n      mload(0x40)\n      dup1\n      swap2\n      sub\n      swap1\n      revert\n    tag_246:\n        /* \"src/StakingContract.sol\":5084:5509  if (reward > 0) {... */\n    tag_241:\n        /* \"src/StakingContract.sol\":5528:5535  stakers */\n      0x0d\n        /* \"src/StakingContract.sol\":5528:5547  stakers[msg.sender] */\n      0x00\n        /* \"src/StakingContract.sol\":5536:5546  msg.sender */\n      caller\n        /* \"src/StakingContract.sol\":5528:5547  stakers[msg.sender] */\n      0xffffffffffffffffffffffffffffffffffffffff\n      and\n      0xffffffffffffffffffffffffffffffffffffffff\n      and\n      dup2\n      mstore\n      0x20\n      add\n      swap1\n      dup2\n      mstore\n      0x20\n      add\n      0x00\n      keccak256\n      0x00\n        /* \"src/StakingContract.sol\":5521:5547  delete stakers[msg.sender] */\n      dup1\n      dup3\n      add\n      0x00\n      swap1\n      sstore\n      0x01\n      dup3\n      add\n      0x00\n      swap1\n      sstore\n      0x02\n      dup3\n      add\n      0x00\n      swap1\n      sstore\n      0x03\n      dup3\n      add\n      0x00\n      swap1\n      sstore\n      0x04\n      dup3\n      add\n      exp(0x0100, 0x00)\n      dup2\n      sload\n      swap1\n      0xff\n      mul\n      not\n      and\n      swap1\n      sstore\n      pop\n      pop\n        /* \"src/StakingContract.sol\":5614:5624  msg.sender */\n      caller\n        /* \"src/StakingContract.sol\":5605:5633  Unstaked(msg.sender, amount) */\n      0xffffffffffffffffffffffffffffffffffffffff\n      and\n      0x0f5bb82176feb1b5e747e28471aa92156a04d9f3ab9f45f28e2d704232b93f75\n        /* \"src/StakingContract.sol\":5626:5632  amount */\n      dup6\n        /* \"src/StakingContract.sol\":5605:5633  Unstaked(msg.sender, amount) */\n      mload(0x40)\n      tag_249\n      swap2\n      swap1\n      tag_43\n      jump\t// in\n    tag_249:\n      mload(0x40)\n      dup1\n      swap2\n      sub\n      swap1\n      log2\n        /* \"src/StakingContract.sol\":4405:5641  {... */\n      pop\n      pop\n      pop\n      pop\n      pop\n        /* \"@openzeppelin/contracts/utils/ReentrancyGuard.sol\":2387:2388  _ */\n      pop\n        /* \"@openzeppelin/contracts/utils/ReentrancyGuard.sol\":2398:2418  _nonReentrantAfter() */\n      tag_250\n        /* \"@openzeppelin/contracts/utils/ReentrancyGuard.sol\":2398:2416  _nonReentrantAfter */\n      tag_162\n        /* \"@openzeppelin/contracts/utils/ReentrancyGuard.sol\":2398:2418  _nonReentrantAfter() */\n      jump\t// in\n    tag_250:\n        /* \"src/StakingContract.sol\":4331:5641  function completeUnstake() external nonReentrant updateReward(msg.sender) {... */\n      jump\t// out\n        /* \"@openzeppelin/contracts/access/Ownable.sol\":2293:2394  function renounceOwnership() public virtual onlyOwner {... */\n    tag_79:\n        /* \"@openzeppelin/contracts/access/Ownable.sol\":1531:1544  _checkOwner() */\n      tag_252\n        /* \"@openzeppelin/contracts/access/Ownable.sol\":1531:1542  _checkOwner */\n      tag_165\n        /* \"@openzeppelin/contracts/access/Ownable.sol\":1531:1544  _checkOwner() */\n      jump\t// in\n    tag_252:\n        /* \"@openzeppelin/contracts/access/Ownable.sol\":2357:2387  _transferOwnership(address(0)) */\n      tag_254\n        /* \"@openzeppelin/contracts/access/Ownable.sol\":2384:2385  0 */\n      0x00\n        /* \"@openzeppelin/contracts/access/Ownable.sol\":2357:2375  _transferOwnership */\n      tag_255\n        /* \"@openzeppelin/contracts/access/Ownable.sol\":2357:2387  _transferOwnership(address(0)) */\n      jump\t// in\n    tag_254:\n        /* \"@openzeppelin/contracts/access/Ownable.sol\":2293:2394  function renounceOwnership() public virtual onlyOwner {... */\n      jump\t// out\n        /* \"src/StakingContract.sol\":449:474  uint256 public rewardRate */\n    tag_81:\n      sload(0x05)\n      dup2\n      jump\t// out\n        /* \"src/StakingContract.sol\":329:355  uint256 public totalStaked */\n    tag_84:\n      sload(0x03)\n      dup2\n      jump\t// out\n        /* \"src/StakingContract.sol\":756:782  uint256 public emissionEnd */\n    tag_87:\n      sload(0x0b)\n      dup2\n      jump\t// out\n        /* \"@openzeppelin/contracts/access/Ownable.sol\":1638:1723  function owner() public view virtual returns (address) {... */\n    tag_90:\n        /* \"@openzeppelin/contracts/access/Ownable.sol\":1684:1691  address */\n      0x00\n        /* \"@openzeppelin/contracts/access/Ownable.sol\":1710:1716  _owner */\n      0x01\n      0x00\n      swap1\n      sload\n      swap1\n      0x0100\n      exp\n      swap1\n      div\n      0xffffffffffffffffffffffffffffffffffffffff\n      and\n        /* \"@openzeppelin/contracts/access/Ownable.sol\":1703:1716  return _owner */\n      swap1\n      pop\n        /* \"@openzeppelin/contracts/access/Ownable.sol\":1638:1723  function owner() public view virtual returns (address) {... */\n      swap1\n      jump\t// out\n        /* \"src/StakingContract.sol\":1011:1052  mapping(address => Staker) public stakers */\n    tag_95:\n      mstore(0x20, 0x0d)\n      dup1\n      0x00\n      mstore\n      keccak256(0x00, 0x40)\n      0x00\n      swap2\n      pop\n      swap1\n      pop\n      dup1\n      0x00\n      add\n      sload\n      swap1\n      dup1\n      0x01\n      add\n      sload\n      swap1\n      dup1\n      0x02\n      add\n      sload\n      swap1\n      dup1\n      0x03\n      add\n      sload\n      swap1\n      dup1\n      0x04\n      add\n      0x00\n      swap1\n      sload\n      swap1\n      0x0100\n      exp\n      swap1\n      div\n      0xff\n      and\n      swap1\n      pop\n      dup6\n      jump\t// out\n        /* \"src/StakingContract.sol\":789:815  uint256 public feesAccrued */\n    tag_99:\n      sload(0x0c)\n      dup2\n      jump\t// out\n        /* \"src/StakingContract.sol\":3338:3885  function stake(uint256 _amount) external nonReentrant updateReward(msg.sender) {... */\n    tag_103:\n        /* \"@openzeppelin/contracts/utils/ReentrancyGuard.sol\":2356:2377  _nonReentrantBefore() */\n      tag_258\n        /* \"@openzeppelin/contracts/utils/ReentrancyGuard.sol\":2356:2375  _nonReentrantBefore */\n      tag_145\n        /* \"@openzeppelin/contracts/utils/ReentrancyGuard.sol\":2356:2377  _nonReentrantBefore() */\n      jump\t// in\n    tag_258:\n        /* \"src/StakingContract.sol\":3405:3415  msg.sender */\n      caller\n        /* \"src/StakingContract.sol\":1417:1433  rewardPerToken() */\n      tag_260\n        /* \"src/StakingContract.sol\":1417:1431  rewardPerToken */\n      tag_120\n        /* \"src/StakingContract.sol\":1417:1433  rewardPerToken() */\n      jump\t// in\n    tag_260:\n        /* \"src/StakingContract.sol\":1394:1414  rewardPerTokenStored */\n      0x07\n        /* \"src/StakingContract.sol\":1394:1433  rewardPerTokenStored = rewardPerToken() */\n      dup2\n      swap1\n      sstore\n      pop\n        /* \"src/StakingContract.sol\":1461:1481  lastApplicableTime() */\n      tag_261\n        /* \"src/StakingContract.sol\":1461:1479  lastApplicableTime */\n      tag_52\n        /* \"src/StakingContract.sol\":1461:1481  lastApplicableTime() */\n      jump\t// in\n    tag_261:\n        /* \"src/StakingContract.sol\":1444:1458  lastUpdateTime */\n      0x06\n        /* \"src/StakingContract.sol\":1444:1481  lastUpdateTime = lastApplicableTime() */\n      dup2\n      swap1\n      sstore\n      pop\n        /* \"src/StakingContract.sol\":1532:1533  0 */\n      0x00\n        /* \"src/StakingContract.sol\":1496:1503  stakers */\n      0x0d\n        /* \"src/StakingContract.sol\":1496:1512  stakers[account] */\n      0x00\n        /* \"src/StakingContract.sol\":1504:1511  account */\n      dup4\n        /* \"src/StakingContract.sol\":1496:1512  stakers[account] */\n      0xffffffffffffffffffffffffffffffffffffffff\n      and\n      0xffffffffffffffffffffffffffffffffffffffff\n      and\n      dup2\n      mstore\n      0x20\n      add\n      swap1\n      dup2\n      mstore\n      0x20\n      add\n      0x00\n      keccak256\n        /* \"src/StakingContract.sol\":1496:1528  stakers[account].unstakeInitTime */\n      0x03\n      add\n      sload\n        /* \"src/StakingContract.sol\":1496:1533  stakers[account].unstakeInitTime == 0 */\n      sub\n        /* \"src/StakingContract.sol\":1492:1670  if (stakers[account].unstakeInitTime == 0 ) {... */\n      tag_262\n      jumpi\n        /* \"src/StakingContract.sol\":1578:1593  earned(account) */\n      tag_263\n        /* \"src/StakingContract.sol\":1585:1592  account */\n      dup2\n        /* \"src/StakingContract.sol\":1578:1584  earned */\n      tag_41\n        /* \"src/StakingContract.sol\":1578:1593  earned(account) */\n      jump\t// in\n    tag_263:\n        /* \"src/StakingContract.sol\":1551:1558  stakers */\n      0x0d\n        /* \"src/StakingContract.sol\":1551:1567  stakers[account] */\n      0x00\n        /* \"src/StakingContract.sol\":1559:1566  account */\n      dup4\n        /* \"src/StakingContract.sol\":1551:1567  stakers[account] */\n      0xffffffffffffffffffffffffffffffffffffffff\n      and\n      0xffffffffffffffffffffffffffffffffffffffff\n      and\n      dup2\n      mstore\n      0x20\n      add\n      swap1\n      dup2\n      mstore\n      0x20\n      add\n      0x00\n      keccak256\n        /* \"src/StakingContract.sol\":1551:1575  stakers[account].rewards */\n      0x02\n      add\n        /* \"src/StakingContract.sol\":1551:1593  stakers[account].rewards = earned(account) */\n      dup2\n      swap1\n      sstore\n      pop\n        /* \"src/StakingContract.sol\":1638:1658  rewardPerTokenStored */\n      sload(0x07)\n        /* \"src/StakingContract.sol\":1608:1615  stakers */\n      0x0d\n        /* \"src/StakingContract.sol\":1608:1624  stakers[account] */\n      0x00\n        /* \"src/StakingContract.sol\":1616:1623  account */\n      dup4\n        /* \"src/StakingContract.sol\":1608:1624  stakers[account] */\n      0xffffffffffffffffffffffffffffffffffffffff\n      and\n      0xffffffffffffffffffffffffffffffffffffffff\n      and\n      dup2\n      mstore\n      0x20\n      add\n      swap1\n      dup2\n      mstore\n      0x20\n      add\n      0x00\n      keccak256\n        /* \"src/StakingContract.sol\":1608:1635  stakers[account].rewardDebt */\n      0x01\n      add\n        /* \"src/StakingContract.sol\":1608:1658  stakers[account].rewardDebt = rewardPerTokenStored */\n      dup2\n      swap1\n      sstore\n      pop\n        /* \"src/StakingContract.sol\":1492:1670  if (stakers[account].unstakeInitTime == 0 ) {... */\n    tag_262:\n        /* \"src/StakingContract.sol\":1730:1731  0 */\n      0x00\n        /* \"src/StakingContract.sol\":1694:1701  stakers */\n      0x0d\n        /* \"src/StakingContract.sol\":1694:1710  stakers[account] */\n      0x00\n        /* \"src/StakingContract.sol\":1702:1709  account */\n      dup4\n        /* \"src/StakingContract.sol\":1694:1710  stakers[account] */\n      0xffffffffffffffffffffffffffffffffffffffff\n      and\n      0xffffffffffffffffffffffffffffffffffffffff\n      and\n      dup2\n      mstore\n      0x20\n      add\n      swap1\n      dup2\n      mstore\n      0x20\n      add\n      0x00\n      keccak256\n        /* \"src/StakingContract.sol\":1694:1726  stakers[account].unstakeInitTime */\n      0x03\n      add\n      sload\n        /* \"src/StakingContract.sol\":1694:1731  stakers[account].unstakeInitTime != 0 */\n      eq\n        /* \"src/StakingContract.sol\":1690:2062  if (stakers[account].unstakeInitTime != 0 ) {... */\n      tag_264\n      jumpi\n        /* \"src/StakingContract.sol\":1795:1799  true */\n      0x01\n        /* \"src/StakingContract.sol\":1755:1799  stakers[account].claimedAfterUnstake == true */\n      iszero\n      iszero\n        /* \"src/StakingContract.sol\":1755:1762  stakers */\n      0x0d\n        /* \"src/StakingContract.sol\":1755:1771  stakers[account] */\n      0x00\n        /* \"src/StakingContract.sol\":1763:1770  account */\n      dup4\n        /* \"src/StakingContract.sol\":1755:1771  stakers[account] */\n      0xffffffffffffffffffffffffffffffffffffffff\n      and\n      0xffffffffffffffffffffffffffffffffffffffff\n      and\n      dup2\n      mstore\n      0x20\n      add\n      swap1\n      dup2\n      mstore\n      0x20\n      add\n      0x00\n      keccak256\n        /* \"src/StakingContract.sol\":1755:1791  stakers[account].claimedAfterUnstake */\n      0x04\n      add\n      0x00\n      swap1\n      sload\n      swap1\n      0x0100\n      exp\n      swap1\n      div\n      0xff\n      and\n        /* \"src/StakingContract.sol\":1755:1799  stakers[account].claimedAfterUnstake == true */\n      iszero\n      iszero\n      sub\n        /* \"src/StakingContract.sol\":1751:1868  if (stakers[account].claimedAfterUnstake == true) {... */\n      tag_265\n      jumpi\n        /* \"src/StakingContract.sol\":1847:1848  0 */\n      0x00\n        /* \"src/StakingContract.sol\":1820:1827  stakers */\n      0x0d\n        /* \"src/StakingContract.sol\":1820:1836  stakers[account] */\n      0x00\n        /* \"src/StakingContract.sol\":1828:1835  account */\n      dup4\n        /* \"src/StakingContract.sol\":1820:1836  stakers[account] */\n      0xffffffffffffffffffffffffffffffffffffffff\n      and\n      0xffffffffffffffffffffffffffffffffffffffff\n      and\n      dup2\n      mstore\n      0x20\n      add\n      swap1\n      dup2\n      mstore\n      0x20\n      add\n      0x00\n      keccak256\n        /* \"src/StakingContract.sol\":1820:1844  stakers[account].rewards */\n      0x02\n      add\n        /* \"src/StakingContract.sol\":1820:1848  stakers[account].rewards = 0 */\n      dup2\n      swap1\n      sstore\n      pop\n        /* \"src/StakingContract.sol\":1751:1868  if (stakers[account].claimedAfterUnstake == true) {... */\n    tag_265:\n        /* \"src/StakingContract.sol\":1690:2062  if (stakers[account].unstakeInitTime != 0 ) {... */\n    tag_264:\n        /* \"src/StakingContract.sol\":3446:3447  0 */\n      0x00\n        /* \"src/StakingContract.sol\":3436:3443  _amount */\n      dup3\n        /* \"src/StakingContract.sol\":3436:3447  _amount > 0 */\n      gt\n        /* \"src/StakingContract.sol\":3428:3466  require(_amount > 0, \"Cannot stake 0\") */\n      tag_267\n      jumpi\n      mload(0x40)\n      0x08c379a000000000000000000000000000000000000000000000000000000000\n      dup2\n      mstore\n      0x04\n      add\n      tag_268\n      swap1\n      tag_269\n      jump\t// in\n    tag_268:\n      mload(0x40)\n      dup1\n      swap2\n      sub\n      swap1\n      revert\n    tag_267:\n        /* \"src/StakingContract.sol\":3477:3498  Staker storage staker */\n      0x00\n        /* \"src/StakingContract.sol\":3501:3508  stakers */\n      0x0d\n        /* \"src/StakingContract.sol\":3501:3520  stakers[msg.sender] */\n      0x00\n        /* \"src/StakingContract.sol\":3509:3519  msg.sender */\n      caller\n        /* \"src/StakingContract.sol\":3501:3520  stakers[msg.sender] */\n      0xffffffffffffffffffffffffffffffffffffffff\n      and\n      0xffffffffffffffffffffffffffffffffffffffff\n      and\n      dup2\n      mstore\n      0x20\n      add\n      swap1\n      dup2\n      mstore\n      0x20\n      add\n      0x00\n      keccak256\n        /* \"src/StakingContract.sol\":3477:3520  Staker storage staker = stakers[msg.sender] */\n      swap1\n      pop\n        /* \"src/StakingContract.sol\":3565:3566  0 */\n      0x00\n        /* \"src/StakingContract.sol\":3539:3545  staker */\n      dup2\n        /* \"src/StakingContract.sol\":3539:3561  staker.unstakeInitTime */\n      0x03\n      add\n      sload\n        /* \"src/StakingContract.sol\":3539:3566  staker.unstakeInitTime == 0 */\n      eq\n        /* \"src/StakingContract.sol\":3531:3609  require(staker.unstakeInitTime == 0, \"Cannot stake after initiating unstake.\") */\n      tag_270\n      jumpi\n      mload(0x40)\n      0x08c379a000000000000000000000000000000000000000000000000000000000\n      dup2\n      mstore\n      0x04\n      add\n      tag_271\n      swap1\n      tag_272\n      jump\t// in\n    tag_271:\n      mload(0x40)\n      dup1\n      swap2\n      sub\n      swap1\n      revert\n    tag_270:\n        /* \"src/StakingContract.sol\":3635:3642  _amount */\n      dup3\n        /* \"src/StakingContract.sol\":3620:3631  totalStaked */\n      0x03\n      0x00\n        /* \"src/StakingContract.sol\":3620:3642  totalStaked += _amount */\n      dup3\n      dup3\n      sload\n      tag_273\n      swap2\n      swap1\n      tag_139\n      jump\t// in\n    tag_273:\n      swap3\n      pop\n      pop\n      dup2\n      swap1\n      sstore\n      pop\n        /* \"src/StakingContract.sol\":3683:3690  _amount */\n      dup3\n        /* \"src/StakingContract.sol\":3653:3679  totalStakedAccruingRewards */\n      0x04\n      0x00\n        /* \"src/StakingContract.sol\":3653:3690  totalStakedAccruingRewards += _amount */\n      dup3\n      dup3\n      sload\n      tag_274\n      swap2\n      swap1\n      tag_139\n      jump\t// in\n    tag_274:\n      swap3\n      pop\n      pop\n      dup2\n      swap1\n      sstore\n      pop\n        /* \"src/StakingContract.sol\":3724:3731  _amount */\n      dup3\n        /* \"src/StakingContract.sol\":3701:3707  staker */\n      dup2\n        /* \"src/StakingContract.sol\":3701:3720  staker.amountStaked */\n      0x00\n      add\n      0x00\n        /* \"src/StakingContract.sol\":3701:3731  staker.amountStaked += _amount */\n      dup3\n      dup3\n      sload\n      tag_275\n      swap2\n      swap1\n      tag_139\n      jump\t// in\n    tag_275:\n      swap3\n      pop\n      pop\n      dup2\n      swap1\n      sstore\n      pop\n        /* \"src/StakingContract.sol\":3750:3760  basicToken */\n      0x02\n      0x00\n      swap1\n      sload\n      swap1\n      0x0100\n      exp\n      swap1\n      div\n      0xffffffffffffffffffffffffffffffffffffffff\n      and\n        /* \"src/StakingContract.sol\":3750:3773  basicToken.transferFrom */\n      0xffffffffffffffffffffffffffffffffffffffff\n      and\n      0x23b872dd\n        /* \"src/StakingContract.sol\":3774:3784  msg.sender */\n      caller\n        /* \"src/StakingContract.sol\":3794:3798  this */\n      address\n        /* \"src/StakingContract.sol\":3801:3808  _amount */\n      dup7\n        /* \"src/StakingContract.sol\":3750:3809  basicToken.transferFrom(msg.sender, address(this), _amount) */\n      mload(0x40)\n      dup5\n      0xffffffff\n      and\n      0xe0\n      shl\n      dup2\n      mstore\n      0x04\n      add\n      tag_276\n      swap4\n      swap3\n      swap2\n      swap1\n      tag_277\n      jump\t// in\n    tag_276:\n      0x20\n      mload(0x40)\n      dup1\n      dup4\n      sub\n      dup2\n      0x00\n      dup8\n      gas\n      call\n      iszero\n      dup1\n      iszero\n      tag_279\n      jumpi\n      returndatasize\n      0x00\n      dup1\n      returndatacopy\n      revert(0x00, returndatasize)\n    tag_279:\n      pop\n      pop\n      pop\n      pop\n      mload(0x40)\n      returndatasize\n      not(0x1f)\n      0x1f\n      dup3\n      add\n      and\n      dup3\n      add\n      dup1\n      0x40\n      mstore\n      pop\n      dup2\n      add\n      swap1\n      tag_280\n      swap2\n      swap1\n      tag_183\n      jump\t// in\n    tag_280:\n        /* \"src/StakingContract.sol\":3742:3834  require(basicToken.transferFrom(msg.sender, address(this), _amount), \"Token deposit failed\") */\n      tag_281\n      jumpi\n      mload(0x40)\n      0x08c379a000000000000000000000000000000000000000000000000000000000\n      dup2\n      mstore\n      0x04\n      add\n      tag_282\n      swap1\n      tag_283\n      jump\t// in\n    tag_282:\n      mload(0x40)\n      dup1\n      swap2\n      sub\n      swap1\n      revert\n    tag_281:\n        /* \"src/StakingContract.sol\":3857:3867  msg.sender */\n      caller\n        /* \"src/StakingContract.sol\":3850:3877  Staked(msg.sender, _amount) */\n      0xffffffffffffffffffffffffffffffffffffffff\n      and\n      0x9e71bc8eea02a63969f509818f2dafb9254532904319f9dbda79b67bd34a5f3d\n        /* \"src/StakingContract.sol\":3869:3876  _amount */\n      dup5\n        /* \"src/StakingContract.sol\":3850:3877  Staked(msg.sender, _amount) */\n      mload(0x40)\n      tag_284\n      swap2\n      swap1\n      tag_43\n      jump\t// in\n    tag_284:\n      mload(0x40)\n      dup1\n      swap2\n      sub\n      swap1\n      log2\n        /* \"src/StakingContract.sol\":3417:3885  {... */\n      pop\n        /* \"@openzeppelin/contracts/utils/ReentrancyGuard.sol\":2387:2388  _ */\n      pop\n        /* \"@openzeppelin/contracts/utils/ReentrancyGuard.sol\":2398:2418  _nonReentrantAfter() */\n      tag_285\n        /* \"@openzeppelin/contracts/utils/ReentrancyGuard.sol\":2398:2416  _nonReentrantAfter */\n      tag_162\n        /* \"@openzeppelin/contracts/utils/ReentrancyGuard.sol\":2398:2418  _nonReentrantAfter() */\n      jump\t// in\n    tag_285:\n        /* \"src/StakingContract.sol\":3338:3885  function stake(uint256 _amount) external nonReentrant updateReward(msg.sender) {... */\n      pop\n      jump\t// out\n        /* \"src/StakingContract.sol\":6366:6569  function setUnstakeTimeLock(uint256 _newTimeLock) external onlyOwner {... */\n    tag_106:\n        /* \"@openzeppelin/contracts/access/Ownable.sol\":1531:1544  _checkOwner() */\n      tag_287\n        /* \"@openzeppelin/contracts/access/Ownable.sol\":1531:1542  _checkOwner */\n      tag_165\n        /* \"@openzeppelin/contracts/access/Ownable.sol\":1531:1544  _checkOwner() */\n      jump\t// in\n    tag_287:\n        /* \"src/StakingContract.sol\":6470:6477  15 days */\n      0x13c680\n        /* \"src/StakingContract.sol\":6454:6466  _newTimeLock */\n      dup2\n        /* \"src/StakingContract.sol\":6454:6477  _newTimeLock <= 15 days */\n      gt\n      iszero\n        /* \"src/StakingContract.sol\":6446:6520  require(_newTimeLock <= 15 days, \"Time lock must be between 0 to 15 days\") */\n      tag_289\n      jumpi\n      mload(0x40)\n      0x08c379a000000000000000000000000000000000000000000000000000000000\n      dup2\n      mstore\n      0x04\n      add\n      tag_290\n      swap1\n      tag_291\n      jump\t// in\n    tag_290:\n      mload(0x40)\n      dup1\n      swap2\n      sub\n      swap1\n      revert\n    tag_289:\n        /* \"src/StakingContract.sol\":6549:6561  _newTimeLock */\n      dup1\n        /* \"src/StakingContract.sol\":6531:6546  unstakeTimeLock */\n      0x08\n        /* \"src/StakingContract.sol\":6531:6561  unstakeTimeLock = _newTimeLock */\n      dup2\n      swap1\n      sstore\n      pop\n        /* \"src/StakingContract.sol\":6366:6569  function setUnstakeTimeLock(uint256 _newTimeLock) external onlyOwner {... */\n      pop\n      jump\t// out\n        /* \"src/StakingContract.sol\":6982:7208  function setEmissionDetails(uint256 _emissionDuration) external onlyOwner {... */\n    tag_109:\n        /* \"@openzeppelin/contracts/access/Ownable.sol\":1531:1544  _checkOwner() */\n      tag_293\n        /* \"@openzeppelin/contracts/access/Ownable.sol\":1531:1542  _checkOwner */\n      tag_165\n        /* \"@openzeppelin/contracts/access/Ownable.sol\":1531:1544  _checkOwner() */\n      jump\t// in\n    tag_293:\n        /* \"src/StakingContract.sol\":7095:7112  _emissionDuration */\n      dup1\n        /* \"src/StakingContract.sol\":7081:7092  emissionEnd */\n      sload(0x0b)\n        /* \"src/StakingContract.sol\":7081:7112  emissionEnd + _emissionDuration */\n      tag_295\n      swap2\n      swap1\n      tag_139\n      jump\t// in\n    tag_295:\n        /* \"src/StakingContract.sol\":7067:7078  emissionEnd */\n      0x0b\n        /* \"src/StakingContract.sol\":7067:7112  emissionEnd = emissionEnd + _emissionDuration */\n      dup2\n      swap1\n      sstore\n      pop\n        /* \"src/StakingContract.sol\":7171:7200  EmissionsUpdated(emissionEnd) */\n      0x72e8f210806bb29eb1445af1720350cfe89280bb2c2eff23d882cd0240121461\n        /* \"src/StakingContract.sol\":7188:7199  emissionEnd */\n      sload(0x0b)\n        /* \"src/StakingContract.sol\":7171:7200  EmissionsUpdated(emissionEnd) */\n      mload(0x40)\n      tag_296\n      swap2\n      swap1\n      tag_43\n      jump\t// in\n    tag_296:\n      mload(0x40)\n      dup1\n      swap2\n      sub\n      swap1\n      log1\n        /* \"src/StakingContract.sol\":6982:7208  function setEmissionDetails(uint256 _emissionDuration) external onlyOwner {... */\n      pop\n      jump\t// out\n        /* \"src/StakingContract.sol\":5649:6136  function claimReward() external nonReentrant updateReward(msg.sender) {... */\n    tag_111:\n        /* \"@openzeppelin/contracts/utils/ReentrancyGuard.sol\":2356:2377  _nonReentrantBefore() */\n      tag_298\n        /* \"@openzeppelin/contracts/utils/ReentrancyGuard.sol\":2356:2375  _nonReentrantBefore */\n      tag_145\n        /* \"@openzeppelin/contracts/utils/ReentrancyGuard.sol\":2356:2377  _nonReentrantBefore() */\n      jump\t// in\n    tag_298:\n        /* \"src/StakingContract.sol\":5707:5717  msg.sender */\n      caller\n        /* \"src/StakingContract.sol\":1417:1433  rewardPerToken() */\n      tag_300\n        /* \"src/StakingContract.sol\":1417:1431  rewardPerToken */\n      tag_120\n        /* \"src/StakingContract.sol\":1417:1433  rewardPerToken() */\n      jump\t// in\n    tag_300:\n        /* \"src/StakingContract.sol\":1394:1414  rewardPerTokenStored */\n      0x07\n        /* \"src/StakingContract.sol\":1394:1433  rewardPerTokenStored = rewardPerToken() */\n      dup2\n      swap1\n      sstore\n      pop\n        /* \"src/StakingContract.sol\":1461:1481  lastApplicableTime() */\n      tag_301\n        /* \"src/StakingContract.sol\":1461:1479  lastApplicableTime */\n      tag_52\n        /* \"src/StakingContract.sol\":1461:1481  lastApplicableTime() */\n      jump\t// in\n    tag_301:\n        /* \"src/StakingContract.sol\":1444:1458  lastUpdateTime */\n      0x06\n        /* \"src/StakingContract.sol\":1444:1481  lastUpdateTime = lastApplicableTime() */\n      dup2\n      swap1\n      sstore\n      pop\n        /* \"src/StakingContract.sol\":1532:1533  0 */\n      0x00\n        /* \"src/StakingContract.sol\":1496:1503  stakers */\n      0x0d\n        /* \"src/StakingContract.sol\":1496:1512  stakers[account] */\n      0x00\n        /* \"src/StakingContract.sol\":1504:1511  account */\n      dup4\n        /* \"src/StakingContract.sol\":1496:1512  stakers[account] */\n      0xffffffffffffffffffffffffffffffffffffffff\n      and\n      0xffffffffffffffffffffffffffffffffffffffff\n      and\n      dup2\n      mstore\n      0x20\n      add\n      swap1\n      dup2\n      mstore\n      0x20\n      add\n      0x00\n      keccak256\n        /* \"src/StakingContract.sol\":1496:1528  stakers[account].unstakeInitTime */\n      0x03\n      add\n      sload\n        /* \"src/StakingContract.sol\":1496:1533  stakers[account].unstakeInitTime == 0 */\n      sub\n        /* \"src/StakingContract.sol\":1492:1670  if (stakers[account].unstakeInitTime == 0 ) {... */\n      tag_302\n      jumpi\n        /* \"src/StakingContract.sol\":1578:1593  earned(account) */\n      tag_303\n        /* \"src/StakingContract.sol\":1585:1592  account */\n      dup2\n        /* \"src/StakingContract.sol\":1578:1584  earned */\n      tag_41\n        /* \"src/StakingContract.sol\":1578:1593  earned(account) */\n      jump\t// in\n    tag_303:\n        /* \"src/StakingContract.sol\":1551:1558  stakers */\n      0x0d\n        /* \"src/StakingContract.sol\":1551:1567  stakers[account] */\n      0x00\n        /* \"src/StakingContract.sol\":1559:1566  account */\n      dup4\n        /* \"src/StakingContract.sol\":1551:1567  stakers[account] */\n      0xffffffffffffffffffffffffffffffffffffffff\n      and\n      0xffffffffffffffffffffffffffffffffffffffff\n      and\n      dup2\n      mstore\n      0x20\n      add\n      swap1\n      dup2\n      mstore\n      0x20\n      add\n      0x00\n      keccak256\n        /* \"src/StakingContract.sol\":1551:1575  stakers[account].rewards */\n      0x02\n      add\n        /* \"src/StakingContract.sol\":1551:1593  stakers[account].rewards = earned(account) */\n      dup2\n      swap1\n      sstore\n      pop\n        /* \"src/StakingContract.sol\":1638:1658  rewardPerTokenStored */\n      sload(0x07)\n        /* \"src/StakingContract.sol\":1608:1615  stakers */\n      0x0d\n        /* \"src/StakingContract.sol\":1608:1624  stakers[account] */\n      0x00\n        /* \"src/StakingContract.sol\":1616:1623  account */\n      dup4\n        /* \"src/StakingContract.sol\":1608:1624  stakers[account] */\n      0xffffffffffffffffffffffffffffffffffffffff\n      and\n      0xffffffffffffffffffffffffffffffffffffffff\n      and\n      dup2\n      mstore\n      0x20\n      add\n      swap1\n      dup2\n      mstore\n      0x20\n      add\n      0x00\n      keccak256\n        /* \"src/StakingContract.sol\":1608:1635  stakers[account].rewardDebt */\n      0x01\n      add\n        /* \"src/StakingContract.sol\":1608:1658  stakers[account].rewardDebt = rewardPerTokenStored */\n      dup2\n      swap1\n      sstore\n      pop\n        /* \"src/StakingContract.sol\":1492:1670  if (stakers[account].unstakeInitTime == 0 ) {... */\n    tag_302:\n        /* \"src/StakingContract.sol\":1730:1731  0 */\n      0x00\n        /* \"src/StakingContract.sol\":1694:1701  stakers */\n      0x0d\n        /* \"src/StakingContract.sol\":1694:1710  stakers[account] */\n      0x00\n        /* \"src/StakingContract.sol\":1702:1709  account */\n      dup4\n        /* \"src/StakingContract.sol\":1694:1710  stakers[account] */\n      0xffffffffffffffffffffffffffffffffffffffff\n      and\n      0xffffffffffffffffffffffffffffffffffffffff\n      and\n      dup2\n      mstore\n      0x20\n      add\n      swap1\n      dup2\n      mstore\n      0x20\n      add\n      0x00\n      keccak256\n        /* \"src/StakingContract.sol\":1694:1726  stakers[account].unstakeInitTime */\n      0x03\n      add\n      sload\n        /* \"src/StakingContract.sol\":1694:1731  stakers[account].unstakeInitTime != 0 */\n      eq\n        /* \"src/StakingContract.sol\":1690:2062  if (stakers[account].unstakeInitTime != 0 ) {... */\n      tag_304\n      jumpi\n        /* \"src/StakingContract.sol\":1795:1799  true */\n      0x01\n        /* \"src/StakingContract.sol\":1755:1799  stakers[account].claimedAfterUnstake == true */\n      iszero\n      iszero\n        /* \"src/StakingContract.sol\":1755:1762  stakers */\n      0x0d\n        /* \"src/StakingContract.sol\":1755:1771  stakers[account] */\n      0x00\n        /* \"src/StakingContract.sol\":1763:1770  account */\n      dup4\n        /* \"src/StakingContract.sol\":1755:1771  stakers[account] */\n      0xffffffffffffffffffffffffffffffffffffffff\n      and\n      0xffffffffffffffffffffffffffffffffffffffff\n      and\n      dup2\n      mstore\n      0x20\n      add\n      swap1\n      dup2\n      mstore\n      0x20\n      add\n      0x00\n      keccak256\n        /* \"src/StakingContract.sol\":1755:1791  stakers[account].claimedAfterUnstake */\n      0x04\n      add\n      0x00\n      swap1\n      sload\n      swap1\n      0x0100\n      exp\n      swap1\n      div\n      0xff\n      and\n        /* \"src/StakingContract.sol\":1755:1799  stakers[account].claimedAfterUnstake == true */\n      iszero\n      iszero\n      sub\n        /* \"src/StakingContract.sol\":1751:1868  if (stakers[account].claimedAfterUnstake == true) {... */\n      tag_305\n      jumpi\n        /* \"src/StakingContract.sol\":1847:1848  0 */\n      0x00\n        /* \"src/StakingContract.sol\":1820:1827  stakers */\n      0x0d\n        /* \"src/StakingContract.sol\":1820:1836  stakers[account] */\n      0x00\n        /* \"src/StakingContract.sol\":1828:1835  account */\n      dup4\n        /* \"src/StakingContract.sol\":1820:1836  stakers[account] */\n      0xffffffffffffffffffffffffffffffffffffffff\n      and\n      0xffffffffffffffffffffffffffffffffffffffff\n      and\n      dup2\n      mstore\n      0x20\n      add\n      swap1\n      dup2\n      mstore\n      0x20\n      add\n      0x00\n      keccak256\n        /* \"src/StakingContract.sol\":1820:1844  stakers[account].rewards */\n      0x02\n      add\n        /* \"src/StakingContract.sol\":1820:1848  stakers[account].rewards = 0 */\n      dup2\n      swap1\n      sstore\n      pop\n        /* \"src/StakingContract.sol\":1751:1868  if (stakers[account].claimedAfterUnstake == true) {... */\n    tag_305:\n        /* \"src/StakingContract.sol\":1690:2062  if (stakers[account].unstakeInitTime != 0 ) {... */\n    tag_304:\n        /* \"src/StakingContract.sol\":5730:5744  uint256 reward */\n      0x00\n        /* \"src/StakingContract.sol\":5747:5754  stakers */\n      0x0d\n        /* \"src/StakingContract.sol\":5747:5766  stakers[msg.sender] */\n      0x00\n        /* \"src/StakingContract.sol\":5755:5765  msg.sender */\n      caller\n        /* \"src/StakingContract.sol\":5747:5766  stakers[msg.sender] */\n      0xffffffffffffffffffffffffffffffffffffffff\n      and\n      0xffffffffffffffffffffffffffffffffffffffff\n      and\n      dup2\n      mstore\n      0x20\n      add\n      swap1\n      dup2\n      mstore\n      0x20\n      add\n      0x00\n      keccak256\n        /* \"src/StakingContract.sol\":5747:5774  stakers[msg.sender].rewards */\n      0x02\n      add\n      sload\n        /* \"src/StakingContract.sol\":5730:5774  uint256 reward = stakers[msg.sender].rewards */\n      swap1\n      pop\n        /* \"src/StakingContract.sol\":5802:5803  0 */\n      0x00\n        /* \"src/StakingContract.sol\":5793:5799  reward */\n      dup2\n        /* \"src/StakingContract.sol\":5793:5803  reward > 0 */\n      gt\n        /* \"src/StakingContract.sol\":5785:5827  require(reward > 0, \"No rewards to claim\") */\n      tag_307\n      jumpi\n      mload(0x40)\n      0x08c379a000000000000000000000000000000000000000000000000000000000\n      dup2\n      mstore\n      0x04\n      add\n      tag_308\n      swap1\n      tag_309\n      jump\t// in\n    tag_308:\n      mload(0x40)\n      dup1\n      swap2\n      sub\n      swap1\n      revert\n    tag_307:\n        /* \"src/StakingContract.sol\":5868:5869  0 */\n      0x00\n        /* \"src/StakingContract.sol\":5838:5845  stakers */\n      0x0d\n        /* \"src/StakingContract.sol\":5838:5857  stakers[msg.sender] */\n      0x00\n        /* \"src/StakingContract.sol\":5846:5856  msg.sender */\n      caller\n        /* \"src/StakingContract.sol\":5838:5857  stakers[msg.sender] */\n      0xffffffffffffffffffffffffffffffffffffffff\n      and\n      0xffffffffffffffffffffffffffffffffffffffff\n      and\n      dup2\n      mstore\n      0x20\n      add\n      swap1\n      dup2\n      mstore\n      0x20\n      add\n      0x00\n      keccak256\n        /* \"src/StakingContract.sol\":5838:5865  stakers[msg.sender].rewards */\n      0x02\n      add\n        /* \"src/StakingContract.sol\":5838:5869  stakers[msg.sender].rewards = 0 */\n      dup2\n      swap1\n      sstore\n      pop\n        /* \"src/StakingContract.sol\":5923:5924  0 */\n      0x00\n        /* \"src/StakingContract.sol\":5884:5891  stakers */\n      0x0d\n        /* \"src/StakingContract.sol\":5884:5903  stakers[msg.sender] */\n      0x00\n        /* \"src/StakingContract.sol\":5892:5902  msg.sender */\n      caller\n        /* \"src/StakingContract.sol\":5884:5903  stakers[msg.sender] */\n      0xffffffffffffffffffffffffffffffffffffffff\n      and\n      0xffffffffffffffffffffffffffffffffffffffff\n      and\n      dup2\n      mstore\n      0x20\n      add\n      swap1\n      dup2\n      mstore\n      0x20\n      add\n      0x00\n      keccak256\n        /* \"src/StakingContract.sol\":5884:5919  stakers[msg.sender].unstakeInitTime */\n      0x03\n      add\n      sload\n        /* \"src/StakingContract.sol\":5884:5924  stakers[msg.sender].unstakeInitTime != 0 */\n      eq\n        /* \"src/StakingContract.sol\":5880:5998  if (stakers[msg.sender].unstakeInitTime != 0){... */\n      tag_310\n      jumpi\n        /* \"src/StakingContract.sol\":5982:5986  true */\n      0x01\n        /* \"src/StakingContract.sol\":5940:5947  stakers */\n      0x0d\n        /* \"src/StakingContract.sol\":5940:5959  stakers[msg.sender] */\n      0x00\n        /* \"src/StakingContract.sol\":5948:5958  msg.sender */\n      caller\n        /* \"src/StakingContract.sol\":5940:5959  stakers[msg.sender] */\n      0xffffffffffffffffffffffffffffffffffffffff\n      and\n      0xffffffffffffffffffffffffffffffffffffffff\n      and\n      dup2\n      mstore\n      0x20\n      add\n      swap1\n      dup2\n      mstore\n      0x20\n      add\n      0x00\n      keccak256\n        /* \"src/StakingContract.sol\":5940:5979  stakers[msg.sender].claimedAfterUnstake */\n      0x04\n      add\n      0x00\n        /* \"src/StakingContract.sol\":5940:5986  stakers[msg.sender].claimedAfterUnstake = true */\n      0x0100\n      exp\n      dup2\n      sload\n      dup2\n      0xff\n      mul\n      not\n      and\n      swap1\n      dup4\n      iszero\n      iszero\n      mul\n      or\n      swap1\n      sstore\n      pop\n        /* \"src/StakingContract.sol\":5880:5998  if (stakers[msg.sender].unstakeInitTime != 0){... */\n    tag_310:\n        /* \"src/StakingContract.sol\":6016:6026  basicToken */\n      0x02\n      0x00\n      swap1\n      sload\n      swap1\n      0x0100\n      exp\n      swap1\n      div\n      0xffffffffffffffffffffffffffffffffffffffff\n      and\n        /* \"src/StakingContract.sol\":6016:6035  basicToken.transfer */\n      0xffffffffffffffffffffffffffffffffffffffff\n      and\n      0xa9059cbb\n        /* \"src/StakingContract.sol\":6036:6046  msg.sender */\n      caller\n        /* \"src/StakingContract.sol\":6048:6054  reward */\n      dup4\n        /* \"src/StakingContract.sol\":6016:6055  basicToken.transfer(msg.sender, reward) */\n      mload(0x40)\n      dup4\n      0xffffffff\n      and\n      0xe0\n      shl\n      dup2\n      mstore\n      0x04\n      add\n      tag_311\n      swap3\n      swap2\n      swap1\n      tag_179\n      jump\t// in\n    tag_311:\n      0x20\n      mload(0x40)\n      dup1\n      dup4\n      sub\n      dup2\n      0x00\n      dup8\n      gas\n      call\n      iszero\n      dup1\n      iszero\n      tag_313\n      jumpi\n      returndatasize\n      0x00\n      dup1\n      returndatacopy\n      revert(0x00, returndatasize)\n    tag_313:\n      pop\n      pop\n      pop\n      pop\n      mload(0x40)\n      returndatasize\n      not(0x1f)\n      0x1f\n      dup3\n      add\n      and\n      dup3\n      add\n      dup1\n      0x40\n      mstore\n      pop\n      dup2\n      add\n      swap1\n      tag_314\n      swap2\n      swap1\n      tag_183\n      jump\t// in\n    tag_314:\n        /* \"src/StakingContract.sol\":6008:6082  require(basicToken.transfer(msg.sender, reward), \"Reward transfer failed\") */\n      tag_315\n      jumpi\n      mload(0x40)\n      0x08c379a000000000000000000000000000000000000000000000000000000000\n      dup2\n      mstore\n      0x04\n      add\n      tag_316\n      swap1\n      tag_317\n      jump\t// in\n    tag_316:\n      mload(0x40)\n      dup1\n      swap2\n      sub\n      swap1\n      revert\n    tag_315:\n        /* \"src/StakingContract.sol\":6109:6119  msg.sender */\n      caller\n        /* \"src/StakingContract.sol\":6098:6128  RewardPaid(msg.sender, reward) */\n      0xffffffffffffffffffffffffffffffffffffffff\n      and\n      0xe2403640ba68fed3a2f88b7557551d1993f84b99bb10ff833f0cf8db0c5e0486\n        /* \"src/StakingContract.sol\":6121:6127  reward */\n      dup3\n        /* \"src/StakingContract.sol\":6098:6128  RewardPaid(msg.sender, reward) */\n      mload(0x40)\n      tag_318\n      swap2\n      swap1\n      tag_43\n      jump\t// in\n    tag_318:\n      mload(0x40)\n      dup1\n      swap2\n      sub\n      swap1\n      log2\n        /* \"src/StakingContract.sol\":5719:6136  {... */\n      pop\n        /* \"@openzeppelin/contracts/utils/ReentrancyGuard.sol\":2387:2388  _ */\n      pop\n        /* \"@openzeppelin/contracts/utils/ReentrancyGuard.sol\":2398:2418  _nonReentrantAfter() */\n      tag_319\n        /* \"@openzeppelin/contracts/utils/ReentrancyGuard.sol\":2398:2416  _nonReentrantAfter */\n      tag_162\n        /* \"@openzeppelin/contracts/utils/ReentrancyGuard.sol\":2398:2418  _nonReentrantAfter() */\n      jump\t// in\n    tag_319:\n        /* \"src/StakingContract.sol\":5649:6136  function claimReward() external nonReentrant updateReward(msg.sender) {... */\n      jump\t// out\n        /* \"src/StakingContract.sol\":6577:6927  function getRemainingUnstakeTime(address _staker) external view returns (uint256) {... */\n    tag_114:\n        /* \"src/StakingContract.sol\":6650:6657  uint256 */\n      0x00\n        /* \"src/StakingContract.sol\":6670:6691  Staker storage staker */\n      dup1\n        /* \"src/StakingContract.sol\":6694:6701  stakers */\n      0x0d\n        /* \"src/StakingContract.sol\":6694:6710  stakers[_staker] */\n      0x00\n        /* \"src/StakingContract.sol\":6702:6709  _staker */\n      dup5\n        /* \"src/StakingContract.sol\":6694:6710  stakers[_staker] */\n      0xffffffffffffffffffffffffffffffffffffffff\n      and\n      0xffffffffffffffffffffffffffffffffffffffff\n      and\n      dup2\n      mstore\n      0x20\n      add\n      swap1\n      dup2\n      mstore\n      0x20\n      add\n      0x00\n      keccak256\n        /* \"src/StakingContract.sol\":6670:6710  Staker storage staker = stakers[_staker] */\n      swap1\n      pop\n        /* \"src/StakingContract.sol\":6768:6783  unstakeTimeLock */\n      sload(0x08)\n        /* \"src/StakingContract.sol\":6743:6749  staker */\n      dup2\n        /* \"src/StakingContract.sol\":6743:6765  staker.unstakeInitTime */\n      0x03\n      add\n      sload\n        /* \"src/StakingContract.sol\":6743:6783  staker.unstakeInitTime + unstakeTimeLock */\n      tag_321\n      swap2\n      swap1\n      tag_139\n      jump\t// in\n    tag_321:\n        /* \"src/StakingContract.sol\":6725:6740  block.timestamp */\n      timestamp\n        /* \"src/StakingContract.sol\":6725:6783  block.timestamp < staker.unstakeInitTime + unstakeTimeLock */\n      lt\n        /* \"src/StakingContract.sol\":6721:6920  if (block.timestamp < staker.unstakeInitTime + unstakeTimeLock) {... */\n      iszero\n      tag_322\n      jumpi\n        /* \"src/StakingContract.sol\":6852:6867  block.timestamp */\n      timestamp\n        /* \"src/StakingContract.sol\":6833:6848  unstakeTimeLock */\n      sload(0x08)\n        /* \"src/StakingContract.sol\":6808:6814  staker */\n      dup3\n        /* \"src/StakingContract.sol\":6808:6830  staker.unstakeInitTime */\n      0x03\n      add\n      sload\n        /* \"src/StakingContract.sol\":6808:6848  staker.unstakeInitTime + unstakeTimeLock */\n      tag_323\n      swap2\n      swap1\n      tag_139\n      jump\t// in\n    tag_323:\n        /* \"src/StakingContract.sol\":6807:6867  (staker.unstakeInitTime + unstakeTimeLock) - block.timestamp */\n      tag_324\n      swap2\n      swap1\n      tag_133\n      jump\t// in\n    tag_324:\n        /* \"src/StakingContract.sol\":6800:6867  return (staker.unstakeInitTime + unstakeTimeLock) - block.timestamp */\n      swap2\n      pop\n      pop\n      jump(tag_320)\n        /* \"src/StakingContract.sol\":6721:6920  if (block.timestamp < staker.unstakeInitTime + unstakeTimeLock) {... */\n    tag_322:\n        /* \"src/StakingContract.sol\":6907:6908  0 */\n      0x00\n        /* \"src/StakingContract.sol\":6900:6908  return 0 */\n      swap2\n      pop\n      pop\n        /* \"src/StakingContract.sol\":6577:6927  function getRemainingUnstakeTime(address _staker) external view returns (uint256) {... */\n    tag_320:\n      swap2\n      swap1\n      pop\n      jump\t// out\n        /* \"src/StakingContract.sol\":481:510  uint256 public lastUpdateTime */\n    tag_117:\n      sload(0x06)\n      dup2\n      jump\t// out\n        /* \"src/StakingContract.sol\":2553:2873  function rewardPerToken() public view returns (uint256) {... */\n    tag_120:\n        /* \"src/StakingContract.sol\":2600:2607  uint256 */\n      0x00\n        /* \"src/StakingContract.sol\":2654:2655  0 */\n      dup1\n        /* \"src/StakingContract.sol\":2624:2650  totalStakedAccruingRewards */\n      sload(0x04)\n        /* \"src/StakingContract.sol\":2624:2655  totalStakedAccruingRewards == 0 */\n      sub\n        /* \"src/StakingContract.sol\":2620:2711  if (totalStakedAccruingRewards == 0) {... */\n      tag_327\n      jumpi\n        /* \"src/StakingContract.sol\":2679:2699  rewardPerTokenStored */\n      sload(0x07)\n        /* \"src/StakingContract.sol\":2672:2699  return rewardPerTokenStored */\n      swap1\n      pop\n      jump(tag_326)\n        /* \"src/StakingContract.sol\":2620:2711  if (totalStakedAccruingRewards == 0) {... */\n    tag_327:\n        /* \"src/StakingContract.sol\":2828:2854  totalStakedAccruingRewards */\n      sload(0x04)\n        /* \"src/StakingContract.sol\":2821:2825  1e18 */\n      0x0de0b6b3a7640000\n        /* \"src/StakingContract.sol\":2808:2818  rewardRate */\n      sload(0x05)\n        /* \"src/StakingContract.sol\":2790:2804  lastUpdateTime */\n      sload(0x06)\n        /* \"src/StakingContract.sol\":2767:2787  lastApplicableTime() */\n      tag_328\n        /* \"src/StakingContract.sol\":2767:2785  lastApplicableTime */\n      tag_52\n        /* \"src/StakingContract.sol\":2767:2787  lastApplicableTime() */\n      jump\t// in\n    tag_328:\n        /* \"src/StakingContract.sol\":2767:2804  lastApplicableTime() - lastUpdateTime */\n      tag_329\n      swap2\n      swap1\n      tag_133\n      jump\t// in\n    tag_329:\n        /* \"src/StakingContract.sol\":2766:2818  (lastApplicableTime() - lastUpdateTime) * rewardRate */\n      tag_330\n      swap2\n      swap1\n      tag_135\n      jump\t// in\n    tag_330:\n        /* \"src/StakingContract.sol\":2766:2825  (lastApplicableTime() - lastUpdateTime) * rewardRate * 1e18 */\n      tag_331\n      swap2\n      swap1\n      tag_135\n      jump\t// in\n    tag_331:\n        /* \"src/StakingContract.sol\":2766:2854  (lastApplicableTime() - lastUpdateTime) * rewardRate * 1e18 / totalStakedAccruingRewards */\n      tag_332\n      swap2\n      swap1\n      tag_137\n      jump\t// in\n    tag_332:\n        /* \"src/StakingContract.sol\":2728:2748  rewardPerTokenStored */\n      sload(0x07)\n        /* \"src/StakingContract.sol\":2728:2865  rewardPerTokenStored + (... */\n      tag_333\n      swap2\n      swap1\n      tag_139\n      jump\t// in\n    tag_333:\n        /* \"src/StakingContract.sol\":2721:2865  return rewardPerTokenStored + (... */\n      swap1\n      pop\n        /* \"src/StakingContract.sol\":2553:2873  function rewardPerToken() public view returns (uint256) {... */\n    tag_326:\n      swap1\n      jump\t// out\n        /* \"src/StakingContract.sol\":517:552  uint256 public rewardPerTokenStored */\n    tag_123:\n      sload(0x07)\n      dup2\n      jump\t// out\n        /* \"@openzeppelin/contracts/access/Ownable.sol\":2543:2758  function transferOwnership(address newOwner) public virtual onlyOwner {... */\n    tag_127:\n        /* \"@openzeppelin/contracts/access/Ownable.sol\":1531:1544  _checkOwner() */\n      tag_335\n        /* \"@openzeppelin/contracts/access/Ownable.sol\":1531:1542  _checkOwner */\n      tag_165\n        /* \"@openzeppelin/contracts/access/Ownable.sol\":1531:1544  _checkOwner() */\n      jump\t// in\n    tag_335:\n        /* \"@openzeppelin/contracts/access/Ownable.sol\":2647:2648  0 */\n      0x00\n        /* \"@openzeppelin/contracts/access/Ownable.sol\":2627:2649  newOwner == address(0) */\n      0xffffffffffffffffffffffffffffffffffffffff\n      and\n        /* \"@openzeppelin/contracts/access/Ownable.sol\":2627:2635  newOwner */\n      dup2\n        /* \"@openzeppelin/contracts/access/Ownable.sol\":2627:2649  newOwner == address(0) */\n      0xffffffffffffffffffffffffffffffffffffffff\n      and\n      sub\n        /* \"@openzeppelin/contracts/access/Ownable.sol\":2623:2714  if (newOwner == address(0)) {... */\n      tag_337\n      jumpi\n        /* \"@openzeppelin/contracts/access/Ownable.sol\":2700:2701  0 */\n      0x00\n        /* \"@openzeppelin/contracts/access/Ownable.sol\":2672:2703  OwnableInvalidOwner(address(0)) */\n      mload(0x40)\n      0x1e4fbdf700000000000000000000000000000000000000000000000000000000\n      dup2\n      mstore\n      0x04\n      add\n      tag_338\n      swap2\n      swap1\n      tag_92\n      jump\t// in\n    tag_338:\n      mload(0x40)\n      dup1\n      swap2\n      sub\n      swap1\n      revert\n        /* \"@openzeppelin/contracts/access/Ownable.sol\":2623:2714  if (newOwner == address(0)) {... */\n    tag_337:\n        /* \"@openzeppelin/contracts/access/Ownable.sol\":2723:2751  _transferOwnership(newOwner) */\n      tag_339\n        /* \"@openzeppelin/contracts/access/Ownable.sol\":2742:2750  newOwner */\n      dup2\n        /* \"@openzeppelin/contracts/access/Ownable.sol\":2723:2741  _transferOwnership */\n      tag_255\n        /* \"@openzeppelin/contracts/access/Ownable.sol\":2723:2751  _transferOwnership(newOwner) */\n      jump\t// in\n    tag_339:\n        /* \"@openzeppelin/contracts/access/Ownable.sol\":2543:2758  function transferOwnership(address newOwner) public virtual onlyOwner {... */\n      pop\n      jump\t// out\n        /* \"@openzeppelin/contracts/utils/ReentrancyGuard.sol\":2431:2738  function _nonReentrantBefore() private {... */\n    tag_145:\n        /* \"@openzeppelin/contracts/utils/ReentrancyGuard.sol\":1755:1756  2 */\n      0x02\n        /* \"@openzeppelin/contracts/utils/ReentrancyGuard.sol\":2558:2565  _status */\n      sload(0x00)\n        /* \"@openzeppelin/contracts/utils/ReentrancyGuard.sol\":2558:2576  _status == ENTERED */\n      sub\n        /* \"@openzeppelin/contracts/utils/ReentrancyGuard.sol\":2554:2640  if (_status == ENTERED) {... */\n      tag_341\n      jumpi\n        /* \"@openzeppelin/contracts/utils/ReentrancyGuard.sol\":2599:2629  ReentrancyGuardReentrantCall() */\n      mload(0x40)\n      0x3ee5aeb500000000000000000000000000000000000000000000000000000000\n      dup2\n      mstore\n      0x04\n      add\n      mload(0x40)\n      dup1\n      swap2\n      sub\n      swap1\n      revert\n        /* \"@openzeppelin/contracts/utils/ReentrancyGuard.sol\":2554:2640  if (_status == ENTERED) {... */\n    tag_341:\n        /* \"@openzeppelin/contracts/utils/ReentrancyGuard.sol\":1755:1756  2 */\n      0x02\n        /* \"@openzeppelin/contracts/utils/ReentrancyGuard.sol\":2714:2721  _status */\n      0x00\n        /* \"@openzeppelin/contracts/utils/ReentrancyGuard.sol\":2714:2731  _status = ENTERED */\n      dup2\n      swap1\n      sstore\n      pop\n        /* \"@openzeppelin/contracts/utils/ReentrancyGuard.sol\":2431:2738  function _nonReentrantBefore() private {... */\n      jump\t// out\n        /* \"@openzeppelin/contracts/utils/ReentrancyGuard.sol\":2744:2952  function _nonReentrantAfter() private {... */\n    tag_162:\n        /* \"@openzeppelin/contracts/utils/ReentrancyGuard.sol\":1713:1714  1 */\n      0x01\n        /* \"@openzeppelin/contracts/utils/ReentrancyGuard.sol\":2924:2931  _status */\n      0x00\n        /* \"@openzeppelin/contracts/utils/ReentrancyGuard.sol\":2924:2945  _status = NOT_ENTERED */\n      dup2\n      swap1\n      sstore\n      pop\n        /* \"@openzeppelin/contracts/utils/ReentrancyGuard.sol\":2744:2952  function _nonReentrantAfter() private {... */\n      jump\t// out\n        /* \"@openzeppelin/contracts/access/Ownable.sol\":1796:1958  function _checkOwner() internal view virtual {... */\n    tag_165:\n        /* \"@openzeppelin/contracts/access/Ownable.sol\":1866:1878  _msgSender() */\n      tag_344\n        /* \"@openzeppelin/contracts/access/Ownable.sol\":1866:1876  _msgSender */\n      tag_345\n        /* \"@openzeppelin/contracts/access/Ownable.sol\":1866:1878  _msgSender() */\n      jump\t// in\n    tag_344:\n        /* \"@openzeppelin/contracts/access/Ownable.sol\":1855:1878  owner() != _msgSender() */\n      0xffffffffffffffffffffffffffffffffffffffff\n      and\n        /* \"@openzeppelin/contracts/access/Ownable.sol\":1855:1862  owner() */\n      tag_346\n        /* \"@openzeppelin/contracts/access/Ownable.sol\":1855:1860  owner */\n      tag_90\n        /* \"@openzeppelin/contracts/access/Ownable.sol\":1855:1862  owner() */\n      jump\t// in\n    tag_346:\n        /* \"@openzeppelin/contracts/access/Ownable.sol\":1855:1878  owner() != _msgSender() */\n      0xffffffffffffffffffffffffffffffffffffffff\n      and\n      eq\n        /* \"@openzeppelin/contracts/access/Ownable.sol\":1851:1952  if (owner() != _msgSender()) {... */\n      tag_347\n      jumpi\n        /* \"@openzeppelin/contracts/access/Ownable.sol\":1928:1940  _msgSender() */\n      tag_348\n        /* \"@openzeppelin/contracts/access/Ownable.sol\":1928:1938  _msgSender */\n      tag_345\n        /* \"@openzeppelin/contracts/access/Ownable.sol\":1928:1940  _msgSender() */\n      jump\t// in\n    tag_348:\n        /* \"@openzeppelin/contracts/access/Ownable.sol\":1901:1941  OwnableUnauthorizedAccount(_msgSender()) */\n      mload(0x40)\n      0x118cdaa700000000000000000000000000000000000000000000000000000000\n      dup2\n      mstore\n      0x04\n      add\n      tag_349\n      swap2\n      swap1\n      tag_92\n      jump\t// in\n    tag_349:\n      mload(0x40)\n      dup1\n      swap2\n      sub\n      swap1\n      revert\n        /* \"@openzeppelin/contracts/access/Ownable.sol\":1851:1952  if (owner() != _msgSender()) {... */\n    tag_347:\n        /* \"@openzeppelin/contracts/access/Ownable.sol\":1796:1958  function _checkOwner() internal view virtual {... */\n      jump\t// out\n        /* \"@openzeppelin/contracts/access/Ownable.sol\":2912:3099  function _transferOwnership(address newOwner) internal virtual {... */\n    tag_255:\n        /* \"@openzeppelin/contracts/access/Ownable.sol\":2985:3001  address oldOwner */\n      0x00\n        /* \"@openzeppelin/contracts/access/Ownable.sol\":3004:3010  _owner */\n      0x01\n      0x00\n      swap1\n      sload\n      swap1\n      0x0100\n      exp\n      swap1\n      div\n      0xffffffffffffffffffffffffffffffffffffffff\n      and\n        /* \"@openzeppelin/contracts/access/Ownable.sol\":2985:3010  address oldOwner = _owner */\n      swap1\n      pop\n        /* \"@openzeppelin/contracts/access/Ownable.sol\":3029:3037  newOwner */\n      dup2\n        /* \"@openzeppelin/contracts/access/Ownable.sol\":3020:3026  _owner */\n      0x01\n      0x00\n        /* \"@openzeppelin/contracts/access/Ownable.sol\":3020:3037  _owner = newOwner */\n      0x0100\n      exp\n      dup2\n      sload\n      dup2\n      0xffffffffffffffffffffffffffffffffffffffff\n      mul\n      not\n      and\n      swap1\n      dup4\n      0xffffffffffffffffffffffffffffffffffffffff\n      and\n      mul\n      or\n      swap1\n      sstore\n      pop\n        /* \"@openzeppelin/contracts/access/Ownable.sol\":3083:3091  newOwner */\n      dup2\n        /* \"@openzeppelin/contracts/access/Ownable.sol\":3052:3092  OwnershipTransferred(oldOwner, newOwner) */\n      0xffffffffffffffffffffffffffffffffffffffff\n      and\n        /* \"@openzeppelin/contracts/access/Ownable.sol\":3073:3081  oldOwner */\n      dup2\n        /* \"@openzeppelin/contracts/access/Ownable.sol\":3052:3092  OwnershipTransferred(oldOwner, newOwner) */\n      0xffffffffffffffffffffffffffffffffffffffff\n      and\n      0x8be0079c531659141344cd1fd0a4f28419497f9722a3daafe3b4186f6b6457e0\n      mload(0x40)\n      mload(0x40)\n      dup1\n      swap2\n      sub\n      swap1\n      log3\n        /* \"@openzeppelin/contracts/access/Ownable.sol\":2975:3099  {... */\n      pop\n        /* \"@openzeppelin/contracts/access/Ownable.sol\":2912:3099  function _transferOwnership(address newOwner) internal virtual {... */\n      pop\n      jump\t// out\n        /* \"@openzeppelin/contracts/utils/Context.sol\":656:752  function _msgSender() internal view virtual returns (address) {... */\n    tag_345:\n        /* \"@openzeppelin/contracts/utils/Context.sol\":709:716  address */\n      0x00\n        /* \"@openzeppelin/contracts/utils/Context.sol\":735:745  msg.sender */\n      caller\n        /* \"@openzeppelin/contracts/utils/Context.sol\":728:745  return msg.sender */\n      swap1\n      pop\n        /* \"@openzeppelin/contracts/utils/Context.sol\":656:752  function _msgSender() internal view virtual returns (address) {... */\n      swap1\n      jump\t// out\n        /* \"#utility.yul\":88:205   */\n    tag_353:\n        /* \"#utility.yul\":197:198   */\n      0x00\n        /* \"#utility.yul\":194:195   */\n      dup1\n        /* \"#utility.yul\":187:199   */\n      revert\n        /* \"#utility.yul\":334:460   */\n    tag_355:\n        /* \"#utility.yul\":371:378   */\n      0x00\n        /* \"#utility.yul\":411:453   */\n      0xffffffffffffffffffffffffffffffffffffffff\n        /* \"#utility.yul\":404:409   */\n      dup3\n        /* \"#utility.yul\":400:454   */\n      and\n        /* \"#utility.yul\":389:454   */\n      swap1\n      pop\n        /* \"#utility.yul\":334:460   */\n      swap2\n      swap1\n      pop\n      jump\t// out\n        /* \"#utility.yul\":466:562   */\n    tag_356:\n        /* \"#utility.yul\":503:510   */\n      0x00\n        /* \"#utility.yul\":532:556   */\n      tag_419\n        /* \"#utility.yul\":550:555   */\n      dup3\n        /* \"#utility.yul\":532:556   */\n      tag_355\n      jump\t// in\n    tag_419:\n        /* \"#utility.yul\":521:556   */\n      swap1\n      pop\n        /* \"#utility.yul\":466:562   */\n      swap2\n      swap1\n      pop\n      jump\t// out\n        /* \"#utility.yul\":568:690   */\n    tag_357:\n        /* \"#utility.yul\":641:665   */\n      tag_421\n        /* \"#utility.yul\":659:664   */\n      dup2\n        /* \"#utility.yul\":641:665   */\n      tag_356\n      jump\t// in\n    tag_421:\n        /* \"#utility.yul\":634:639   */\n      dup2\n        /* \"#utility.yul\":631:666   */\n      eq\n        /* \"#utility.yul\":621:684   */\n      tag_422\n      jumpi\n        /* \"#utility.yul\":680:681   */\n      0x00\n        /* \"#utility.yul\":677:678   */\n      dup1\n        /* \"#utility.yul\":670:682   */\n      revert\n        /* \"#utility.yul\":621:684   */\n    tag_422:\n        /* \"#utility.yul\":568:690   */\n      pop\n      jump\t// out\n        /* \"#utility.yul\":696:835   */\n    tag_358:\n        /* \"#utility.yul\":742:747   */\n      0x00\n        /* \"#utility.yul\":780:786   */\n      dup2\n        /* \"#utility.yul\":767:787   */\n      calldataload\n        /* \"#utility.yul\":758:787   */\n      swap1\n      pop\n        /* \"#utility.yul\":796:829   */\n      tag_424\n        /* \"#utility.yul\":823:828   */\n      dup2\n        /* \"#utility.yul\":796:829   */\n      tag_357\n      jump\t// in\n    tag_424:\n        /* \"#utility.yul\":696:835   */\n      swap3\n      swap2\n      pop\n      pop\n      jump\t// out\n        /* \"#utility.yul\":841:1170   */\n    tag_40:\n        /* \"#utility.yul\":900:906   */\n      0x00\n        /* \"#utility.yul\":949:951   */\n      0x20\n        /* \"#utility.yul\":937:946   */\n      dup3\n        /* \"#utility.yul\":928:935   */\n      dup5\n        /* \"#utility.yul\":924:947   */\n      sub\n        /* \"#utility.yul\":920:952   */\n      slt\n        /* \"#utility.yul\":917:1036   */\n      iszero\n      tag_426\n      jumpi\n        /* \"#utility.yul\":955:1034   */\n      tag_427\n      tag_353\n      jump\t// in\n    tag_427:\n        /* \"#utility.yul\":917:1036   */\n    tag_426:\n        /* \"#utility.yul\":1075:1076   */\n      0x00\n        /* \"#utility.yul\":1100:1153   */\n      tag_428\n        /* \"#utility.yul\":1145:1152   */\n      dup5\n        /* \"#utility.yul\":1136:1142   */\n      dup3\n        /* \"#utility.yul\":1125:1134   */\n      dup6\n        /* \"#utility.yul\":1121:1143   */\n      add\n        /* \"#utility.yul\":1100:1153   */\n      tag_358\n      jump\t// in\n    tag_428:\n        /* \"#utility.yul\":1090:1153   */\n      swap2\n      pop\n        /* \"#utility.yul\":1046:1163   */\n      pop\n        /* \"#utility.yul\":841:1170   */\n      swap3\n      swap2\n      pop\n      pop\n      jump\t// out\n        /* \"#utility.yul\":1176:1253   */\n    tag_359:\n        /* \"#utility.yul\":1213:1220   */\n      0x00\n        /* \"#utility.yul\":1242:1247   */\n      dup2\n        /* \"#utility.yul\":1231:1247   */\n      swap1\n      pop\n        /* \"#utility.yul\":1176:1253   */\n      swap2\n      swap1\n      pop\n      jump\t// out\n        /* \"#utility.yul\":1259:1377   */\n    tag_360:\n        /* \"#utility.yul\":1346:1370   */\n      tag_431\n        /* \"#utility.yul\":1364:1369   */\n      dup2\n        /* \"#utility.yul\":1346:1370   */\n      tag_359\n      jump\t// in\n    tag_431:\n        /* \"#utility.yul\":1341:1344   */\n      dup3\n        /* \"#utility.yul\":1334:1371   */\n      mstore\n        /* \"#utility.yul\":1259:1377   */\n      pop\n      pop\n      jump\t// out\n        /* \"#utility.yul\":1383:1605   */\n    tag_43:\n        /* \"#utility.yul\":1476:1480   */\n      0x00\n        /* \"#utility.yul\":1514:1516   */\n      0x20\n        /* \"#utility.yul\":1503:1512   */\n      dup3\n        /* \"#utility.yul\":1499:1517   */\n      add\n        /* \"#utility.yul\":1491:1517   */\n      swap1\n      pop\n        /* \"#utility.yul\":1527:1598   */\n      tag_433\n        /* \"#utility.yul\":1595:1596   */\n      0x00\n        /* \"#utility.yul\":1584:1593   */\n      dup4\n        /* \"#utility.yul\":1580:1597   */\n      add\n        /* \"#utility.yul\":1571:1577   */\n      dup5\n        /* \"#utility.yul\":1527:1598   */\n      tag_360\n      jump\t// in\n    tag_433:\n        /* \"#utility.yul\":1383:1605   */\n      swap3\n      swap2\n      pop\n      pop\n      jump\t// out\n        /* \"#utility.yul\":1611:1671   */\n    tag_361:\n        /* \"#utility.yul\":1639:1642   */\n      0x00\n        /* \"#utility.yul\":1660:1665   */\n      dup2\n        /* \"#utility.yul\":1653:1665   */\n      swap1\n      pop\n        /* \"#utility.yul\":1611:1671   */\n      swap2\n      swap1\n      pop\n      jump\t// out\n        /* \"#utility.yul\":1677:1819   */\n    tag_362:\n        /* \"#utility.yul\":1727:1736   */\n      0x00\n        /* \"#utility.yul\":1760:1813   */\n      tag_436\n        /* \"#utility.yul\":1778:1812   */\n      tag_437\n        /* \"#utility.yul\":1787:1811   */\n      tag_438\n        /* \"#utility.yul\":1805:1810   */\n      dup5\n        /* \"#utility.yul\":1787:1811   */\n      tag_355\n      jump\t// in\n    tag_438:\n        /* \"#utility.yul\":1778:1812   */\n      tag_361\n      jump\t// in\n    tag_437:\n        /* \"#utility.yul\":1760:1813   */\n      tag_355\n      jump\t// in\n    tag_436:\n        /* \"#utility.yul\":1747:1813   */\n      swap1\n      pop\n        /* \"#utility.yul\":1677:1819   */\n      swap2\n      swap1\n      pop\n      jump\t// out\n        /* \"#utility.yul\":1825:1951   */\n    tag_363:\n        /* \"#utility.yul\":1875:1884   */\n      0x00\n        /* \"#utility.yul\":1908:1945   */\n      tag_440\n        /* \"#utility.yul\":1939:1944   */\n      dup3\n        /* \"#utility.yul\":1908:1945   */\n      tag_362\n      jump\t// in\n    tag_440:\n        /* \"#utility.yul\":1895:1945   */\n      swap1\n      pop\n        /* \"#utility.yul\":1825:1951   */\n      swap2\n      swap1\n      pop\n      jump\t// out\n        /* \"#utility.yul\":1957:2097   */\n    tag_364:\n        /* \"#utility.yul\":2021:2030   */\n      0x00\n        /* \"#utility.yul\":2054:2091   */\n      tag_442\n        /* \"#utility.yul\":2085:2090   */\n      dup3\n        /* \"#utility.yul\":2054:2091   */\n      tag_363\n      jump\t// in\n    tag_442:\n        /* \"#utility.yul\":2041:2091   */\n      swap1\n      pop\n        /* \"#utility.yul\":1957:2097   */\n      swap2\n      swap1\n      pop\n      jump\t// out\n        /* \"#utility.yul\":2103:2262   */\n    tag_365:\n        /* \"#utility.yul\":2204:2255   */\n      tag_444\n        /* \"#utility.yul\":2249:2254   */\n      dup2\n        /* \"#utility.yul\":2204:2255   */\n      tag_364\n      jump\t// in\n    tag_444:\n        /* \"#utility.yul\":2199:2202   */\n      dup3\n        /* \"#utility.yul\":2192:2256   */\n      mstore\n        /* \"#utility.yul\":2103:2262   */\n      pop\n      pop\n      jump\t// out\n        /* \"#utility.yul\":2268:2518   */\n    tag_50:\n        /* \"#utility.yul\":2375:2379   */\n      0x00\n        /* \"#utility.yul\":2413:2415   */\n      0x20\n        /* \"#utility.yul\":2402:2411   */\n      dup3\n        /* \"#utility.yul\":2398:2416   */\n      add\n        /* \"#utility.yul\":2390:2416   */\n      swap1\n      pop\n        /* \"#utility.yul\":2426:2511   */\n      tag_446\n        /* \"#utility.yul\":2508:2509   */\n      0x00\n        /* \"#utility.yul\":2497:2506   */\n      dup4\n        /* \"#utility.yul\":2493:2510   */\n      add\n        /* \"#utility.yul\":2484:2490   */\n      dup5\n        /* \"#utility.yul\":2426:2511   */\n      tag_365\n      jump\t// in\n    tag_446:\n        /* \"#utility.yul\":2268:2518   */\n      swap3\n      swap2\n      pop\n      pop\n      jump\t// out\n        /* \"#utility.yul\":2524:2646   */\n    tag_366:\n        /* \"#utility.yul\":2597:2621   */\n      tag_448\n        /* \"#utility.yul\":2615:2620   */\n      dup2\n        /* \"#utility.yul\":2597:2621   */\n      tag_359\n      jump\t// in\n    tag_448:\n        /* \"#utility.yul\":2590:2595   */\n      dup2\n        /* \"#utility.yul\":2587:2622   */\n      eq\n        /* \"#utility.yul\":2577:2640   */\n      tag_449\n      jumpi\n        /* \"#utility.yul\":2636:2637   */\n      0x00\n        /* \"#utility.yul\":2633:2634   */\n      dup1\n        /* \"#utility.yul\":2626:2638   */\n      revert\n        /* \"#utility.yul\":2577:2640   */\n    tag_449:\n        /* \"#utility.yul\":2524:2646   */\n      pop\n      jump\t// out\n        /* \"#utility.yul\":2652:2791   */\n    tag_367:\n        /* \"#utility.yul\":2698:2703   */\n      0x00\n        /* \"#utility.yul\":2736:2742   */\n      dup2\n        /* \"#utility.yul\":2723:2743   */\n      calldataload\n        /* \"#utility.yul\":2714:2743   */\n      swap1\n      pop\n        /* \"#utility.yul\":2752:2785   */\n      tag_451\n        /* \"#utility.yul\":2779:2784   */\n      dup2\n        /* \"#utility.yul\":2752:2785   */\n      tag_366\n      jump\t// in\n    tag_451:\n        /* \"#utility.yul\":2652:2791   */\n      swap3\n      swap2\n      pop\n      pop\n      jump\t// out\n        /* \"#utility.yul\":2797:3271   */\n    tag_64:\n        /* \"#utility.yul\":2865:2871   */\n      0x00\n        /* \"#utility.yul\":2873:2879   */\n      dup1\n        /* \"#utility.yul\":2922:2924   */\n      0x40\n        /* \"#utility.yul\":2910:2919   */\n      dup4\n        /* \"#utility.yul\":2901:2908   */\n      dup6\n        /* \"#utility.yul\":2897:2920   */\n      sub\n        /* \"#utility.yul\":2893:2925   */\n      slt\n        /* \"#utility.yul\":2890:3009   */\n      iszero\n      tag_453\n      jumpi\n        /* \"#utility.yul\":2928:3007   */\n      tag_454\n      tag_353\n      jump\t// in\n    tag_454:\n        /* \"#utility.yul\":2890:3009   */\n    tag_453:\n        /* \"#utility.yul\":3048:3049   */\n      0x00\n        /* \"#utility.yul\":3073:3126   */\n      tag_455\n        /* \"#utility.yul\":3118:3125   */\n      dup6\n        /* \"#utility.yul\":3109:3115   */\n      dup3\n        /* \"#utility.yul\":3098:3107   */\n      dup7\n        /* \"#utility.yul\":3094:3116   */\n      add\n        /* \"#utility.yul\":3073:3126   */\n      tag_358\n      jump\t// in\n    tag_455:\n        /* \"#utility.yul\":3063:3126   */\n      swap3\n      pop\n        /* \"#utility.yul\":3019:3136   */\n      pop\n        /* \"#utility.yul\":3175:3177   */\n      0x20\n        /* \"#utility.yul\":3201:3254   */\n      tag_456\n        /* \"#utility.yul\":3246:3253   */\n      dup6\n        /* \"#utility.yul\":3237:3243   */\n      dup3\n        /* \"#utility.yul\":3226:3235   */\n      dup7\n        /* \"#utility.yul\":3222:3244   */\n      add\n        /* \"#utility.yul\":3201:3254   */\n      tag_367\n      jump\t// in\n    tag_456:\n        /* \"#utility.yul\":3191:3254   */\n      swap2\n      pop\n        /* \"#utility.yul\":3146:3264   */\n      pop\n        /* \"#utility.yul\":2797:3271   */\n      swap3\n      pop\n      swap3\n      swap1\n      pop\n      jump\t// out\n        /* \"#utility.yul\":3277:3606   */\n    tag_71:\n        /* \"#utility.yul\":3336:3342   */\n      0x00\n        /* \"#utility.yul\":3385:3387   */\n      0x20\n        /* \"#utility.yul\":3373:3382   */\n      dup3\n        /* \"#utility.yul\":3364:3371   */\n      dup5\n        /* \"#utility.yul\":3360:3383   */\n      sub\n        /* \"#utility.yul\":3356:3388   */\n      slt\n        /* \"#utility.yul\":3353:3472   */\n      iszero\n      tag_458\n      jumpi\n        /* \"#utility.yul\":3391:3470   */\n      tag_459\n      tag_353\n      jump\t// in\n    tag_459:\n        /* \"#utility.yul\":3353:3472   */\n    tag_458:\n        /* \"#utility.yul\":3511:3512   */\n      0x00\n        /* \"#utility.yul\":3536:3589   */\n      tag_460\n        /* \"#utility.yul\":3581:3588   */\n      dup5\n        /* \"#utility.yul\":3572:3578   */\n      dup3\n        /* \"#utility.yul\":3561:3570   */\n      dup6\n        /* \"#utility.yul\":3557:3579   */\n      add\n        /* \"#utility.yul\":3536:3589   */\n      tag_367\n      jump\t// in\n    tag_460:\n        /* \"#utility.yul\":3526:3589   */\n      swap2\n      pop\n        /* \"#utility.yul\":3482:3599   */\n      pop\n        /* \"#utility.yul\":3277:3606   */\n      swap3\n      swap2\n      pop\n      pop\n      jump\t// out\n        /* \"#utility.yul\":3612:3730   */\n    tag_368:\n        /* \"#utility.yul\":3699:3723   */\n      tag_462\n        /* \"#utility.yul\":3717:3722   */\n      dup2\n        /* \"#utility.yul\":3699:3723   */\n      tag_356\n      jump\t// in\n    tag_462:\n        /* \"#utility.yul\":3694:3697   */\n      dup3\n        /* \"#utility.yul\":3687:3724   */\n      mstore\n        /* \"#utility.yul\":3612:3730   */\n      pop\n      pop\n      jump\t// out\n        /* \"#utility.yul\":3736:3958   */\n    tag_92:\n        /* \"#utility.yul\":3829:3833   */\n      0x00\n        /* \"#utility.yul\":3867:3869   */\n      0x20\n        /* \"#utility.yul\":3856:3865   */\n      dup3\n        /* \"#utility.yul\":3852:3870   */\n      add\n        /* \"#utility.yul\":3844:3870   */\n      swap1\n      pop\n        /* \"#utility.yul\":3880:3951   */\n      tag_464\n        /* \"#utility.yul\":3948:3949   */\n      0x00\n        /* \"#utility.yul\":3937:3946   */\n      dup4\n        /* \"#utility.yul\":3933:3950   */\n      add\n        /* \"#utility.yul\":3924:3930   */\n      dup5\n        /* \"#utility.yul\":3880:3951   */\n      tag_368\n      jump\t// in\n    tag_464:\n        /* \"#utility.yul\":3736:3958   */\n      swap3\n      swap2\n      pop\n      pop\n      jump\t// out\n        /* \"#utility.yul\":3964:4054   */\n    tag_369:\n        /* \"#utility.yul\":3998:4005   */\n      0x00\n        /* \"#utility.yul\":4041:4046   */\n      dup2\n        /* \"#utility.yul\":4034:4047   */\n      iszero\n        /* \"#utility.yul\":4027:4048   */\n      iszero\n        /* \"#utility.yul\":4016:4048   */\n      swap1\n      pop\n        /* \"#utility.yul\":3964:4054   */\n      swap2\n      swap1\n      pop\n      jump\t// out\n        /* \"#utility.yul\":4060:4169   */\n    tag_370:\n        /* \"#utility.yul\":4141:4162   */\n      tag_467\n        /* \"#utility.yul\":4156:4161   */\n      dup2\n        /* \"#utility.yul\":4141:4162   */\n      tag_369\n      jump\t// in\n    tag_467:\n        /* \"#utility.yul\":4136:4139   */\n      dup3\n        /* \"#utility.yul\":4129:4163   */\n      mstore\n        /* \"#utility.yul\":4060:4169   */\n      pop\n      pop\n      jump\t// out\n        /* \"#utility.yul\":4175:4827   */\n    tag_97:\n        /* \"#utility.yul\":4374:4378   */\n      0x00\n        /* \"#utility.yul\":4412:4415   */\n      0xa0\n        /* \"#utility.yul\":4401:4410   */\n      dup3\n        /* \"#utility.yul\":4397:4416   */\n      add\n        /* \"#utility.yul\":4389:4416   */\n      swap1\n      pop\n        /* \"#utility.yul\":4426:4497   */\n      tag_469\n        /* \"#utility.yul\":4494:4495   */\n      0x00\n        /* \"#utility.yul\":4483:4492   */\n      dup4\n        /* \"#utility.yul\":4479:4496   */\n      add\n        /* \"#utility.yul\":4470:4476   */\n      dup9\n        /* \"#utility.yul\":4426:4497   */\n      tag_360\n      jump\t// in\n    tag_469:\n        /* \"#utility.yul\":4507:4579   */\n      tag_470\n        /* \"#utility.yul\":4575:4577   */\n      0x20\n        /* \"#utility.yul\":4564:4573   */\n      dup4\n        /* \"#utility.yul\":4560:4578   */\n      add\n        /* \"#utility.yul\":4551:4557   */\n      dup8\n        /* \"#utility.yul\":4507:4579   */\n      tag_360\n      jump\t// in\n    tag_470:\n        /* \"#utility.yul\":4589:4661   */\n      tag_471\n        /* \"#utility.yul\":4657:4659   */\n      0x40\n        /* \"#utility.yul\":4646:4655   */\n      dup4\n        /* \"#utility.yul\":4642:4660   */\n      add\n        /* \"#utility.yul\":4633:4639   */\n      dup7\n        /* \"#utility.yul\":4589:4661   */\n      tag_360\n      jump\t// in\n    tag_471:\n        /* \"#utility.yul\":4671:4743   */\n      tag_472\n        /* \"#utility.yul\":4739:4741   */\n      0x60\n        /* \"#utility.yul\":4728:4737   */\n      dup4\n        /* \"#utility.yul\":4724:4742   */\n      add\n        /* \"#utility.yul\":4715:4721   */\n      dup6\n        /* \"#utility.yul\":4671:4743   */\n      tag_360\n      jump\t// in\n    tag_472:\n        /* \"#utility.yul\":4753:4820   */\n      tag_473\n        /* \"#utility.yul\":4815:4818   */\n      0x80\n        /* \"#utility.yul\":4804:4813   */\n      dup4\n        /* \"#utility.yul\":4800:4819   */\n      add\n        /* \"#utility.yul\":4791:4797   */\n      dup5\n        /* \"#utility.yul\":4753:4820   */\n      tag_370\n      jump\t// in\n    tag_473:\n        /* \"#utility.yul\":4175:4827   */\n      swap7\n      swap6\n      pop\n      pop\n      pop\n      pop\n      pop\n      pop\n      jump\t// out\n        /* \"#utility.yul\":4833:5013   */\n    tag_371:\n        /* \"#utility.yul\":4881:4958   */\n      0x4e487b7100000000000000000000000000000000000000000000000000000000\n        /* \"#utility.yul\":4878:4879   */\n      0x00\n        /* \"#utility.yul\":4871:4959   */\n      mstore\n        /* \"#utility.yul\":4978:4982   */\n      0x11\n        /* \"#utility.yul\":4975:4976   */\n      0x04\n        /* \"#utility.yul\":4968:4983   */\n      mstore\n        /* \"#utility.yul\":5002:5006   */\n      0x24\n        /* \"#utility.yul\":4999:5000   */\n      0x00\n        /* \"#utility.yul\":4992:5007   */\n      revert\n        /* \"#utility.yul\":5019:5213   */\n    tag_133:\n        /* \"#utility.yul\":5059:5063   */\n      0x00\n        /* \"#utility.yul\":5079:5099   */\n      tag_476\n        /* \"#utility.yul\":5097:5098   */\n      dup3\n        /* \"#utility.yul\":5079:5099   */\n      tag_359\n      jump\t// in\n    tag_476:\n        /* \"#utility.yul\":5074:5099   */\n      swap2\n      pop\n        /* \"#utility.yul\":5113:5133   */\n      tag_477\n        /* \"#utility.yul\":5131:5132   */\n      dup4\n        /* \"#utility.yul\":5113:5133   */\n      tag_359\n      jump\t// in\n    tag_477:\n        /* \"#utility.yul\":5108:5133   */\n      swap3\n      pop\n        /* \"#utility.yul\":5157:5158   */\n      dup3\n        /* \"#utility.yul\":5154:5155   */\n      dup3\n        /* \"#utility.yul\":5150:5159   */\n      sub\n        /* \"#utility.yul\":5142:5159   */\n      swap1\n      pop\n        /* \"#utility.yul\":5181:5182   */\n      dup2\n        /* \"#utility.yul\":5175:5179   */\n      dup2\n        /* \"#utility.yul\":5172:5183   */\n      gt\n        /* \"#utility.yul\":5169:5206   */\n      iszero\n      tag_478\n      jumpi\n        /* \"#utility.yul\":5186:5204   */\n      tag_479\n      tag_371\n      jump\t// in\n    tag_479:\n        /* \"#utility.yul\":5169:5206   */\n    tag_478:\n        /* \"#utility.yul\":5019:5213   */\n      swap3\n      swap2\n      pop\n      pop\n      jump\t// out\n        /* \"#utility.yul\":5219:5629   */\n    tag_135:\n        /* \"#utility.yul\":5259:5266   */\n      0x00\n        /* \"#utility.yul\":5282:5302   */\n      tag_481\n        /* \"#utility.yul\":5300:5301   */\n      dup3\n        /* \"#utility.yul\":5282:5302   */\n      tag_359\n      jump\t// in\n    tag_481:\n        /* \"#utility.yul\":5277:5302   */\n      swap2\n      pop\n        /* \"#utility.yul\":5316:5336   */\n      tag_482\n        /* \"#utility.yul\":5334:5335   */\n      dup4\n        /* \"#utility.yul\":5316:5336   */\n      tag_359\n      jump\t// in\n    tag_482:\n        /* \"#utility.yul\":5311:5336   */\n      swap3\n      pop\n        /* \"#utility.yul\":5371:5372   */\n      dup3\n        /* \"#utility.yul\":5368:5369   */\n      dup3\n        /* \"#utility.yul\":5364:5373   */\n      mul\n        /* \"#utility.yul\":5393:5423   */\n      tag_483\n        /* \"#utility.yul\":5411:5422   */\n      dup2\n        /* \"#utility.yul\":5393:5423   */\n      tag_359\n      jump\t// in\n    tag_483:\n        /* \"#utility.yul\":5382:5423   */\n      swap2\n      pop\n        /* \"#utility.yul\":5572:5573   */\n      dup3\n        /* \"#utility.yul\":5563:5570   */\n      dup3\n        /* \"#utility.yul\":5559:5574   */\n      div\n        /* \"#utility.yul\":5556:5557   */\n      dup5\n        /* \"#utility.yul\":5553:5575   */\n      eq\n        /* \"#utility.yul\":5533:5534   */\n      dup4\n        /* \"#utility.yul\":5526:5535   */\n      iszero\n        /* \"#utility.yul\":5506:5589   */\n      or\n        /* \"#utility.yul\":5483:5622   */\n      tag_484\n      jumpi\n        /* \"#utility.yul\":5602:5620   */\n      tag_485\n      tag_371\n      jump\t// in\n    tag_485:\n        /* \"#utility.yul\":5483:5622   */\n    tag_484:\n        /* \"#utility.yul\":5267:5629   */\n      pop\n        /* \"#utility.yul\":5219:5629   */\n      swap3\n      swap2\n      pop\n      pop\n      jump\t// out\n        /* \"#utility.yul\":5635:5815   */\n    tag_372:\n        /* \"#utility.yul\":5683:5760   */\n      0x4e487b7100000000000000000000000000000000000000000000000000000000\n        /* \"#utility.yul\":5680:5681   */\n      0x00\n        /* \"#utility.yul\":5673:5761   */\n      mstore\n        /* \"#utility.yul\":5780:5784   */\n      0x12\n        /* \"#utility.yul\":5777:5778   */\n      0x04\n        /* \"#utility.yul\":5770:5785   */\n      mstore\n        /* \"#utility.yul\":5804:5808   */\n      0x24\n        /* \"#utility.yul\":5801:5802   */\n      0x00\n        /* \"#utility.yul\":5794:5809   */\n      revert\n        /* \"#utility.yul\":5821:6006   */\n    tag_137:\n        /* \"#utility.yul\":5861:5862   */\n      0x00\n        /* \"#utility.yul\":5878:5898   */\n      tag_488\n        /* \"#utility.yul\":5896:5897   */\n      dup3\n        /* \"#utility.yul\":5878:5898   */\n      tag_359\n      jump\t// in\n    tag_488:\n        /* \"#utility.yul\":5873:5898   */\n      swap2\n      pop\n        /* \"#utility.yul\":5912:5932   */\n      tag_489\n        /* \"#utility.yul\":5930:5931   */\n      dup4\n        /* \"#utility.yul\":5912:5932   */\n      tag_359\n      jump\t// in\n    tag_489:\n        /* \"#utility.yul\":5907:5932   */\n      swap3\n      pop\n        /* \"#utility.yul\":5951:5952   */\n      dup3\n        /* \"#utility.yul\":5941:5976   */\n      tag_490\n      jumpi\n        /* \"#utility.yul\":5956:5974   */\n      tag_491\n      tag_372\n      jump\t// in\n    tag_491:\n        /* \"#utility.yul\":5941:5976   */\n    tag_490:\n        /* \"#utility.yul\":5998:5999   */\n      dup3\n        /* \"#utility.yul\":5995:5996   */\n      dup3\n        /* \"#utility.yul\":5991:6000   */\n      div\n        /* \"#utility.yul\":5986:6000   */\n      swap1\n      pop\n        /* \"#utility.yul\":5821:6006   */\n      swap3\n      swap2\n      pop\n      pop\n      jump\t// out\n        /* \"#utility.yul\":6012:6203   */\n    tag_139:\n        /* \"#utility.yul\":6052:6055   */\n      0x00\n        /* \"#utility.yul\":6071:6091   */\n      tag_493\n        /* \"#utility.yul\":6089:6090   */\n      dup3\n        /* \"#utility.yul\":6071:6091   */\n      tag_359\n      jump\t// in\n    tag_493:\n        /* \"#utility.yul\":6066:6091   */\n      swap2\n      pop\n        /* \"#utility.yul\":6105:6125   */\n      tag_494\n        /* \"#utility.yul\":6123:6124   */\n      dup4\n        /* \"#utility.yul\":6105:6125   */\n      tag_359\n      jump\t// in\n    tag_494:\n        /* \"#utility.yul\":6100:6125   */\n      swap3\n      pop\n        /* \"#utility.yul\":6148:6149   */\n      dup3\n        /* \"#utility.yul\":6145:6146   */\n      dup3\n        /* \"#utility.yul\":6141:6150   */\n      add\n        /* \"#utility.yul\":6134:6150   */\n      swap1\n      pop\n        /* \"#utility.yul\":6169:6172   */\n      dup1\n        /* \"#utility.yul\":6166:6167   */\n      dup3\n        /* \"#utility.yul\":6163:6173   */\n      gt\n        /* \"#utility.yul\":6160:6196   */\n      iszero\n      tag_495\n      jumpi\n        /* \"#utility.yul\":6176:6194   */\n      tag_496\n      tag_371\n      jump\t// in\n    tag_496:\n        /* \"#utility.yul\":6160:6196   */\n    tag_495:\n        /* \"#utility.yul\":6012:6203   */\n      swap3\n      swap2\n      pop\n      pop\n      jump\t// out\n        /* \"#utility.yul\":6209:6378   */\n    tag_373:\n        /* \"#utility.yul\":6293:6304   */\n      0x00\n        /* \"#utility.yul\":6327:6333   */\n      dup3\n        /* \"#utility.yul\":6322:6325   */\n      dup3\n        /* \"#utility.yul\":6315:6334   */\n      mstore\n        /* \"#utility.yul\":6367:6371   */\n      0x20\n        /* \"#utility.yul\":6362:6365   */\n      dup3\n        /* \"#utility.yul\":6358:6372   */\n      add\n        /* \"#utility.yul\":6343:6372   */\n      swap1\n      pop\n        /* \"#utility.yul\":6209:6378   */\n      swap3\n      swap2\n      pop\n      pop\n      jump\t// out\n        /* \"#utility.yul\":6384:6550   */\n    tag_374:\n        /* \"#utility.yul\":6524:6542   */\n      0x4e6f20746f6b656e73207374616b656400000000000000000000000000000000\n        /* \"#utility.yul\":6520:6521   */\n      0x00\n        /* \"#utility.yul\":6512:6518   */\n      dup3\n        /* \"#utility.yul\":6508:6522   */\n      add\n        /* \"#utility.yul\":6501:6543   */\n      mstore\n        /* \"#utility.yul\":6384:6550   */\n      pop\n      jump\t// out\n        /* \"#utility.yul\":6556:6922   */\n    tag_375:\n        /* \"#utility.yul\":6698:6701   */\n      0x00\n        /* \"#utility.yul\":6719:6786   */\n      tag_500\n        /* \"#utility.yul\":6783:6785   */\n      0x10\n        /* \"#utility.yul\":6778:6781   */\n      dup4\n        /* \"#utility.yul\":6719:6786   */\n      tag_373\n      jump\t// in\n    tag_500:\n        /* \"#utility.yul\":6712:6786   */\n      swap2\n      pop\n        /* \"#utility.yul\":6795:6888   */\n      tag_501\n        /* \"#utility.yul\":6884:6887   */\n      dup3\n        /* \"#utility.yul\":6795:6888   */\n      tag_374\n      jump\t// in\n    tag_501:\n        /* \"#utility.yul\":6913:6915   */\n      0x20\n        /* \"#utility.yul\":6908:6911   */\n      dup3\n        /* \"#utility.yul\":6904:6916   */\n      add\n        /* \"#utility.yul\":6897:6916   */\n      swap1\n      pop\n        /* \"#utility.yul\":6556:6922   */\n      swap2\n      swap1\n      pop\n      jump\t// out\n        /* \"#utility.yul\":6928:7347   */\n    tag_156:\n        /* \"#utility.yul\":7094:7098   */\n      0x00\n        /* \"#utility.yul\":7132:7134   */\n      0x20\n        /* \"#utility.yul\":7121:7130   */\n      dup3\n        /* \"#utility.yul\":7117:7135   */\n      add\n        /* \"#utility.yul\":7109:7135   */\n      swap1\n      pop\n        /* \"#utility.yul\":7181:7190   */\n      dup2\n        /* \"#utility.yul\":7175:7179   */\n      dup2\n        /* \"#utility.yul\":7171:7191   */\n      sub\n        /* \"#utility.yul\":7167:7168   */\n      0x00\n        /* \"#utility.yul\":7156:7165   */\n      dup4\n        /* \"#utility.yul\":7152:7169   */\n      add\n        /* \"#utility.yul\":7145:7192   */\n      mstore\n        /* \"#utility.yul\":7209:7340   */\n      tag_503\n        /* \"#utility.yul\":7335:7339   */\n      dup2\n        /* \"#utility.yul\":7209:7340   */\n      tag_375\n      jump\t// in\n    tag_503:\n        /* \"#utility.yul\":7201:7340   */\n      swap1\n      pop\n        /* \"#utility.yul\":6928:7347   */\n      swap2\n      swap1\n      pop\n      jump\t// out\n        /* \"#utility.yul\":7353:7528   */\n    tag_376:\n        /* \"#utility.yul\":7493:7520   */\n      0x556e7374616b6520616c726561647920696e6974696174656400000000000000\n        /* \"#utility.yul\":7489:7490   */\n      0x00\n        /* \"#utility.yul\":7481:7487   */\n      dup3\n        /* \"#utility.yul\":7477:7491   */\n      add\n        /* \"#utility.yul\":7470:7521   */\n      mstore\n        /* \"#utility.yul\":7353:7528   */\n      pop\n      jump\t// out\n        /* \"#utility.yul\":7534:7900   */\n    tag_377:\n        /* \"#utility.yul\":7676:7679   */\n      0x00\n        /* \"#utility.yul\":7697:7764   */\n      tag_506\n        /* \"#utility.yul\":7761:7763   */\n      0x19\n        /* \"#utility.yul\":7756:7759   */\n      dup4\n        /* \"#utility.yul\":7697:7764   */\n      tag_373\n      jump\t// in\n    tag_506:\n        /* \"#utility.yul\":7690:7764   */\n      swap2\n      pop\n        /* \"#utility.yul\":7773:7866   */\n      tag_507\n        /* \"#utility.yul\":7862:7865   */\n      dup3\n        /* \"#utility.yul\":7773:7866   */\n      tag_376\n      jump\t// in\n    tag_507:\n        /* \"#utility.yul\":7891:7893   */\n      0x20\n        /* \"#utility.yul\":7886:7889   */\n      dup3\n        /* \"#utility.yul\":7882:7894   */\n      add\n        /* \"#utility.yul\":7875:7894   */\n      swap1\n      pop\n        /* \"#utility.yul\":7534:7900   */\n      swap2\n      swap1\n      pop\n      jump\t// out\n        /* \"#utility.yul\":7906:8325   */\n    tag_159:\n        /* \"#utility.yul\":8072:8076   */\n      0x00\n        /* \"#utility.yul\":8110:8112   */\n      0x20\n        /* \"#utility.yul\":8099:8108   */\n      dup3\n        /* \"#utility.yul\":8095:8113   */\n      add\n        /* \"#utility.yul\":8087:8113   */\n      swap1\n      pop\n        /* \"#utility.yul\":8159:8168   */\n      dup2\n        /* \"#utility.yul\":8153:8157   */\n      dup2\n        /* \"#utility.yul\":8149:8169   */\n      sub\n        /* \"#utility.yul\":8145:8146   */\n      0x00\n        /* \"#utility.yul\":8134:8143   */\n      dup4\n        /* \"#utility.yul\":8130:8147   */\n      add\n        /* \"#utility.yul\":8123:8170   */\n      mstore\n        /* \"#utility.yul\":8187:8318   */\n      tag_509\n        /* \"#utility.yul\":8313:8317   */\n      dup2\n        /* \"#utility.yul\":8187:8318   */\n      tag_377\n      jump\t// in\n    tag_509:\n        /* \"#utility.yul\":8179:8318   */\n      swap1\n      pop\n        /* \"#utility.yul\":7906:8325   */\n      swap2\n      swap1\n      pop\n      jump\t// out\n        /* \"#utility.yul\":8331:8513   */\n    tag_378:\n        /* \"#utility.yul\":8471:8505   */\n      0x416d6f756e74206d7573742062652067726561746572207468616e207a65726f\n        /* \"#utility.yul\":8467:8468   */\n      0x00\n        /* \"#utility.yul\":8459:8465   */\n      dup3\n        /* \"#utility.yul\":8455:8469   */\n      add\n        /* \"#utility.yul\":8448:8506   */\n      mstore\n        /* \"#utility.yul\":8331:8513   */\n      pop\n      jump\t// out\n        /* \"#utility.yul\":8519:8885   */\n    tag_379:\n        /* \"#utility.yul\":8661:8664   */\n      0x00\n        /* \"#utility.yul\":8682:8749   */\n      tag_512\n        /* \"#utility.yul\":8746:8748   */\n      0x20\n        /* \"#utility.yul\":8741:8744   */\n      dup4\n        /* \"#utility.yul\":8682:8749   */\n      tag_373\n      jump\t// in\n    tag_512:\n        /* \"#utility.yul\":8675:8749   */\n      swap2\n      pop\n        /* \"#utility.yul\":8758:8851   */\n      tag_513\n        /* \"#utility.yul\":8847:8850   */\n      dup3\n        /* \"#utility.yul\":8758:8851   */\n      tag_378\n      jump\t// in\n    tag_513:\n        /* \"#utility.yul\":8876:8878   */\n      0x20\n        /* \"#utility.yul\":8871:8874   */\n      dup3\n        /* \"#utility.yul\":8867:8879   */\n      add\n        /* \"#utility.yul\":8860:8879   */\n      swap1\n      pop\n        /* \"#utility.yul\":8519:8885   */\n      swap2\n      swap1\n      pop\n      jump\t// out\n        /* \"#utility.yul\":8891:9310   */\n    tag_169:\n        /* \"#utility.yul\":9057:9061   */\n      0x00\n        /* \"#utility.yul\":9095:9097   */\n      0x20\n        /* \"#utility.yul\":9084:9093   */\n      dup3\n        /* \"#utility.yul\":9080:9098   */\n      add\n        /* \"#utility.yul\":9072:9098   */\n      swap1\n      pop\n        /* \"#utility.yul\":9144:9153   */\n      dup2\n        /* \"#utility.yul\":9138:9142   */\n      dup2\n        /* \"#utility.yul\":9134:9154   */\n      sub\n        /* \"#utility.yul\":9130:9131   */\n      0x00\n        /* \"#utility.yul\":9119:9128   */\n      dup4\n        /* \"#utility.yul\":9115:9132   */\n      add\n        /* \"#utility.yul\":9108:9155   */\n      mstore\n        /* \"#utility.yul\":9172:9303   */\n      tag_515\n        /* \"#utility.yul\":9298:9302   */\n      dup2\n        /* \"#utility.yul\":9172:9303   */\n      tag_379\n      jump\t// in\n    tag_515:\n        /* \"#utility.yul\":9164:9303   */\n      swap1\n      pop\n        /* \"#utility.yul\":8891:9310   */\n      swap2\n      swap1\n      pop\n      jump\t// out\n        /* \"#utility.yul\":9316:9459   */\n    tag_380:\n        /* \"#utility.yul\":9373:9378   */\n      0x00\n        /* \"#utility.yul\":9404:9410   */\n      dup2\n        /* \"#utility.yul\":9398:9411   */\n      mload\n        /* \"#utility.yul\":9389:9411   */\n      swap1\n      pop\n        /* \"#utility.yul\":9420:9453   */\n      tag_517\n        /* \"#utility.yul\":9447:9452   */\n      dup2\n        /* \"#utility.yul\":9420:9453   */\n      tag_366\n      jump\t// in\n    tag_517:\n        /* \"#utility.yul\":9316:9459   */\n      swap3\n      swap2\n      pop\n      pop\n      jump\t// out\n        /* \"#utility.yul\":9465:9816   */\n    tag_174:\n        /* \"#utility.yul\":9535:9541   */\n      0x00\n        /* \"#utility.yul\":9584:9586   */\n      0x20\n        /* \"#utility.yul\":9572:9581   */\n      dup3\n        /* \"#utility.yul\":9563:9570   */\n      dup5\n        /* \"#utility.yul\":9559:9582   */\n      sub\n        /* \"#utility.yul\":9555:9587   */\n      slt\n        /* \"#utility.yul\":9552:9671   */\n      iszero\n      tag_519\n      jumpi\n        /* \"#utility.yul\":9590:9669   */\n      tag_520\n      tag_353\n      jump\t// in\n    tag_520:\n        /* \"#utility.yul\":9552:9671   */\n    tag_519:\n        /* \"#utility.yul\":9710:9711   */\n      0x00\n        /* \"#utility.yul\":9735:9799   */\n      tag_521\n        /* \"#utility.yul\":9791:9798   */\n      dup5\n        /* \"#utility.yul\":9782:9788   */\n      dup3\n        /* \"#utility.yul\":9771:9780   */\n      dup6\n        /* \"#utility.yul\":9767:9789   */\n      add\n        /* \"#utility.yul\":9735:9799   */\n      tag_380\n      jump\t// in\n    tag_521:\n        /* \"#utility.yul\":9725:9799   */\n      swap2\n      pop\n        /* \"#utility.yul\":9681:9809   */\n      pop\n        /* \"#utility.yul\":9465:9816   */\n      swap3\n      swap2\n      pop\n      pop\n      jump\t// out\n        /* \"#utility.yul\":9822:10047   */\n    tag_381:\n        /* \"#utility.yul\":9962:9996   */\n      0x496e73756666696369656e7420746f6b656e2062616c616e636520696e20636f\n        /* \"#utility.yul\":9958:9959   */\n      0x00\n        /* \"#utility.yul\":9950:9956   */\n      dup3\n        /* \"#utility.yul\":9946:9960   */\n      add\n        /* \"#utility.yul\":9939:9997   */\n      mstore\n        /* \"#utility.yul\":10031:10039   */\n      0x6e74726163740000000000000000000000000000000000000000000000000000\n        /* \"#utility.yul\":10026:10028   */\n      0x20\n        /* \"#utility.yul\":10018:10024   */\n      dup3\n        /* \"#utility.yul\":10014:10029   */\n      add\n        /* \"#utility.yul\":10007:10040   */\n      mstore\n        /* \"#utility.yul\":9822:10047   */\n      pop\n      jump\t// out\n        /* \"#utility.yul\":10053:10419   */\n    tag_382:\n        /* \"#utility.yul\":10195:10198   */\n      0x00\n        /* \"#utility.yul\":10216:10283   */\n      tag_524\n        /* \"#utility.yul\":10280:10282   */\n      0x26\n        /* \"#utility.yul\":10275:10278   */\n      dup4\n        /* \"#utility.yul\":10216:10283   */\n      tag_373\n      jump\t// in\n    tag_524:\n        /* \"#utility.yul\":10209:10283   */\n      swap2\n      pop\n        /* \"#utility.yul\":10292:10385   */\n      tag_525\n        /* \"#utility.yul\":10381:10384   */\n      dup3\n        /* \"#utility.yul\":10292:10385   */\n      tag_381\n      jump\t// in\n    tag_525:\n        /* \"#utility.yul\":10410:10412   */\n      0x40\n        /* \"#utility.yul\":10405:10408   */\n      dup3\n        /* \"#utility.yul\":10401:10413   */\n      add\n        /* \"#utility.yul\":10394:10413   */\n      swap1\n      pop\n        /* \"#utility.yul\":10053:10419   */\n      swap2\n      swap1\n      pop\n      jump\t// out\n        /* \"#utility.yul\":10425:10844   */\n    tag_177:\n        /* \"#utility.yul\":10591:10595   */\n      0x00\n        /* \"#utility.yul\":10629:10631   */\n      0x20\n        /* \"#utility.yul\":10618:10627   */\n      dup3\n        /* \"#utility.yul\":10614:10632   */\n      add\n        /* \"#utility.yul\":10606:10632   */\n      swap1\n      pop\n        /* \"#utility.yul\":10678:10687   */\n      dup2\n        /* \"#utility.yul\":10672:10676   */\n      dup2\n        /* \"#utility.yul\":10668:10688   */\n      sub\n        /* \"#utility.yul\":10664:10665   */\n      0x00\n        /* \"#utility.yul\":10653:10662   */\n      dup4\n        /* \"#utility.yul\":10649:10666   */\n      add\n        /* \"#utility.yul\":10642:10689   */\n      mstore\n        /* \"#utility.yul\":10706:10837   */\n      tag_527\n        /* \"#utility.yul\":10832:10836   */\n      dup2\n        /* \"#utility.yul\":10706:10837   */\n      tag_382\n      jump\t// in\n    tag_527:\n        /* \"#utility.yul\":10698:10837   */\n      swap1\n      pop\n        /* \"#utility.yul\":10425:10844   */\n      swap2\n      swap1\n      pop\n      jump\t// out\n        /* \"#utility.yul\":10850:11182   */\n    tag_179:\n        /* \"#utility.yul\":10971:10975   */\n      0x00\n        /* \"#utility.yul\":11009:11011   */\n      0x40\n        /* \"#utility.yul\":10998:11007   */\n      dup3\n        /* \"#utility.yul\":10994:11012   */\n      add\n        /* \"#utility.yul\":10986:11012   */\n      swap1\n      pop\n        /* \"#utility.yul\":11022:11093   */\n      tag_529\n        /* \"#utility.yul\":11090:11091   */\n      0x00\n        /* \"#utility.yul\":11079:11088   */\n      dup4\n        /* \"#utility.yul\":11075:11092   */\n      add\n        /* \"#utility.yul\":11066:11072   */\n      dup6\n        /* \"#utility.yul\":11022:11093   */\n      tag_368\n      jump\t// in\n    tag_529:\n        /* \"#utility.yul\":11103:11175   */\n      tag_530\n        /* \"#utility.yul\":11171:11173   */\n      0x20\n        /* \"#utility.yul\":11160:11169   */\n      dup4\n        /* \"#utility.yul\":11156:11174   */\n      add\n        /* \"#utility.yul\":11147:11153   */\n      dup5\n        /* \"#utility.yul\":11103:11175   */\n      tag_360\n      jump\t// in\n    tag_530:\n        /* \"#utility.yul\":10850:11182   */\n      swap4\n      swap3\n      pop\n      pop\n      pop\n      jump\t// out\n        /* \"#utility.yul\":11188:11304   */\n    tag_383:\n        /* \"#utility.yul\":11258:11279   */\n      tag_532\n        /* \"#utility.yul\":11273:11278   */\n      dup2\n        /* \"#utility.yul\":11258:11279   */\n      tag_369\n      jump\t// in\n    tag_532:\n        /* \"#utility.yul\":11251:11256   */\n      dup2\n        /* \"#utility.yul\":11248:11280   */\n      eq\n        /* \"#utility.yul\":11238:11298   */\n      tag_533\n      jumpi\n        /* \"#utility.yul\":11294:11295   */\n      0x00\n        /* \"#utility.yul\":11291:11292   */\n      dup1\n        /* \"#utility.yul\":11284:11296   */\n      revert\n        /* \"#utility.yul\":11238:11298   */\n    tag_533:\n        /* \"#utility.yul\":11188:11304   */\n      pop\n      jump\t// out\n        /* \"#utility.yul\":11310:11447   */\n    tag_384:\n        /* \"#utility.yul\":11364:11369   */\n      0x00\n        /* \"#utility.yul\":11395:11401   */\n      dup2\n        /* \"#utility.yul\":11389:11402   */\n      mload\n        /* \"#utility.yul\":11380:11402   */\n      swap1\n      pop\n        /* \"#utility.yul\":11411:11441   */\n      tag_535\n        /* \"#utility.yul\":11435:11440   */\n      dup2\n        /* \"#utility.yul\":11411:11441   */\n      tag_383\n      jump\t// in\n    tag_535:\n        /* \"#utility.yul\":11310:11447   */\n      swap3\n      swap2\n      pop\n      pop\n      jump\t// out\n        /* \"#utility.yul\":11453:11798   */\n    tag_183:\n        /* \"#utility.yul\":11520:11526   */\n      0x00\n        /* \"#utility.yul\":11569:11571   */\n      0x20\n        /* \"#utility.yul\":11557:11566   */\n      dup3\n        /* \"#utility.yul\":11548:11555   */\n      dup5\n        /* \"#utility.yul\":11544:11567   */\n      sub\n        /* \"#utility.yul\":11540:11572   */\n      slt\n        /* \"#utility.yul\":11537:11656   */\n      iszero\n      tag_537\n      jumpi\n        /* \"#utility.yul\":11575:11654   */\n      tag_538\n      tag_353\n      jump\t// in\n    tag_538:\n        /* \"#utility.yul\":11537:11656   */\n    tag_537:\n        /* \"#utility.yul\":11695:11696   */\n      0x00\n        /* \"#utility.yul\":11720:11781   */\n      tag_539\n        /* \"#utility.yul\":11773:11780   */\n      dup5\n        /* \"#utility.yul\":11764:11770   */\n      dup3\n        /* \"#utility.yul\":11753:11762   */\n      dup6\n        /* \"#utility.yul\":11749:11771   */\n      add\n        /* \"#utility.yul\":11720:11781   */\n      tag_384\n      jump\t// in\n    tag_539:\n        /* \"#utility.yul\":11710:11781   */\n      swap2\n      pop\n        /* \"#utility.yul\":11666:11791   */\n      pop\n        /* \"#utility.yul\":11453:11798   */\n      swap3\n      swap2\n      pop\n      pop\n      jump\t// out\n        /* \"#utility.yul\":11804:11975   */\n    tag_385:\n        /* \"#utility.yul\":11944:11967   */\n      0x546f6b656e207472616e73666572206661696c65640000000000000000000000\n        /* \"#utility.yul\":11940:11941   */\n      0x00\n        /* \"#utility.yul\":11932:11938   */\n      dup3\n        /* \"#utility.yul\":11928:11942   */\n      add\n        /* \"#utility.yul\":11921:11968   */\n      mstore\n        /* \"#utility.yul\":11804:11975   */\n      pop\n      jump\t// out\n        /* \"#utility.yul\":11981:12347   */\n    tag_386:\n        /* \"#utility.yul\":12123:12126   */\n      0x00\n        /* \"#utility.yul\":12144:12211   */\n      tag_542\n        /* \"#utility.yul\":12208:12210   */\n      0x15\n        /* \"#utility.yul\":12203:12206   */\n      dup4\n        /* \"#utility.yul\":12144:12211   */\n      tag_373\n      jump\t// in\n    tag_542:\n        /* \"#utility.yul\":12137:12211   */\n      swap2\n      pop\n        /* \"#utility.yul\":12220:12313   */\n      tag_543\n        /* \"#utility.yul\":12309:12312   */\n      dup3\n        /* \"#utility.yul\":12220:12313   */\n      tag_385\n      jump\t// in\n    tag_543:\n        /* \"#utility.yul\":12338:12340   */\n      0x20\n        /* \"#utility.yul\":12333:12336   */\n      dup3\n        /* \"#utility.yul\":12329:12341   */\n      add\n        /* \"#utility.yul\":12322:12341   */\n      swap1\n      pop\n        /* \"#utility.yul\":11981:12347   */\n      swap2\n      swap1\n      pop\n      jump\t// out\n        /* \"#utility.yul\":12353:12772   */\n    tag_186:\n        /* \"#utility.yul\":12519:12523   */\n      0x00\n        /* \"#utility.yul\":12557:12559   */\n      0x20\n        /* \"#utility.yul\":12546:12555   */\n      dup3\n        /* \"#utility.yul\":12542:12560   */\n      add\n        /* \"#utility.yul\":12534:12560   */\n      swap1\n      pop\n        /* \"#utility.yul\":12606:12615   */\n      dup2\n        /* \"#utility.yul\":12600:12604   */\n      dup2\n        /* \"#utility.yul\":12596:12616   */\n      sub\n        /* \"#utility.yul\":12592:12593   */\n      0x00\n        /* \"#utility.yul\":12581:12590   */\n      dup4\n        /* \"#utility.yul\":12577:12594   */\n      add\n        /* \"#utility.yul\":12570:12617   */\n      mstore\n        /* \"#utility.yul\":12634:12765   */\n      tag_545\n        /* \"#utility.yul\":12760:12764   */\n      dup2\n        /* \"#utility.yul\":12634:12765   */\n      tag_386\n      jump\t// in\n    tag_545:\n        /* \"#utility.yul\":12626:12765   */\n      swap1\n      pop\n        /* \"#utility.yul\":12353:12772   */\n      swap2\n      swap1\n      pop\n      jump\t// out\n        /* \"#utility.yul\":12778:13004   */\n    tag_387:\n        /* \"#utility.yul\":12918:12952   */\n      0x556e7374616b652066656520657863656564732032252c206d6178696d756d20\n        /* \"#utility.yul\":12914:12915   */\n      0x00\n        /* \"#utility.yul\":12906:12912   */\n      dup3\n        /* \"#utility.yul\":12902:12916   */\n      add\n        /* \"#utility.yul\":12895:12953   */\n      mstore\n        /* \"#utility.yul\":12987:12996   */\n      0x616c6c6f77656400000000000000000000000000000000000000000000000000\n        /* \"#utility.yul\":12982:12984   */\n      0x20\n        /* \"#utility.yul\":12974:12980   */\n      dup3\n        /* \"#utility.yul\":12970:12985   */\n      add\n        /* \"#utility.yul\":12963:12997   */\n      mstore\n        /* \"#utility.yul\":12778:13004   */\n      pop\n      jump\t// out\n        /* \"#utility.yul\":13010:13376   */\n    tag_388:\n        /* \"#utility.yul\":13152:13155   */\n      0x00\n        /* \"#utility.yul\":13173:13240   */\n      tag_548\n        /* \"#utility.yul\":13237:13239   */\n      0x27\n        /* \"#utility.yul\":13232:13235   */\n      dup4\n        /* \"#utility.yul\":13173:13240   */\n      tag_373\n      jump\t// in\n    tag_548:\n        /* \"#utility.yul\":13166:13240   */\n      swap2\n      pop\n        /* \"#utility.yul\":13249:13342   */\n      tag_549\n        /* \"#utility.yul\":13338:13341   */\n      dup3\n        /* \"#utility.yul\":13249:13342   */\n      tag_387\n      jump\t// in\n    tag_549:\n        /* \"#utility.yul\":13367:13369   */\n      0x40\n        /* \"#utility.yul\":13362:13365   */\n      dup3\n        /* \"#utility.yul\":13358:13370   */\n      add\n        /* \"#utility.yul\":13351:13370   */\n      swap1\n      pop\n        /* \"#utility.yul\":13010:13376   */\n      swap2\n      swap1\n      pop\n      jump\t// out\n        /* \"#utility.yul\":13382:13801   */\n    tag_192:\n        /* \"#utility.yul\":13548:13552   */\n      0x00\n        /* \"#utility.yul\":13586:13588   */\n      0x20\n        /* \"#utility.yul\":13575:13584   */\n      dup3\n        /* \"#utility.yul\":13571:13589   */\n      add\n        /* \"#utility.yul\":13563:13589   */\n      swap1\n      pop\n        /* \"#utility.yul\":13635:13644   */\n      dup2\n        /* \"#utility.yul\":13629:13633   */\n      dup2\n        /* \"#utility.yul\":13625:13645   */\n      sub\n        /* \"#utility.yul\":13621:13622   */\n      0x00\n        /* \"#utility.yul\":13610:13619   */\n      dup4\n        /* \"#utility.yul\":13606:13623   */\n      add\n        /* \"#utility.yul\":13599:13646   */\n      mstore\n        /* \"#utility.yul\":13663:13794   */\n      tag_551\n        /* \"#utility.yul\":13789:13793   */\n      dup2\n        /* \"#utility.yul\":13663:13794   */\n      tag_388\n      jump\t// in\n    tag_551:\n        /* \"#utility.yul\":13655:13794   */\n      swap1\n      pop\n        /* \"#utility.yul\":13382:13801   */\n      swap2\n      swap1\n      pop\n      jump\t// out\n        /* \"#utility.yul\":13807:13984   */\n    tag_389:\n        /* \"#utility.yul\":13947:13976   */\n      0x416d6f756e742065786365656473206163637275656420666565730000000000\n        /* \"#utility.yul\":13943:13944   */\n      0x00\n        /* \"#utility.yul\":13935:13941   */\n      dup3\n        /* \"#utility.yul\":13931:13945   */\n      add\n        /* \"#utility.yul\":13924:13977   */\n      mstore\n        /* \"#utility.yul\":13807:13984   */\n      pop\n      jump\t// out\n        /* \"#utility.yul\":13990:14356   */\n    tag_390:\n        /* \"#utility.yul\":14132:14135   */\n      0x00\n        /* \"#utility.yul\":14153:14220   */\n      tag_554\n        /* \"#utility.yul\":14217:14219   */\n      0x1b\n        /* \"#utility.yul\":14212:14215   */\n      dup4\n        /* \"#utility.yul\":14153:14220   */\n      tag_373\n      jump\t// in\n    tag_554:\n        /* \"#utility.yul\":14146:14220   */\n      swap2\n      pop\n        /* \"#utility.yul\":14229:14322   */\n      tag_555\n        /* \"#utility.yul\":14318:14321   */\n      dup3\n        /* \"#utility.yul\":14229:14322   */\n      tag_389\n      jump\t// in\n    tag_555:\n        /* \"#utility.yul\":14347:14349   */\n      0x20\n        /* \"#utility.yul\":14342:14345   */\n      dup3\n        /* \"#utility.yul\":14338:14350   */\n      add\n        /* \"#utility.yul\":14331:14350   */\n      swap1\n      pop\n        /* \"#utility.yul\":13990:14356   */\n      swap2\n      swap1\n      pop\n      jump\t// out\n        /* \"#utility.yul\":14362:14781   */\n    tag_198:\n        /* \"#utility.yul\":14528:14532   */\n      0x00\n        /* \"#utility.yul\":14566:14568   */\n      0x20\n        /* \"#utility.yul\":14555:14564   */\n      dup3\n        /* \"#utility.yul\":14551:14569   */\n      add\n        /* \"#utility.yul\":14543:14569   */\n      swap1\n      pop\n        /* \"#utility.yul\":14615:14624   */\n      dup2\n        /* \"#utility.yul\":14609:14613   */\n      dup2\n        /* \"#utility.yul\":14605:14625   */\n      sub\n        /* \"#utility.yul\":14601:14602   */\n      0x00\n        /* \"#utility.yul\":14590:14599   */\n      dup4\n        /* \"#utility.yul\":14586:14603   */\n      add\n        /* \"#utility.yul\":14579:14626   */\n      mstore\n        /* \"#utility.yul\":14643:14774   */\n      tag_557\n        /* \"#utility.yul\":14769:14773   */\n      dup2\n        /* \"#utility.yul\":14643:14774   */\n      tag_390\n      jump\t// in\n    tag_557:\n        /* \"#utility.yul\":14635:14774   */\n      swap1\n      pop\n        /* \"#utility.yul\":14362:14781   */\n      swap2\n      swap1\n      pop\n      jump\t// out\n        /* \"#utility.yul\":14787:14958   */\n    tag_391:\n        /* \"#utility.yul\":14927:14950   */\n      0x466565207769746864726177616c206661696c65640000000000000000000000\n        /* \"#utility.yul\":14923:14924   */\n      0x00\n        /* \"#utility.yul\":14915:14921   */\n      dup3\n        /* \"#utility.yul\":14911:14925   */\n      add\n        /* \"#utility.yul\":14904:14951   */\n      mstore\n        /* \"#utility.yul\":14787:14958   */\n      pop\n      jump\t// out\n        /* \"#utility.yul\":14964:15330   */\n    tag_392:\n        /* \"#utility.yul\":15106:15109   */\n      0x00\n        /* \"#utility.yul\":15127:15194   */\n      tag_560\n        /* \"#utility.yul\":15191:15193   */\n      0x15\n        /* \"#utility.yul\":15186:15189   */\n      dup4\n        /* \"#utility.yul\":15127:15194   */\n      tag_373\n      jump\t// in\n    tag_560:\n        /* \"#utility.yul\":15120:15194   */\n      swap2\n      pop\n        /* \"#utility.yul\":15203:15296   */\n      tag_561\n        /* \"#utility.yul\":15292:15295   */\n      dup3\n        /* \"#utility.yul\":15203:15296   */\n      tag_391\n      jump\t// in\n    tag_561:\n        /* \"#utility.yul\":15321:15323   */\n      0x20\n        /* \"#utility.yul\":15316:15319   */\n      dup3\n        /* \"#utility.yul\":15312:15324   */\n      add\n        /* \"#utility.yul\":15305:15324   */\n      swap1\n      pop\n        /* \"#utility.yul\":14964:15330   */\n      swap2\n      swap1\n      pop\n      jump\t// out\n        /* \"#utility.yul\":15336:15755   */\n    tag_206:\n        /* \"#utility.yul\":15502:15506   */\n      0x00\n        /* \"#utility.yul\":15540:15542   */\n      0x20\n        /* \"#utility.yul\":15529:15538   */\n      dup3\n        /* \"#utility.yul\":15525:15543   */\n      add\n        /* \"#utility.yul\":15517:15543   */\n      swap1\n      pop\n        /* \"#utility.yul\":15589:15598   */\n      dup2\n        /* \"#utility.yul\":15583:15587   */\n      dup2\n        /* \"#utility.yul\":15579:15599   */\n      sub\n        /* \"#utility.yul\":15575:15576   */\n      0x00\n        /* \"#utility.yul\":15564:15573   */\n      dup4\n        /* \"#utility.yul\":15560:15577   */\n      add\n        /* \"#utility.yul\":15553:15600   */\n      mstore\n        /* \"#utility.yul\":15617:15748   */\n      tag_563\n        /* \"#utility.yul\":15743:15747   */\n      dup2\n        /* \"#utility.yul\":15617:15748   */\n      tag_392\n      jump\t// in\n    tag_563:\n        /* \"#utility.yul\":15609:15748   */\n      swap1\n      pop\n        /* \"#utility.yul\":15336:15755   */\n      swap2\n      swap1\n      pop\n      jump\t// out\n        /* \"#utility.yul\":15761:15932   */\n    tag_393:\n        /* \"#utility.yul\":15901:15924   */\n      0x556e7374616b65206e6f7420696e697469617465640000000000000000000000\n        /* \"#utility.yul\":15897:15898   */\n      0x00\n        /* \"#utility.yul\":15889:15895   */\n      dup3\n        /* \"#utility.yul\":15885:15899   */\n      add\n        /* \"#utility.yul\":15878:15925   */\n      mstore\n        /* \"#utility.yul\":15761:15932   */\n      pop\n      jump\t// out\n        /* \"#utility.yul\":15938:16304   */\n    tag_394:\n        /* \"#utility.yul\":16080:16083   */\n      0x00\n        /* \"#utility.yul\":16101:16168   */\n      tag_566\n        /* \"#utility.yul\":16165:16167   */\n      0x15\n        /* \"#utility.yul\":16160:16163   */\n      dup4\n        /* \"#utility.yul\":16101:16168   */\n      tag_373\n      jump\t// in\n    tag_566:\n        /* \"#utility.yul\":16094:16168   */\n      swap2\n      pop\n        /* \"#utility.yul\":16177:16270   */\n      tag_567\n        /* \"#utility.yul\":16266:16269   */\n      dup3\n        /* \"#utility.yul\":16177:16270   */\n      tag_393\n      jump\t// in\n    tag_567:\n        /* \"#utility.yul\":16295:16297   */\n      0x20\n        /* \"#utility.yul\":16290:16293   */\n      dup3\n        /* \"#utility.yul\":16286:16298   */\n      add\n        /* \"#utility.yul\":16279:16298   */\n      swap1\n      pop\n        /* \"#utility.yul\":15938:16304   */\n      swap2\n      swap1\n      pop\n      jump\t// out\n        /* \"#utility.yul\":16310:16729   */\n    tag_221:\n        /* \"#utility.yul\":16476:16480   */\n      0x00\n        /* \"#utility.yul\":16514:16516   */\n      0x20\n        /* \"#utility.yul\":16503:16512   */\n      dup3\n        /* \"#utility.yul\":16499:16517   */\n      add\n        /* \"#utility.yul\":16491:16517   */\n      swap1\n      pop\n        /* \"#utility.yul\":16563:16572   */\n      dup2\n        /* \"#utility.yul\":16557:16561   */\n      dup2\n        /* \"#utility.yul\":16553:16573   */\n      sub\n        /* \"#utility.yul\":16549:16550   */\n      0x00\n        /* \"#utility.yul\":16538:16547   */\n      dup4\n        /* \"#utility.yul\":16534:16551   */\n      add\n        /* \"#utility.yul\":16527:16574   */\n      mstore\n        /* \"#utility.yul\":16591:16722   */\n      tag_569\n        /* \"#utility.yul\":16717:16721   */\n      dup2\n        /* \"#utility.yul\":16591:16722   */\n      tag_394\n      jump\t// in\n    tag_569:\n        /* \"#utility.yul\":16583:16722   */\n      swap1\n      pop\n        /* \"#utility.yul\":16310:16729   */\n      swap2\n      swap1\n      pop\n      jump\t// out\n        /* \"#utility.yul\":16735:16908   */\n    tag_395:\n        /* \"#utility.yul\":16875:16900   */\n      0x54696d656c6f636b206e6f742079657420706173736564000000000000000000\n        /* \"#utility.yul\":16871:16872   */\n      0x00\n        /* \"#utility.yul\":16863:16869   */\n      dup3\n        /* \"#utility.yul\":16859:16873   */\n      add\n        /* \"#utility.yul\":16852:16901   */\n      mstore\n        /* \"#utility.yul\":16735:16908   */\n      pop\n      jump\t// out\n        /* \"#utility.yul\":16914:17280   */\n    tag_396:\n        /* \"#utility.yul\":17056:17059   */\n      0x00\n        /* \"#utility.yul\":17077:17144   */\n      tag_572\n        /* \"#utility.yul\":17141:17143   */\n      0x17\n        /* \"#utility.yul\":17136:17139   */\n      dup4\n        /* \"#utility.yul\":17077:17144   */\n      tag_373\n      jump\t// in\n    tag_572:\n        /* \"#utility.yul\":17070:17144   */\n      swap2\n      pop\n        /* \"#utility.yul\":17153:17246   */\n      tag_573\n        /* \"#utility.yul\":17242:17245   */\n      dup3\n        /* \"#utility.yul\":17153:17246   */\n      tag_395\n      jump\t// in\n    tag_573:\n        /* \"#utility.yul\":17271:17273   */\n      0x20\n        /* \"#utility.yul\":17266:17269   */\n      dup3\n        /* \"#utility.yul\":17262:17274   */\n      add\n        /* \"#utility.yul\":17255:17274   */\n      swap1\n      pop\n        /* \"#utility.yul\":16914:17280   */\n      swap2\n      swap1\n      pop\n      jump\t// out\n        /* \"#utility.yul\":17286:17705   */\n    tag_225:\n        /* \"#utility.yul\":17452:17456   */\n      0x00\n        /* \"#utility.yul\":17490:17492   */\n      0x20\n        /* \"#utility.yul\":17479:17488   */\n      dup3\n        /* \"#utility.yul\":17475:17493   */\n      add\n        /* \"#utility.yul\":17467:17493   */\n      swap1\n      pop\n        /* \"#utility.yul\":17539:17548   */\n      dup2\n        /* \"#utility.yul\":17533:17537   */\n      dup2\n        /* \"#utility.yul\":17529:17549   */\n      sub\n        /* \"#utility.yul\":17525:17526   */\n      0x00\n        /* \"#utility.yul\":17514:17523   */\n      dup4\n        /* \"#utility.yul\":17510:17527   */\n      add\n        /* \"#utility.yul\":17503:17550   */\n      mstore\n        /* \"#utility.yul\":17567:17698   */\n      tag_575\n        /* \"#utility.yul\":17693:17697   */\n      dup2\n        /* \"#utility.yul\":17567:17698   */\n      tag_396\n      jump\t// in\n    tag_575:\n        /* \"#utility.yul\":17559:17698   */\n      swap1\n      pop\n        /* \"#utility.yul\":17286:17705   */\n      swap2\n      swap1\n      pop\n      jump\t// out\n        /* \"#utility.yul\":17711:17876   */\n    tag_397:\n        /* \"#utility.yul\":17851:17868   */\n      0x5472616e73666572206661696c65640000000000000000000000000000000000\n        /* \"#utility.yul\":17847:17848   */\n      0x00\n        /* \"#utility.yul\":17839:17845   */\n      dup3\n        /* \"#utility.yul\":17835:17849   */\n      add\n        /* \"#utility.yul\":17828:17869   */\n      mstore\n        /* \"#utility.yul\":17711:17876   */\n      pop\n      jump\t// out\n        /* \"#utility.yul\":17882:18248   */\n    tag_398:\n        /* \"#utility.yul\":18024:18027   */\n      0x00\n        /* \"#utility.yul\":18045:18112   */\n      tag_578\n        /* \"#utility.yul\":18109:18111   */\n      0x0f\n        /* \"#utility.yul\":18104:18107   */\n      dup4\n        /* \"#utility.yul\":18045:18112   */\n      tag_373\n      jump\t// in\n    tag_578:\n        /* \"#utility.yul\":18038:18112   */\n      swap2\n      pop\n        /* \"#utility.yul\":18121:18214   */\n      tag_579\n        /* \"#utility.yul\":18210:18213   */\n      dup3\n        /* \"#utility.yul\":18121:18214   */\n      tag_397\n      jump\t// in\n    tag_579:\n        /* \"#utility.yul\":18239:18241   */\n      0x20\n        /* \"#utility.yul\":18234:18237   */\n      dup3\n        /* \"#utility.yul\":18230:18242   */\n      add\n        /* \"#utility.yul\":18223:18242   */\n      swap1\n      pop\n        /* \"#utility.yul\":17882:18248   */\n      swap2\n      swap1\n      pop\n      jump\t// out\n        /* \"#utility.yul\":18254:18673   */\n    tag_239:\n        /* \"#utility.yul\":18420:18424   */\n      0x00\n        /* \"#utility.yul\":18458:18460   */\n      0x20\n        /* \"#utility.yul\":18447:18456   */\n      dup3\n        /* \"#utility.yul\":18443:18461   */\n      add\n        /* \"#utility.yul\":18435:18461   */\n      swap1\n      pop\n        /* \"#utility.yul\":18507:18516   */\n      dup2\n        /* \"#utility.yul\":18501:18505   */\n      dup2\n        /* \"#utility.yul\":18497:18517   */\n      sub\n        /* \"#utility.yul\":18493:18494   */\n      0x00\n        /* \"#utility.yul\":18482:18491   */\n      dup4\n        /* \"#utility.yul\":18478:18495   */\n      add\n        /* \"#utility.yul\":18471:18518   */\n      mstore\n        /* \"#utility.yul\":18535:18666   */\n      tag_581\n        /* \"#utility.yul\":18661:18665   */\n      dup2\n        /* \"#utility.yul\":18535:18666   */\n      tag_398\n      jump\t// in\n    tag_581:\n        /* \"#utility.yul\":18527:18666   */\n      swap1\n      pop\n        /* \"#utility.yul\":18254:18673   */\n      swap2\n      swap1\n      pop\n      jump\t// out\n        /* \"#utility.yul\":18679:18852   */\n    tag_399:\n        /* \"#utility.yul\":18819:18844   */\n      0x556e7374616b65207472616e73666572206661696c6564000000000000000000\n        /* \"#utility.yul\":18815:18816   */\n      0x00\n        /* \"#utility.yul\":18807:18813   */\n      dup3\n        /* \"#utility.yul\":18803:18817   */\n      add\n        /* \"#utility.yul\":18796:18845   */\n      mstore\n        /* \"#utility.yul\":18679:18852   */\n      pop\n      jump\t// out\n        /* \"#utility.yul\":18858:19224   */\n    tag_400:\n        /* \"#utility.yul\":19000:19003   */\n      0x00\n        /* \"#utility.yul\":19021:19088   */\n      tag_584\n        /* \"#utility.yul\":19085:19087   */\n      0x17\n        /* \"#utility.yul\":19080:19083   */\n      dup4\n        /* \"#utility.yul\":19021:19088   */\n      tag_373\n      jump\t// in\n    tag_584:\n        /* \"#utility.yul\":19014:19088   */\n      swap2\n      pop\n        /* \"#utility.yul\":19097:19190   */\n      tag_585\n        /* \"#utility.yul\":19186:19189   */\n      dup3\n        /* \"#utility.yul\":19097:19190   */\n      tag_399\n      jump\t// in\n    tag_585:\n        /* \"#utility.yul\":19215:19217   */\n      0x20\n        /* \"#utility.yul\":19210:19213   */\n      dup3\n        /* \"#utility.yul\":19206:19218   */\n      add\n        /* \"#utility.yul\":19199:19218   */\n      swap1\n      pop\n        /* \"#utility.yul\":18858:19224   */\n      swap2\n      swap1\n      pop\n      jump\t// out\n        /* \"#utility.yul\":19230:19649   */\n    tag_248:\n        /* \"#utility.yul\":19396:19400   */\n      0x00\n        /* \"#utility.yul\":19434:19436   */\n      0x20\n        /* \"#utility.yul\":19423:19432   */\n      dup3\n        /* \"#utility.yul\":19419:19437   */\n      add\n        /* \"#utility.yul\":19411:19437   */\n      swap1\n      pop\n        /* \"#utility.yul\":19483:19492   */\n      dup2\n        /* \"#utility.yul\":19477:19481   */\n      dup2\n        /* \"#utility.yul\":19473:19493   */\n      sub\n        /* \"#utility.yul\":19469:19470   */\n      0x00\n        /* \"#utility.yul\":19458:19467   */\n      dup4\n        /* \"#utility.yul\":19454:19471   */\n      add\n        /* \"#utility.yul\":19447:19494   */\n      mstore\n        /* \"#utility.yul\":19511:19642   */\n      tag_587\n        /* \"#utility.yul\":19637:19641   */\n      dup2\n        /* \"#utility.yul\":19511:19642   */\n      tag_400\n      jump\t// in\n    tag_587:\n        /* \"#utility.yul\":19503:19642   */\n      swap1\n      pop\n        /* \"#utility.yul\":19230:19649   */\n      swap2\n      swap1\n      pop\n      jump\t// out\n        /* \"#utility.yul\":19655:19819   */\n    tag_401:\n        /* \"#utility.yul\":19795:19811   */\n      0x43616e6e6f74207374616b652030000000000000000000000000000000000000\n        /* \"#utility.yul\":19791:19792   */\n      0x00\n        /* \"#utility.yul\":19783:19789   */\n      dup3\n        /* \"#utility.yul\":19779:19793   */\n      add\n        /* \"#utility.yul\":19772:19812   */\n      mstore\n        /* \"#utility.yul\":19655:19819   */\n      pop\n      jump\t// out\n        /* \"#utility.yul\":19825:20191   */\n    tag_402:\n        /* \"#utility.yul\":19967:19970   */\n      0x00\n        /* \"#utility.yul\":19988:20055   */\n      tag_590\n        /* \"#utility.yul\":20052:20054   */\n      0x0e\n        /* \"#utility.yul\":20047:20050   */\n      dup4\n        /* \"#utility.yul\":19988:20055   */\n      tag_373\n      jump\t// in\n    tag_590:\n        /* \"#utility.yul\":19981:20055   */\n      swap2\n      pop\n        /* \"#utility.yul\":20064:20157   */\n      tag_591\n        /* \"#utility.yul\":20153:20156   */\n      dup3\n        /* \"#utility.yul\":20064:20157   */\n      tag_401\n      jump\t// in\n    tag_591:\n        /* \"#utility.yul\":20182:20184   */\n      0x20\n        /* \"#utility.yul\":20177:20180   */\n      dup3\n        /* \"#utility.yul\":20173:20185   */\n      add\n        /* \"#utility.yul\":20166:20185   */\n      swap1\n      pop\n        /* \"#utility.yul\":19825:20191   */\n      swap2\n      swap1\n      pop\n      jump\t// out\n        /* \"#utility.yul\":20197:20616   */\n    tag_269:\n        /* \"#utility.yul\":20363:20367   */\n      0x00\n        /* \"#utility.yul\":20401:20403   */\n      0x20\n        /* \"#utility.yul\":20390:20399   */\n      dup3\n        /* \"#utility.yul\":20386:20404   */\n      add\n        /* \"#utility.yul\":20378:20404   */\n      swap1\n      pop\n        /* \"#utility.yul\":20450:20459   */\n      dup2\n        /* \"#utility.yul\":20444:20448   */\n      dup2\n        /* \"#utility.yul\":20440:20460   */\n      sub\n        /* \"#utility.yul\":20436:20437   */\n      0x00\n        /* \"#utility.yul\":20425:20434   */\n      dup4\n        /* \"#utility.yul\":20421:20438   */\n      add\n        /* \"#utility.yul\":20414:20461   */\n      mstore\n        /* \"#utility.yul\":20478:20609   */\n      tag_593\n        /* \"#utility.yul\":20604:20608   */\n      dup2\n        /* \"#utility.yul\":20478:20609   */\n      tag_402\n      jump\t// in\n    tag_593:\n        /* \"#utility.yul\":20470:20609   */\n      swap1\n      pop\n        /* \"#utility.yul\":20197:20616   */\n      swap2\n      swap1\n      pop\n      jump\t// out\n        /* \"#utility.yul\":20622:20847   */\n    tag_403:\n        /* \"#utility.yul\":20762:20796   */\n      0x43616e6e6f74207374616b6520616674657220696e6974696174696e6720756e\n        /* \"#utility.yul\":20758:20759   */\n      0x00\n        /* \"#utility.yul\":20750:20756   */\n      dup3\n        /* \"#utility.yul\":20746:20760   */\n      add\n        /* \"#utility.yul\":20739:20797   */\n      mstore\n        /* \"#utility.yul\":20831:20839   */\n      0x7374616b652e0000000000000000000000000000000000000000000000000000\n        /* \"#utility.yul\":20826:20828   */\n      0x20\n        /* \"#utility.yul\":20818:20824   */\n      dup3\n        /* \"#utility.yul\":20814:20829   */\n      add\n        /* \"#utility.yul\":20807:20840   */\n      mstore\n        /* \"#utility.yul\":20622:20847   */\n      pop\n      jump\t// out\n        /* \"#utility.yul\":20853:21219   */\n    tag_404:\n        /* \"#utility.yul\":20995:20998   */\n      0x00\n        /* \"#utility.yul\":21016:21083   */\n      tag_596\n        /* \"#utility.yul\":21080:21082   */\n      0x26\n        /* \"#utility.yul\":21075:21078   */\n      dup4\n        /* \"#utility.yul\":21016:21083   */\n      tag_373\n      jump\t// in\n    tag_596:\n        /* \"#utility.yul\":21009:21083   */\n      swap2\n      pop\n        /* \"#utility.yul\":21092:21185   */\n      tag_597\n        /* \"#utility.yul\":21181:21184   */\n      dup3\n        /* \"#utility.yul\":21092:21185   */\n      tag_403\n      jump\t// in\n    tag_597:\n        /* \"#utility.yul\":21210:21212   */\n      0x40\n        /* \"#utility.yul\":21205:21208   */\n      dup3\n        /* \"#utility.yul\":21201:21213   */\n      add\n        /* \"#utility.yul\":21194:21213   */\n      swap1\n      pop\n        /* \"#utility.yul\":20853:21219   */\n      swap2\n      swap1\n      pop\n      jump\t// out\n        /* \"#utility.yul\":21225:21644   */\n    tag_272:\n        /* \"#utility.yul\":21391:21395   */\n      0x00\n        /* \"#utility.yul\":21429:21431   */\n      0x20\n        /* \"#utility.yul\":21418:21427   */\n      dup3\n        /* \"#utility.yul\":21414:21432   */\n      add\n        /* \"#utility.yul\":21406:21432   */\n      swap1\n      pop\n        /* \"#utility.yul\":21478:21487   */\n      dup2\n        /* \"#utility.yul\":21472:21476   */\n      dup2\n        /* \"#utility.yul\":21468:21488   */\n      sub\n        /* \"#utility.yul\":21464:21465   */\n      0x00\n        /* \"#utility.yul\":21453:21462   */\n      dup4\n        /* \"#utility.yul\":21449:21466   */\n      add\n        /* \"#utility.yul\":21442:21489   */\n      mstore\n        /* \"#utility.yul\":21506:21637   */\n      tag_599\n        /* \"#utility.yul\":21632:21636   */\n      dup2\n        /* \"#utility.yul\":21506:21637   */\n      tag_404\n      jump\t// in\n    tag_599:\n        /* \"#utility.yul\":21498:21637   */\n      swap1\n      pop\n        /* \"#utility.yul\":21225:21644   */\n      swap2\n      swap1\n      pop\n      jump\t// out\n        /* \"#utility.yul\":21650:22092   */\n    tag_277:\n        /* \"#utility.yul\":21799:21803   */\n      0x00\n        /* \"#utility.yul\":21837:21839   */\n      0x60\n        /* \"#utility.yul\":21826:21835   */\n      dup3\n        /* \"#utility.yul\":21822:21840   */\n      add\n        /* \"#utility.yul\":21814:21840   */\n      swap1\n      pop\n        /* \"#utility.yul\":21850:21921   */\n      tag_601\n        /* \"#utility.yul\":21918:21919   */\n      0x00\n        /* \"#utility.yul\":21907:21916   */\n      dup4\n        /* \"#utility.yul\":21903:21920   */\n      add\n        /* \"#utility.yul\":21894:21900   */\n      dup7\n        /* \"#utility.yul\":21850:21921   */\n      tag_368\n      jump\t// in\n    tag_601:\n        /* \"#utility.yul\":21931:22003   */\n      tag_602\n        /* \"#utility.yul\":21999:22001   */\n      0x20\n        /* \"#utility.yul\":21988:21997   */\n      dup4\n        /* \"#utility.yul\":21984:22002   */\n      add\n        /* \"#utility.yul\":21975:21981   */\n      dup6\n        /* \"#utility.yul\":21931:22003   */\n      tag_368\n      jump\t// in\n    tag_602:\n        /* \"#utility.yul\":22013:22085   */\n      tag_603\n        /* \"#utility.yul\":22081:22083   */\n      0x40\n        /* \"#utility.yul\":22070:22079   */\n      dup4\n        /* \"#utility.yul\":22066:22084   */\n      add\n        /* \"#utility.yul\":22057:22063   */\n      dup5\n        /* \"#utility.yul\":22013:22085   */\n      tag_360\n      jump\t// in\n    tag_603:\n        /* \"#utility.yul\":21650:22092   */\n      swap5\n      swap4\n      pop\n      pop\n      pop\n      pop\n      jump\t// out\n        /* \"#utility.yul\":22098:22268   */\n    tag_405:\n        /* \"#utility.yul\":22238:22260   */\n      0x546f6b656e206465706f736974206661696c6564000000000000000000000000\n        /* \"#utility.yul\":22234:22235   */\n      0x00\n        /* \"#utility.yul\":22226:22232   */\n      dup3\n        /* \"#utility.yul\":22222:22236   */\n      add\n        /* \"#utility.yul\":22215:22261   */\n      mstore\n        /* \"#utility.yul\":22098:22268   */\n      pop\n      jump\t// out\n        /* \"#utility.yul\":22274:22640   */\n    tag_406:\n        /* \"#utility.yul\":22416:22419   */\n      0x00\n        /* \"#utility.yul\":22437:22504   */\n      tag_606\n        /* \"#utility.yul\":22501:22503   */\n      0x14\n        /* \"#utility.yul\":22496:22499   */\n      dup4\n        /* \"#utility.yul\":22437:22504   */\n      tag_373\n      jump\t// in\n    tag_606:\n        /* \"#utility.yul\":22430:22504   */\n      swap2\n      pop\n        /* \"#utility.yul\":22513:22606   */\n      tag_607\n        /* \"#utility.yul\":22602:22605   */\n      dup3\n        /* \"#utility.yul\":22513:22606   */\n      tag_405\n      jump\t// in\n    tag_607:\n        /* \"#utility.yul\":22631:22633   */\n      0x20\n        /* \"#utility.yul\":22626:22629   */\n      dup3\n        /* \"#utility.yul\":22622:22634   */\n      add\n        /* \"#utility.yul\":22615:22634   */\n      swap1\n      pop\n        /* \"#utility.yul\":22274:22640   */\n      swap2\n      swap1\n      pop\n      jump\t// out\n        /* \"#utility.yul\":22646:23065   */\n    tag_283:\n        /* \"#utility.yul\":22812:22816   */\n      0x00\n        /* \"#utility.yul\":22850:22852   */\n      0x20\n        /* \"#utility.yul\":22839:22848   */\n      dup3\n        /* \"#utility.yul\":22835:22853   */\n      add\n        /* \"#utility.yul\":22827:22853   */\n      swap1\n      pop\n        /* \"#utility.yul\":22899:22908   */\n      dup2\n        /* \"#utility.yul\":22893:22897   */\n      dup2\n        /* \"#utility.yul\":22889:22909   */\n      sub\n        /* \"#utility.yul\":22885:22886   */\n      0x00\n        /* \"#utility.yul\":22874:22883   */\n      dup4\n        /* \"#utility.yul\":22870:22887   */\n      add\n        /* \"#utility.yul\":22863:22910   */\n      mstore\n        /* \"#utility.yul\":22927:23058   */\n      tag_609\n        /* \"#utility.yul\":23053:23057   */\n      dup2\n        /* \"#utility.yul\":22927:23058   */\n      tag_406\n      jump\t// in\n    tag_609:\n        /* \"#utility.yul\":22919:23058   */\n      swap1\n      pop\n        /* \"#utility.yul\":22646:23065   */\n      swap2\n      swap1\n      pop\n      jump\t// out\n        /* \"#utility.yul\":23071:23296   */\n    tag_407:\n        /* \"#utility.yul\":23211:23245   */\n      0x54696d65206c6f636b206d757374206265206265747765656e203020746f2031\n        /* \"#utility.yul\":23207:23208   */\n      0x00\n        /* \"#utility.yul\":23199:23205   */\n      dup3\n        /* \"#utility.yul\":23195:23209   */\n      add\n        /* \"#utility.yul\":23188:23246   */\n      mstore\n        /* \"#utility.yul\":23280:23288   */\n      0x3520646179730000000000000000000000000000000000000000000000000000\n        /* \"#utility.yul\":23275:23277   */\n      0x20\n        /* \"#utility.yul\":23267:23273   */\n      dup3\n        /* \"#utility.yul\":23263:23278   */\n      add\n        /* \"#utility.yul\":23256:23289   */\n      mstore\n        /* \"#utility.yul\":23071:23296   */\n      pop\n      jump\t// out\n        /* \"#utility.yul\":23302:23668   */\n    tag_408:\n        /* \"#utility.yul\":23444:23447   */\n      0x00\n        /* \"#utility.yul\":23465:23532   */\n      tag_612\n        /* \"#utility.yul\":23529:23531   */\n      0x26\n        /* \"#utility.yul\":23524:23527   */\n      dup4\n        /* \"#utility.yul\":23465:23532   */\n      tag_373\n      jump\t// in\n    tag_612:\n        /* \"#utility.yul\":23458:23532   */\n      swap2\n      pop\n        /* \"#utility.yul\":23541:23634   */\n      tag_613\n        /* \"#utility.yul\":23630:23633   */\n      dup3\n        /* \"#utility.yul\":23541:23634   */\n      tag_407\n      jump\t// in\n    tag_613:\n        /* \"#utility.yul\":23659:23661   */\n      0x40\n        /* \"#utility.yul\":23654:23657   */\n      dup3\n        /* \"#utility.yul\":23650:23662   */\n      add\n        /* \"#utility.yul\":23643:23662   */\n      swap1\n      pop\n        /* \"#utility.yul\":23302:23668   */\n      swap2\n      swap1\n      pop\n      jump\t// out\n        /* \"#utility.yul\":23674:24093   */\n    tag_291:\n        /* \"#utility.yul\":23840:23844   */\n      0x00\n        /* \"#utility.yul\":23878:23880   */\n      0x20\n        /* \"#utility.yul\":23867:23876   */\n      dup3\n        /* \"#utility.yul\":23863:23881   */\n      add\n        /* \"#utility.yul\":23855:23881   */\n      swap1\n      pop\n        /* \"#utility.yul\":23927:23936   */\n      dup2\n        /* \"#utility.yul\":23921:23925   */\n      dup2\n        /* \"#utility.yul\":23917:23937   */\n      sub\n        /* \"#utility.yul\":23913:23914   */\n      0x00\n        /* \"#utility.yul\":23902:23911   */\n      dup4\n        /* \"#utility.yul\":23898:23915   */\n      add\n        /* \"#utility.yul\":23891:23938   */\n      mstore\n        /* \"#utility.yul\":23955:24086   */\n      tag_615\n        /* \"#utility.yul\":24081:24085   */\n      dup2\n        /* \"#utility.yul\":23955:24086   */\n      tag_408\n      jump\t// in\n    tag_615:\n        /* \"#utility.yul\":23947:24086   */\n      swap1\n      pop\n        /* \"#utility.yul\":23674:24093   */\n      swap2\n      swap1\n      pop\n      jump\t// out\n        /* \"#utility.yul\":24099:24268   */\n    tag_409:\n        /* \"#utility.yul\":24239:24260   */\n      0x4e6f207265776172647320746f20636c61696d00000000000000000000000000\n        /* \"#utility.yul\":24235:24236   */\n      0x00\n        /* \"#utility.yul\":24227:24233   */\n      dup3\n        /* \"#utility.yul\":24223:24237   */\n      add\n        /* \"#utility.yul\":24216:24261   */\n      mstore\n        /* \"#utility.yul\":24099:24268   */\n      pop\n      jump\t// out\n        /* \"#utility.yul\":24274:24640   */\n    tag_410:\n        /* \"#utility.yul\":24416:24419   */\n      0x00\n        /* \"#utility.yul\":24437:24504   */\n      tag_618\n        /* \"#utility.yul\":24501:24503   */\n      0x13\n        /* \"#utility.yul\":24496:24499   */\n      dup4\n        /* \"#utility.yul\":24437:24504   */\n      tag_373\n      jump\t// in\n    tag_618:\n        /* \"#utility.yul\":24430:24504   */\n      swap2\n      pop\n        /* \"#utility.yul\":24513:24606   */\n      tag_619\n        /* \"#utility.yul\":24602:24605   */\n      dup3\n        /* \"#utility.yul\":24513:24606   */\n      tag_409\n      jump\t// in\n    tag_619:\n        /* \"#utility.yul\":24631:24633   */\n      0x20\n        /* \"#utility.yul\":24626:24629   */\n      dup3\n        /* \"#utility.yul\":24622:24634   */\n      add\n        /* \"#utility.yul\":24615:24634   */\n      swap1\n      pop\n        /* \"#utility.yul\":24274:24640   */\n      swap2\n      swap1\n      pop\n      jump\t// out\n        /* \"#utility.yul\":24646:25065   */\n    tag_309:\n        /* \"#utility.yul\":24812:24816   */\n      0x00\n        /* \"#utility.yul\":24850:24852   */\n      0x20\n        /* \"#utility.yul\":24839:24848   */\n      dup3\n        /* \"#utility.yul\":24835:24853   */\n      add\n        /* \"#utility.yul\":24827:24853   */\n      swap1\n      pop\n        /* \"#utility.yul\":24899:24908   */\n      dup2\n        /* \"#utility.yul\":24893:24897   */\n      dup2\n        /* \"#utility.yul\":24889:24909   */\n      sub\n        /* \"#utility.yul\":24885:24886   */\n      0x00\n        /* \"#utility.yul\":24874:24883   */\n      dup4\n        /* \"#utility.yul\":24870:24887   */\n      add\n        /* \"#utility.yul\":24863:24910   */\n      mstore\n        /* \"#utility.yul\":24927:25058   */\n      tag_621\n        /* \"#utility.yul\":25053:25057   */\n      dup2\n        /* \"#utility.yul\":24927:25058   */\n      tag_410\n      jump\t// in\n    tag_621:\n        /* \"#utility.yul\":24919:25058   */\n      swap1\n      pop\n        /* \"#utility.yul\":24646:25065   */\n      swap2\n      swap1\n      pop\n      jump\t// out\n        /* \"#utility.yul\":25071:25243   */\n    tag_411:\n        /* \"#utility.yul\":25211:25235   */\n      0x526577617264207472616e73666572206661696c656400000000000000000000\n        /* \"#utility.yul\":25207:25208   */\n      0x00\n        /* \"#utility.yul\":25199:25205   */\n      dup3\n        /* \"#utility.yul\":25195:25209   */\n      add\n        /* \"#utility.yul\":25188:25236   */\n      mstore\n        /* \"#utility.yul\":25071:25243   */\n      pop\n      jump\t// out\n        /* \"#utility.yul\":25249:25615   */\n    tag_412:\n        /* \"#utility.yul\":25391:25394   */\n      0x00\n        /* \"#utility.yul\":25412:25479   */\n      tag_624\n        /* \"#utility.yul\":25476:25478   */\n      0x16\n        /* \"#utility.yul\":25471:25474   */\n      dup4\n        /* \"#utility.yul\":25412:25479   */\n      tag_373\n      jump\t// in\n    tag_624:\n        /* \"#utility.yul\":25405:25479   */\n      swap2\n      pop\n        /* \"#utility.yul\":25488:25581   */\n      tag_625\n        /* \"#utility.yul\":25577:25580   */\n      dup3\n        /* \"#utility.yul\":25488:25581   */\n      tag_411\n      jump\t// in\n    tag_625:\n        /* \"#utility.yul\":25606:25608   */\n      0x20\n        /* \"#utility.yul\":25601:25604   */\n      dup3\n        /* \"#utility.yul\":25597:25609   */\n      add\n        /* \"#utility.yul\":25590:25609   */\n      swap1\n      pop\n        /* \"#utility.yul\":25249:25615   */\n      swap2\n      swap1\n      pop\n      jump\t// out\n        /* \"#utility.yul\":25621:26040   */\n    tag_317:\n        /* \"#utility.yul\":25787:25791   */\n      0x00\n        /* \"#utility.yul\":25825:25827   */\n      0x20\n        /* \"#utility.yul\":25814:25823   */\n      dup3\n        /* \"#utility.yul\":25810:25828   */\n      add\n        /* \"#utility.yul\":25802:25828   */\n      swap1\n      pop\n        /* \"#utility.yul\":25874:25883   */\n      dup2\n        /* \"#utility.yul\":25868:25872   */\n      dup2\n        /* \"#utility.yul\":25864:25884   */\n      sub\n        /* \"#utility.yul\":25860:25861   */\n      0x00\n        /* \"#utility.yul\":25849:25858   */\n      dup4\n        /* \"#utility.yul\":25845:25862   */\n      add\n        /* \"#utility.yul\":25838:25885   */\n      mstore\n        /* \"#utility.yul\":25902:26033   */\n      tag_627\n        /* \"#utility.yul\":26028:26032   */\n      dup2\n        /* \"#utility.yul\":25902:26033   */\n      tag_412\n      jump\t// in\n    tag_627:\n        /* \"#utility.yul\":25894:26033   */\n      swap1\n      pop\n        /* \"#utility.yul\":25621:26040   */\n      swap2\n      swap1\n      pop\n      jump\t// out\n\n    auxdata: 0xa2646970667358221220d78a1f16383fe9341630d6ff05784f8e32960deb14832607316873595cfbae1f64736f6c63430008160033\n}\n",
				"bytecode": {
					"linkReferences": {},
					"object": "608060405262093a806008555f6009553480156200001b575f80fd5b506040516200306c3803806200306c8339818101604052810190620000419190620002af565b3360015f819055505f73ffffffffffffffffffffffffffffffffffffffff168173ffffffffffffffffffffffffffffffffffffffff1603620000bc575f6040517f1e4fbdf7000000000000000000000000000000000000000000000000000000008152600401620000b391906200032f565b60405180910390fd5b620000cd816200013c60201b60201c565b508360025f6101000a81548173ffffffffffffffffffffffffffffffffffffffff021916908373ffffffffffffffffffffffffffffffffffffffff1602179055508260058190555081600a8190555080600a546200012c919062000377565b600b8190555050505050620003b1565b5f60015f9054906101000a900473ffffffffffffffffffffffffffffffffffffffff1690508160015f6101000a81548173ffffffffffffffffffffffffffffffffffffffff021916908373ffffffffffffffffffffffffffffffffffffffff1602179055508173ffffffffffffffffffffffffffffffffffffffff168173ffffffffffffffffffffffffffffffffffffffff167f8be0079c531659141344cd1fd0a4f28419497f9722a3daafe3b4186f6b6457e060405160405180910390a35050565b5f80fd5b5f73ffffffffffffffffffffffffffffffffffffffff82169050919050565b5f6200022e8262000203565b9050919050565b5f620002418262000222565b9050919050565b620002538162000235565b81146200025e575f80fd5b50565b5f81519050620002718162000248565b92915050565b5f819050919050565b6200028b8162000277565b811462000296575f80fd5b50565b5f81519050620002a98162000280565b92915050565b5f805f8060808587031215620002ca57620002c9620001ff565b5b5f620002d98782880162000261565b9450506020620002ec8782880162000299565b9350506040620002ff8782880162000299565b9250506060620003128782880162000299565b91505092959194509250565b620003298162000222565b82525050565b5f602082019050620003445f8301846200031e565b92915050565b7f4e487b71000000000000000000000000000000000000000000000000000000005f52601160045260245ffd5b5f620003838262000277565b9150620003908362000277565b9250828201905080821115620003ab57620003aa6200034a565b5b92915050565b612cad80620003bf5f395ff3fe608060405234801561000f575f80fd5b50600436106101c1575f3560e01c8063817b1cd2116100f7578063b293e8d211610095578063c8f33c911161006f578063c8f33c9114610473578063cd3daf9d14610491578063df136d65146104af578063f2fde38b146104cd576101c1565b8063b293e8d21461041d578063b88a802f14610439578063b9d1a32b14610443576101c1565b80639168ae72116100d15780639168ae721461039357806394db0595146103c7578063a694fc3a146103e5578063a7dc23c014610401576101c1565b8063817b1cd2146103395780638368909c146103575780638da5cb5b14610375576101c1565b80633a851f02116101645780635e318e071161013e5780635e318e07146102eb57806363803b2314610307578063715018a6146103115780637b0a47ee1461031b576101c1565b80633a851f0214610295578063513da948146102b15780635212cca8146102cf576101c1565b806323fac263116101a057806323fac263146102315780632bce9f851461024f5780632c1dcecf1461026d57806333080a121461028b576101c1565b80628cc262146101c55780630976769d146101f5578063190b8dc514610213575b5f80fd5b6101df60048036038101906101da9190612068565b6104e9565b6040516101ec91906120ab565b60405180910390f35b6101fd6105b7565b60405161020a91906120ab565b60405180910390f35b61021b6105bd565b604051610228919061211f565b60405180910390f35b6102396105e2565b60405161024691906120ab565b60405180910390f35b6102576105fb565b60405161026491906120ab565b60405180910390f35b610275610601565b60405161028291906120ab565b60405180910390f35b610293610607565b005b6102af60048036038101906102aa9190612162565b61092c565b005b6102b9610af3565b6040516102c691906120ab565b60405180910390f35b6102e960048036038101906102e491906121a0565b610af9565b005b610305600480360381019061030091906121a0565b610b4f565b005b61030f610c92565b005b6103196112f2565b005b610323611305565b60405161033091906120ab565b60405180910390f35b61034161130b565b60405161034e91906120ab565b60405180910390f35b61035f611311565b60405161036c91906120ab565b60405180910390f35b61037d611317565b60405161038a91906121da565b60405180910390f35b6103ad60048036038101906103a89190612068565b61133f565b6040516103be95949392919061220d565b60405180910390f35b6103cf61137d565b6040516103dc91906120ab565b60405180910390f35b6103ff60048036038101906103fa91906121a0565b611383565b005b61041b600480360381019061041691906121a0565b6117b3565b005b610437600480360381019061043291906121a0565b61180b565b005b610441611863565b005b61045d60048036038101906104589190612068565b611cea565b60405161046a91906120ab565b60405180910390f35b61047b611d73565b60405161048891906120ab565b60405180910390f35b610499611d79565b6040516104a691906120ab565b60405180910390f35b6104b7611de2565b6040516104c491906120ab565b60405180910390f35b6104e760048036038101906104e29190612068565b611de8565b005b5f80600d5f8473ffffffffffffffffffffffffffffffffffffffff1673ffffffffffffffffffffffffffffffffffffffff1681526020019081526020015f20905060011515816004015f9054906101000a900460ff1615150361054f575f9150506105b2565b5f8160030154146105675780600201549150506105b2565b8060020154670de0b6b3a76400008260010154610582611d79565b61058c919061228b565b835f015461059a91906122be565b6105a4919061232c565b6105ae919061235c565b9150505b919050565b60045481565b60025f9054906101000a900473ffffffffffffffffffffffffffffffffffffffff1681565b5f600b5442106105f457600b546105f6565b425b905090565b60095481565b60085481565b61060f611e6c565b33610618611d79565b6007819055506106266105e2565b6006819055505f600d5f8373ffffffffffffffffffffffffffffffffffffffff1673ffffffffffffffffffffffffffffffffffffffff1681526020019081526020015f2060030154036107085761067c816104e9565b600d5f8373ffffffffffffffffffffffffffffffffffffffff1673ffffffffffffffffffffffffffffffffffffffff1681526020019081526020015f2060020181905550600754600d5f8373ffffffffffffffffffffffffffffffffffffffff1673ffffffffffffffffffffffffffffffffffffffff1681526020019081526020015f20600101819055505b5f600d5f8373ffffffffffffffffffffffffffffffffffffffff1673ffffffffffffffffffffffffffffffffffffffff1681526020019081526020015f2060030154146107ee5760011515600d5f8373ffffffffffffffffffffffffffffffffffffffff1673ffffffffffffffffffffffffffffffffffffffff1681526020019081526020015f206004015f9054906101000a900460ff161515036107ed575f600d5f8373ffffffffffffffffffffffffffffffffffffffff1673ffffffffffffffffffffffffffffffffffffffff1681526020019081526020015f20600201819055505b5b5f600d5f3373ffffffffffffffffffffffffffffffffffffffff1673ffffffffffffffffffffffffffffffffffffffff1681526020019081526020015f2090505f815f015411610873576040517f08c379a000000000000000000000000000000000000000000000000000000000815260040161086a906123e9565b60405180910390fd5b5f8160030154146108b9576040517f08c379a00000000000000000000000000000000000000000000000000000000081526004016108b090612451565b60405180910390fd5b428160030181905550805f015460045f8282546108d6919061228b565b925050819055503373ffffffffffffffffffffffffffffffffffffffff167f1519c8ae4064242b3caf78c4eb66acc5055fbe9cd35f28294b5492f6aea9ff6e60405160405180910390a2505061092a611eb0565b565b610934611eb9565b5f8111610976576040517f08c379a000000000000000000000000000000000000000000000000000000000815260040161096d906124b9565b60405180910390fd5b5f829050818173ffffffffffffffffffffffffffffffffffffffff166370a08231306040518263ffffffff1660e01b81526004016109b491906121da565b602060405180830381865afa1580156109cf573d5f803e3d5ffd5b505050506040513d601f19601f820116820180604052508101906109f391906124eb565b1015610a34576040517f08c379a0000000000000000000000000000000000000000000000000000000008152600401610a2b90612586565b60405180910390fd5b8073ffffffffffffffffffffffffffffffffffffffff1663a9059cbb33846040518363ffffffff1660e01b8152600401610a6f9291906125a4565b6020604051808303815f875af1158015610a8b573d5f803e3d5ffd5b505050506040513d601f19601f82011682018060405250810190610aaf91906125f5565b610aee576040517f08c379a0000000000000000000000000000000000000000000000000000000008152600401610ae59061266a565b60405180910390fd5b505050565b600a5481565b610b01611eb9565b60c8811115610b45576040517f08c379a0000000000000000000000000000000000000000000000000000000008152600401610b3c906126f8565b60405180910390fd5b8060098190555050565b610b57611eb9565b600c54811115610b9c576040517f08c379a0000000000000000000000000000000000000000000000000000000008152600401610b9390612760565b60405180910390fd5b80600c5f828254610bad919061228b565b9250508190555060025f9054906101000a900473ffffffffffffffffffffffffffffffffffffffff1673ffffffffffffffffffffffffffffffffffffffff1663a9059cbb33836040518363ffffffff1660e01b8152600401610c109291906125a4565b6020604051808303815f875af1158015610c2c573d5f803e3d5ffd5b505050506040513d601f19601f82011682018060405250810190610c5091906125f5565b610c8f576040517f08c379a0000000000000000000000000000000000000000000000000000000008152600401610c86906127c8565b60405180910390fd5b50565b610c9a611e6c565b33610ca3611d79565b600781905550610cb16105e2565b6006819055505f600d5f8373ffffffffffffffffffffffffffffffffffffffff1673ffffffffffffffffffffffffffffffffffffffff1681526020019081526020015f206003015403610d9357610d07816104e9565b600d5f8373ffffffffffffffffffffffffffffffffffffffff1673ffffffffffffffffffffffffffffffffffffffff1681526020019081526020015f2060020181905550600754600d5f8373ffffffffffffffffffffffffffffffffffffffff1673ffffffffffffffffffffffffffffffffffffffff1681526020019081526020015f20600101819055505b5f600d5f8373ffffffffffffffffffffffffffffffffffffffff1673ffffffffffffffffffffffffffffffffffffffff1681526020019081526020015f206003015414610e795760011515600d5f8373ffffffffffffffffffffffffffffffffffffffff1673ffffffffffffffffffffffffffffffffffffffff1681526020019081526020015f206004015f9054906101000a900460ff16151503610e78575f600d5f8373ffffffffffffffffffffffffffffffffffffffff1673ffffffffffffffffffffffffffffffffffffffff1681526020019081526020015f20600201819055505b5b5f600d5f3373ffffffffffffffffffffffffffffffffffffffff1673ffffffffffffffffffffffffffffffffffffffff1681526020019081526020015f2090505f815f015411610efe576040517f08c379a0000000000000000000000000000000000000000000000000000000008152600401610ef5906123e9565b60405180910390fd5b5f816003015411610f44576040517f08c379a0000000000000000000000000000000000000000000000000000000008152600401610f3b90612830565b60405180910390fd5b6008548160030154610f56919061235c565b421015610f98576040517f08c379a0000000000000000000000000000000000000000000000000000000008152600401610f8f90612898565b60405180910390fd5b5f815f015490505f826002015490505f61271060095484610fb991906122be565b610fc3919061232c565b90505f8184610fd2919061228b565b905081600c5f828254610fe5919061235c565b925050819055508360035f828254610ffd919061228b565b925050819055505f83111561114a575f8382611019919061235c565b905060025f9054906101000a900473ffffffffffffffffffffffffffffffffffffffff1673ffffffffffffffffffffffffffffffffffffffff1663a9059cbb33836040518363ffffffff1660e01b81526004016110779291906125a4565b6020604051808303815f875af1158015611093573d5f803e3d5ffd5b505050506040513d601f19601f820116820180604052508101906110b791906125f5565b6110f6576040517f08c379a00000000000000000000000000000000000000000000000000000000081526004016110ed90612900565b60405180910390fd5b3373ffffffffffffffffffffffffffffffffffffffff167fe2403640ba68fed3a2f88b7557551d1993f84b99bb10ff833f0cf8db0c5e04868560405161113c91906120ab565b60405180910390a250611226565b60025f9054906101000a900473ffffffffffffffffffffffffffffffffffffffff1673ffffffffffffffffffffffffffffffffffffffff1663a9059cbb33836040518363ffffffff1660e01b81526004016111a69291906125a4565b6020604051808303815f875af11580156111c2573d5f803e3d5ffd5b505050506040513d601f19601f820116820180604052508101906111e691906125f5565b611225576040517f08c379a000000000000000000000000000000000000000000000000000000000815260040161121c90612968565b60405180910390fd5b5b600d5f3373ffffffffffffffffffffffffffffffffffffffff1673ffffffffffffffffffffffffffffffffffffffff1681526020019081526020015f205f8082015f9055600182015f9055600282015f9055600382015f9055600482015f6101000a81549060ff021916905550503373ffffffffffffffffffffffffffffffffffffffff167f0f5bb82176feb1b5e747e28471aa92156a04d9f3ab9f45f28e2d704232b93f75856040516112da91906120ab565b60405180910390a25050505050506112f0611eb0565b565b6112fa611eb9565b6113035f611f40565b565b60055481565b60035481565b600b5481565b5f60015f9054906101000a900473ffffffffffffffffffffffffffffffffffffffff16905090565b600d602052805f5260405f205f91509050805f015490806001015490806002015490806003015490806004015f9054906101000a900460ff16905085565b600c5481565b61138b611e6c565b33611394611d79565b6007819055506113a26105e2565b6006819055505f600d5f8373ffffffffffffffffffffffffffffffffffffffff1673ffffffffffffffffffffffffffffffffffffffff1681526020019081526020015f206003015403611484576113f8816104e9565b600d5f8373ffffffffffffffffffffffffffffffffffffffff1673ffffffffffffffffffffffffffffffffffffffff1681526020019081526020015f2060020181905550600754600d5f8373ffffffffffffffffffffffffffffffffffffffff1673ffffffffffffffffffffffffffffffffffffffff1681526020019081526020015f20600101819055505b5f600d5f8373ffffffffffffffffffffffffffffffffffffffff1673ffffffffffffffffffffffffffffffffffffffff1681526020019081526020015f20600301541461156a5760011515600d5f8373ffffffffffffffffffffffffffffffffffffffff1673ffffffffffffffffffffffffffffffffffffffff1681526020019081526020015f206004015f9054906101000a900460ff16151503611569575f600d5f8373ffffffffffffffffffffffffffffffffffffffff1673ffffffffffffffffffffffffffffffffffffffff1681526020019081526020015f20600201819055505b5b5f82116115ac576040517f08c379a00000000000000000000000000000000000000000000000000000000081526004016115a3906129d0565b60405180910390fd5b5f600d5f3373ffffffffffffffffffffffffffffffffffffffff1673ffffffffffffffffffffffffffffffffffffffff1681526020019081526020015f2090505f816003015414611632576040517f08c379a000000000000000000000000000000000000000000000000000000000815260040161162990612a5e565b60405180910390fd5b8260035f828254611643919061235c565b925050819055508260045f82825461165b919061235c565b9250508190555082815f015f828254611674919061235c565b9250508190555060025f9054906101000a900473ffffffffffffffffffffffffffffffffffffffff1673ffffffffffffffffffffffffffffffffffffffff166323b872dd3330866040518463ffffffff1660e01b81526004016116d993929190612a7c565b6020604051808303815f875af11580156116f5573d5f803e3d5ffd5b505050506040513d601f19601f8201168201806040525081019061171991906125f5565b611758576040517f08c379a000000000000000000000000000000000000000000000000000000000815260040161174f90612afb565b60405180910390fd5b3373ffffffffffffffffffffffffffffffffffffffff167f9e71bc8eea02a63969f509818f2dafb9254532904319f9dbda79b67bd34a5f3d8460405161179e91906120ab565b60405180910390a250506117b0611eb0565b50565b6117bb611eb9565b6213c680811115611801576040517f08c379a00000000000000000000000000000000000000000000000000000000081526004016117f890612b89565b60405180910390fd5b8060088190555050565b611813611eb9565b80600b54611821919061235c565b600b819055507f72e8f210806bb29eb1445af1720350cfe89280bb2c2eff23d882cd0240121461600b5460405161185891906120ab565b60405180910390a150565b61186b611e6c565b33611874611d79565b6007819055506118826105e2565b6006819055505f600d5f8373ffffffffffffffffffffffffffffffffffffffff1673ffffffffffffffffffffffffffffffffffffffff1681526020019081526020015f206003015403611964576118d8816104e9565b600d5f8373ffffffffffffffffffffffffffffffffffffffff1673ffffffffffffffffffffffffffffffffffffffff1681526020019081526020015f2060020181905550600754600d5f8373ffffffffffffffffffffffffffffffffffffffff1673ffffffffffffffffffffffffffffffffffffffff1681526020019081526020015f20600101819055505b5f600d5f8373ffffffffffffffffffffffffffffffffffffffff1673ffffffffffffffffffffffffffffffffffffffff1681526020019081526020015f206003015414611a4a5760011515600d5f8373ffffffffffffffffffffffffffffffffffffffff1673ffffffffffffffffffffffffffffffffffffffff1681526020019081526020015f206004015f9054906101000a900460ff16151503611a49575f600d5f8373ffffffffffffffffffffffffffffffffffffffff1673ffffffffffffffffffffffffffffffffffffffff1681526020019081526020015f20600201819055505b5b5f600d5f3373ffffffffffffffffffffffffffffffffffffffff1673ffffffffffffffffffffffffffffffffffffffff1681526020019081526020015f206002015490505f8111611ad0576040517f08c379a0000000000000000000000000000000000000000000000000000000008152600401611ac790612bf1565b60405180910390fd5b5f600d5f3373ffffffffffffffffffffffffffffffffffffffff1673ffffffffffffffffffffffffffffffffffffffff1681526020019081526020015f20600201819055505f600d5f3373ffffffffffffffffffffffffffffffffffffffff1673ffffffffffffffffffffffffffffffffffffffff1681526020019081526020015f206003015414611bb5576001600d5f3373ffffffffffffffffffffffffffffffffffffffff1673ffffffffffffffffffffffffffffffffffffffff1681526020019081526020015f206004015f6101000a81548160ff0219169083151502179055505b60025f9054906101000a900473ffffffffffffffffffffffffffffffffffffffff1673ffffffffffffffffffffffffffffffffffffffff1663a9059cbb33836040518363ffffffff1660e01b8152600401611c119291906125a4565b6020604051808303815f875af1158015611c2d573d5f803e3d5ffd5b505050506040513d601f19601f82011682018060405250810190611c5191906125f5565b611c90576040517f08c379a0000000000000000000000000000000000000000000000000000000008152600401611c8790612c59565b60405180910390fd5b3373ffffffffffffffffffffffffffffffffffffffff167fe2403640ba68fed3a2f88b7557551d1993f84b99bb10ff833f0cf8db0c5e048682604051611cd691906120ab565b60405180910390a25050611ce8611eb0565b565b5f80600d5f8473ffffffffffffffffffffffffffffffffffffffff1673ffffffffffffffffffffffffffffffffffffffff1681526020019081526020015f2090506008548160030154611d3d919061235c565b421015611d6957426008548260030154611d57919061235c565b611d61919061228b565b915050611d6e565b5f9150505b919050565b60065481565b5f8060045403611d8d576007549050611ddf565b600454670de0b6b3a7640000600554600654611da76105e2565b611db1919061228b565b611dbb91906122be565b611dc591906122be565b611dcf919061232c565b600754611ddc919061235c565b90505b90565b60075481565b611df0611eb9565b5f73ffffffffffffffffffffffffffffffffffffffff168173ffffffffffffffffffffffffffffffffffffffff1603611e60575f6040517f1e4fbdf7000000000000000000000000000000000000000000000000000000008152600401611e5791906121da565b60405180910390fd5b611e6981611f40565b50565b60025f5403611ea7576040517f3ee5aeb500000000000000000000000000000000000000000000000000000000815260040160405180910390fd5b60025f81905550565b60015f81905550565b611ec1612003565b73ffffffffffffffffffffffffffffffffffffffff16611edf611317565b73ffffffffffffffffffffffffffffffffffffffff1614611f3e57611f02612003565b6040517f118cdaa7000000000000000000000000000000000000000000000000000000008152600401611f3591906121da565b60405180910390fd5b565b5f60015f9054906101000a900473ffffffffffffffffffffffffffffffffffffffff1690508160015f6101000a81548173ffffffffffffffffffffffffffffffffffffffff021916908373ffffffffffffffffffffffffffffffffffffffff1602179055508173ffffffffffffffffffffffffffffffffffffffff168173ffffffffffffffffffffffffffffffffffffffff167f8be0079c531659141344cd1fd0a4f28419497f9722a3daafe3b4186f6b6457e060405160405180910390a35050565b5f33905090565b5f80fd5b5f73ffffffffffffffffffffffffffffffffffffffff82169050919050565b5f6120378261200e565b9050919050565b6120478161202d565b8114612051575f80fd5b50565b5f813590506120628161203e565b92915050565b5f6020828403121561207d5761207c61200a565b5b5f61208a84828501612054565b91505092915050565b5f819050919050565b6120a581612093565b82525050565b5f6020820190506120be5f83018461209c565b92915050565b5f819050919050565b5f6120e76120e26120dd8461200e565b6120c4565b61200e565b9050919050565b5f6120f8826120cd565b9050919050565b5f612109826120ee565b9050919050565b612119816120ff565b82525050565b5f6020820190506121325f830184612110565b92915050565b61214181612093565b811461214b575f80fd5b50565b5f8135905061215c81612138565b92915050565b5f80604083850312156121785761217761200a565b5b5f61218585828601612054565b92505060206121968582860161214e565b9150509250929050565b5f602082840312156121b5576121b461200a565b5b5f6121c28482850161214e565b91505092915050565b6121d48161202d565b82525050565b5f6020820190506121ed5f8301846121cb565b92915050565b5f8115159050919050565b612207816121f3565b82525050565b5f60a0820190506122205f83018861209c565b61222d602083018761209c565b61223a604083018661209c565b612247606083018561209c565b61225460808301846121fe565b9695505050505050565b7f4e487b71000000000000000000000000000000000000000000000000000000005f52601160045260245ffd5b5f61229582612093565b91506122a083612093565b92508282039050818111156122b8576122b761225e565b5b92915050565b5f6122c882612093565b91506122d383612093565b92508282026122e181612093565b915082820484148315176122f8576122f761225e565b5b5092915050565b7f4e487b71000000000000000000000000000000000000000000000000000000005f52601260045260245ffd5b5f61233682612093565b915061234183612093565b925082612351576123506122ff565b5b828204905092915050565b5f61236682612093565b915061237183612093565b92508282019050808211156123895761238861225e565b5b92915050565b5f82825260208201905092915050565b7f4e6f20746f6b656e73207374616b6564000000000000000000000000000000005f82015250565b5f6123d360108361238f565b91506123de8261239f565b602082019050919050565b5f6020820190508181035f830152612400816123c7565b9050919050565b7f556e7374616b6520616c726561647920696e69746961746564000000000000005f82015250565b5f61243b60198361238f565b915061244682612407565b602082019050919050565b5f6020820190508181035f8301526124688161242f565b9050919050565b7f416d6f756e74206d7573742062652067726561746572207468616e207a65726f5f82015250565b5f6124a360208361238f565b91506124ae8261246f565b602082019050919050565b5f6020820190508181035f8301526124d081612497565b9050919050565b5f815190506124e581612138565b92915050565b5f60208284031215612500576124ff61200a565b5b5f61250d848285016124d7565b91505092915050565b7f496e73756666696369656e7420746f6b656e2062616c616e636520696e20636f5f8201527f6e74726163740000000000000000000000000000000000000000000000000000602082015250565b5f61257060268361238f565b915061257b82612516565b604082019050919050565b5f6020820190508181035f83015261259d81612564565b9050919050565b5f6040820190506125b75f8301856121cb565b6125c4602083018461209c565b9392505050565b6125d4816121f3565b81146125de575f80fd5b50565b5f815190506125ef816125cb565b92915050565b5f6020828403121561260a5761260961200a565b5b5f612617848285016125e1565b91505092915050565b7f546f6b656e207472616e73666572206661696c656400000000000000000000005f82015250565b5f61265460158361238f565b915061265f82612620565b602082019050919050565b5f6020820190508181035f83015261268181612648565b9050919050565b7f556e7374616b652066656520657863656564732032252c206d6178696d756d205f8201527f616c6c6f77656400000000000000000000000000000000000000000000000000602082015250565b5f6126e260278361238f565b91506126ed82612688565b604082019050919050565b5f6020820190508181035f83015261270f816126d6565b9050919050565b7f416d6f756e7420657863656564732061636372756564206665657300000000005f82015250565b5f61274a601b8361238f565b915061275582612716565b602082019050919050565b5f6020820190508181035f8301526127778161273e565b9050919050565b7f466565207769746864726177616c206661696c656400000000000000000000005f82015250565b5f6127b260158361238f565b91506127bd8261277e565b602082019050919050565b5f6020820190508181035f8301526127df816127a6565b9050919050565b7f556e7374616b65206e6f7420696e6974696174656400000000000000000000005f82015250565b5f61281a60158361238f565b9150612825826127e6565b602082019050919050565b5f6020820190508181035f8301526128478161280e565b9050919050565b7f54696d656c6f636b206e6f7420796574207061737365640000000000000000005f82015250565b5f61288260178361238f565b915061288d8261284e565b602082019050919050565b5f6020820190508181035f8301526128af81612876565b9050919050565b7f5472616e73666572206661696c656400000000000000000000000000000000005f82015250565b5f6128ea600f8361238f565b91506128f5826128b6565b602082019050919050565b5f6020820190508181035f830152612917816128de565b9050919050565b7f556e7374616b65207472616e73666572206661696c65640000000000000000005f82015250565b5f61295260178361238f565b915061295d8261291e565b602082019050919050565b5f6020820190508181035f83015261297f81612946565b9050919050565b7f43616e6e6f74207374616b6520300000000000000000000000000000000000005f82015250565b5f6129ba600e8361238f565b91506129c582612986565b602082019050919050565b5f6020820190508181035f8301526129e7816129ae565b9050919050565b7f43616e6e6f74207374616b6520616674657220696e6974696174696e6720756e5f8201527f7374616b652e0000000000000000000000000000000000000000000000000000602082015250565b5f612a4860268361238f565b9150612a53826129ee565b604082019050919050565b5f6020820190508181035f830152612a7581612a3c565b9050919050565b5f606082019050612a8f5f8301866121cb565b612a9c60208301856121cb565b612aa9604083018461209c565b949350505050565b7f546f6b656e206465706f736974206661696c65640000000000000000000000005f82015250565b5f612ae560148361238f565b9150612af082612ab1565b602082019050919050565b5f6020820190508181035f830152612b1281612ad9565b9050919050565b7f54696d65206c6f636b206d757374206265206265747765656e203020746f20315f8201527f3520646179730000000000000000000000000000000000000000000000000000602082015250565b5f612b7360268361238f565b9150612b7e82612b19565b604082019050919050565b5f6020820190508181035f830152612ba081612b67565b9050919050565b7f4e6f207265776172647320746f20636c61696d000000000000000000000000005f82015250565b5f612bdb60138361238f565b9150612be682612ba7565b602082019050919050565b5f6020820190508181035f830152612c0881612bcf565b9050919050565b7f526577617264207472616e73666572206661696c6564000000000000000000005f82015250565b5f612c4360168361238f565b9150612c4e82612c0f565b602082019050919050565b5f6020820190508181035f830152612c7081612c37565b905091905056fea2646970667358221220d78a1f16383fe9341630d6ff05784f8e32960deb14832607316873595cfbae1f64736f6c63430008160033",
					"opcodes": "PUSH1 0x80 PUSH1 0x40 MSTORE PUSH3 0x93A80 PUSH1 0x8 SSTORE PUSH0 PUSH1 0x9 SSTORE CALLVALUE DUP1 ISZERO PUSH3 0x1B JUMPI PUSH0 DUP1 REVERT JUMPDEST POP PUSH1 0x40 MLOAD PUSH3 0x306C CODESIZE SUB DUP1 PUSH3 0x306C DUP4 CODECOPY DUP2 DUP2 ADD PUSH1 0x40 MSTORE DUP2 ADD SWAP1 PUSH3 0x41 SWAP2 SWAP1 PUSH3 0x2AF JUMP JUMPDEST CALLER PUSH1 0x1 PUSH0 DUP2 SWAP1 SSTORE POP PUSH0 PUSH20 0xFFFFFFFFFFFFFFFFFFFFFFFFFFFFFFFFFFFFFFFF AND DUP2 PUSH20 0xFFFFFFFFFFFFFFFFFFFFFFFFFFFFFFFFFFFFFFFF AND SUB PUSH3 0xBC JUMPI PUSH0 PUSH1 0x40 MLOAD PUSH32 0x1E4FBDF700000000000000000000000000000000000000000000000000000000 DUP2 MSTORE PUSH1 0x4 ADD PUSH3 0xB3 SWAP2 SWAP1 PUSH3 0x32F JUMP JUMPDEST PUSH1 0x40 MLOAD DUP1 SWAP2 SUB SWAP1 REVERT JUMPDEST PUSH3 0xCD DUP2 PUSH3 0x13C PUSH1 0x20 SHL PUSH1 0x20 SHR JUMP JUMPDEST POP DUP4 PUSH1 0x2 PUSH0 PUSH2 0x100 EXP DUP2 SLOAD DUP2 PUSH20 0xFFFFFFFFFFFFFFFFFFFFFFFFFFFFFFFFFFFFFFFF MUL NOT AND SWAP1 DUP4 PUSH20 0xFFFFFFFFFFFFFFFFFFFFFFFFFFFFFFFFFFFFFFFF AND MUL OR SWAP1 SSTORE POP DUP3 PUSH1 0x5 DUP2 SWAP1 SSTORE POP DUP2 PUSH1 0xA DUP2 SWAP1 SSTORE POP DUP1 PUSH1 0xA SLOAD PUSH3 0x12C SWAP2 SWAP1 PUSH3 0x377 JUMP JUMPDEST PUSH1 0xB DUP2 SWAP1 SSTORE POP POP POP POP POP PUSH3 0x3B1 JUMP JUMPDEST PUSH0 PUSH1 0x1 PUSH0 SWAP1 SLOAD SWAP1 PUSH2 0x100 EXP SWAP1 DIV PUSH20 0xFFFFFFFFFFFFFFFFFFFFFFFFFFFFFFFFFFFFFFFF AND SWAP1 POP DUP2 PUSH1 0x1 PUSH0 PUSH2 0x100 EXP DUP2 SLOAD DUP2 PUSH20 0xFFFFFFFFFFFFFFFFFFFFFFFFFFFFFFFFFFFFFFFF MUL NOT AND SWAP1 DUP4 PUSH20 0xFFFFFFFFFFFFFFFFFFFFFFFFFFFFFFFFFFFFFFFF AND MUL OR SWAP1 SSTORE POP DUP2 PUSH20 0xFFFFFFFFFFFFFFFFFFFFFFFFFFFFFFFFFFFFFFFF AND DUP2 PUSH20 0xFFFFFFFFFFFFFFFFFFFFFFFFFFFFFFFFFFFFFFFF AND PUSH32 0x8BE0079C531659141344CD1FD0A4F28419497F9722A3DAAFE3B4186F6B6457E0 PUSH1 0x40 MLOAD PUSH1 0x40 MLOAD DUP1 SWAP2 SUB SWAP1 LOG3 POP POP JUMP JUMPDEST PUSH0 DUP1 REVERT JUMPDEST PUSH0 PUSH20 0xFFFFFFFFFFFFFFFFFFFFFFFFFFFFFFFFFFFFFFFF DUP3 AND SWAP1 POP SWAP2 SWAP1 POP JUMP JUMPDEST PUSH0 PUSH3 0x22E DUP3 PUSH3 0x203 JUMP JUMPDEST SWAP1 POP SWAP2 SWAP1 POP JUMP JUMPDEST PUSH0 PUSH3 0x241 DUP3 PUSH3 0x222 JUMP JUMPDEST SWAP1 POP SWAP2 SWAP1 POP JUMP JUMPDEST PUSH3 0x253 DUP2 PUSH3 0x235 JUMP JUMPDEST DUP2 EQ PUSH3 0x25E JUMPI PUSH0 DUP1 REVERT JUMPDEST POP JUMP JUMPDEST PUSH0 DUP2 MLOAD SWAP1 POP PUSH3 0x271 DUP2 PUSH3 0x248 JUMP JUMPDEST SWAP3 SWAP2 POP POP JUMP JUMPDEST PUSH0 DUP2 SWAP1 POP SWAP2 SWAP1 POP JUMP JUMPDEST PUSH3 0x28B DUP2 PUSH3 0x277 JUMP JUMPDEST DUP2 EQ PUSH3 0x296 JUMPI PUSH0 DUP1 REVERT JUMPDEST POP JUMP JUMPDEST PUSH0 DUP2 MLOAD SWAP1 POP PUSH3 0x2A9 DUP2 PUSH3 0x280 JUMP JUMPDEST SWAP3 SWAP2 POP POP JUMP JUMPDEST PUSH0 DUP1 PUSH0 DUP1 PUSH1 0x80 DUP6 DUP8 SUB SLT ISZERO PUSH3 0x2CA JUMPI PUSH3 0x2C9 PUSH3 0x1FF JUMP JUMPDEST JUMPDEST PUSH0 PUSH3 0x2D9 DUP8 DUP3 DUP9 ADD PUSH3 0x261 JUMP JUMPDEST SWAP5 POP POP PUSH1 0x20 PUSH3 0x2EC DUP8 DUP3 DUP9 ADD PUSH3 0x299 JUMP JUMPDEST SWAP4 POP POP PUSH1 0x40 PUSH3 0x2FF DUP8 DUP3 DUP9 ADD PUSH3 0x299 JUMP JUMPDEST SWAP3 POP POP PUSH1 0x60 PUSH3 0x312 DUP8 DUP3 DUP9 ADD PUSH3 0x299 JUMP JUMPDEST SWAP2 POP POP SWAP3 SWAP6 SWAP2 SWAP5 POP SWAP3 POP JUMP JUMPDEST PUSH3 0x329 DUP2 PUSH3 0x222 JUMP JUMPDEST DUP3 MSTORE POP POP JUMP JUMPDEST PUSH0 PUSH1 0x20 DUP3 ADD SWAP1 POP PUSH3 0x344 PUSH0 DUP4 ADD DUP5 PUSH3 0x31E JUMP JUMPDEST SWAP3 SWAP2 POP POP JUMP JUMPDEST PUSH32 0x4E487B7100000000000000000000000000000000000000000000000000000000 PUSH0 MSTORE PUSH1 0x11 PUSH1 0x4 MSTORE PUSH1 0x24 PUSH0 REVERT JUMPDEST PUSH0 PUSH3 0x383 DUP3 PUSH3 0x277 JUMP JUMPDEST SWAP2 POP PUSH3 0x390 DUP4 PUSH3 0x277 JUMP JUMPDEST SWAP3 POP DUP3 DUP3 ADD SWAP1 POP DUP1 DUP3 GT ISZERO PUSH3 0x3AB JUMPI PUSH3 0x3AA PUSH3 0x34A JUMP JUMPDEST JUMPDEST SWAP3 SWAP2 POP POP JUMP JUMPDEST PUSH2 0x2CAD DUP1 PUSH3 0x3BF PUSH0 CODECOPY PUSH0 RETURN INVALID PUSH1 0x80 PUSH1 0x40 MSTORE CALLVALUE DUP1 ISZERO PUSH2 0xF JUMPI PUSH0 DUP1 REVERT JUMPDEST POP PUSH1 0x4 CALLDATASIZE LT PUSH2 0x1C1 JUMPI PUSH0 CALLDATALOAD PUSH1 0xE0 SHR DUP1 PUSH4 0x817B1CD2 GT PUSH2 0xF7 JUMPI DUP1 PUSH4 0xB293E8D2 GT PUSH2 0x95 JUMPI DUP1 PUSH4 0xC8F33C91 GT PUSH2 0x6F JUMPI DUP1 PUSH4 0xC8F33C91 EQ PUSH2 0x473 JUMPI DUP1 PUSH4 0xCD3DAF9D EQ PUSH2 0x491 JUMPI DUP1 PUSH4 0xDF136D65 EQ PUSH2 0x4AF JUMPI DUP1 PUSH4 0xF2FDE38B EQ PUSH2 0x4CD JUMPI PUSH2 0x1C1 JUMP JUMPDEST DUP1 PUSH4 0xB293E8D2 EQ PUSH2 0x41D JUMPI DUP1 PUSH4 0xB88A802F EQ PUSH2 0x439 JUMPI DUP1 PUSH4 0xB9D1A32B EQ PUSH2 0x443 JUMPI PUSH2 0x1C1 JUMP JUMPDEST DUP1 PUSH4 0x9168AE72 GT PUSH2 0xD1 JUMPI DUP1 PUSH4 0x9168AE72 EQ PUSH2 0x393 JUMPI DUP1 PUSH4 0x94DB0595 EQ PUSH2 0x3C7 JUMPI DUP1 PUSH4 0xA694FC3A EQ PUSH2 0x3E5 JUMPI DUP1 PUSH4 0xA7DC23C0 EQ PUSH2 0x401 JUMPI PUSH2 0x1C1 JUMP JUMPDEST DUP1 PUSH4 0x817B1CD2 EQ PUSH2 0x339 JUMPI DUP1 PUSH4 0x8368909C EQ PUSH2 0x357 JUMPI DUP1 PUSH4 0x8DA5CB5B EQ PUSH2 0x375 JUMPI PUSH2 0x1C1 JUMP JUMPDEST DUP1 PUSH4 0x3A851F02 GT PUSH2 0x164 JUMPI DUP1 PUSH4 0x5E318E07 GT PUSH2 0x13E JUMPI DUP1 PUSH4 0x5E318E07 EQ PUSH2 0x2EB JUMPI DUP1 PUSH4 0x63803B23 EQ PUSH2 0x307 JUMPI DUP1 PUSH4 0x715018A6 EQ PUSH2 0x311 JUMPI DUP1 PUSH4 0x7B0A47EE EQ PUSH2 0x31B JUMPI PUSH2 0x1C1 JUMP JUMPDEST DUP1 PUSH4 0x3A851F02 EQ PUSH2 0x295 JUMPI DUP1 PUSH4 0x513DA948 EQ PUSH2 0x2B1 JUMPI DUP1 PUSH4 0x5212CCA8 EQ PUSH2 0x2CF JUMPI PUSH2 0x1C1 JUMP JUMPDEST DUP1 PUSH4 0x23FAC263 GT PUSH2 0x1A0 JUMPI DUP1 PUSH4 0x23FAC263 EQ PUSH2 0x231 JUMPI DUP1 PUSH4 0x2BCE9F85 EQ PUSH2 0x24F JUMPI DUP1 PUSH4 0x2C1DCECF EQ PUSH2 0x26D JUMPI DUP1 PUSH4 0x33080A12 EQ PUSH2 0x28B JUMPI PUSH2 0x1C1 JUMP JUMPDEST DUP1 PUSH3 0x8CC262 EQ PUSH2 0x1C5 JUMPI DUP1 PUSH4 0x976769D EQ PUSH2 0x1F5 JUMPI DUP1 PUSH4 0x190B8DC5 EQ PUSH2 0x213 JUMPI JUMPDEST PUSH0 DUP1 REVERT JUMPDEST PUSH2 0x1DF PUSH1 0x4 DUP1 CALLDATASIZE SUB DUP2 ADD SWAP1 PUSH2 0x1DA SWAP2 SWAP1 PUSH2 0x2068 JUMP JUMPDEST PUSH2 0x4E9 JUMP JUMPDEST PUSH1 0x40 MLOAD PUSH2 0x1EC SWAP2 SWAP1 PUSH2 0x20AB JUMP JUMPDEST PUSH1 0x40 MLOAD DUP1 SWAP2 SUB SWAP1 RETURN JUMPDEST PUSH2 0x1FD PUSH2 0x5B7 JUMP JUMPDEST PUSH1 0x40 MLOAD PUSH2 0x20A SWAP2 SWAP1 PUSH2 0x20AB JUMP JUMPDEST PUSH1 0x40 MLOAD DUP1 SWAP2 SUB SWAP1 RETURN JUMPDEST PUSH2 0x21B PUSH2 0x5BD JUMP JUMPDEST PUSH1 0x40 MLOAD PUSH2 0x228 SWAP2 SWAP1 PUSH2 0x211F JUMP JUMPDEST PUSH1 0x40 MLOAD DUP1 SWAP2 SUB SWAP1 RETURN JUMPDEST PUSH2 0x239 PUSH2 0x5E2 JUMP JUMPDEST PUSH1 0x40 MLOAD PUSH2 0x246 SWAP2 SWAP1 PUSH2 0x20AB JUMP JUMPDEST PUSH1 0x40 MLOAD DUP1 SWAP2 SUB SWAP1 RETURN JUMPDEST PUSH2 0x257 PUSH2 0x5FB JUMP JUMPDEST PUSH1 0x40 MLOAD PUSH2 0x264 SWAP2 SWAP1 PUSH2 0x20AB JUMP JUMPDEST PUSH1 0x40 MLOAD DUP1 SWAP2 SUB SWAP1 RETURN JUMPDEST PUSH2 0x275 PUSH2 0x601 JUMP JUMPDEST PUSH1 0x40 MLOAD PUSH2 0x282 SWAP2 SWAP1 PUSH2 0x20AB JUMP JUMPDEST PUSH1 0x40 MLOAD DUP1 SWAP2 SUB SWAP1 RETURN JUMPDEST PUSH2 0x293 PUSH2 0x607 JUMP JUMPDEST STOP JUMPDEST PUSH2 0x2AF PUSH1 0x4 DUP1 CALLDATASIZE SUB DUP2 ADD SWAP1 PUSH2 0x2AA SWAP2 SWAP1 PUSH2 0x2162 JUMP JUMPDEST PUSH2 0x92C JUMP JUMPDEST STOP JUMPDEST PUSH2 0x2B9 PUSH2 0xAF3 JUMP JUMPDEST PUSH1 0x40 MLOAD PUSH2 0x2C6 SWAP2 SWAP1 PUSH2 0x20AB JUMP JUMPDEST PUSH1 0x40 MLOAD DUP1 SWAP2 SUB SWAP1 RETURN JUMPDEST PUSH2 0x2E9 PUSH1 0x4 DUP1 CALLDATASIZE SUB DUP2 ADD SWAP1 PUSH2 0x2E4 SWAP2 SWAP1 PUSH2 0x21A0 JUMP JUMPDEST PUSH2 0xAF9 JUMP JUMPDEST STOP JUMPDEST PUSH2 0x305 PUSH1 0x4 DUP1 CALLDATASIZE SUB DUP2 ADD SWAP1 PUSH2 0x300 SWAP2 SWAP1 PUSH2 0x21A0 JUMP JUMPDEST PUSH2 0xB4F JUMP JUMPDEST STOP JUMPDEST PUSH2 0x30F PUSH2 0xC92 JUMP JUMPDEST STOP JUMPDEST PUSH2 0x319 PUSH2 0x12F2 JUMP JUMPDEST STOP JUMPDEST PUSH2 0x323 PUSH2 0x1305 JUMP JUMPDEST PUSH1 0x40 MLOAD PUSH2 0x330 SWAP2 SWAP1 PUSH2 0x20AB JUMP JUMPDEST PUSH1 0x40 MLOAD DUP1 SWAP2 SUB SWAP1 RETURN JUMPDEST PUSH2 0x341 PUSH2 0x130B JUMP JUMPDEST PUSH1 0x40 MLOAD PUSH2 0x34E SWAP2 SWAP1 PUSH2 0x20AB JUMP JUMPDEST PUSH1 0x40 MLOAD DUP1 SWAP2 SUB SWAP1 RETURN JUMPDEST PUSH2 0x35F PUSH2 0x1311 JUMP JUMPDEST PUSH1 0x40 MLOAD PUSH2 0x36C SWAP2 SWAP1 PUSH2 0x20AB JUMP JUMPDEST PUSH1 0x40 MLOAD DUP1 SWAP2 SUB SWAP1 RETURN JUMPDEST PUSH2 0x37D PUSH2 0x1317 JUMP JUMPDEST PUSH1 0x40 MLOAD PUSH2 0x38A SWAP2 SWAP1 PUSH2 0x21DA JUMP JUMPDEST PUSH1 0x40 MLOAD DUP1 SWAP2 SUB SWAP1 RETURN JUMPDEST PUSH2 0x3AD PUSH1 0x4 DUP1 CALLDATASIZE SUB DUP2 ADD SWAP1 PUSH2 0x3A8 SWAP2 SWAP1 PUSH2 0x2068 JUMP JUMPDEST PUSH2 0x133F JUMP JUMPDEST PUSH1 0x40 MLOAD PUSH2 0x3BE SWAP6 SWAP5 SWAP4 SWAP3 SWAP2 SWAP1 PUSH2 0x220D JUMP JUMPDEST PUSH1 0x40 MLOAD DUP1 SWAP2 SUB SWAP1 RETURN JUMPDEST PUSH2 0x3CF PUSH2 0x137D JUMP JUMPDEST PUSH1 0x40 MLOAD PUSH2 0x3DC SWAP2 SWAP1 PUSH2 0x20AB JUMP JUMPDEST PUSH1 0x40 MLOAD DUP1 SWAP2 SUB SWAP1 RETURN JUMPDEST PUSH2 0x3FF PUSH1 0x4 DUP1 CALLDATASIZE SUB DUP2 ADD SWAP1 PUSH2 0x3FA SWAP2 SWAP1 PUSH2 0x21A0 JUMP JUMPDEST PUSH2 0x1383 JUMP JUMPDEST STOP JUMPDEST PUSH2 0x41B PUSH1 0x4 DUP1 CALLDATASIZE SUB DUP2 ADD SWAP1 PUSH2 0x416 SWAP2 SWAP1 PUSH2 0x21A0 JUMP JUMPDEST PUSH2 0x17B3 JUMP JUMPDEST STOP JUMPDEST PUSH2 0x437 PUSH1 0x4 DUP1 CALLDATASIZE SUB DUP2 ADD SWAP1 PUSH2 0x432 SWAP2 SWAP1 PUSH2 0x21A0 JUMP JUMPDEST PUSH2 0x180B JUMP JUMPDEST STOP JUMPDEST PUSH2 0x441 PUSH2 0x1863 JUMP JUMPDEST STOP JUMPDEST PUSH2 0x45D PUSH1 0x4 DUP1 CALLDATASIZE SUB DUP2 ADD SWAP1 PUSH2 0x458 SWAP2 SWAP1 PUSH2 0x2068 JUMP JUMPDEST PUSH2 0x1CEA JUMP JUMPDEST PUSH1 0x40 MLOAD PUSH2 0x46A SWAP2 SWAP1 PUSH2 0x20AB JUMP JUMPDEST PUSH1 0x40 MLOAD DUP1 SWAP2 SUB SWAP1 RETURN JUMPDEST PUSH2 0x47B PUSH2 0x1D73 JUMP JUMPDEST PUSH1 0x40 MLOAD PUSH2 0x488 SWAP2 SWAP1 PUSH2 0x20AB JUMP JUMPDEST PUSH1 0x40 MLOAD DUP1 SWAP2 SUB SWAP1 RETURN JUMPDEST PUSH2 0x499 PUSH2 0x1D79 JUMP JUMPDEST PUSH1 0x40 MLOAD PUSH2 0x4A6 SWAP2 SWAP1 PUSH2 0x20AB JUMP JUMPDEST PUSH1 0x40 MLOAD DUP1 SWAP2 SUB SWAP1 RETURN JUMPDEST PUSH2 0x4B7 PUSH2 0x1DE2 JUMP JUMPDEST PUSH1 0x40 MLOAD PUSH2 0x4C4 SWAP2 SWAP1 PUSH2 0x20AB JUMP JUMPDEST PUSH1 0x40 MLOAD DUP1 SWAP2 SUB SWAP1 RETURN JUMPDEST PUSH2 0x4E7 PUSH1 0x4 DUP1 CALLDATASIZE SUB DUP2 ADD SWAP1 PUSH2 0x4E2 SWAP2 SWAP1 PUSH2 0x2068 JUMP JUMPDEST PUSH2 0x1DE8 JUMP JUMPDEST STOP JUMPDEST PUSH0 DUP1 PUSH1 0xD PUSH0 DUP5 PUSH20 0xFFFFFFFFFFFFFFFFFFFFFFFFFFFFFFFFFFFFFFFF AND PUSH20 0xFFFFFFFFFFFFFFFFFFFFFFFFFFFFFFFFFFFFFFFF AND DUP2 MSTORE PUSH1 0x20 ADD SWAP1 DUP2 MSTORE PUSH1 0x20 ADD PUSH0 KECCAK256 SWAP1 POP PUSH1 0x1 ISZERO ISZERO DUP2 PUSH1 0x4 ADD PUSH0 SWAP1 SLOAD SWAP1 PUSH2 0x100 EXP SWAP1 DIV PUSH1 0xFF AND ISZERO ISZERO SUB PUSH2 0x54F JUMPI PUSH0 SWAP2 POP POP PUSH2 0x5B2 JUMP JUMPDEST PUSH0 DUP2 PUSH1 0x3 ADD SLOAD EQ PUSH2 0x567 JUMPI DUP1 PUSH1 0x2 ADD SLOAD SWAP2 POP POP PUSH2 0x5B2 JUMP JUMPDEST DUP1 PUSH1 0x2 ADD SLOAD PUSH8 0xDE0B6B3A7640000 DUP3 PUSH1 0x1 ADD SLOAD PUSH2 0x582 PUSH2 0x1D79 JUMP JUMPDEST PUSH2 0x58C SWAP2 SWAP1 PUSH2 0x228B JUMP JUMPDEST DUP4 PUSH0 ADD SLOAD PUSH2 0x59A SWAP2 SWAP1 PUSH2 0x22BE JUMP JUMPDEST PUSH2 0x5A4 SWAP2 SWAP1 PUSH2 0x232C JUMP JUMPDEST PUSH2 0x5AE SWAP2 SWAP1 PUSH2 0x235C JUMP JUMPDEST SWAP2 POP POP JUMPDEST SWAP2 SWAP1 POP JUMP JUMPDEST PUSH1 0x4 SLOAD DUP2 JUMP JUMPDEST PUSH1 0x2 PUSH0 SWAP1 SLOAD SWAP1 PUSH2 0x100 EXP SWAP1 DIV PUSH20 0xFFFFFFFFFFFFFFFFFFFFFFFFFFFFFFFFFFFFFFFF AND DUP2 JUMP JUMPDEST PUSH0 PUSH1 0xB SLOAD TIMESTAMP LT PUSH2 0x5F4 JUMPI PUSH1 0xB SLOAD PUSH2 0x5F6 JUMP JUMPDEST TIMESTAMP JUMPDEST SWAP1 POP SWAP1 JUMP JUMPDEST PUSH1 0x9 SLOAD DUP2 JUMP JUMPDEST PUSH1 0x8 SLOAD DUP2 JUMP JUMPDEST PUSH2 0x60F PUSH2 0x1E6C JUMP JUMPDEST CALLER PUSH2 0x618 PUSH2 0x1D79 JUMP JUMPDEST PUSH1 0x7 DUP2 SWAP1 SSTORE POP PUSH2 0x626 PUSH2 0x5E2 JUMP JUMPDEST PUSH1 0x6 DUP2 SWAP1 SSTORE POP PUSH0 PUSH1 0xD PUSH0 DUP4 PUSH20 0xFFFFFFFFFFFFFFFFFFFFFFFFFFFFFFFFFFFFFFFF AND PUSH20 0xFFFFFFFFFFFFFFFFFFFFFFFFFFFFFFFFFFFFFFFF AND DUP2 MSTORE PUSH1 0x20 ADD SWAP1 DUP2 MSTORE PUSH1 0x20 ADD PUSH0 KECCAK256 PUSH1 0x3 ADD SLOAD SUB PUSH2 0x708 JUMPI PUSH2 0x67C DUP2 PUSH2 0x4E9 JUMP JUMPDEST PUSH1 0xD PUSH0 DUP4 PUSH20 0xFFFFFFFFFFFFFFFFFFFFFFFFFFFFFFFFFFFFFFFF AND PUSH20 0xFFFFFFFFFFFFFFFFFFFFFFFFFFFFFFFFFFFFFFFF AND DUP2 MSTORE PUSH1 0x20 ADD SWAP1 DUP2 MSTORE PUSH1 0x20 ADD PUSH0 KECCAK256 PUSH1 0x2 ADD DUP2 SWAP1 SSTORE POP PUSH1 0x7 SLOAD PUSH1 0xD PUSH0 DUP4 PUSH20 0xFFFFFFFFFFFFFFFFFFFFFFFFFFFFFFFFFFFFFFFF AND PUSH20 0xFFFFFFFFFFFFFFFFFFFFFFFFFFFFFFFFFFFFFFFF AND DUP2 MSTORE PUSH1 0x20 ADD SWAP1 DUP2 MSTORE PUSH1 0x20 ADD PUSH0 KECCAK256 PUSH1 0x1 ADD DUP2 SWAP1 SSTORE POP JUMPDEST PUSH0 PUSH1 0xD PUSH0 DUP4 PUSH20 0xFFFFFFFFFFFFFFFFFFFFFFFFFFFFFFFFFFFFFFFF AND PUSH20 0xFFFFFFFFFFFFFFFFFFFFFFFFFFFFFFFFFFFFFFFF AND DUP2 MSTORE PUSH1 0x20 ADD SWAP1 DUP2 MSTORE PUSH1 0x20 ADD PUSH0 KECCAK256 PUSH1 0x3 ADD SLOAD EQ PUSH2 0x7EE JUMPI PUSH1 0x1 ISZERO ISZERO PUSH1 0xD PUSH0 DUP4 PUSH20 0xFFFFFFFFFFFFFFFFFFFFFFFFFFFFFFFFFFFFFFFF AND PUSH20 0xFFFFFFFFFFFFFFFFFFFFFFFFFFFFFFFFFFFFFFFF AND DUP2 MSTORE PUSH1 0x20 ADD SWAP1 DUP2 MSTORE PUSH1 0x20 ADD PUSH0 KECCAK256 PUSH1 0x4 ADD PUSH0 SWAP1 SLOAD SWAP1 PUSH2 0x100 EXP SWAP1 DIV PUSH1 0xFF AND ISZERO ISZERO SUB PUSH2 0x7ED JUMPI PUSH0 PUSH1 0xD PUSH0 DUP4 PUSH20 0xFFFFFFFFFFFFFFFFFFFFFFFFFFFFFFFFFFFFFFFF AND PUSH20 0xFFFFFFFFFFFFFFFFFFFFFFFFFFFFFFFFFFFFFFFF AND DUP2 MSTORE PUSH1 0x20 ADD SWAP1 DUP2 MSTORE PUSH1 0x20 ADD PUSH0 KECCAK256 PUSH1 0x2 ADD DUP2 SWAP1 SSTORE POP JUMPDEST JUMPDEST PUSH0 PUSH1 0xD PUSH0 CALLER PUSH20 0xFFFFFFFFFFFFFFFFFFFFFFFFFFFFFFFFFFFFFFFF AND PUSH20 0xFFFFFFFFFFFFFFFFFFFFFFFFFFFFFFFFFFFFFFFF AND DUP2 MSTORE PUSH1 0x20 ADD SWAP1 DUP2 MSTORE PUSH1 0x20 ADD PUSH0 KECCAK256 SWAP1 POP PUSH0 DUP2 PUSH0 ADD SLOAD GT PUSH2 0x873 JUMPI PUSH1 0x40 MLOAD PUSH32 0x8C379A000000000000000000000000000000000000000000000000000000000 DUP2 MSTORE PUSH1 0x4 ADD PUSH2 0x86A SWAP1 PUSH2 0x23E9 JUMP JUMPDEST PUSH1 0x40 MLOAD DUP1 SWAP2 SUB SWAP1 REVERT JUMPDEST PUSH0 DUP2 PUSH1 0x3 ADD SLOAD EQ PUSH2 0x8B9 JUMPI PUSH1 0x40 MLOAD PUSH32 0x8C379A000000000000000000000000000000000000000000000000000000000 DUP2 MSTORE PUSH1 0x4 ADD PUSH2 0x8B0 SWAP1 PUSH2 0x2451 JUMP JUMPDEST PUSH1 0x40 MLOAD DUP1 SWAP2 SUB SWAP1 REVERT JUMPDEST TIMESTAMP DUP2 PUSH1 0x3 ADD DUP2 SWAP1 SSTORE POP DUP1 PUSH0 ADD SLOAD PUSH1 0x4 PUSH0 DUP3 DUP3 SLOAD PUSH2 0x8D6 SWAP2 SWAP1 PUSH2 0x228B JUMP JUMPDEST SWAP3 POP POP DUP2 SWAP1 SSTORE POP CALLER PUSH20 0xFFFFFFFFFFFFFFFFFFFFFFFFFFFFFFFFFFFFFFFF AND PUSH32 0x1519C8AE4064242B3CAF78C4EB66ACC5055FBE9CD35F28294B5492F6AEA9FF6E PUSH1 0x40 MLOAD PUSH1 0x40 MLOAD DUP1 SWAP2 SUB SWAP1 LOG2 POP POP PUSH2 0x92A PUSH2 0x1EB0 JUMP JUMPDEST JUMP JUMPDEST PUSH2 0x934 PUSH2 0x1EB9 JUMP JUMPDEST PUSH0 DUP2 GT PUSH2 0x976 JUMPI PUSH1 0x40 MLOAD PUSH32 0x8C379A000000000000000000000000000000000000000000000000000000000 DUP2 MSTORE PUSH1 0x4 ADD PUSH2 0x96D SWAP1 PUSH2 0x24B9 JUMP JUMPDEST PUSH1 0x40 MLOAD DUP1 SWAP2 SUB SWAP1 REVERT JUMPDEST PUSH0 DUP3 SWAP1 POP DUP2 DUP2 PUSH20 0xFFFFFFFFFFFFFFFFFFFFFFFFFFFFFFFFFFFFFFFF AND PUSH4 0x70A08231 ADDRESS PUSH1 0x40 MLOAD DUP3 PUSH4 0xFFFFFFFF AND PUSH1 0xE0 SHL DUP2 MSTORE PUSH1 0x4 ADD PUSH2 0x9B4 SWAP2 SWAP1 PUSH2 0x21DA JUMP JUMPDEST PUSH1 0x20 PUSH1 0x40 MLOAD DUP1 DUP4 SUB DUP2 DUP7 GAS STATICCALL ISZERO DUP1 ISZERO PUSH2 0x9CF JUMPI RETURNDATASIZE PUSH0 DUP1 RETURNDATACOPY RETURNDATASIZE PUSH0 REVERT JUMPDEST POP POP POP POP PUSH1 0x40 MLOAD RETURNDATASIZE PUSH1 0x1F NOT PUSH1 0x1F DUP3 ADD AND DUP3 ADD DUP1 PUSH1 0x40 MSTORE POP DUP2 ADD SWAP1 PUSH2 0x9F3 SWAP2 SWAP1 PUSH2 0x24EB JUMP JUMPDEST LT ISZERO PUSH2 0xA34 JUMPI PUSH1 0x40 MLOAD PUSH32 0x8C379A000000000000000000000000000000000000000000000000000000000 DUP2 MSTORE PUSH1 0x4 ADD PUSH2 0xA2B SWAP1 PUSH2 0x2586 JUMP JUMPDEST PUSH1 0x40 MLOAD DUP1 SWAP2 SUB SWAP1 REVERT JUMPDEST DUP1 PUSH20 0xFFFFFFFFFFFFFFFFFFFFFFFFFFFFFFFFFFFFFFFF AND PUSH4 0xA9059CBB CALLER DUP5 PUSH1 0x40 MLOAD DUP4 PUSH4 0xFFFFFFFF AND PUSH1 0xE0 SHL DUP2 MSTORE PUSH1 0x4 ADD PUSH2 0xA6F SWAP3 SWAP2 SWAP1 PUSH2 0x25A4 JUMP JUMPDEST PUSH1 0x20 PUSH1 0x40 MLOAD DUP1 DUP4 SUB DUP2 PUSH0 DUP8 GAS CALL ISZERO DUP1 ISZERO PUSH2 0xA8B JUMPI RETURNDATASIZE PUSH0 DUP1 RETURNDATACOPY RETURNDATASIZE PUSH0 REVERT JUMPDEST POP POP POP POP PUSH1 0x40 MLOAD RETURNDATASIZE PUSH1 0x1F NOT PUSH1 0x1F DUP3 ADD AND DUP3 ADD DUP1 PUSH1 0x40 MSTORE POP DUP2 ADD SWAP1 PUSH2 0xAAF SWAP2 SWAP1 PUSH2 0x25F5 JUMP JUMPDEST PUSH2 0xAEE JUMPI PUSH1 0x40 MLOAD PUSH32 0x8C379A000000000000000000000000000000000000000000000000000000000 DUP2 MSTORE PUSH1 0x4 ADD PUSH2 0xAE5 SWAP1 PUSH2 0x266A JUMP JUMPDEST PUSH1 0x40 MLOAD DUP1 SWAP2 SUB SWAP1 REVERT JUMPDEST POP POP POP JUMP JUMPDEST PUSH1 0xA SLOAD DUP2 JUMP JUMPDEST PUSH2 0xB01 PUSH2 0x1EB9 JUMP JUMPDEST PUSH1 0xC8 DUP2 GT ISZERO PUSH2 0xB45 JUMPI PUSH1 0x40 MLOAD PUSH32 0x8C379A000000000000000000000000000000000000000000000000000000000 DUP2 MSTORE PUSH1 0x4 ADD PUSH2 0xB3C SWAP1 PUSH2 0x26F8 JUMP JUMPDEST PUSH1 0x40 MLOAD DUP1 SWAP2 SUB SWAP1 REVERT JUMPDEST DUP1 PUSH1 0x9 DUP2 SWAP1 SSTORE POP POP JUMP JUMPDEST PUSH2 0xB57 PUSH2 0x1EB9 JUMP JUMPDEST PUSH1 0xC SLOAD DUP2 GT ISZERO PUSH2 0xB9C JUMPI PUSH1 0x40 MLOAD PUSH32 0x8C379A000000000000000000000000000000000000000000000000000000000 DUP2 MSTORE PUSH1 0x4 ADD PUSH2 0xB93 SWAP1 PUSH2 0x2760 JUMP JUMPDEST PUSH1 0x40 MLOAD DUP1 SWAP2 SUB SWAP1 REVERT JUMPDEST DUP1 PUSH1 0xC PUSH0 DUP3 DUP3 SLOAD PUSH2 0xBAD SWAP2 SWAP1 PUSH2 0x228B JUMP JUMPDEST SWAP3 POP POP DUP2 SWAP1 SSTORE POP PUSH1 0x2 PUSH0 SWAP1 SLOAD SWAP1 PUSH2 0x100 EXP SWAP1 DIV PUSH20 0xFFFFFFFFFFFFFFFFFFFFFFFFFFFFFFFFFFFFFFFF AND PUSH20 0xFFFFFFFFFFFFFFFFFFFFFFFFFFFFFFFFFFFFFFFF AND PUSH4 0xA9059CBB CALLER DUP4 PUSH1 0x40 MLOAD DUP4 PUSH4 0xFFFFFFFF AND PUSH1 0xE0 SHL DUP2 MSTORE PUSH1 0x4 ADD PUSH2 0xC10 SWAP3 SWAP2 SWAP1 PUSH2 0x25A4 JUMP JUMPDEST PUSH1 0x20 PUSH1 0x40 MLOAD DUP1 DUP4 SUB DUP2 PUSH0 DUP8 GAS CALL ISZERO DUP1 ISZERO PUSH2 0xC2C JUMPI RETURNDATASIZE PUSH0 DUP1 RETURNDATACOPY RETURNDATASIZE PUSH0 REVERT JUMPDEST POP POP POP POP PUSH1 0x40 MLOAD RETURNDATASIZE PUSH1 0x1F NOT PUSH1 0x1F DUP3 ADD AND DUP3 ADD DUP1 PUSH1 0x40 MSTORE POP DUP2 ADD SWAP1 PUSH2 0xC50 SWAP2 SWAP1 PUSH2 0x25F5 JUMP JUMPDEST PUSH2 0xC8F JUMPI PUSH1 0x40 MLOAD PUSH32 0x8C379A000000000000000000000000000000000000000000000000000000000 DUP2 MSTORE PUSH1 0x4 ADD PUSH2 0xC86 SWAP1 PUSH2 0x27C8 JUMP JUMPDEST PUSH1 0x40 MLOAD DUP1 SWAP2 SUB SWAP1 REVERT JUMPDEST POP JUMP JUMPDEST PUSH2 0xC9A PUSH2 0x1E6C JUMP JUMPDEST CALLER PUSH2 0xCA3 PUSH2 0x1D79 JUMP JUMPDEST PUSH1 0x7 DUP2 SWAP1 SSTORE POP PUSH2 0xCB1 PUSH2 0x5E2 JUMP JUMPDEST PUSH1 0x6 DUP2 SWAP1 SSTORE POP PUSH0 PUSH1 0xD PUSH0 DUP4 PUSH20 0xFFFFFFFFFFFFFFFFFFFFFFFFFFFFFFFFFFFFFFFF AND PUSH20 0xFFFFFFFFFFFFFFFFFFFFFFFFFFFFFFFFFFFFFFFF AND DUP2 MSTORE PUSH1 0x20 ADD SWAP1 DUP2 MSTORE PUSH1 0x20 ADD PUSH0 KECCAK256 PUSH1 0x3 ADD SLOAD SUB PUSH2 0xD93 JUMPI PUSH2 0xD07 DUP2 PUSH2 0x4E9 JUMP JUMPDEST PUSH1 0xD PUSH0 DUP4 PUSH20 0xFFFFFFFFFFFFFFFFFFFFFFFFFFFFFFFFFFFFFFFF AND PUSH20 0xFFFFFFFFFFFFFFFFFFFFFFFFFFFFFFFFFFFFFFFF AND DUP2 MSTORE PUSH1 0x20 ADD SWAP1 DUP2 MSTORE PUSH1 0x20 ADD PUSH0 KECCAK256 PUSH1 0x2 ADD DUP2 SWAP1 SSTORE POP PUSH1 0x7 SLOAD PUSH1 0xD PUSH0 DUP4 PUSH20 0xFFFFFFFFFFFFFFFFFFFFFFFFFFFFFFFFFFFFFFFF AND PUSH20 0xFFFFFFFFFFFFFFFFFFFFFFFFFFFFFFFFFFFFFFFF AND DUP2 MSTORE PUSH1 0x20 ADD SWAP1 DUP2 MSTORE PUSH1 0x20 ADD PUSH0 KECCAK256 PUSH1 0x1 ADD DUP2 SWAP1 SSTORE POP JUMPDEST PUSH0 PUSH1 0xD PUSH0 DUP4 PUSH20 0xFFFFFFFFFFFFFFFFFFFFFFFFFFFFFFFFFFFFFFFF AND PUSH20 0xFFFFFFFFFFFFFFFFFFFFFFFFFFFFFFFFFFFFFFFF AND DUP2 MSTORE PUSH1 0x20 ADD SWAP1 DUP2 MSTORE PUSH1 0x20 ADD PUSH0 KECCAK256 PUSH1 0x3 ADD SLOAD EQ PUSH2 0xE79 JUMPI PUSH1 0x1 ISZERO ISZERO PUSH1 0xD PUSH0 DUP4 PUSH20 0xFFFFFFFFFFFFFFFFFFFFFFFFFFFFFFFFFFFFFFFF AND PUSH20 0xFFFFFFFFFFFFFFFFFFFFFFFFFFFFFFFFFFFFFFFF AND DUP2 MSTORE PUSH1 0x20 ADD SWAP1 DUP2 MSTORE PUSH1 0x20 ADD PUSH0 KECCAK256 PUSH1 0x4 ADD PUSH0 SWAP1 SLOAD SWAP1 PUSH2 0x100 EXP SWAP1 DIV PUSH1 0xFF AND ISZERO ISZERO SUB PUSH2 0xE78 JUMPI PUSH0 PUSH1 0xD PUSH0 DUP4 PUSH20 0xFFFFFFFFFFFFFFFFFFFFFFFFFFFFFFFFFFFFFFFF AND PUSH20 0xFFFFFFFFFFFFFFFFFFFFFFFFFFFFFFFFFFFFFFFF AND DUP2 MSTORE PUSH1 0x20 ADD SWAP1 DUP2 MSTORE PUSH1 0x20 ADD PUSH0 KECCAK256 PUSH1 0x2 ADD DUP2 SWAP1 SSTORE POP JUMPDEST JUMPDEST PUSH0 PUSH1 0xD PUSH0 CALLER PUSH20 0xFFFFFFFFFFFFFFFFFFFFFFFFFFFFFFFFFFFFFFFF AND PUSH20 0xFFFFFFFFFFFFFFFFFFFFFFFFFFFFFFFFFFFFFFFF AND DUP2 MSTORE PUSH1 0x20 ADD SWAP1 DUP2 MSTORE PUSH1 0x20 ADD PUSH0 KECCAK256 SWAP1 POP PUSH0 DUP2 PUSH0 ADD SLOAD GT PUSH2 0xEFE JUMPI PUSH1 0x40 MLOAD PUSH32 0x8C379A000000000000000000000000000000000000000000000000000000000 DUP2 MSTORE PUSH1 0x4 ADD PUSH2 0xEF5 SWAP1 PUSH2 0x23E9 JUMP JUMPDEST PUSH1 0x40 MLOAD DUP1 SWAP2 SUB SWAP1 REVERT JUMPDEST PUSH0 DUP2 PUSH1 0x3 ADD SLOAD GT PUSH2 0xF44 JUMPI PUSH1 0x40 MLOAD PUSH32 0x8C379A000000000000000000000000000000000000000000000000000000000 DUP2 MSTORE PUSH1 0x4 ADD PUSH2 0xF3B SWAP1 PUSH2 0x2830 JUMP JUMPDEST PUSH1 0x40 MLOAD DUP1 SWAP2 SUB SWAP1 REVERT JUMPDEST PUSH1 0x8 SLOAD DUP2 PUSH1 0x3 ADD SLOAD PUSH2 0xF56 SWAP2 SWAP1 PUSH2 0x235C JUMP JUMPDEST TIMESTAMP LT ISZERO PUSH2 0xF98 JUMPI PUSH1 0x40 MLOAD PUSH32 0x8C379A000000000000000000000000000000000000000000000000000000000 DUP2 MSTORE PUSH1 0x4 ADD PUSH2 0xF8F SWAP1 PUSH2 0x2898 JUMP JUMPDEST PUSH1 0x40 MLOAD DUP1 SWAP2 SUB SWAP1 REVERT JUMPDEST PUSH0 DUP2 PUSH0 ADD SLOAD SWAP1 POP PUSH0 DUP3 PUSH1 0x2 ADD SLOAD SWAP1 POP PUSH0 PUSH2 0x2710 PUSH1 0x9 SLOAD DUP5 PUSH2 0xFB9 SWAP2 SWAP1 PUSH2 0x22BE JUMP JUMPDEST PUSH2 0xFC3 SWAP2 SWAP1 PUSH2 0x232C JUMP JUMPDEST SWAP1 POP PUSH0 DUP2 DUP5 PUSH2 0xFD2 SWAP2 SWAP1 PUSH2 0x228B JUMP JUMPDEST SWAP1 POP DUP2 PUSH1 0xC PUSH0 DUP3 DUP3 SLOAD PUSH2 0xFE5 SWAP2 SWAP1 PUSH2 0x235C JUMP JUMPDEST SWAP3 POP POP DUP2 SWAP1 SSTORE POP DUP4 PUSH1 0x3 PUSH0 DUP3 DUP3 SLOAD PUSH2 0xFFD SWAP2 SWAP1 PUSH2 0x228B JUMP JUMPDEST SWAP3 POP POP DUP2 SWAP1 SSTORE POP PUSH0 DUP4 GT ISZERO PUSH2 0x114A JUMPI PUSH0 DUP4 DUP3 PUSH2 0x1019 SWAP2 SWAP1 PUSH2 0x235C JUMP JUMPDEST SWAP1 POP PUSH1 0x2 PUSH0 SWAP1 SLOAD SWAP1 PUSH2 0x100 EXP SWAP1 DIV PUSH20 0xFFFFFFFFFFFFFFFFFFFFFFFFFFFFFFFFFFFFFFFF AND PUSH20 0xFFFFFFFFFFFFFFFFFFFFFFFFFFFFFFFFFFFFFFFF AND PUSH4 0xA9059CBB CALLER DUP4 PUSH1 0x40 MLOAD DUP4 PUSH4 0xFFFFFFFF AND PUSH1 0xE0 SHL DUP2 MSTORE PUSH1 0x4 ADD PUSH2 0x1077 SWAP3 SWAP2 SWAP1 PUSH2 0x25A4 JUMP JUMPDEST PUSH1 0x20 PUSH1 0x40 MLOAD DUP1 DUP4 SUB DUP2 PUSH0 DUP8 GAS CALL ISZERO DUP1 ISZERO PUSH2 0x1093 JUMPI RETURNDATASIZE PUSH0 DUP1 RETURNDATACOPY RETURNDATASIZE PUSH0 REVERT JUMPDEST POP POP POP POP PUSH1 0x40 MLOAD RETURNDATASIZE PUSH1 0x1F NOT PUSH1 0x1F DUP3 ADD AND DUP3 ADD DUP1 PUSH1 0x40 MSTORE POP DUP2 ADD SWAP1 PUSH2 0x10B7 SWAP2 SWAP1 PUSH2 0x25F5 JUMP JUMPDEST PUSH2 0x10F6 JUMPI PUSH1 0x40 MLOAD PUSH32 0x8C379A000000000000000000000000000000000000000000000000000000000 DUP2 MSTORE PUSH1 0x4 ADD PUSH2 0x10ED SWAP1 PUSH2 0x2900 JUMP JUMPDEST PUSH1 0x40 MLOAD DUP1 SWAP2 SUB SWAP1 REVERT JUMPDEST CALLER PUSH20 0xFFFFFFFFFFFFFFFFFFFFFFFFFFFFFFFFFFFFFFFF AND PUSH32 0xE2403640BA68FED3A2F88B7557551D1993F84B99BB10FF833F0CF8DB0C5E0486 DUP6 PUSH1 0x40 MLOAD PUSH2 0x113C SWAP2 SWAP1 PUSH2 0x20AB JUMP JUMPDEST PUSH1 0x40 MLOAD DUP1 SWAP2 SUB SWAP1 LOG2 POP PUSH2 0x1226 JUMP JUMPDEST PUSH1 0x2 PUSH0 SWAP1 SLOAD SWAP1 PUSH2 0x100 EXP SWAP1 DIV PUSH20 0xFFFFFFFFFFFFFFFFFFFFFFFFFFFFFFFFFFFFFFFF AND PUSH20 0xFFFFFFFFFFFFFFFFFFFFFFFFFFFFFFFFFFFFFFFF AND PUSH4 0xA9059CBB CALLER DUP4 PUSH1 0x40 MLOAD DUP4 PUSH4 0xFFFFFFFF AND PUSH1 0xE0 SHL DUP2 MSTORE PUSH1 0x4 ADD PUSH2 0x11A6 SWAP3 SWAP2 SWAP1 PUSH2 0x25A4 JUMP JUMPDEST PUSH1 0x20 PUSH1 0x40 MLOAD DUP1 DUP4 SUB DUP2 PUSH0 DUP8 GAS CALL ISZERO DUP1 ISZERO PUSH2 0x11C2 JUMPI RETURNDATASIZE PUSH0 DUP1 RETURNDATACOPY RETURNDATASIZE PUSH0 REVERT JUMPDEST POP POP POP POP PUSH1 0x40 MLOAD RETURNDATASIZE PUSH1 0x1F NOT PUSH1 0x1F DUP3 ADD AND DUP3 ADD DUP1 PUSH1 0x40 MSTORE POP DUP2 ADD SWAP1 PUSH2 0x11E6 SWAP2 SWAP1 PUSH2 0x25F5 JUMP JUMPDEST PUSH2 0x1225 JUMPI PUSH1 0x40 MLOAD PUSH32 0x8C379A000000000000000000000000000000000000000000000000000000000 DUP2 MSTORE PUSH1 0x4 ADD PUSH2 0x121C SWAP1 PUSH2 0x2968 JUMP JUMPDEST PUSH1 0x40 MLOAD DUP1 SWAP2 SUB SWAP1 REVERT JUMPDEST JUMPDEST PUSH1 0xD PUSH0 CALLER PUSH20 0xFFFFFFFFFFFFFFFFFFFFFFFFFFFFFFFFFFFFFFFF AND PUSH20 0xFFFFFFFFFFFFFFFFFFFFFFFFFFFFFFFFFFFFFFFF AND DUP2 MSTORE PUSH1 0x20 ADD SWAP1 DUP2 MSTORE PUSH1 0x20 ADD PUSH0 KECCAK256 PUSH0 DUP1 DUP3 ADD PUSH0 SWAP1 SSTORE PUSH1 0x1 DUP3 ADD PUSH0 SWAP1 SSTORE PUSH1 0x2 DUP3 ADD PUSH0 SWAP1 SSTORE PUSH1 0x3 DUP3 ADD PUSH0 SWAP1 SSTORE PUSH1 0x4 DUP3 ADD PUSH0 PUSH2 0x100 EXP DUP2 SLOAD SWAP1 PUSH1 0xFF MUL NOT AND SWAP1 SSTORE POP POP CALLER PUSH20 0xFFFFFFFFFFFFFFFFFFFFFFFFFFFFFFFFFFFFFFFF AND PUSH32 0xF5BB82176FEB1B5E747E28471AA92156A04D9F3AB9F45F28E2D704232B93F75 DUP6 PUSH1 0x40 MLOAD PUSH2 0x12DA SWAP2 SWAP1 PUSH2 0x20AB JUMP JUMPDEST PUSH1 0x40 MLOAD DUP1 SWAP2 SUB SWAP1 LOG2 POP POP POP POP POP POP PUSH2 0x12F0 PUSH2 0x1EB0 JUMP JUMPDEST JUMP JUMPDEST PUSH2 0x12FA PUSH2 0x1EB9 JUMP JUMPDEST PUSH2 0x1303 PUSH0 PUSH2 0x1F40 JUMP JUMPDEST JUMP JUMPDEST PUSH1 0x5 SLOAD DUP2 JUMP JUMPDEST PUSH1 0x3 SLOAD DUP2 JUMP JUMPDEST PUSH1 0xB SLOAD DUP2 JUMP JUMPDEST PUSH0 PUSH1 0x1 PUSH0 SWAP1 SLOAD SWAP1 PUSH2 0x100 EXP SWAP1 DIV PUSH20 0xFFFFFFFFFFFFFFFFFFFFFFFFFFFFFFFFFFFFFFFF AND SWAP1 POP SWAP1 JUMP JUMPDEST PUSH1 0xD PUSH1 0x20 MSTORE DUP1 PUSH0 MSTORE PUSH1 0x40 PUSH0 KECCAK256 PUSH0 SWAP2 POP SWAP1 POP DUP1 PUSH0 ADD SLOAD SWAP1 DUP1 PUSH1 0x1 ADD SLOAD SWAP1 DUP1 PUSH1 0x2 ADD SLOAD SWAP1 DUP1 PUSH1 0x3 ADD SLOAD SWAP1 DUP1 PUSH1 0x4 ADD PUSH0 SWAP1 SLOAD SWAP1 PUSH2 0x100 EXP SWAP1 DIV PUSH1 0xFF AND SWAP1 POP DUP6 JUMP JUMPDEST PUSH1 0xC SLOAD DUP2 JUMP JUMPDEST PUSH2 0x138B PUSH2 0x1E6C JUMP JUMPDEST CALLER PUSH2 0x1394 PUSH2 0x1D79 JUMP JUMPDEST PUSH1 0x7 DUP2 SWAP1 SSTORE POP PUSH2 0x13A2 PUSH2 0x5E2 JUMP JUMPDEST PUSH1 0x6 DUP2 SWAP1 SSTORE POP PUSH0 PUSH1 0xD PUSH0 DUP4 PUSH20 0xFFFFFFFFFFFFFFFFFFFFFFFFFFFFFFFFFFFFFFFF AND PUSH20 0xFFFFFFFFFFFFFFFFFFFFFFFFFFFFFFFFFFFFFFFF AND DUP2 MSTORE PUSH1 0x20 ADD SWAP1 DUP2 MSTORE PUSH1 0x20 ADD PUSH0 KECCAK256 PUSH1 0x3 ADD SLOAD SUB PUSH2 0x1484 JUMPI PUSH2 0x13F8 DUP2 PUSH2 0x4E9 JUMP JUMPDEST PUSH1 0xD PUSH0 DUP4 PUSH20 0xFFFFFFFFFFFFFFFFFFFFFFFFFFFFFFFFFFFFFFFF AND PUSH20 0xFFFFFFFFFFFFFFFFFFFFFFFFFFFFFFFFFFFFFFFF AND DUP2 MSTORE PUSH1 0x20 ADD SWAP1 DUP2 MSTORE PUSH1 0x20 ADD PUSH0 KECCAK256 PUSH1 0x2 ADD DUP2 SWAP1 SSTORE POP PUSH1 0x7 SLOAD PUSH1 0xD PUSH0 DUP4 PUSH20 0xFFFFFFFFFFFFFFFFFFFFFFFFFFFFFFFFFFFFFFFF AND PUSH20 0xFFFFFFFFFFFFFFFFFFFFFFFFFFFFFFFFFFFFFFFF AND DUP2 MSTORE PUSH1 0x20 ADD SWAP1 DUP2 MSTORE PUSH1 0x20 ADD PUSH0 KECCAK256 PUSH1 0x1 ADD DUP2 SWAP1 SSTORE POP JUMPDEST PUSH0 PUSH1 0xD PUSH0 DUP4 PUSH20 0xFFFFFFFFFFFFFFFFFFFFFFFFFFFFFFFFFFFFFFFF AND PUSH20 0xFFFFFFFFFFFFFFFFFFFFFFFFFFFFFFFFFFFFFFFF AND DUP2 MSTORE PUSH1 0x20 ADD SWAP1 DUP2 MSTORE PUSH1 0x20 ADD PUSH0 KECCAK256 PUSH1 0x3 ADD SLOAD EQ PUSH2 0x156A JUMPI PUSH1 0x1 ISZERO ISZERO PUSH1 0xD PUSH0 DUP4 PUSH20 0xFFFFFFFFFFFFFFFFFFFFFFFFFFFFFFFFFFFFFFFF AND PUSH20 0xFFFFFFFFFFFFFFFFFFFFFFFFFFFFFFFFFFFFFFFF AND DUP2 MSTORE PUSH1 0x20 ADD SWAP1 DUP2 MSTORE PUSH1 0x20 ADD PUSH0 KECCAK256 PUSH1 0x4 ADD PUSH0 SWAP1 SLOAD SWAP1 PUSH2 0x100 EXP SWAP1 DIV PUSH1 0xFF AND ISZERO ISZERO SUB PUSH2 0x1569 JUMPI PUSH0 PUSH1 0xD PUSH0 DUP4 PUSH20 0xFFFFFFFFFFFFFFFFFFFFFFFFFFFFFFFFFFFFFFFF AND PUSH20 0xFFFFFFFFFFFFFFFFFFFFFFFFFFFFFFFFFFFFFFFF AND DUP2 MSTORE PUSH1 0x20 ADD SWAP1 DUP2 MSTORE PUSH1 0x20 ADD PUSH0 KECCAK256 PUSH1 0x2 ADD DUP2 SWAP1 SSTORE POP JUMPDEST JUMPDEST PUSH0 DUP3 GT PUSH2 0x15AC JUMPI PUSH1 0x40 MLOAD PUSH32 0x8C379A000000000000000000000000000000000000000000000000000000000 DUP2 MSTORE PUSH1 0x4 ADD PUSH2 0x15A3 SWAP1 PUSH2 0x29D0 JUMP JUMPDEST PUSH1 0x40 MLOAD DUP1 SWAP2 SUB SWAP1 REVERT JUMPDEST PUSH0 PUSH1 0xD PUSH0 CALLER PUSH20 0xFFFFFFFFFFFFFFFFFFFFFFFFFFFFFFFFFFFFFFFF AND PUSH20 0xFFFFFFFFFFFFFFFFFFFFFFFFFFFFFFFFFFFFFFFF AND DUP2 MSTORE PUSH1 0x20 ADD SWAP1 DUP2 MSTORE PUSH1 0x20 ADD PUSH0 KECCAK256 SWAP1 POP PUSH0 DUP2 PUSH1 0x3 ADD SLOAD EQ PUSH2 0x1632 JUMPI PUSH1 0x40 MLOAD PUSH32 0x8C379A000000000000000000000000000000000000000000000000000000000 DUP2 MSTORE PUSH1 0x4 ADD PUSH2 0x1629 SWAP1 PUSH2 0x2A5E JUMP JUMPDEST PUSH1 0x40 MLOAD DUP1 SWAP2 SUB SWAP1 REVERT JUMPDEST DUP3 PUSH1 0x3 PUSH0 DUP3 DUP3 SLOAD PUSH2 0x1643 SWAP2 SWAP1 PUSH2 0x235C JUMP JUMPDEST SWAP3 POP POP DUP2 SWAP1 SSTORE POP DUP3 PUSH1 0x4 PUSH0 DUP3 DUP3 SLOAD PUSH2 0x165B SWAP2 SWAP1 PUSH2 0x235C JUMP JUMPDEST SWAP3 POP POP DUP2 SWAP1 SSTORE POP DUP3 DUP2 PUSH0 ADD PUSH0 DUP3 DUP3 SLOAD PUSH2 0x1674 SWAP2 SWAP1 PUSH2 0x235C JUMP JUMPDEST SWAP3 POP POP DUP2 SWAP1 SSTORE POP PUSH1 0x2 PUSH0 SWAP1 SLOAD SWAP1 PUSH2 0x100 EXP SWAP1 DIV PUSH20 0xFFFFFFFFFFFFFFFFFFFFFFFFFFFFFFFFFFFFFFFF AND PUSH20 0xFFFFFFFFFFFFFFFFFFFFFFFFFFFFFFFFFFFFFFFF AND PUSH4 0x23B872DD CALLER ADDRESS DUP7 PUSH1 0x40 MLOAD DUP5 PUSH4 0xFFFFFFFF AND PUSH1 0xE0 SHL DUP2 MSTORE PUSH1 0x4 ADD PUSH2 0x16D9 SWAP4 SWAP3 SWAP2 SWAP1 PUSH2 0x2A7C JUMP JUMPDEST PUSH1 0x20 PUSH1 0x40 MLOAD DUP1 DUP4 SUB DUP2 PUSH0 DUP8 GAS CALL ISZERO DUP1 ISZERO PUSH2 0x16F5 JUMPI RETURNDATASIZE PUSH0 DUP1 RETURNDATACOPY RETURNDATASIZE PUSH0 REVERT JUMPDEST POP POP POP POP PUSH1 0x40 MLOAD RETURNDATASIZE PUSH1 0x1F NOT PUSH1 0x1F DUP3 ADD AND DUP3 ADD DUP1 PUSH1 0x40 MSTORE POP DUP2 ADD SWAP1 PUSH2 0x1719 SWAP2 SWAP1 PUSH2 0x25F5 JUMP JUMPDEST PUSH2 0x1758 JUMPI PUSH1 0x40 MLOAD PUSH32 0x8C379A000000000000000000000000000000000000000000000000000000000 DUP2 MSTORE PUSH1 0x4 ADD PUSH2 0x174F SWAP1 PUSH2 0x2AFB JUMP JUMPDEST PUSH1 0x40 MLOAD DUP1 SWAP2 SUB SWAP1 REVERT JUMPDEST CALLER PUSH20 0xFFFFFFFFFFFFFFFFFFFFFFFFFFFFFFFFFFFFFFFF AND PUSH32 0x9E71BC8EEA02A63969F509818F2DAFB9254532904319F9DBDA79B67BD34A5F3D DUP5 PUSH1 0x40 MLOAD PUSH2 0x179E SWAP2 SWAP1 PUSH2 0x20AB JUMP JUMPDEST PUSH1 0x40 MLOAD DUP1 SWAP2 SUB SWAP1 LOG2 POP POP PUSH2 0x17B0 PUSH2 0x1EB0 JUMP JUMPDEST POP JUMP JUMPDEST PUSH2 0x17BB PUSH2 0x1EB9 JUMP JUMPDEST PUSH3 0x13C680 DUP2 GT ISZERO PUSH2 0x1801 JUMPI PUSH1 0x40 MLOAD PUSH32 0x8C379A000000000000000000000000000000000000000000000000000000000 DUP2 MSTORE PUSH1 0x4 ADD PUSH2 0x17F8 SWAP1 PUSH2 0x2B89 JUMP JUMPDEST PUSH1 0x40 MLOAD DUP1 SWAP2 SUB SWAP1 REVERT JUMPDEST DUP1 PUSH1 0x8 DUP2 SWAP1 SSTORE POP POP JUMP JUMPDEST PUSH2 0x1813 PUSH2 0x1EB9 JUMP JUMPDEST DUP1 PUSH1 0xB SLOAD PUSH2 0x1821 SWAP2 SWAP1 PUSH2 0x235C JUMP JUMPDEST PUSH1 0xB DUP2 SWAP1 SSTORE POP PUSH32 0x72E8F210806BB29EB1445AF1720350CFE89280BB2C2EFF23D882CD0240121461 PUSH1 0xB SLOAD PUSH1 0x40 MLOAD PUSH2 0x1858 SWAP2 SWAP1 PUSH2 0x20AB JUMP JUMPDEST PUSH1 0x40 MLOAD DUP1 SWAP2 SUB SWAP1 LOG1 POP JUMP JUMPDEST PUSH2 0x186B PUSH2 0x1E6C JUMP JUMPDEST CALLER PUSH2 0x1874 PUSH2 0x1D79 JUMP JUMPDEST PUSH1 0x7 DUP2 SWAP1 SSTORE POP PUSH2 0x1882 PUSH2 0x5E2 JUMP JUMPDEST PUSH1 0x6 DUP2 SWAP1 SSTORE POP PUSH0 PUSH1 0xD PUSH0 DUP4 PUSH20 0xFFFFFFFFFFFFFFFFFFFFFFFFFFFFFFFFFFFFFFFF AND PUSH20 0xFFFFFFFFFFFFFFFFFFFFFFFFFFFFFFFFFFFFFFFF AND DUP2 MSTORE PUSH1 0x20 ADD SWAP1 DUP2 MSTORE PUSH1 0x20 ADD PUSH0 KECCAK256 PUSH1 0x3 ADD SLOAD SUB PUSH2 0x1964 JUMPI PUSH2 0x18D8 DUP2 PUSH2 0x4E9 JUMP JUMPDEST PUSH1 0xD PUSH0 DUP4 PUSH20 0xFFFFFFFFFFFFFFFFFFFFFFFFFFFFFFFFFFFFFFFF AND PUSH20 0xFFFFFFFFFFFFFFFFFFFFFFFFFFFFFFFFFFFFFFFF AND DUP2 MSTORE PUSH1 0x20 ADD SWAP1 DUP2 MSTORE PUSH1 0x20 ADD PUSH0 KECCAK256 PUSH1 0x2 ADD DUP2 SWAP1 SSTORE POP PUSH1 0x7 SLOAD PUSH1 0xD PUSH0 DUP4 PUSH20 0xFFFFFFFFFFFFFFFFFFFFFFFFFFFFFFFFFFFFFFFF AND PUSH20 0xFFFFFFFFFFFFFFFFFFFFFFFFFFFFFFFFFFFFFFFF AND DUP2 MSTORE PUSH1 0x20 ADD SWAP1 DUP2 MSTORE PUSH1 0x20 ADD PUSH0 KECCAK256 PUSH1 0x1 ADD DUP2 SWAP1 SSTORE POP JUMPDEST PUSH0 PUSH1 0xD PUSH0 DUP4 PUSH20 0xFFFFFFFFFFFFFFFFFFFFFFFFFFFFFFFFFFFFFFFF AND PUSH20 0xFFFFFFFFFFFFFFFFFFFFFFFFFFFFFFFFFFFFFFFF AND DUP2 MSTORE PUSH1 0x20 ADD SWAP1 DUP2 MSTORE PUSH1 0x20 ADD PUSH0 KECCAK256 PUSH1 0x3 ADD SLOAD EQ PUSH2 0x1A4A JUMPI PUSH1 0x1 ISZERO ISZERO PUSH1 0xD PUSH0 DUP4 PUSH20 0xFFFFFFFFFFFFFFFFFFFFFFFFFFFFFFFFFFFFFFFF AND PUSH20 0xFFFFFFFFFFFFFFFFFFFFFFFFFFFFFFFFFFFFFFFF AND DUP2 MSTORE PUSH1 0x20 ADD SWAP1 DUP2 MSTORE PUSH1 0x20 ADD PUSH0 KECCAK256 PUSH1 0x4 ADD PUSH0 SWAP1 SLOAD SWAP1 PUSH2 0x100 EXP SWAP1 DIV PUSH1 0xFF AND ISZERO ISZERO SUB PUSH2 0x1A49 JUMPI PUSH0 PUSH1 0xD PUSH0 DUP4 PUSH20 0xFFFFFFFFFFFFFFFFFFFFFFFFFFFFFFFFFFFFFFFF AND PUSH20 0xFFFFFFFFFFFFFFFFFFFFFFFFFFFFFFFFFFFFFFFF AND DUP2 MSTORE PUSH1 0x20 ADD SWAP1 DUP2 MSTORE PUSH1 0x20 ADD PUSH0 KECCAK256 PUSH1 0x2 ADD DUP2 SWAP1 SSTORE POP JUMPDEST JUMPDEST PUSH0 PUSH1 0xD PUSH0 CALLER PUSH20 0xFFFFFFFFFFFFFFFFFFFFFFFFFFFFFFFFFFFFFFFF AND PUSH20 0xFFFFFFFFFFFFFFFFFFFFFFFFFFFFFFFFFFFFFFFF AND DUP2 MSTORE PUSH1 0x20 ADD SWAP1 DUP2 MSTORE PUSH1 0x20 ADD PUSH0 KECCAK256 PUSH1 0x2 ADD SLOAD SWAP1 POP PUSH0 DUP2 GT PUSH2 0x1AD0 JUMPI PUSH1 0x40 MLOAD PUSH32 0x8C379A000000000000000000000000000000000000000000000000000000000 DUP2 MSTORE PUSH1 0x4 ADD PUSH2 0x1AC7 SWAP1 PUSH2 0x2BF1 JUMP JUMPDEST PUSH1 0x40 MLOAD DUP1 SWAP2 SUB SWAP1 REVERT JUMPDEST PUSH0 PUSH1 0xD PUSH0 CALLER PUSH20 0xFFFFFFFFFFFFFFFFFFFFFFFFFFFFFFFFFFFFFFFF AND PUSH20 0xFFFFFFFFFFFFFFFFFFFFFFFFFFFFFFFFFFFFFFFF AND DUP2 MSTORE PUSH1 0x20 ADD SWAP1 DUP2 MSTORE PUSH1 0x20 ADD PUSH0 KECCAK256 PUSH1 0x2 ADD DUP2 SWAP1 SSTORE POP PUSH0 PUSH1 0xD PUSH0 CALLER PUSH20 0xFFFFFFFFFFFFFFFFFFFFFFFFFFFFFFFFFFFFFFFF AND PUSH20 0xFFFFFFFFFFFFFFFFFFFFFFFFFFFFFFFFFFFFFFFF AND DUP2 MSTORE PUSH1 0x20 ADD SWAP1 DUP2 MSTORE PUSH1 0x20 ADD PUSH0 KECCAK256 PUSH1 0x3 ADD SLOAD EQ PUSH2 0x1BB5 JUMPI PUSH1 0x1 PUSH1 0xD PUSH0 CALLER PUSH20 0xFFFFFFFFFFFFFFFFFFFFFFFFFFFFFFFFFFFFFFFF AND PUSH20 0xFFFFFFFFFFFFFFFFFFFFFFFFFFFFFFFFFFFFFFFF AND DUP2 MSTORE PUSH1 0x20 ADD SWAP1 DUP2 MSTORE PUSH1 0x20 ADD PUSH0 KECCAK256 PUSH1 0x4 ADD PUSH0 PUSH2 0x100 EXP DUP2 SLOAD DUP2 PUSH1 0xFF MUL NOT AND SWAP1 DUP4 ISZERO ISZERO MUL OR SWAP1 SSTORE POP JUMPDEST PUSH1 0x2 PUSH0 SWAP1 SLOAD SWAP1 PUSH2 0x100 EXP SWAP1 DIV PUSH20 0xFFFFFFFFFFFFFFFFFFFFFFFFFFFFFFFFFFFFFFFF AND PUSH20 0xFFFFFFFFFFFFFFFFFFFFFFFFFFFFFFFFFFFFFFFF AND PUSH4 0xA9059CBB CALLER DUP4 PUSH1 0x40 MLOAD DUP4 PUSH4 0xFFFFFFFF AND PUSH1 0xE0 SHL DUP2 MSTORE PUSH1 0x4 ADD PUSH2 0x1C11 SWAP3 SWAP2 SWAP1 PUSH2 0x25A4 JUMP JUMPDEST PUSH1 0x20 PUSH1 0x40 MLOAD DUP1 DUP4 SUB DUP2 PUSH0 DUP8 GAS CALL ISZERO DUP1 ISZERO PUSH2 0x1C2D JUMPI RETURNDATASIZE PUSH0 DUP1 RETURNDATACOPY RETURNDATASIZE PUSH0 REVERT JUMPDEST POP POP POP POP PUSH1 0x40 MLOAD RETURNDATASIZE PUSH1 0x1F NOT PUSH1 0x1F DUP3 ADD AND DUP3 ADD DUP1 PUSH1 0x40 MSTORE POP DUP2 ADD SWAP1 PUSH2 0x1C51 SWAP2 SWAP1 PUSH2 0x25F5 JUMP JUMPDEST PUSH2 0x1C90 JUMPI PUSH1 0x40 MLOAD PUSH32 0x8C379A000000000000000000000000000000000000000000000000000000000 DUP2 MSTORE PUSH1 0x4 ADD PUSH2 0x1C87 SWAP1 PUSH2 0x2C59 JUMP JUMPDEST PUSH1 0x40 MLOAD DUP1 SWAP2 SUB SWAP1 REVERT JUMPDEST CALLER PUSH20 0xFFFFFFFFFFFFFFFFFFFFFFFFFFFFFFFFFFFFFFFF AND PUSH32 0xE2403640BA68FED3A2F88B7557551D1993F84B99BB10FF833F0CF8DB0C5E0486 DUP3 PUSH1 0x40 MLOAD PUSH2 0x1CD6 SWAP2 SWAP1 PUSH2 0x20AB JUMP JUMPDEST PUSH1 0x40 MLOAD DUP1 SWAP2 SUB SWAP1 LOG2 POP POP PUSH2 0x1CE8 PUSH2 0x1EB0 JUMP JUMPDEST JUMP JUMPDEST PUSH0 DUP1 PUSH1 0xD PUSH0 DUP5 PUSH20 0xFFFFFFFFFFFFFFFFFFFFFFFFFFFFFFFFFFFFFFFF AND PUSH20 0xFFFFFFFFFFFFFFFFFFFFFFFFFFFFFFFFFFFFFFFF AND DUP2 MSTORE PUSH1 0x20 ADD SWAP1 DUP2 MSTORE PUSH1 0x20 ADD PUSH0 KECCAK256 SWAP1 POP PUSH1 0x8 SLOAD DUP2 PUSH1 0x3 ADD SLOAD PUSH2 0x1D3D SWAP2 SWAP1 PUSH2 0x235C JUMP JUMPDEST TIMESTAMP LT ISZERO PUSH2 0x1D69 JUMPI TIMESTAMP PUSH1 0x8 SLOAD DUP3 PUSH1 0x3 ADD SLOAD PUSH2 0x1D57 SWAP2 SWAP1 PUSH2 0x235C JUMP JUMPDEST PUSH2 0x1D61 SWAP2 SWAP1 PUSH2 0x228B JUMP JUMPDEST SWAP2 POP POP PUSH2 0x1D6E JUMP JUMPDEST PUSH0 SWAP2 POP POP JUMPDEST SWAP2 SWAP1 POP JUMP JUMPDEST PUSH1 0x6 SLOAD DUP2 JUMP JUMPDEST PUSH0 DUP1 PUSH1 0x4 SLOAD SUB PUSH2 0x1D8D JUMPI PUSH1 0x7 SLOAD SWAP1 POP PUSH2 0x1DDF JUMP JUMPDEST PUSH1 0x4 SLOAD PUSH8 0xDE0B6B3A7640000 PUSH1 0x5 SLOAD PUSH1 0x6 SLOAD PUSH2 0x1DA7 PUSH2 0x5E2 JUMP JUMPDEST PUSH2 0x1DB1 SWAP2 SWAP1 PUSH2 0x228B JUMP JUMPDEST PUSH2 0x1DBB SWAP2 SWAP1 PUSH2 0x22BE JUMP JUMPDEST PUSH2 0x1DC5 SWAP2 SWAP1 PUSH2 0x22BE JUMP JUMPDEST PUSH2 0x1DCF SWAP2 SWAP1 PUSH2 0x232C JUMP JUMPDEST PUSH1 0x7 SLOAD PUSH2 0x1DDC SWAP2 SWAP1 PUSH2 0x235C JUMP JUMPDEST SWAP1 POP JUMPDEST SWAP1 JUMP JUMPDEST PUSH1 0x7 SLOAD DUP2 JUMP JUMPDEST PUSH2 0x1DF0 PUSH2 0x1EB9 JUMP JUMPDEST PUSH0 PUSH20 0xFFFFFFFFFFFFFFFFFFFFFFFFFFFFFFFFFFFFFFFF AND DUP2 PUSH20 0xFFFFFFFFFFFFFFFFFFFFFFFFFFFFFFFFFFFFFFFF AND SUB PUSH2 0x1E60 JUMPI PUSH0 PUSH1 0x40 MLOAD PUSH32 0x1E4FBDF700000000000000000000000000000000000000000000000000000000 DUP2 MSTORE PUSH1 0x4 ADD PUSH2 0x1E57 SWAP2 SWAP1 PUSH2 0x21DA JUMP JUMPDEST PUSH1 0x40 MLOAD DUP1 SWAP2 SUB SWAP1 REVERT JUMPDEST PUSH2 0x1E69 DUP2 PUSH2 0x1F40 JUMP JUMPDEST POP JUMP JUMPDEST PUSH1 0x2 PUSH0 SLOAD SUB PUSH2 0x1EA7 JUMPI PUSH1 0x40 MLOAD PUSH32 0x3EE5AEB500000000000000000000000000000000000000000000000000000000 DUP2 MSTORE PUSH1 0x4 ADD PUSH1 0x40 MLOAD DUP1 SWAP2 SUB SWAP1 REVERT JUMPDEST PUSH1 0x2 PUSH0 DUP2 SWAP1 SSTORE POP JUMP JUMPDEST PUSH1 0x1 PUSH0 DUP2 SWAP1 SSTORE POP JUMP JUMPDEST PUSH2 0x1EC1 PUSH2 0x2003 JUMP JUMPDEST PUSH20 0xFFFFFFFFFFFFFFFFFFFFFFFFFFFFFFFFFFFFFFFF AND PUSH2 0x1EDF PUSH2 0x1317 JUMP JUMPDEST PUSH20 0xFFFFFFFFFFFFFFFFFFFFFFFFFFFFFFFFFFFFFFFF AND EQ PUSH2 0x1F3E JUMPI PUSH2 0x1F02 PUSH2 0x2003 JUMP JUMPDEST PUSH1 0x40 MLOAD PUSH32 0x118CDAA700000000000000000000000000000000000000000000000000000000 DUP2 MSTORE PUSH1 0x4 ADD PUSH2 0x1F35 SWAP2 SWAP1 PUSH2 0x21DA JUMP JUMPDEST PUSH1 0x40 MLOAD DUP1 SWAP2 SUB SWAP1 REVERT JUMPDEST JUMP JUMPDEST PUSH0 PUSH1 0x1 PUSH0 SWAP1 SLOAD SWAP1 PUSH2 0x100 EXP SWAP1 DIV PUSH20 0xFFFFFFFFFFFFFFFFFFFFFFFFFFFFFFFFFFFFFFFF AND SWAP1 POP DUP2 PUSH1 0x1 PUSH0 PUSH2 0x100 EXP DUP2 SLOAD DUP2 PUSH20 0xFFFFFFFFFFFFFFFFFFFFFFFFFFFFFFFFFFFFFFFF MUL NOT AND SWAP1 DUP4 PUSH20 0xFFFFFFFFFFFFFFFFFFFFFFFFFFFFFFFFFFFFFFFF AND MUL OR SWAP1 SSTORE POP DUP2 PUSH20 0xFFFFFFFFFFFFFFFFFFFFFFFFFFFFFFFFFFFFFFFF AND DUP2 PUSH20 0xFFFFFFFFFFFFFFFFFFFFFFFFFFFFFFFFFFFFFFFF AND PUSH32 0x8BE0079C531659141344CD1FD0A4F28419497F9722A3DAAFE3B4186F6B6457E0 PUSH1 0x40 MLOAD PUSH1 0x40 MLOAD DUP1 SWAP2 SUB SWAP1 LOG3 POP POP JUMP JUMPDEST PUSH0 CALLER SWAP1 POP SWAP1 JUMP JUMPDEST PUSH0 DUP1 REVERT JUMPDEST PUSH0 PUSH20 0xFFFFFFFFFFFFFFFFFFFFFFFFFFFFFFFFFFFFFFFF DUP3 AND SWAP1 POP SWAP2 SWAP1 POP JUMP JUMPDEST PUSH0 PUSH2 0x2037 DUP3 PUSH2 0x200E JUMP JUMPDEST SWAP1 POP SWAP2 SWAP1 POP JUMP JUMPDEST PUSH2 0x2047 DUP2 PUSH2 0x202D JUMP JUMPDEST DUP2 EQ PUSH2 0x2051 JUMPI PUSH0 DUP1 REVERT JUMPDEST POP JUMP JUMPDEST PUSH0 DUP2 CALLDATALOAD SWAP1 POP PUSH2 0x2062 DUP2 PUSH2 0x203E JUMP JUMPDEST SWAP3 SWAP2 POP POP JUMP JUMPDEST PUSH0 PUSH1 0x20 DUP3 DUP5 SUB SLT ISZERO PUSH2 0x207D JUMPI PUSH2 0x207C PUSH2 0x200A JUMP JUMPDEST JUMPDEST PUSH0 PUSH2 0x208A DUP5 DUP3 DUP6 ADD PUSH2 0x2054 JUMP JUMPDEST SWAP2 POP POP SWAP3 SWAP2 POP POP JUMP JUMPDEST PUSH0 DUP2 SWAP1 POP SWAP2 SWAP1 POP JUMP JUMPDEST PUSH2 0x20A5 DUP2 PUSH2 0x2093 JUMP JUMPDEST DUP3 MSTORE POP POP JUMP JUMPDEST PUSH0 PUSH1 0x20 DUP3 ADD SWAP1 POP PUSH2 0x20BE PUSH0 DUP4 ADD DUP5 PUSH2 0x209C JUMP JUMPDEST SWAP3 SWAP2 POP POP JUMP JUMPDEST PUSH0 DUP2 SWAP1 POP SWAP2 SWAP1 POP JUMP JUMPDEST PUSH0 PUSH2 0x20E7 PUSH2 0x20E2 PUSH2 0x20DD DUP5 PUSH2 0x200E JUMP JUMPDEST PUSH2 0x20C4 JUMP JUMPDEST PUSH2 0x200E JUMP JUMPDEST SWAP1 POP SWAP2 SWAP1 POP JUMP JUMPDEST PUSH0 PUSH2 0x20F8 DUP3 PUSH2 0x20CD JUMP JUMPDEST SWAP1 POP SWAP2 SWAP1 POP JUMP JUMPDEST PUSH0 PUSH2 0x2109 DUP3 PUSH2 0x20EE JUMP JUMPDEST SWAP1 POP SWAP2 SWAP1 POP JUMP JUMPDEST PUSH2 0x2119 DUP2 PUSH2 0x20FF JUMP JUMPDEST DUP3 MSTORE POP POP JUMP JUMPDEST PUSH0 PUSH1 0x20 DUP3 ADD SWAP1 POP PUSH2 0x2132 PUSH0 DUP4 ADD DUP5 PUSH2 0x2110 JUMP JUMPDEST SWAP3 SWAP2 POP POP JUMP JUMPDEST PUSH2 0x2141 DUP2 PUSH2 0x2093 JUMP JUMPDEST DUP2 EQ PUSH2 0x214B JUMPI PUSH0 DUP1 REVERT JUMPDEST POP JUMP JUMPDEST PUSH0 DUP2 CALLDATALOAD SWAP1 POP PUSH2 0x215C DUP2 PUSH2 0x2138 JUMP JUMPDEST SWAP3 SWAP2 POP POP JUMP JUMPDEST PUSH0 DUP1 PUSH1 0x40 DUP4 DUP6 SUB SLT ISZERO PUSH2 0x2178 JUMPI PUSH2 0x2177 PUSH2 0x200A JUMP JUMPDEST JUMPDEST PUSH0 PUSH2 0x2185 DUP6 DUP3 DUP7 ADD PUSH2 0x2054 JUMP JUMPDEST SWAP3 POP POP PUSH1 0x20 PUSH2 0x2196 DUP6 DUP3 DUP7 ADD PUSH2 0x214E JUMP JUMPDEST SWAP2 POP POP SWAP3 POP SWAP3 SWAP1 POP JUMP JUMPDEST PUSH0 PUSH1 0x20 DUP3 DUP5 SUB SLT ISZERO PUSH2 0x21B5 JUMPI PUSH2 0x21B4 PUSH2 0x200A JUMP JUMPDEST JUMPDEST PUSH0 PUSH2 0x21C2 DUP5 DUP3 DUP6 ADD PUSH2 0x214E JUMP JUMPDEST SWAP2 POP POP SWAP3 SWAP2 POP POP JUMP JUMPDEST PUSH2 0x21D4 DUP2 PUSH2 0x202D JUMP JUMPDEST DUP3 MSTORE POP POP JUMP JUMPDEST PUSH0 PUSH1 0x20 DUP3 ADD SWAP1 POP PUSH2 0x21ED PUSH0 DUP4 ADD DUP5 PUSH2 0x21CB JUMP JUMPDEST SWAP3 SWAP2 POP POP JUMP JUMPDEST PUSH0 DUP2 ISZERO ISZERO SWAP1 POP SWAP2 SWAP1 POP JUMP JUMPDEST PUSH2 0x2207 DUP2 PUSH2 0x21F3 JUMP JUMPDEST DUP3 MSTORE POP POP JUMP JUMPDEST PUSH0 PUSH1 0xA0 DUP3 ADD SWAP1 POP PUSH2 0x2220 PUSH0 DUP4 ADD DUP9 PUSH2 0x209C JUMP JUMPDEST PUSH2 0x222D PUSH1 0x20 DUP4 ADD DUP8 PUSH2 0x209C JUMP JUMPDEST PUSH2 0x223A PUSH1 0x40 DUP4 ADD DUP7 PUSH2 0x209C JUMP JUMPDEST PUSH2 0x2247 PUSH1 0x60 DUP4 ADD DUP6 PUSH2 0x209C JUMP JUMPDEST PUSH2 0x2254 PUSH1 0x80 DUP4 ADD DUP5 PUSH2 0x21FE JUMP JUMPDEST SWAP7 SWAP6 POP POP POP POP POP POP JUMP JUMPDEST PUSH32 0x4E487B7100000000000000000000000000000000000000000000000000000000 PUSH0 MSTORE PUSH1 0x11 PUSH1 0x4 MSTORE PUSH1 0x24 PUSH0 REVERT JUMPDEST PUSH0 PUSH2 0x2295 DUP3 PUSH2 0x2093 JUMP JUMPDEST SWAP2 POP PUSH2 0x22A0 DUP4 PUSH2 0x2093 JUMP JUMPDEST SWAP3 POP DUP3 DUP3 SUB SWAP1 POP DUP2 DUP2 GT ISZERO PUSH2 0x22B8 JUMPI PUSH2 0x22B7 PUSH2 0x225E JUMP JUMPDEST JUMPDEST SWAP3 SWAP2 POP POP JUMP JUMPDEST PUSH0 PUSH2 0x22C8 DUP3 PUSH2 0x2093 JUMP JUMPDEST SWAP2 POP PUSH2 0x22D3 DUP4 PUSH2 0x2093 JUMP JUMPDEST SWAP3 POP DUP3 DUP3 MUL PUSH2 0x22E1 DUP2 PUSH2 0x2093 JUMP JUMPDEST SWAP2 POP DUP3 DUP3 DIV DUP5 EQ DUP4 ISZERO OR PUSH2 0x22F8 JUMPI PUSH2 0x22F7 PUSH2 0x225E JUMP JUMPDEST JUMPDEST POP SWAP3 SWAP2 POP POP JUMP JUMPDEST PUSH32 0x4E487B7100000000000000000000000000000000000000000000000000000000 PUSH0 MSTORE PUSH1 0x12 PUSH1 0x4 MSTORE PUSH1 0x24 PUSH0 REVERT JUMPDEST PUSH0 PUSH2 0x2336 DUP3 PUSH2 0x2093 JUMP JUMPDEST SWAP2 POP PUSH2 0x2341 DUP4 PUSH2 0x2093 JUMP JUMPDEST SWAP3 POP DUP3 PUSH2 0x2351 JUMPI PUSH2 0x2350 PUSH2 0x22FF JUMP JUMPDEST JUMPDEST DUP3 DUP3 DIV SWAP1 POP SWAP3 SWAP2 POP POP JUMP JUMPDEST PUSH0 PUSH2 0x2366 DUP3 PUSH2 0x2093 JUMP JUMPDEST SWAP2 POP PUSH2 0x2371 DUP4 PUSH2 0x2093 JUMP JUMPDEST SWAP3 POP DUP3 DUP3 ADD SWAP1 POP DUP1 DUP3 GT ISZERO PUSH2 0x2389 JUMPI PUSH2 0x2388 PUSH2 0x225E JUMP JUMPDEST JUMPDEST SWAP3 SWAP2 POP POP JUMP JUMPDEST PUSH0 DUP3 DUP3 MSTORE PUSH1 0x20 DUP3 ADD SWAP1 POP SWAP3 SWAP2 POP POP JUMP JUMPDEST PUSH32 0x4E6F20746F6B656E73207374616B656400000000000000000000000000000000 PUSH0 DUP3 ADD MSTORE POP JUMP JUMPDEST PUSH0 PUSH2 0x23D3 PUSH1 0x10 DUP4 PUSH2 0x238F JUMP JUMPDEST SWAP2 POP PUSH2 0x23DE DUP3 PUSH2 0x239F JUMP JUMPDEST PUSH1 0x20 DUP3 ADD SWAP1 POP SWAP2 SWAP1 POP JUMP JUMPDEST PUSH0 PUSH1 0x20 DUP3 ADD SWAP1 POP DUP2 DUP2 SUB PUSH0 DUP4 ADD MSTORE PUSH2 0x2400 DUP2 PUSH2 0x23C7 JUMP JUMPDEST SWAP1 POP SWAP2 SWAP1 POP JUMP JUMPDEST PUSH32 0x556E7374616B6520616C726561647920696E6974696174656400000000000000 PUSH0 DUP3 ADD MSTORE POP JUMP JUMPDEST PUSH0 PUSH2 0x243B PUSH1 0x19 DUP4 PUSH2 0x238F JUMP JUMPDEST SWAP2 POP PUSH2 0x2446 DUP3 PUSH2 0x2407 JUMP JUMPDEST PUSH1 0x20 DUP3 ADD SWAP1 POP SWAP2 SWAP1 POP JUMP JUMPDEST PUSH0 PUSH1 0x20 DUP3 ADD SWAP1 POP DUP2 DUP2 SUB PUSH0 DUP4 ADD MSTORE PUSH2 0x2468 DUP2 PUSH2 0x242F JUMP JUMPDEST SWAP1 POP SWAP2 SWAP1 POP JUMP JUMPDEST PUSH32 0x416D6F756E74206D7573742062652067726561746572207468616E207A65726F PUSH0 DUP3 ADD MSTORE POP JUMP JUMPDEST PUSH0 PUSH2 0x24A3 PUSH1 0x20 DUP4 PUSH2 0x238F JUMP JUMPDEST SWAP2 POP PUSH2 0x24AE DUP3 PUSH2 0x246F JUMP JUMPDEST PUSH1 0x20 DUP3 ADD SWAP1 POP SWAP2 SWAP1 POP JUMP JUMPDEST PUSH0 PUSH1 0x20 DUP3 ADD SWAP1 POP DUP2 DUP2 SUB PUSH0 DUP4 ADD MSTORE PUSH2 0x24D0 DUP2 PUSH2 0x2497 JUMP JUMPDEST SWAP1 POP SWAP2 SWAP1 POP JUMP JUMPDEST PUSH0 DUP2 MLOAD SWAP1 POP PUSH2 0x24E5 DUP2 PUSH2 0x2138 JUMP JUMPDEST SWAP3 SWAP2 POP POP JUMP JUMPDEST PUSH0 PUSH1 0x20 DUP3 DUP5 SUB SLT ISZERO PUSH2 0x2500 JUMPI PUSH2 0x24FF PUSH2 0x200A JUMP JUMPDEST JUMPDEST PUSH0 PUSH2 0x250D DUP5 DUP3 DUP6 ADD PUSH2 0x24D7 JUMP JUMPDEST SWAP2 POP POP SWAP3 SWAP2 POP POP JUMP JUMPDEST PUSH32 0x496E73756666696369656E7420746F6B656E2062616C616E636520696E20636F PUSH0 DUP3 ADD MSTORE PUSH32 0x6E74726163740000000000000000000000000000000000000000000000000000 PUSH1 0x20 DUP3 ADD MSTORE POP JUMP JUMPDEST PUSH0 PUSH2 0x2570 PUSH1 0x26 DUP4 PUSH2 0x238F JUMP JUMPDEST SWAP2 POP PUSH2 0x257B DUP3 PUSH2 0x2516 JUMP JUMPDEST PUSH1 0x40 DUP3 ADD SWAP1 POP SWAP2 SWAP1 POP JUMP JUMPDEST PUSH0 PUSH1 0x20 DUP3 ADD SWAP1 POP DUP2 DUP2 SUB PUSH0 DUP4 ADD MSTORE PUSH2 0x259D DUP2 PUSH2 0x2564 JUMP JUMPDEST SWAP1 POP SWAP2 SWAP1 POP JUMP JUMPDEST PUSH0 PUSH1 0x40 DUP3 ADD SWAP1 POP PUSH2 0x25B7 PUSH0 DUP4 ADD DUP6 PUSH2 0x21CB JUMP JUMPDEST PUSH2 0x25C4 PUSH1 0x20 DUP4 ADD DUP5 PUSH2 0x209C JUMP JUMPDEST SWAP4 SWAP3 POP POP POP JUMP JUMPDEST PUSH2 0x25D4 DUP2 PUSH2 0x21F3 JUMP JUMPDEST DUP2 EQ PUSH2 0x25DE JUMPI PUSH0 DUP1 REVERT JUMPDEST POP JUMP JUMPDEST PUSH0 DUP2 MLOAD SWAP1 POP PUSH2 0x25EF DUP2 PUSH2 0x25CB JUMP JUMPDEST SWAP3 SWAP2 POP POP JUMP JUMPDEST PUSH0 PUSH1 0x20 DUP3 DUP5 SUB SLT ISZERO PUSH2 0x260A JUMPI PUSH2 0x2609 PUSH2 0x200A JUMP JUMPDEST JUMPDEST PUSH0 PUSH2 0x2617 DUP5 DUP3 DUP6 ADD PUSH2 0x25E1 JUMP JUMPDEST SWAP2 POP POP SWAP3 SWAP2 POP POP JUMP JUMPDEST PUSH32 0x546F6B656E207472616E73666572206661696C65640000000000000000000000 PUSH0 DUP3 ADD MSTORE POP JUMP JUMPDEST PUSH0 PUSH2 0x2654 PUSH1 0x15 DUP4 PUSH2 0x238F JUMP JUMPDEST SWAP2 POP PUSH2 0x265F DUP3 PUSH2 0x2620 JUMP JUMPDEST PUSH1 0x20 DUP3 ADD SWAP1 POP SWAP2 SWAP1 POP JUMP JUMPDEST PUSH0 PUSH1 0x20 DUP3 ADD SWAP1 POP DUP2 DUP2 SUB PUSH0 DUP4 ADD MSTORE PUSH2 0x2681 DUP2 PUSH2 0x2648 JUMP JUMPDEST SWAP1 POP SWAP2 SWAP1 POP JUMP JUMPDEST PUSH32 0x556E7374616B652066656520657863656564732032252C206D6178696D756D20 PUSH0 DUP3 ADD MSTORE PUSH32 0x616C6C6F77656400000000000000000000000000000000000000000000000000 PUSH1 0x20 DUP3 ADD MSTORE POP JUMP JUMPDEST PUSH0 PUSH2 0x26E2 PUSH1 0x27 DUP4 PUSH2 0x238F JUMP JUMPDEST SWAP2 POP PUSH2 0x26ED DUP3 PUSH2 0x2688 JUMP JUMPDEST PUSH1 0x40 DUP3 ADD SWAP1 POP SWAP2 SWAP1 POP JUMP JUMPDEST PUSH0 PUSH1 0x20 DUP3 ADD SWAP1 POP DUP2 DUP2 SUB PUSH0 DUP4 ADD MSTORE PUSH2 0x270F DUP2 PUSH2 0x26D6 JUMP JUMPDEST SWAP1 POP SWAP2 SWAP1 POP JUMP JUMPDEST PUSH32 0x416D6F756E742065786365656473206163637275656420666565730000000000 PUSH0 DUP3 ADD MSTORE POP JUMP JUMPDEST PUSH0 PUSH2 0x274A PUSH1 0x1B DUP4 PUSH2 0x238F JUMP JUMPDEST SWAP2 POP PUSH2 0x2755 DUP3 PUSH2 0x2716 JUMP JUMPDEST PUSH1 0x20 DUP3 ADD SWAP1 POP SWAP2 SWAP1 POP JUMP JUMPDEST PUSH0 PUSH1 0x20 DUP3 ADD SWAP1 POP DUP2 DUP2 SUB PUSH0 DUP4 ADD MSTORE PUSH2 0x2777 DUP2 PUSH2 0x273E JUMP JUMPDEST SWAP1 POP SWAP2 SWAP1 POP JUMP JUMPDEST PUSH32 0x466565207769746864726177616C206661696C65640000000000000000000000 PUSH0 DUP3 ADD MSTORE POP JUMP JUMPDEST PUSH0 PUSH2 0x27B2 PUSH1 0x15 DUP4 PUSH2 0x238F JUMP JUMPDEST SWAP2 POP PUSH2 0x27BD DUP3 PUSH2 0x277E JUMP JUMPDEST PUSH1 0x20 DUP3 ADD SWAP1 POP SWAP2 SWAP1 POP JUMP JUMPDEST PUSH0 PUSH1 0x20 DUP3 ADD SWAP1 POP DUP2 DUP2 SUB PUSH0 DUP4 ADD MSTORE PUSH2 0x27DF DUP2 PUSH2 0x27A6 JUMP JUMPDEST SWAP1 POP SWAP2 SWAP1 POP JUMP JUMPDEST PUSH32 0x556E7374616B65206E6F7420696E697469617465640000000000000000000000 PUSH0 DUP3 ADD MSTORE POP JUMP JUMPDEST PUSH0 PUSH2 0x281A PUSH1 0x15 DUP4 PUSH2 0x238F JUMP JUMPDEST SWAP2 POP PUSH2 0x2825 DUP3 PUSH2 0x27E6 JUMP JUMPDEST PUSH1 0x20 DUP3 ADD SWAP1 POP SWAP2 SWAP1 POP JUMP JUMPDEST PUSH0 PUSH1 0x20 DUP3 ADD SWAP1 POP DUP2 DUP2 SUB PUSH0 DUP4 ADD MSTORE PUSH2 0x2847 DUP2 PUSH2 0x280E JUMP JUMPDEST SWAP1 POP SWAP2 SWAP1 POP JUMP JUMPDEST PUSH32 0x54696D656C6F636B206E6F742079657420706173736564000000000000000000 PUSH0 DUP3 ADD MSTORE POP JUMP JUMPDEST PUSH0 PUSH2 0x2882 PUSH1 0x17 DUP4 PUSH2 0x238F JUMP JUMPDEST SWAP2 POP PUSH2 0x288D DUP3 PUSH2 0x284E JUMP JUMPDEST PUSH1 0x20 DUP3 ADD SWAP1 POP SWAP2 SWAP1 POP JUMP JUMPDEST PUSH0 PUSH1 0x20 DUP3 ADD SWAP1 POP DUP2 DUP2 SUB PUSH0 DUP4 ADD MSTORE PUSH2 0x28AF DUP2 PUSH2 0x2876 JUMP JUMPDEST SWAP1 POP SWAP2 SWAP1 POP JUMP JUMPDEST PUSH32 0x5472616E73666572206661696C65640000000000000000000000000000000000 PUSH0 DUP3 ADD MSTORE POP JUMP JUMPDEST PUSH0 PUSH2 0x28EA PUSH1 0xF DUP4 PUSH2 0x238F JUMP JUMPDEST SWAP2 POP PUSH2 0x28F5 DUP3 PUSH2 0x28B6 JUMP JUMPDEST PUSH1 0x20 DUP3 ADD SWAP1 POP SWAP2 SWAP1 POP JUMP JUMPDEST PUSH0 PUSH1 0x20 DUP3 ADD SWAP1 POP DUP2 DUP2 SUB PUSH0 DUP4 ADD MSTORE PUSH2 0x2917 DUP2 PUSH2 0x28DE JUMP JUMPDEST SWAP1 POP SWAP2 SWAP1 POP JUMP JUMPDEST PUSH32 0x556E7374616B65207472616E73666572206661696C6564000000000000000000 PUSH0 DUP3 ADD MSTORE POP JUMP JUMPDEST PUSH0 PUSH2 0x2952 PUSH1 0x17 DUP4 PUSH2 0x238F JUMP JUMPDEST SWAP2 POP PUSH2 0x295D DUP3 PUSH2 0x291E JUMP JUMPDEST PUSH1 0x20 DUP3 ADD SWAP1 POP SWAP2 SWAP1 POP JUMP JUMPDEST PUSH0 PUSH1 0x20 DUP3 ADD SWAP1 POP DUP2 DUP2 SUB PUSH0 DUP4 ADD MSTORE PUSH2 0x297F DUP2 PUSH2 0x2946 JUMP JUMPDEST SWAP1 POP SWAP2 SWAP1 POP JUMP JUMPDEST PUSH32 0x43616E6E6F74207374616B652030000000000000000000000000000000000000 PUSH0 DUP3 ADD MSTORE POP JUMP JUMPDEST PUSH0 PUSH2 0x29BA PUSH1 0xE DUP4 PUSH2 0x238F JUMP JUMPDEST SWAP2 POP PUSH2 0x29C5 DUP3 PUSH2 0x2986 JUMP JUMPDEST PUSH1 0x20 DUP3 ADD SWAP1 POP SWAP2 SWAP1 POP JUMP JUMPDEST PUSH0 PUSH1 0x20 DUP3 ADD SWAP1 POP DUP2 DUP2 SUB PUSH0 DUP4 ADD MSTORE PUSH2 0x29E7 DUP2 PUSH2 0x29AE JUMP JUMPDEST SWAP1 POP SWAP2 SWAP1 POP JUMP JUMPDEST PUSH32 0x43616E6E6F74207374616B6520616674657220696E6974696174696E6720756E PUSH0 DUP3 ADD MSTORE PUSH32 0x7374616B652E0000000000000000000000000000000000000000000000000000 PUSH1 0x20 DUP3 ADD MSTORE POP JUMP JUMPDEST PUSH0 PUSH2 0x2A48 PUSH1 0x26 DUP4 PUSH2 0x238F JUMP JUMPDEST SWAP2 POP PUSH2 0x2A53 DUP3 PUSH2 0x29EE JUMP JUMPDEST PUSH1 0x40 DUP3 ADD SWAP1 POP SWAP2 SWAP1 POP JUMP JUMPDEST PUSH0 PUSH1 0x20 DUP3 ADD SWAP1 POP DUP2 DUP2 SUB PUSH0 DUP4 ADD MSTORE PUSH2 0x2A75 DUP2 PUSH2 0x2A3C JUMP JUMPDEST SWAP1 POP SWAP2 SWAP1 POP JUMP JUMPDEST PUSH0 PUSH1 0x60 DUP3 ADD SWAP1 POP PUSH2 0x2A8F PUSH0 DUP4 ADD DUP7 PUSH2 0x21CB JUMP JUMPDEST PUSH2 0x2A9C PUSH1 0x20 DUP4 ADD DUP6 PUSH2 0x21CB JUMP JUMPDEST PUSH2 0x2AA9 PUSH1 0x40 DUP4 ADD DUP5 PUSH2 0x209C JUMP JUMPDEST SWAP5 SWAP4 POP POP POP POP JUMP JUMPDEST PUSH32 0x546F6B656E206465706F736974206661696C6564000000000000000000000000 PUSH0 DUP3 ADD MSTORE POP JUMP JUMPDEST PUSH0 PUSH2 0x2AE5 PUSH1 0x14 DUP4 PUSH2 0x238F JUMP JUMPDEST SWAP2 POP PUSH2 0x2AF0 DUP3 PUSH2 0x2AB1 JUMP JUMPDEST PUSH1 0x20 DUP3 ADD SWAP1 POP SWAP2 SWAP1 POP JUMP JUMPDEST PUSH0 PUSH1 0x20 DUP3 ADD SWAP1 POP DUP2 DUP2 SUB PUSH0 DUP4 ADD MSTORE PUSH2 0x2B12 DUP2 PUSH2 0x2AD9 JUMP JUMPDEST SWAP1 POP SWAP2 SWAP1 POP JUMP JUMPDEST PUSH32 0x54696D65206C6F636B206D757374206265206265747765656E203020746F2031 PUSH0 DUP3 ADD MSTORE PUSH32 0x3520646179730000000000000000000000000000000000000000000000000000 PUSH1 0x20 DUP3 ADD MSTORE POP JUMP JUMPDEST PUSH0 PUSH2 0x2B73 PUSH1 0x26 DUP4 PUSH2 0x238F JUMP JUMPDEST SWAP2 POP PUSH2 0x2B7E DUP3 PUSH2 0x2B19 JUMP JUMPDEST PUSH1 0x40 DUP3 ADD SWAP1 POP SWAP2 SWAP1 POP JUMP JUMPDEST PUSH0 PUSH1 0x20 DUP3 ADD SWAP1 POP DUP2 DUP2 SUB PUSH0 DUP4 ADD MSTORE PUSH2 0x2BA0 DUP2 PUSH2 0x2B67 JUMP JUMPDEST SWAP1 POP SWAP2 SWAP1 POP JUMP JUMPDEST PUSH32 0x4E6F207265776172647320746F20636C61696D00000000000000000000000000 PUSH0 DUP3 ADD MSTORE POP JUMP JUMPDEST PUSH0 PUSH2 0x2BDB PUSH1 0x13 DUP4 PUSH2 0x238F JUMP JUMPDEST SWAP2 POP PUSH2 0x2BE6 DUP3 PUSH2 0x2BA7 JUMP JUMPDEST PUSH1 0x20 DUP3 ADD SWAP1 POP SWAP2 SWAP1 POP JUMP JUMPDEST PUSH0 PUSH1 0x20 DUP3 ADD SWAP1 POP DUP2 DUP2 SUB PUSH0 DUP4 ADD MSTORE PUSH2 0x2C08 DUP2 PUSH2 0x2BCF JUMP JUMPDEST SWAP1 POP SWAP2 SWAP1 POP JUMP JUMPDEST PUSH32 0x526577617264207472616E73666572206661696C656400000000000000000000 PUSH0 DUP3 ADD MSTORE POP JUMP JUMPDEST PUSH0 PUSH2 0x2C43 PUSH1 0x16 DUP4 PUSH2 0x238F JUMP JUMPDEST SWAP2 POP PUSH2 0x2C4E DUP3 PUSH2 0x2C0F JUMP JUMPDEST PUSH1 0x20 DUP3 ADD SWAP1 POP SWAP2 SWAP1 POP JUMP JUMPDEST PUSH0 PUSH1 0x20 DUP3 ADD SWAP1 POP DUP2 DUP2 SUB PUSH0 DUP4 ADD MSTORE PUSH2 0x2C70 DUP2 PUSH2 0x2C37 JUMP JUMPDEST SWAP1 POP SWAP2 SWAP1 POP JUMP INVALID LOG2 PUSH5 0x6970667358 0x22 SLT KECCAK256 0xD7 DUP11 0x1F AND CODESIZE EXTCODEHASH 0xE9 CALLVALUE AND ADDRESS 0xD6 SELFDESTRUCT SDIV PUSH25 0x4F8E32960DEB14832607316873595CFBAE1F64736F6C634300 ADDMOD AND STOP CALLER "
				},
				"gasEstimates": {
					"creation": {
						"codeDepositCost": "2287400",
						"executionCost": "infinite",
						"totalCost": "infinite"
					},
					"external": {
						"basicToken()": "infinite",
						"claimReward()": "infinite",
						"completeUnstake()": "infinite",
						"earned(address)": "infinite",
						"emissionEnd()": "2493",
						"emissionStart()": "2493",
						"feesAccrued()": "2492",
						"getRemainingUnstakeTime(address)": "infinite",
						"initiateUnstake()": "infinite",
						"lastApplicableTime()": "4611",
						"lastUpdateTime()": "2469",
						"owner()": "2605",
						"renounceOwnership()": "infinite",
						"retrieveLockedTokens(address,uint256)": "infinite",
						"rewardPerToken()": "infinite",
						"rewardPerTokenStored()": "2513",
						"rewardRate()": "2536",
						"setEmissionDetails(uint256)": "infinite",
						"setUnstakeFeePercent(uint256)": "infinite",
						"setUnstakeTimeLock(uint256)": "infinite",
						"stake(uint256)": "infinite",
						"stakers(address)": "infinite",
						"totalStaked()": "2471",
						"totalStakedAccruingRewards()": "2494",
						"transferOwnership(address)": "infinite",
						"unstakeFeePercent()": "2493",
						"unstakeTimeLock()": "2515",
						"withdrawFees(uint256)": "infinite"
					}
				},
				"methodIdentifiers": {
					"basicToken()": "190b8dc5",
					"claimReward()": "b88a802f",
					"completeUnstake()": "63803b23",
					"earned(address)": "008cc262",
					"emissionEnd()": "8368909c",
					"emissionStart()": "513da948",
					"feesAccrued()": "94db0595",
					"getRemainingUnstakeTime(address)": "b9d1a32b",
					"initiateUnstake()": "33080a12",
					"lastApplicableTime()": "23fac263",
					"lastUpdateTime()": "c8f33c91",
					"owner()": "8da5cb5b",
					"renounceOwnership()": "715018a6",
					"retrieveLockedTokens(address,uint256)": "3a851f02",
					"rewardPerToken()": "cd3daf9d",
					"rewardPerTokenStored()": "df136d65",
					"rewardRate()": "7b0a47ee",
					"setEmissionDetails(uint256)": "b293e8d2",
					"setUnstakeFeePercent(uint256)": "5212cca8",
					"setUnstakeTimeLock(uint256)": "a7dc23c0",
					"stake(uint256)": "a694fc3a",
					"stakers(address)": "9168ae72",
					"totalStaked()": "817b1cd2",
					"totalStakedAccruingRewards()": "0976769d",
					"transferOwnership(address)": "f2fde38b",
					"unstakeFeePercent()": "2bce9f85",
					"unstakeTimeLock()": "2c1dcecf",
					"withdrawFees(uint256)": "5e318e07"
				}
			},
			"storageLayout": {
				"storage": [
					{
						"astId": 266,
						"contract": "src/StakingContract.sol:StakingContract",
						"label": "_status",
						"offset": 0,
						"slot": "0",
						"type": "t_uint256"
					},
					{
						"astId": 8,
						"contract": "src/StakingContract.sol:StakingContract",
						"label": "_owner",
						"offset": 0,
						"slot": "1",
						"type": "t_address"
					},
					{
						"astId": 336,
						"contract": "src/StakingContract.sol:StakingContract",
						"label": "basicToken",
						"offset": 0,
						"slot": "2",
						"type": "t_contract(IERC20)225"
					},
					{
						"astId": 338,
						"contract": "src/StakingContract.sol:StakingContract",
						"label": "totalStaked",
						"offset": 0,
						"slot": "3",
						"type": "t_uint256"
					},
					{
						"astId": 340,
						"contract": "src/StakingContract.sol:StakingContract",
						"label": "totalStakedAccruingRewards",
						"offset": 0,
						"slot": "4",
						"type": "t_uint256"
					},
					{
						"astId": 342,
						"contract": "src/StakingContract.sol:StakingContract",
						"label": "rewardRate",
						"offset": 0,
						"slot": "5",
						"type": "t_uint256"
					},
					{
						"astId": 344,
						"contract": "src/StakingContract.sol:StakingContract",
						"label": "lastUpdateTime",
						"offset": 0,
						"slot": "6",
						"type": "t_uint256"
					},
					{
						"astId": 346,
						"contract": "src/StakingContract.sol:StakingContract",
						"label": "rewardPerTokenStored",
						"offset": 0,
						"slot": "7",
						"type": "t_uint256"
					},
					{
						"astId": 349,
						"contract": "src/StakingContract.sol:StakingContract",
						"label": "unstakeTimeLock",
						"offset": 0,
						"slot": "8",
						"type": "t_uint256"
					},
					{
						"astId": 352,
						"contract": "src/StakingContract.sol:StakingContract",
						"label": "unstakeFeePercent",
						"offset": 0,
						"slot": "9",
						"type": "t_uint256"
					},
					{
						"astId": 354,
						"contract": "src/StakingContract.sol:StakingContract",
						"label": "emissionStart",
						"offset": 0,
						"slot": "10",
						"type": "t_uint256"
					},
					{
						"astId": 356,
						"contract": "src/StakingContract.sol:StakingContract",
						"label": "emissionEnd",
						"offset": 0,
						"slot": "11",
						"type": "t_uint256"
					},
					{
						"astId": 358,
						"contract": "src/StakingContract.sol:StakingContract",
						"label": "feesAccrued",
						"offset": 0,
						"slot": "12",
						"type": "t_uint256"
					},
					{
						"astId": 374,
						"contract": "src/StakingContract.sol:StakingContract",
						"label": "stakers",
						"offset": 0,
						"slot": "13",
						"type": "t_mapping(t_address,t_struct(Staker)369_storage)"
					}
				],
				"types": {
					"t_address": {
						"encoding": "inplace",
						"label": "address",
						"numberOfBytes": "20"
					},
					"t_bool": {
						"encoding": "inplace",
						"label": "bool",
						"numberOfBytes": "1"
					},
					"t_contract(IERC20)225": {
						"encoding": "inplace",
						"label": "contract IERC20",
						"numberOfBytes": "20"
					},
					"t_mapping(t_address,t_struct(Staker)369_storage)": {
						"encoding": "mapping",
						"key": "t_address",
						"label": "mapping(address => struct StakingContract.Staker)",
						"numberOfBytes": "32",
						"value": "t_struct(Staker)369_storage"
					},
					"t_struct(Staker)369_storage": {
						"encoding": "inplace",
						"label": "struct StakingContract.Staker",
						"members": [
							{
								"astId": 360,
								"contract": "src/StakingContract.sol:StakingContract",
								"label": "amountStaked",
								"offset": 0,
								"slot": "0",
								"type": "t_uint256"
							},
							{
								"astId": 362,
								"contract": "src/StakingContract.sol:StakingContract",
								"label": "rewardDebt",
								"offset": 0,
								"slot": "1",
								"type": "t_uint256"
							},
							{
								"astId": 364,
								"contract": "src/StakingContract.sol:StakingContract",
								"label": "rewards",
								"offset": 0,
								"slot": "2",
								"type": "t_uint256"
							},
							{
								"astId": 366,
								"contract": "src/StakingContract.sol:StakingContract",
								"label": "unstakeInitTime",
								"offset": 0,
								"slot": "3",
								"type": "t_uint256"
							},
							{
								"astId": 368,
								"contract": "src/StakingContract.sol:StakingContract",
								"label": "claimedAfterUnstake",
								"offset": 0,
								"slot": "4",
								"type": "t_bool"
							}
						],
						"numberOfBytes": "160"
					},
					"t_uint256": {
						"encoding": "inplace",
						"label": "uint256",
						"numberOfBytes": "32"
					}
				}
			},
			"userdoc": {
				"kind": "user",
				"methods": {},
				"version": 1
			}
		}
	}
}